{
	"contracts/axelar.sol": {
		"yieldSeeker": {
			"abi": [
				{
					"inputs": [
						{
							"internalType": "address",
							"name": "gateway_",
							"type": "address"
						},
						{
							"internalType": "address",
							"name": "gasReceiver_",
							"type": "address"
						}
					],
					"stateMutability": "nonpayable",
					"type": "constructor"
				},
				{
					"inputs": [],
					"name": "InvalidAddress",
					"type": "error"
				},
				{
					"inputs": [],
					"name": "NotApprovedByGateway",
					"type": "error"
				},
				{
					"inputs": [
						{
							"internalType": "bytes32",
							"name": "commandId",
							"type": "bytes32"
						},
						{
							"internalType": "string",
							"name": "sourceChain",
							"type": "string"
						},
						{
							"internalType": "string",
							"name": "sourceAddress",
							"type": "string"
						},
						{
							"internalType": "bytes",
							"name": "payload",
							"type": "bytes"
						}
					],
					"name": "execute",
					"outputs": [],
					"stateMutability": "nonpayable",
					"type": "function"
				},
				{
					"inputs": [
						{
							"internalType": "bytes32",
							"name": "commandId",
							"type": "bytes32"
						},
						{
							"internalType": "string",
							"name": "sourceChain",
							"type": "string"
						},
						{
							"internalType": "string",
							"name": "sourceAddress",
							"type": "string"
						},
						{
							"internalType": "bytes",
							"name": "payload",
							"type": "bytes"
						},
						{
							"internalType": "string",
							"name": "tokenSymbol",
							"type": "string"
						},
						{
							"internalType": "uint256",
							"name": "amount",
							"type": "uint256"
						}
					],
					"name": "executeWithToken",
					"outputs": [],
					"stateMutability": "nonpayable",
					"type": "function"
				},
				{
					"inputs": [],
					"name": "gasService",
					"outputs": [
						{
							"internalType": "contract IAxelarGasService",
							"name": "",
							"type": "address"
						}
					],
					"stateMutability": "view",
					"type": "function"
				},
				{
					"inputs": [],
					"name": "gateway",
					"outputs": [
						{
							"internalType": "contract IAxelarGateway",
							"name": "",
							"type": "address"
						}
					],
					"stateMutability": "view",
					"type": "function"
				},
				{
					"inputs": [
						{
							"internalType": "string",
							"name": "destinationChain",
							"type": "string"
						},
						{
							"internalType": "string",
							"name": "destinationAddress",
							"type": "string"
						},
						{
							"internalType": "string",
							"name": "value_",
							"type": "string"
						}
					],
					"name": "setRemoteValue",
					"outputs": [],
					"stateMutability": "payable",
					"type": "function"
				},
				{
					"inputs": [],
					"name": "sourceAddress",
					"outputs": [
						{
							"internalType": "string",
							"name": "",
							"type": "string"
						}
					],
					"stateMutability": "view",
					"type": "function"
				},
				{
					"inputs": [],
					"name": "sourceChain",
					"outputs": [
						{
							"internalType": "string",
							"name": "",
							"type": "string"
						}
					],
					"stateMutability": "view",
					"type": "function"
				},
				{
					"inputs": [],
					"name": "value",
					"outputs": [
						{
							"internalType": "string",
							"name": "",
							"type": "string"
						}
					],
					"stateMutability": "view",
					"type": "function"
				}
			],
			"devdoc": {
				"kind": "dev",
				"methods": {},
				"version": 1
			},
			"evm": {
				"assembly": "    /* \"contracts/axelar.sol\":508:1875  contract yieldSeeker is AxelarExecutable {... */\n  mstore(0x40, 0xc0)\n    /* \"contracts/axelar.sol\":696:836  constructor(address gateway_, address gasReceiver_) AxelarExecutable(gateway_) {... */\n  callvalue\n  dup1\n  iszero\n  tag_1\n  jumpi\n  0x00\n  dup1\n  revert\ntag_1:\n  pop\n  mload(0x40)\n  sub(codesize, bytecodeSize)\n  dup1\n  bytecodeSize\n  dup4\n  codecopy\n  dup2\n  add\n  0x40\n  dup2\n  swap1\n  mstore\n  tag_2\n  swap2\n  tag_3\n  jump\t// in\ntag_2:\n    /* \"contracts/axelar.sol\":765:773  gateway_ */\n  dup2\n  sub(shl(0xa0, 0x01), 0x01)\n    /* \"@axelar-network/axelar-gmp-sdk-solidity/contracts/executable/AxelarExecutable.sol\":342:364  gateway_ == address(0) */\n  dup2\n  and\n    /* \"@axelar-network/axelar-gmp-sdk-solidity/contracts/executable/AxelarExecutable.sol\":338:389  if (gateway_ == address(0)) revert InvalidAddress() */\n  tag_7\n  jumpi\n    /* \"@axelar-network/axelar-gmp-sdk-solidity/contracts/executable/AxelarExecutable.sol\":373:389  InvalidAddress() */\n  mload(0x40)\n  shl(0xe0, 0xe6c4247b)\n  dup2\n  mstore\n  0x04\n  add\n  mload(0x40)\n  dup1\n  swap2\n  sub\n  swap1\n  revert\n    /* \"@axelar-network/axelar-gmp-sdk-solidity/contracts/executable/AxelarExecutable.sol\":338:389  if (gateway_ == address(0)) revert InvalidAddress() */\ntag_7:\n  sub(shl(0xa0, 0x01), 0x01)\n    /* \"@axelar-network/axelar-gmp-sdk-solidity/contracts/executable/AxelarExecutable.sol\":400:434  gateway = IAxelarGateway(gateway_) */\n  swap1\n  dup2\n  and\n  0x80\n  mstore\n    /* \"contracts/axelar.sol\":785:829  gasService = IAxelarGasService(gasReceiver_) */\n  and\n  0xa0\n  mstore\n  pop\n    /* \"contracts/axelar.sol\":508:1875  contract yieldSeeker is AxelarExecutable {... */\n  jump(tag_11)\n    /* \"#utility.yul\":14:191   */\ntag_10:\n    /* \"#utility.yul\":93:106   */\n  dup1\n  mload\n  sub(shl(0xa0, 0x01), 0x01)\n    /* \"#utility.yul\":135:166   */\n  dup2\n  and\n    /* \"#utility.yul\":125:167   */\n  dup2\n  eq\n    /* \"#utility.yul\":115:185   */\n  tag_13\n  jumpi\n    /* \"#utility.yul\":181:182   */\n  0x00\n    /* \"#utility.yul\":178:179   */\n  dup1\n    /* \"#utility.yul\":171:183   */\n  revert\n    /* \"#utility.yul\":115:185   */\ntag_13:\n    /* \"#utility.yul\":14:191   */\n  swap2\n  swap1\n  pop\n  jump\t// out\n    /* \"#utility.yul\":196:489   */\ntag_3:\n    /* \"#utility.yul\":275:281   */\n  0x00\n    /* \"#utility.yul\":283:289   */\n  dup1\n    /* \"#utility.yul\":336:338   */\n  0x40\n    /* \"#utility.yul\":324:333   */\n  dup4\n    /* \"#utility.yul\":315:322   */\n  dup6\n    /* \"#utility.yul\":311:334   */\n  sub\n    /* \"#utility.yul\":307:339   */\n  slt\n    /* \"#utility.yul\":304:356   */\n  iszero\n  tag_15\n  jumpi\n    /* \"#utility.yul\":352:353   */\n  0x00\n    /* \"#utility.yul\":349:350   */\n  dup1\n    /* \"#utility.yul\":342:354   */\n  revert\n    /* \"#utility.yul\":304:356   */\ntag_15:\n    /* \"#utility.yul\":375:415   */\n  tag_16\n    /* \"#utility.yul\":405:414   */\n  dup4\n    /* \"#utility.yul\":375:415   */\n  tag_10\n  jump\t// in\ntag_16:\n    /* \"#utility.yul\":365:415   */\n  swap2\n  pop\n    /* \"#utility.yul\":434:483   */\n  tag_17\n    /* \"#utility.yul\":479:481   */\n  0x20\n    /* \"#utility.yul\":468:477   */\n  dup5\n    /* \"#utility.yul\":464:482   */\n  add\n    /* \"#utility.yul\":434:483   */\n  tag_10\n  jump\t// in\ntag_17:\n    /* \"#utility.yul\":424:483   */\n  swap1\n  pop\n    /* \"#utility.yul\":196:489   */\n  swap3\n  pop\n  swap3\n  swap1\n  pop\n  jump\t// out\ntag_11:\n    /* \"contracts/axelar.sol\":508:1875  contract yieldSeeker is AxelarExecutable {... */\n  mload(0x80)\n  mload(0xa0)\n  codecopy(0x00, dataOffset(sub_0), dataSize(sub_0))\n  0x00\n  assignImmutable(\"0x665815f06199f799aa9c8465bf48731e4a71da710cd1bae12047781b4c666aed\")\n  0x00\n  assignImmutable(\"0x1a192fabce13988b84994d4296e6cdc418d55e2f1d7f942188d4040b94fc57ac\")\n  return(0x00, dataSize(sub_0))\nstop\n\nsub_0: assembly {\n        /* \"contracts/axelar.sol\":508:1875  contract yieldSeeker is AxelarExecutable {... */\n      mstore(0x40, 0x80)\n      jumpi(tag_1, lt(calldatasize, 0x04))\n      shr(0xe0, calldataload(0x00))\n      dup1\n      0x49160658\n      gt\n      tag_10\n      jumpi\n      dup1\n      0x49160658\n      eq\n      tag_6\n      jumpi\n      dup1\n      0x6a22d8cc\n      eq\n      tag_7\n      jumpi\n      dup1\n      0x80d32697\n      eq\n      tag_8\n      jumpi\n      dup1\n      0xb0fa8444\n      eq\n      tag_9\n      jumpi\n      0x00\n      dup1\n      revert\n    tag_10:\n      dup1\n      0x116191b6\n      eq\n      tag_2\n      jumpi\n      dup1\n      0x1a98b2e0\n      eq\n      tag_3\n      jumpi\n      dup1\n      0x1c6ffa46\n      eq\n      tag_4\n      jumpi\n      dup1\n      0x3fa4f245\n      eq\n      tag_5\n      jumpi\n    tag_1:\n      0x00\n      dup1\n      revert\n        /* \"@axelar-network/axelar-gmp-sdk-solidity/contracts/executable/AxelarExecutable.sol\":252:291  IAxelarGateway public immutable gateway */\n    tag_2:\n      callvalue\n      dup1\n      iszero\n      tag_11\n      jumpi\n      0x00\n      dup1\n      revert\n    tag_11:\n      pop\n      tag_12\n      immutable(\"0x1a192fabce13988b84994d4296e6cdc418d55e2f1d7f942188d4040b94fc57ac\")\n      dup2\n      jump\n    tag_12:\n      mload(0x40)\n      sub(shl(0xa0, 0x01), 0x01)\n        /* \"#utility.yul\":200:232   */\n      swap1\n      swap2\n      and\n        /* \"#utility.yul\":182:233   */\n      dup2\n      mstore\n        /* \"#utility.yul\":170:172   */\n      0x20\n        /* \"#utility.yul\":155:173   */\n      add\n        /* \"@axelar-network/axelar-gmp-sdk-solidity/contracts/executable/AxelarExecutable.sol\":252:291  IAxelarGateway public immutable gateway */\n    tag_14:\n      mload(0x40)\n      dup1\n      swap2\n      sub\n      swap1\n      return\n        /* \"@axelar-network/axelar-gmp-sdk-solidity/contracts/executable/AxelarExecutable.sol\":872:1539  function executeWithToken(... */\n    tag_3:\n      callvalue\n      dup1\n      iszero\n      tag_16\n      jumpi\n      0x00\n      dup1\n      revert\n    tag_16:\n      pop\n      tag_17\n      tag_18\n      calldatasize\n      0x04\n      tag_19\n      jump\t// in\n    tag_18:\n      tag_20\n      jump\t// in\n    tag_17:\n      stop\n        /* \"contracts/axelar.sol\":580:605  string public sourceChain */\n    tag_4:\n      callvalue\n      dup1\n      iszero\n      tag_21\n      jumpi\n      0x00\n      dup1\n      revert\n    tag_21:\n      pop\n      tag_22\n      tag_23\n      jump\t// in\n    tag_22:\n      mload(0x40)\n      tag_14\n      swap2\n      swap1\n      tag_25\n      jump\t// in\n        /* \"contracts/axelar.sol\":555:574  string public value */\n    tag_5:\n      callvalue\n      dup1\n      iszero\n      tag_26\n      jumpi\n      0x00\n      dup1\n      revert\n    tag_26:\n      pop\n      tag_22\n      tag_28\n      jump\t// in\n        /* \"@axelar-network/axelar-gmp-sdk-solidity/contracts/executable/AxelarExecutable.sol\":447:866  function execute(... */\n    tag_6:\n      callvalue\n      dup1\n      iszero\n      tag_30\n      jumpi\n      0x00\n      dup1\n      revert\n    tag_30:\n      pop\n      tag_17\n      tag_32\n      calldatasize\n      0x04\n      tag_33\n      jump\t// in\n    tag_32:\n      tag_34\n      jump\t// in\n        /* \"contracts/axelar.sol\":644:689  IAxelarGasService public immutable gasService */\n    tag_7:\n      callvalue\n      dup1\n      iszero\n      tag_35\n      jumpi\n      0x00\n      dup1\n      revert\n    tag_35:\n      pop\n      tag_12\n      immutable(\"0x665815f06199f799aa9c8465bf48731e4a71da710cd1bae12047781b4c666aed\")\n      dup2\n      jump\n        /* \"contracts/axelar.sol\":935:1507  function setRemoteValue(... */\n    tag_8:\n      tag_17\n      tag_41\n      calldatasize\n      0x04\n      tag_42\n      jump\t// in\n    tag_41:\n      tag_43\n      jump\t// in\n        /* \"contracts/axelar.sol\":611:638  string public sourceAddress */\n    tag_9:\n      callvalue\n      dup1\n      iszero\n      tag_44\n      jumpi\n      0x00\n      dup1\n      revert\n    tag_44:\n      pop\n      tag_22\n      tag_46\n      jump\t// in\n        /* \"@axelar-network/axelar-gmp-sdk-solidity/contracts/executable/AxelarExecutable.sol\":872:1539  function executeWithToken(... */\n    tag_20:\n        /* \"@axelar-network/axelar-gmp-sdk-solidity/contracts/executable/AxelarExecutable.sol\":1119:1138  bytes32 payloadHash */\n      0x00\n        /* \"@axelar-network/axelar-gmp-sdk-solidity/contracts/executable/AxelarExecutable.sol\":1151:1158  payload */\n      dup6\n      dup6\n        /* \"@axelar-network/axelar-gmp-sdk-solidity/contracts/executable/AxelarExecutable.sol\":1141:1159  keccak256(payload) */\n      mload(0x40)\n      tag_49\n      swap3\n      swap2\n      swap1\n      tag_50\n      jump\t// in\n    tag_49:\n      mload(0x40)\n      swap1\n      dup2\n      swap1\n      sub\n      dup2\n      keccak256\n      shl(0xe0, 0x1876eed9)\n        /* \"@axelar-network/axelar-gmp-sdk-solidity/contracts/executable/AxelarExecutable.sol\":1188:1406  gateway.validateContractCallAndMint(... */\n      dup3\n      mstore\n        /* \"@axelar-network/axelar-gmp-sdk-solidity/contracts/executable/AxelarExecutable.sol\":1141:1159  keccak256(payload) */\n      swap2\n      pop\n      sub(shl(0xa0, 0x01), 0x01)\n        /* \"@axelar-network/axelar-gmp-sdk-solidity/contracts/executable/AxelarExecutable.sol\":1188:1195  gateway */\n      immutable(\"0x1a192fabce13988b84994d4296e6cdc418d55e2f1d7f942188d4040b94fc57ac\")\n        /* \"@axelar-network/axelar-gmp-sdk-solidity/contracts/executable/AxelarExecutable.sol\":1188:1223  gateway.validateContractCallAndMint */\n      and\n      swap1\n      0x1876eed9\n      swap1\n        /* \"@axelar-network/axelar-gmp-sdk-solidity/contracts/executable/AxelarExecutable.sol\":1188:1406  gateway.validateContractCallAndMint(... */\n      tag_51\n      swap1\n        /* \"@axelar-network/axelar-gmp-sdk-solidity/contracts/executable/AxelarExecutable.sol\":1241:1250  commandId */\n      dup15\n      swap1\n        /* \"@axelar-network/axelar-gmp-sdk-solidity/contracts/executable/AxelarExecutable.sol\":1268:1279  sourceChain */\n      dup15\n      swap1\n      dup15\n      swap1\n        /* \"@axelar-network/axelar-gmp-sdk-solidity/contracts/executable/AxelarExecutable.sol\":1297:1310  sourceAddress */\n      dup15\n      swap1\n      dup15\n      swap1\n        /* \"@axelar-network/axelar-gmp-sdk-solidity/contracts/executable/AxelarExecutable.sol\":1141:1159  keccak256(payload) */\n      dup10\n      swap1\n        /* \"@axelar-network/axelar-gmp-sdk-solidity/contracts/executable/AxelarExecutable.sol\":1357:1368  tokenSymbol */\n      dup14\n      swap1\n      dup14\n      swap1\n        /* \"@axelar-network/axelar-gmp-sdk-solidity/contracts/executable/AxelarExecutable.sol\":1386:1392  amount */\n      dup14\n      swap1\n        /* \"@axelar-network/axelar-gmp-sdk-solidity/contracts/executable/AxelarExecutable.sol\":1188:1406  gateway.validateContractCallAndMint(... */\n      0x04\n      add\n      tag_52\n      jump\t// in\n    tag_51:\n      0x20\n      mload(0x40)\n      dup1\n      dup4\n      sub\n      dup2\n      0x00\n      dup8\n      gas\n      call\n      iszero\n      dup1\n      iszero\n      tag_54\n      jumpi\n      returndatasize\n      0x00\n      dup1\n      returndatacopy\n      revert(0x00, returndatasize)\n    tag_54:\n      pop\n      pop\n      pop\n      pop\n      mload(0x40)\n      returndatasize\n      not(0x1f)\n      0x1f\n      dup3\n      add\n      and\n      dup3\n      add\n      dup1\n      0x40\n      mstore\n      pop\n      dup2\n      add\n      swap1\n      tag_55\n      swap2\n      swap1\n      tag_56\n      jump\t// in\n    tag_55:\n        /* \"@axelar-network/axelar-gmp-sdk-solidity/contracts/executable/AxelarExecutable.sol\":1170:1446  if (... */\n      tag_57\n      jumpi\n        /* \"@axelar-network/axelar-gmp-sdk-solidity/contracts/executable/AxelarExecutable.sol\":1424:1446  NotApprovedByGateway() */\n      mload(0x40)\n      shl(0xe2, 0x1403112d)\n      dup2\n      mstore\n      0x04\n      add\n      mload(0x40)\n      dup1\n      swap2\n      sub\n      swap1\n      revert\n        /* \"@axelar-network/axelar-gmp-sdk-solidity/contracts/executable/AxelarExecutable.sol\":1170:1446  if (... */\n    tag_57:\n        /* \"@axelar-network/axelar-gmp-sdk-solidity/contracts/executable/AxelarExecutable.sol\":1109:1539  {... */\n      pop\n        /* \"@axelar-network/axelar-gmp-sdk-solidity/contracts/executable/AxelarExecutable.sol\":872:1539  function executeWithToken(... */\n      pop\n      pop\n      pop\n      pop\n      pop\n      pop\n      pop\n      pop\n      pop\n      pop\n      jump\t// out\n        /* \"contracts/axelar.sol\":580:605  string public sourceChain */\n    tag_23:\n      0x01\n      dup1\n      sload\n      tag_60\n      swap1\n      tag_61\n      jump\t// in\n    tag_60:\n      dup1\n      0x1f\n      add\n      0x20\n      dup1\n      swap2\n      div\n      mul\n      0x20\n      add\n      mload(0x40)\n      swap1\n      dup2\n      add\n      0x40\n      mstore\n      dup1\n      swap3\n      swap2\n      swap1\n      dup2\n      dup2\n      mstore\n      0x20\n      add\n      dup3\n      dup1\n      sload\n      tag_62\n      swap1\n      tag_61\n      jump\t// in\n    tag_62:\n      dup1\n      iszero\n      tag_63\n      jumpi\n      dup1\n      0x1f\n      lt\n      tag_64\n      jumpi\n      0x0100\n      dup1\n      dup4\n      sload\n      div\n      mul\n      dup4\n      mstore\n      swap2\n      0x20\n      add\n      swap2\n      jump(tag_63)\n    tag_64:\n      dup3\n      add\n      swap2\n      swap1\n      0x00\n      mstore\n      keccak256(0x00, 0x20)\n      swap1\n    tag_65:\n      dup2\n      sload\n      dup2\n      mstore\n      swap1\n      0x01\n      add\n      swap1\n      0x20\n      add\n      dup1\n      dup4\n      gt\n      tag_65\n      jumpi\n      dup3\n      swap1\n      sub\n      0x1f\n      and\n      dup3\n      add\n      swap2\n    tag_63:\n      pop\n      pop\n      pop\n      pop\n      pop\n      dup2\n      jump\t// out\n        /* \"contracts/axelar.sol\":555:574  string public value */\n    tag_28:\n      0x00\n      dup1\n      sload\n      tag_60\n      swap1\n      tag_61\n      jump\t// in\n        /* \"@axelar-network/axelar-gmp-sdk-solidity/contracts/executable/AxelarExecutable.sol\":447:866  function execute(... */\n    tag_34:\n        /* \"@axelar-network/axelar-gmp-sdk-solidity/contracts/executable/AxelarExecutable.sol\":624:643  bytes32 payloadHash */\n      0x00\n        /* \"@axelar-network/axelar-gmp-sdk-solidity/contracts/executable/AxelarExecutable.sol\":656:663  payload */\n      dup3\n      dup3\n        /* \"@axelar-network/axelar-gmp-sdk-solidity/contracts/executable/AxelarExecutable.sol\":646:664  keccak256(payload) */\n      mload(0x40)\n      tag_72\n      swap3\n      swap2\n      swap1\n      tag_50\n      jump\t// in\n    tag_72:\n      mload(0x40)\n      swap1\n      dup2\n      swap1\n      sub\n      dup2\n      keccak256\n      shl(0xe0, 0x5f6970c3)\n        /* \"@axelar-network/axelar-gmp-sdk-solidity/contracts/executable/AxelarExecutable.sol\":680:760  gateway.validateContractCall(commandId, sourceChain, sourceAddress, payloadHash) */\n      dup3\n      mstore\n        /* \"@axelar-network/axelar-gmp-sdk-solidity/contracts/executable/AxelarExecutable.sol\":646:664  keccak256(payload) */\n      swap2\n      pop\n      sub(shl(0xa0, 0x01), 0x01)\n        /* \"@axelar-network/axelar-gmp-sdk-solidity/contracts/executable/AxelarExecutable.sol\":680:687  gateway */\n      immutable(\"0x1a192fabce13988b84994d4296e6cdc418d55e2f1d7f942188d4040b94fc57ac\")\n        /* \"@axelar-network/axelar-gmp-sdk-solidity/contracts/executable/AxelarExecutable.sol\":680:708  gateway.validateContractCall */\n      and\n      swap1\n      0x5f6970c3\n      swap1\n        /* \"@axelar-network/axelar-gmp-sdk-solidity/contracts/executable/AxelarExecutable.sol\":680:760  gateway.validateContractCall(commandId, sourceChain, sourceAddress, payloadHash) */\n      tag_73\n      swap1\n        /* \"@axelar-network/axelar-gmp-sdk-solidity/contracts/executable/AxelarExecutable.sol\":709:718  commandId */\n      dup12\n      swap1\n        /* \"@axelar-network/axelar-gmp-sdk-solidity/contracts/executable/AxelarExecutable.sol\":720:731  sourceChain */\n      dup12\n      swap1\n      dup12\n      swap1\n        /* \"@axelar-network/axelar-gmp-sdk-solidity/contracts/executable/AxelarExecutable.sol\":733:746  sourceAddress */\n      dup12\n      swap1\n      dup12\n      swap1\n        /* \"@axelar-network/axelar-gmp-sdk-solidity/contracts/executable/AxelarExecutable.sol\":646:664  keccak256(payload) */\n      dup10\n      swap1\n        /* \"@axelar-network/axelar-gmp-sdk-solidity/contracts/executable/AxelarExecutable.sol\":680:760  gateway.validateContractCall(commandId, sourceChain, sourceAddress, payloadHash) */\n      0x04\n      add\n      tag_74\n      jump\t// in\n    tag_73:\n      0x20\n      mload(0x40)\n      dup1\n      dup4\n      sub\n      dup2\n      0x00\n      dup8\n      gas\n      call\n      iszero\n      dup1\n      iszero\n      tag_76\n      jumpi\n      returndatasize\n      0x00\n      dup1\n      returndatacopy\n      revert(0x00, returndatasize)\n    tag_76:\n      pop\n      pop\n      pop\n      pop\n      mload(0x40)\n      returndatasize\n      not(0x1f)\n      0x1f\n      dup3\n      add\n      and\n      dup3\n      add\n      dup1\n      0x40\n      mstore\n      pop\n      dup2\n      add\n      swap1\n      tag_77\n      swap2\n      swap1\n      tag_56\n      jump\t// in\n    tag_77:\n        /* \"@axelar-network/axelar-gmp-sdk-solidity/contracts/executable/AxelarExecutable.sol\":675:803  if (!gateway.validateContractCall(commandId, sourceChain, sourceAddress, payloadHash))... */\n      tag_78\n      jumpi\n        /* \"@axelar-network/axelar-gmp-sdk-solidity/contracts/executable/AxelarExecutable.sol\":781:803  NotApprovedByGateway() */\n      mload(0x40)\n      shl(0xe2, 0x1403112d)\n      dup2\n      mstore\n      0x04\n      add\n      mload(0x40)\n      dup1\n      swap2\n      sub\n      swap1\n      revert\n        /* \"@axelar-network/axelar-gmp-sdk-solidity/contracts/executable/AxelarExecutable.sol\":675:803  if (!gateway.validateContractCall(commandId, sourceChain, sourceAddress, payloadHash))... */\n    tag_78:\n        /* \"@axelar-network/axelar-gmp-sdk-solidity/contracts/executable/AxelarExecutable.sol\":814:859  _execute(sourceChain, sourceAddress, payload) */\n      tag_79\n        /* \"@axelar-network/axelar-gmp-sdk-solidity/contracts/executable/AxelarExecutable.sol\":823:834  sourceChain */\n      dup8\n      dup8\n        /* \"@axelar-network/axelar-gmp-sdk-solidity/contracts/executable/AxelarExecutable.sol\":836:849  sourceAddress */\n      dup8\n      dup8\n        /* \"@axelar-network/axelar-gmp-sdk-solidity/contracts/executable/AxelarExecutable.sol\":851:858  payload */\n      dup8\n      dup8\n        /* \"@axelar-network/axelar-gmp-sdk-solidity/contracts/executable/AxelarExecutable.sol\":814:822  _execute */\n      tag_80\n        /* \"@axelar-network/axelar-gmp-sdk-solidity/contracts/executable/AxelarExecutable.sol\":814:859  _execute(sourceChain, sourceAddress, payload) */\n      jump\t// in\n    tag_79:\n        /* \"@axelar-network/axelar-gmp-sdk-solidity/contracts/executable/AxelarExecutable.sol\":614:866  {... */\n      pop\n        /* \"@axelar-network/axelar-gmp-sdk-solidity/contracts/executable/AxelarExecutable.sol\":447:866  function execute(... */\n      pop\n      pop\n      pop\n      pop\n      pop\n      pop\n      pop\n      jump\t// out\n        /* \"contracts/axelar.sol\":935:1507  function setRemoteValue(... */\n    tag_43:\n        /* \"contracts/axelar.sol\":1130:1131  0 */\n      0x00\n        /* \"contracts/axelar.sol\":1118:1127  msg.value */\n      callvalue\n        /* \"contracts/axelar.sol\":1118:1131  msg.value > 0 */\n      gt\n        /* \"contracts/axelar.sol\":1110:1159  require(msg.value > 0, 'Gas payment is required') */\n      tag_82\n      jumpi\n      mload(0x40)\n      shl(0xe5, 0x461bcd)\n      dup2\n      mstore\n        /* \"#utility.yul\":7875:7877   */\n      0x20\n        /* \"contracts/axelar.sol\":1110:1159  require(msg.value > 0, 'Gas payment is required') */\n      0x04\n      dup3\n      add\n        /* \"#utility.yul\":7857:7878   */\n      mstore\n        /* \"#utility.yul\":7914:7916   */\n      0x17\n        /* \"#utility.yul\":7894:7912   */\n      0x24\n      dup3\n      add\n        /* \"#utility.yul\":7887:7917   */\n      mstore\n        /* \"#utility.yul\":7953:7978   */\n      0x476173207061796d656e74206973207265717569726564000000000000000000\n        /* \"#utility.yul\":7933:7951   */\n      0x44\n      dup3\n      add\n        /* \"#utility.yul\":7926:7979   */\n      mstore\n        /* \"#utility.yul\":7996:8014   */\n      0x64\n      add\n        /* \"contracts/axelar.sol\":1110:1159  require(msg.value > 0, 'Gas payment is required') */\n      mload(0x40)\n      dup1\n      swap2\n      sub\n      swap1\n      revert\n    tag_82:\n        /* \"contracts/axelar.sol\":1170:1190  bytes memory payload */\n      0x00\n        /* \"contracts/axelar.sol\":1204:1210  value_ */\n      dup3\n      dup3\n        /* \"contracts/axelar.sol\":1193:1211  abi.encode(value_) */\n      add(0x20, mload(0x40))\n      tag_85\n      swap3\n      swap2\n      swap1\n      tag_86\n      jump\t// in\n    tag_85:\n      0x40\n      dup1\n      mload\n      not(0x1f)\n      dup2\n      dup5\n      sub\n      add\n      dup2\n      mstore\n      swap1\n      dup3\n      swap1\n      mstore\n      shl(0xe0, 0x0c93e3bb)\n        /* \"contracts/axelar.sol\":1221:1423  gasService.payNativeGasForContractCall{ value: msg.value }(... */\n      dup3\n      mstore\n        /* \"contracts/axelar.sol\":1193:1211  abi.encode(value_) */\n      swap2\n      pop\n      sub(shl(0xa0, 0x01), 0x01)\n        /* \"contracts/axelar.sol\":1221:1231  gasService */\n      immutable(\"0x665815f06199f799aa9c8465bf48731e4a71da710cd1bae12047781b4c666aed\")\n        /* \"contracts/axelar.sol\":1221:1259  gasService.payNativeGasForContractCall */\n      and\n      swap1\n      0x0c93e3bb\n      swap1\n        /* \"contracts/axelar.sol\":1268:1277  msg.value */\n      callvalue\n      swap1\n        /* \"contracts/axelar.sol\":1221:1423  gasService.payNativeGasForContractCall{ value: msg.value }(... */\n      tag_87\n      swap1\n        /* \"contracts/axelar.sol\":1301:1305  this */\n      address\n      swap1\n        /* \"contracts/axelar.sol\":1320:1336  destinationChain */\n      dup13\n      swap1\n      dup13\n      swap1\n        /* \"contracts/axelar.sol\":1350:1368  destinationAddress */\n      dup13\n      swap1\n      dup13\n      swap1\n        /* \"contracts/axelar.sol\":1193:1211  abi.encode(value_) */\n      dup11\n      swap1\n        /* \"contracts/axelar.sol\":1403:1413  msg.sender */\n      caller\n      swap1\n        /* \"contracts/axelar.sol\":1221:1423  gasService.payNativeGasForContractCall{ value: msg.value }(... */\n      0x04\n      add\n      tag_88\n      jump\t// in\n    tag_87:\n      0x00\n      mload(0x40)\n      dup1\n      dup4\n      sub\n      dup2\n      dup6\n      dup9\n      dup1\n      extcodesize\n      iszero\n      dup1\n      iszero\n      tag_89\n      jumpi\n      0x00\n      dup1\n      revert\n    tag_89:\n      pop\n      gas\n      call\n      iszero\n      dup1\n      iszero\n      tag_91\n      jumpi\n      returndatasize\n      0x00\n      dup1\n      returndatacopy\n      revert(0x00, returndatasize)\n    tag_91:\n      pop\n      pop\n        /* \"contracts/axelar.sol\":1433:1500  gateway.callContract(destinationChain, destinationAddress, payload) */\n      mload(0x40)\n      shl(0xe0, 0x1c92115f)\n      dup2\n      mstore\n      sub(shl(0xa0, 0x01), 0x01)\n        /* \"contracts/axelar.sol\":1433:1440  gateway */\n      immutable(\"0x1a192fabce13988b84994d4296e6cdc418d55e2f1d7f942188d4040b94fc57ac\")\n        /* \"contracts/axelar.sol\":1433:1453  gateway.callContract */\n      and\n      swap4\n      pop\n      0x1c92115f\n      swap3\n      pop\n        /* \"contracts/axelar.sol\":1433:1500  gateway.callContract(destinationChain, destinationAddress, payload) */\n      tag_92\n      swap2\n      pop\n        /* \"contracts/axelar.sol\":1454:1470  destinationChain */\n      dup11\n      swap1\n      dup11\n      swap1\n        /* \"contracts/axelar.sol\":1472:1490  destinationAddress */\n      dup11\n      swap1\n      dup11\n      swap1\n        /* \"contracts/axelar.sol\":1492:1499  payload */\n      dup9\n      swap1\n        /* \"contracts/axelar.sol\":1433:1500  gateway.callContract(destinationChain, destinationAddress, payload) */\n      0x04\n      add\n      tag_93\n      jump\t// in\n    tag_92:\n      0x00\n      mload(0x40)\n      dup1\n      dup4\n      sub\n      dup2\n      0x00\n      dup8\n      dup1\n      extcodesize\n      iszero\n      dup1\n      iszero\n      tag_94\n      jumpi\n      0x00\n      dup1\n      revert\n    tag_94:\n      pop\n      gas\n      call\n      iszero\n      dup1\n      iszero\n      tag_57\n      jumpi\n      returndatasize\n      0x00\n      dup1\n      returndatacopy\n      revert(0x00, returndatasize)\n        /* \"contracts/axelar.sol\":611:638  string public sourceAddress */\n    tag_46:\n      0x02\n      dup1\n      sload\n      tag_60\n      swap1\n      tag_61\n      jump\t// in\n        /* \"contracts/axelar.sol\":1587:1873  function _execute(... */\n    tag_80:\n        /* \"contracts/axelar.sol\":1760:1790  abi.decode(payload_, (string)) */\n      tag_104\n      dup2\n      dup4\n      add\n        /* \"contracts/axelar.sol\":1771:1779  payload_ */\n      dup4\n        /* \"contracts/axelar.sol\":1760:1790  abi.decode(payload_, (string)) */\n      tag_105\n      jump\t// in\n    tag_104:\n        /* \"contracts/axelar.sol\":1751:1756  value */\n      0x00\n      swap1\n        /* \"contracts/axelar.sol\":1750:1790  (value) = abi.decode(payload_, (string)) */\n      tag_106\n      swap1\n        /* \"contracts/axelar.sol\":1751:1756  value */\n      dup3\n        /* \"contracts/axelar.sol\":1750:1790  (value) = abi.decode(payload_, (string)) */\n      tag_107\n      jump\t// in\n    tag_106:\n      pop\n        /* \"contracts/axelar.sol\":1800:1811  sourceChain */\n      0x01\n        /* \"contracts/axelar.sol\":1800:1826  sourceChain = sourceChain_ */\n      tag_108\n        /* \"contracts/axelar.sol\":1814:1826  sourceChain_ */\n      dup7\n      dup9\n        /* \"contracts/axelar.sol\":1800:1811  sourceChain */\n      dup4\n        /* \"contracts/axelar.sol\":1800:1826  sourceChain = sourceChain_ */\n      tag_109\n      jump\t// in\n    tag_108:\n      pop\n        /* \"contracts/axelar.sol\":1836:1849  sourceAddress */\n      0x02\n        /* \"contracts/axelar.sol\":1836:1866  sourceAddress = sourceAddress_ */\n      tag_110\n        /* \"contracts/axelar.sol\":1852:1866  sourceAddress_ */\n      dup5\n      dup7\n        /* \"contracts/axelar.sol\":1836:1849  sourceAddress */\n      dup4\n        /* \"contracts/axelar.sol\":1836:1866  sourceAddress = sourceAddress_ */\n      tag_109\n      jump\t// in\n    tag_110:\n      pop\n        /* \"contracts/axelar.sol\":1587:1873  function _execute(... */\n      pop\n      pop\n      pop\n      pop\n      pop\n      pop\n      jump\t// out\n        /* \"#utility.yul\":244:592   */\n    tag_111:\n        /* \"#utility.yul\":296:304   */\n      0x00\n        /* \"#utility.yul\":306:312   */\n      dup1\n        /* \"#utility.yul\":360:363   */\n      dup4\n        /* \"#utility.yul\":353:357   */\n      0x1f\n        /* \"#utility.yul\":345:351   */\n      dup5\n        /* \"#utility.yul\":341:358   */\n      add\n        /* \"#utility.yul\":337:364   */\n      slt\n        /* \"#utility.yul\":327:382   */\n      tag_121\n      jumpi\n        /* \"#utility.yul\":378:379   */\n      0x00\n        /* \"#utility.yul\":375:376   */\n      dup1\n        /* \"#utility.yul\":368:380   */\n      revert\n        /* \"#utility.yul\":327:382   */\n    tag_121:\n      pop\n        /* \"#utility.yul\":401:421   */\n      dup2\n      calldataload\n        /* \"#utility.yul\":444:462   */\n      0xffffffffffffffff\n        /* \"#utility.yul\":433:463   */\n      dup2\n      gt\n        /* \"#utility.yul\":430:480   */\n      iszero\n      tag_122\n      jumpi\n        /* \"#utility.yul\":476:477   */\n      0x00\n        /* \"#utility.yul\":473:474   */\n      dup1\n        /* \"#utility.yul\":466:478   */\n      revert\n        /* \"#utility.yul\":430:480   */\n    tag_122:\n        /* \"#utility.yul\":513:517   */\n      0x20\n        /* \"#utility.yul\":505:511   */\n      dup4\n        /* \"#utility.yul\":501:518   */\n      add\n        /* \"#utility.yul\":489:518   */\n      swap2\n      pop\n        /* \"#utility.yul\":565:568   */\n      dup4\n        /* \"#utility.yul\":558:562   */\n      0x20\n        /* \"#utility.yul\":549:555   */\n      dup3\n        /* \"#utility.yul\":541:547   */\n      dup6\n        /* \"#utility.yul\":537:556   */\n      add\n        /* \"#utility.yul\":533:563   */\n      add\n        /* \"#utility.yul\":530:569   */\n      gt\n        /* \"#utility.yul\":527:586   */\n      iszero\n      tag_123\n      jumpi\n        /* \"#utility.yul\":582:583   */\n      0x00\n        /* \"#utility.yul\":579:580   */\n      dup1\n        /* \"#utility.yul\":572:584   */\n      revert\n        /* \"#utility.yul\":527:586   */\n    tag_123:\n        /* \"#utility.yul\":244:592   */\n      swap3\n      pop\n      swap3\n      swap1\n      pop\n      jump\t// out\n        /* \"#utility.yul\":597:2034   */\n    tag_19:\n        /* \"#utility.yul\":748:754   */\n      0x00\n        /* \"#utility.yul\":756:762   */\n      dup1\n        /* \"#utility.yul\":764:770   */\n      0x00\n        /* \"#utility.yul\":772:778   */\n      dup1\n        /* \"#utility.yul\":780:786   */\n      0x00\n        /* \"#utility.yul\":788:794   */\n      dup1\n        /* \"#utility.yul\":796:802   */\n      0x00\n        /* \"#utility.yul\":804:810   */\n      dup1\n        /* \"#utility.yul\":812:818   */\n      0x00\n        /* \"#utility.yul\":820:826   */\n      dup1\n        /* \"#utility.yul\":873:876   */\n      0xc0\n        /* \"#utility.yul\":861:870   */\n      dup12\n        /* \"#utility.yul\":852:859   */\n      dup14\n        /* \"#utility.yul\":848:871   */\n      sub\n        /* \"#utility.yul\":844:877   */\n      slt\n        /* \"#utility.yul\":841:894   */\n      iszero\n      tag_125\n      jumpi\n        /* \"#utility.yul\":890:891   */\n      0x00\n        /* \"#utility.yul\":887:888   */\n      dup1\n        /* \"#utility.yul\":880:892   */\n      revert\n        /* \"#utility.yul\":841:894   */\n    tag_125:\n        /* \"#utility.yul\":926:935   */\n      dup11\n        /* \"#utility.yul\":913:936   */\n      calldataload\n        /* \"#utility.yul\":903:936   */\n      swap10\n      pop\n        /* \"#utility.yul\":987:989   */\n      0x20\n        /* \"#utility.yul\":976:985   */\n      dup12\n        /* \"#utility.yul\":972:990   */\n      add\n        /* \"#utility.yul\":959:991   */\n      calldataload\n        /* \"#utility.yul\":1010:1028   */\n      0xffffffffffffffff\n        /* \"#utility.yul\":1051:1053   */\n      dup1\n        /* \"#utility.yul\":1043:1049   */\n      dup3\n        /* \"#utility.yul\":1040:1054   */\n      gt\n        /* \"#utility.yul\":1037:1071   */\n      iszero\n      tag_126\n      jumpi\n        /* \"#utility.yul\":1067:1068   */\n      0x00\n        /* \"#utility.yul\":1064:1065   */\n      dup1\n        /* \"#utility.yul\":1057:1069   */\n      revert\n        /* \"#utility.yul\":1037:1071   */\n    tag_126:\n        /* \"#utility.yul\":1106:1165   */\n      tag_127\n        /* \"#utility.yul\":1157:1164   */\n      dup15\n        /* \"#utility.yul\":1148:1154   */\n      dup4\n        /* \"#utility.yul\":1137:1146   */\n      dup16\n        /* \"#utility.yul\":1133:1155   */\n      add\n        /* \"#utility.yul\":1106:1165   */\n      tag_111\n      jump\t// in\n    tag_127:\n        /* \"#utility.yul\":1184:1192   */\n      swap1\n      swap12\n      pop\n        /* \"#utility.yul\":1080:1165   */\n      swap10\n      pop\n        /* \"#utility.yul\":1272:1274   */\n      0x40\n        /* \"#utility.yul\":1257:1275   */\n      dup14\n      add\n        /* \"#utility.yul\":1244:1276   */\n      calldataload\n      swap2\n      pop\n        /* \"#utility.yul\":1288:1304   */\n      dup1\n      dup3\n      gt\n        /* \"#utility.yul\":1285:1321   */\n      iszero\n      tag_128\n      jumpi\n        /* \"#utility.yul\":1317:1318   */\n      0x00\n        /* \"#utility.yul\":1314:1315   */\n      dup1\n        /* \"#utility.yul\":1307:1319   */\n      revert\n        /* \"#utility.yul\":1285:1321   */\n    tag_128:\n        /* \"#utility.yul\":1356:1417   */\n      tag_129\n        /* \"#utility.yul\":1409:1416   */\n      dup15\n        /* \"#utility.yul\":1398:1406   */\n      dup4\n        /* \"#utility.yul\":1387:1396   */\n      dup16\n        /* \"#utility.yul\":1383:1407   */\n      add\n        /* \"#utility.yul\":1356:1417   */\n      tag_111\n      jump\t// in\n    tag_129:\n        /* \"#utility.yul\":1436:1444   */\n      swap1\n      swap10\n      pop\n        /* \"#utility.yul\":1330:1417   */\n      swap8\n      pop\n        /* \"#utility.yul\":1524:1526   */\n      0x60\n        /* \"#utility.yul\":1509:1527   */\n      dup14\n      add\n        /* \"#utility.yul\":1496:1528   */\n      calldataload\n      swap2\n      pop\n        /* \"#utility.yul\":1540:1556   */\n      dup1\n      dup3\n      gt\n        /* \"#utility.yul\":1537:1573   */\n      iszero\n      tag_130\n      jumpi\n        /* \"#utility.yul\":1569:1570   */\n      0x00\n        /* \"#utility.yul\":1566:1567   */\n      dup1\n        /* \"#utility.yul\":1559:1571   */\n      revert\n        /* \"#utility.yul\":1537:1573   */\n    tag_130:\n        /* \"#utility.yul\":1608:1669   */\n      tag_131\n        /* \"#utility.yul\":1661:1668   */\n      dup15\n        /* \"#utility.yul\":1650:1658   */\n      dup4\n        /* \"#utility.yul\":1639:1648   */\n      dup16\n        /* \"#utility.yul\":1635:1659   */\n      add\n        /* \"#utility.yul\":1608:1669   */\n      tag_111\n      jump\t// in\n    tag_131:\n        /* \"#utility.yul\":1688:1696   */\n      swap1\n      swap8\n      pop\n        /* \"#utility.yul\":1582:1669   */\n      swap6\n      pop\n        /* \"#utility.yul\":1776:1779   */\n      0x80\n        /* \"#utility.yul\":1761:1780   */\n      dup14\n      add\n        /* \"#utility.yul\":1748:1781   */\n      calldataload\n      swap2\n      pop\n        /* \"#utility.yul\":1793:1809   */\n      dup1\n      dup3\n      gt\n        /* \"#utility.yul\":1790:1826   */\n      iszero\n      tag_132\n      jumpi\n        /* \"#utility.yul\":1822:1823   */\n      0x00\n        /* \"#utility.yul\":1819:1820   */\n      dup1\n        /* \"#utility.yul\":1812:1824   */\n      revert\n        /* \"#utility.yul\":1790:1826   */\n    tag_132:\n      pop\n        /* \"#utility.yul\":1861:1922   */\n      tag_133\n        /* \"#utility.yul\":1914:1921   */\n      dup14\n        /* \"#utility.yul\":1903:1911   */\n      dup3\n        /* \"#utility.yul\":1892:1901   */\n      dup15\n        /* \"#utility.yul\":1888:1912   */\n      add\n        /* \"#utility.yul\":1861:1922   */\n      tag_111\n      jump\t// in\n    tag_133:\n        /* \"#utility.yul\":1835:1922   */\n      swap2\n      pop\n        /* \"#utility.yul\":1941:1949   */\n      dup1\n        /* \"#utility.yul\":1931:1949   */\n      swap5\n      pop\n      pop\n        /* \"#utility.yul\":1968:1976   */\n      dup1\n        /* \"#utility.yul\":1958:1976   */\n      swap3\n      pop\n      pop\n        /* \"#utility.yul\":2023:2026   */\n      0xa0\n        /* \"#utility.yul\":2012:2021   */\n      dup12\n        /* \"#utility.yul\":2008:2027   */\n      add\n        /* \"#utility.yul\":1995:2028   */\n      calldataload\n        /* \"#utility.yul\":1985:2028   */\n      swap1\n      pop\n        /* \"#utility.yul\":597:2034   */\n      swap3\n      swap6\n      swap9\n      swap12\n      swap2\n      swap5\n      swap8\n      swap11\n      pop\n      swap3\n      swap6\n      swap9\n      pop\n      jump\t// out\n        /* \"#utility.yul\":2039:2462   */\n    tag_112:\n        /* \"#utility.yul\":2081:2084   */\n      0x00\n        /* \"#utility.yul\":2119:2124   */\n      dup2\n        /* \"#utility.yul\":2113:2125   */\n      mload\n        /* \"#utility.yul\":2146:2152   */\n      dup1\n        /* \"#utility.yul\":2141:2144   */\n      dup5\n        /* \"#utility.yul\":2134:2153   */\n      mstore\n        /* \"#utility.yul\":2171:2172   */\n      0x00\n        /* \"#utility.yul\":2181:2343   */\n    tag_135:\n        /* \"#utility.yul\":2195:2201   */\n      dup2\n        /* \"#utility.yul\":2192:2193   */\n      dup2\n        /* \"#utility.yul\":2189:2202   */\n      lt\n        /* \"#utility.yul\":2181:2343   */\n      iszero\n      tag_137\n      jumpi\n        /* \"#utility.yul\":2257:2261   */\n      0x20\n        /* \"#utility.yul\":2313:2326   */\n      dup2\n      dup6\n      add\n        /* \"#utility.yul\":2309:2331   */\n      dup2\n      add\n        /* \"#utility.yul\":2303:2332   */\n      mload\n        /* \"#utility.yul\":2285:2296   */\n      dup7\n      dup4\n      add\n        /* \"#utility.yul\":2281:2301   */\n      dup3\n      add\n        /* \"#utility.yul\":2274:2333   */\n      mstore\n        /* \"#utility.yul\":2210:2222   */\n      add\n        /* \"#utility.yul\":2181:2343   */\n      jump(tag_135)\n    tag_137:\n        /* \"#utility.yul\":2185:2188   */\n      pop\n        /* \"#utility.yul\":2388:2389   */\n      0x00\n        /* \"#utility.yul\":2381:2385   */\n      0x20\n        /* \"#utility.yul\":2372:2378   */\n      dup3\n        /* \"#utility.yul\":2367:2370   */\n      dup7\n        /* \"#utility.yul\":2363:2379   */\n      add\n        /* \"#utility.yul\":2359:2386   */\n      add\n        /* \"#utility.yul\":2352:2390   */\n      mstore\n        /* \"#utility.yul\":2451:2455   */\n      0x20\n        /* \"#utility.yul\":2444:2446   */\n      0x1f\n        /* \"#utility.yul\":2440:2447   */\n      not\n        /* \"#utility.yul\":2435:2437   */\n      0x1f\n        /* \"#utility.yul\":2427:2433   */\n      dup4\n        /* \"#utility.yul\":2423:2438   */\n      add\n        /* \"#utility.yul\":2419:2448   */\n      and\n        /* \"#utility.yul\":2414:2417   */\n      dup6\n        /* \"#utility.yul\":2410:2449   */\n      add\n        /* \"#utility.yul\":2406:2456   */\n      add\n        /* \"#utility.yul\":2399:2456   */\n      swap2\n      pop\n      pop\n        /* \"#utility.yul\":2039:2462   */\n      swap3\n      swap2\n      pop\n      pop\n      jump\t// out\n        /* \"#utility.yul\":2467:2687   */\n    tag_25:\n        /* \"#utility.yul\":2616:2618   */\n      0x20\n        /* \"#utility.yul\":2605:2614   */\n      dup2\n        /* \"#utility.yul\":2598:2619   */\n      mstore\n        /* \"#utility.yul\":2579:2583   */\n      0x00\n        /* \"#utility.yul\":2636:2681   */\n      tag_139\n        /* \"#utility.yul\":2677:2679   */\n      0x20\n        /* \"#utility.yul\":2666:2675   */\n      dup4\n        /* \"#utility.yul\":2662:2680   */\n      add\n        /* \"#utility.yul\":2654:2660   */\n      dup5\n        /* \"#utility.yul\":2636:2681   */\n      tag_112\n      jump\t// in\n    tag_139:\n        /* \"#utility.yul\":2628:2681   */\n      swap4\n        /* \"#utility.yul\":2467:2687   */\n      swap3\n      pop\n      pop\n      pop\n      jump\t// out\n        /* \"#utility.yul\":2692:3770   */\n    tag_33:\n        /* \"#utility.yul\":2813:2819   */\n      0x00\n        /* \"#utility.yul\":2821:2827   */\n      dup1\n        /* \"#utility.yul\":2829:2835   */\n      0x00\n        /* \"#utility.yul\":2837:2843   */\n      dup1\n        /* \"#utility.yul\":2845:2851   */\n      0x00\n        /* \"#utility.yul\":2853:2859   */\n      dup1\n        /* \"#utility.yul\":2861:2867   */\n      0x00\n        /* \"#utility.yul\":2914:2917   */\n      0x80\n        /* \"#utility.yul\":2902:2911   */\n      dup9\n        /* \"#utility.yul\":2893:2900   */\n      dup11\n        /* \"#utility.yul\":2889:2912   */\n      sub\n        /* \"#utility.yul\":2885:2918   */\n      slt\n        /* \"#utility.yul\":2882:2935   */\n      iszero\n      tag_141\n      jumpi\n        /* \"#utility.yul\":2931:2932   */\n      0x00\n        /* \"#utility.yul\":2928:2929   */\n      dup1\n        /* \"#utility.yul\":2921:2933   */\n      revert\n        /* \"#utility.yul\":2882:2935   */\n    tag_141:\n        /* \"#utility.yul\":2967:2976   */\n      dup8\n        /* \"#utility.yul\":2954:2977   */\n      calldataload\n        /* \"#utility.yul\":2944:2977   */\n      swap7\n      pop\n        /* \"#utility.yul\":3028:3030   */\n      0x20\n        /* \"#utility.yul\":3017:3026   */\n      dup9\n        /* \"#utility.yul\":3013:3031   */\n      add\n        /* \"#utility.yul\":3000:3032   */\n      calldataload\n        /* \"#utility.yul\":3051:3069   */\n      0xffffffffffffffff\n        /* \"#utility.yul\":3092:3094   */\n      dup1\n        /* \"#utility.yul\":3084:3090   */\n      dup3\n        /* \"#utility.yul\":3081:3095   */\n      gt\n        /* \"#utility.yul\":3078:3112   */\n      iszero\n      tag_142\n      jumpi\n        /* \"#utility.yul\":3108:3109   */\n      0x00\n        /* \"#utility.yul\":3105:3106   */\n      dup1\n        /* \"#utility.yul\":3098:3110   */\n      revert\n        /* \"#utility.yul\":3078:3112   */\n    tag_142:\n        /* \"#utility.yul\":3147:3206   */\n      tag_143\n        /* \"#utility.yul\":3198:3205   */\n      dup12\n        /* \"#utility.yul\":3189:3195   */\n      dup4\n        /* \"#utility.yul\":3178:3187   */\n      dup13\n        /* \"#utility.yul\":3174:3196   */\n      add\n        /* \"#utility.yul\":3147:3206   */\n      tag_111\n      jump\t// in\n    tag_143:\n        /* \"#utility.yul\":3225:3233   */\n      swap1\n      swap9\n      pop\n        /* \"#utility.yul\":3121:3206   */\n      swap7\n      pop\n        /* \"#utility.yul\":3313:3315   */\n      0x40\n        /* \"#utility.yul\":3298:3316   */\n      dup11\n      add\n        /* \"#utility.yul\":3285:3317   */\n      calldataload\n      swap2\n      pop\n        /* \"#utility.yul\":3329:3345   */\n      dup1\n      dup3\n      gt\n        /* \"#utility.yul\":3326:3362   */\n      iszero\n      tag_144\n      jumpi\n        /* \"#utility.yul\":3358:3359   */\n      0x00\n        /* \"#utility.yul\":3355:3356   */\n      dup1\n        /* \"#utility.yul\":3348:3360   */\n      revert\n        /* \"#utility.yul\":3326:3362   */\n    tag_144:\n        /* \"#utility.yul\":3397:3458   */\n      tag_145\n        /* \"#utility.yul\":3450:3457   */\n      dup12\n        /* \"#utility.yul\":3439:3447   */\n      dup4\n        /* \"#utility.yul\":3428:3437   */\n      dup13\n        /* \"#utility.yul\":3424:3448   */\n      add\n        /* \"#utility.yul\":3397:3458   */\n      tag_111\n      jump\t// in\n    tag_145:\n        /* \"#utility.yul\":3477:3485   */\n      swap1\n      swap7\n      pop\n        /* \"#utility.yul\":3371:3458   */\n      swap5\n      pop\n        /* \"#utility.yul\":3565:3567   */\n      0x60\n        /* \"#utility.yul\":3550:3568   */\n      dup11\n      add\n        /* \"#utility.yul\":3537:3569   */\n      calldataload\n      swap2\n      pop\n        /* \"#utility.yul\":3581:3597   */\n      dup1\n      dup3\n      gt\n        /* \"#utility.yul\":3578:3614   */\n      iszero\n      tag_146\n      jumpi\n        /* \"#utility.yul\":3610:3611   */\n      0x00\n        /* \"#utility.yul\":3607:3608   */\n      dup1\n        /* \"#utility.yul\":3600:3612   */\n      revert\n        /* \"#utility.yul\":3578:3614   */\n    tag_146:\n      pop\n        /* \"#utility.yul\":3649:3710   */\n      tag_147\n        /* \"#utility.yul\":3702:3709   */\n      dup11\n        /* \"#utility.yul\":3691:3699   */\n      dup3\n        /* \"#utility.yul\":3680:3689   */\n      dup12\n        /* \"#utility.yul\":3676:3700   */\n      add\n        /* \"#utility.yul\":3649:3710   */\n      tag_111\n      jump\t// in\n    tag_147:\n        /* \"#utility.yul\":2692:3770   */\n      swap9\n      swap12\n      swap8\n      swap11\n      pop\n      swap6\n      swap9\n      pop\n      swap4\n      swap7\n      swap3\n      swap6\n        /* \"#utility.yul\":3623:3710   */\n      swap3\n      swap4\n      pop\n      pop\n      pop\n        /* \"#utility.yul\":2692:3770   */\n      jump\t// out\n        /* \"#utility.yul\":4008:5018   */\n    tag_42:\n        /* \"#utility.yul\":4121:4127   */\n      0x00\n        /* \"#utility.yul\":4129:4135   */\n      dup1\n        /* \"#utility.yul\":4137:4143   */\n      0x00\n        /* \"#utility.yul\":4145:4151   */\n      dup1\n        /* \"#utility.yul\":4153:4159   */\n      0x00\n        /* \"#utility.yul\":4161:4167   */\n      dup1\n        /* \"#utility.yul\":4214:4216   */\n      0x60\n        /* \"#utility.yul\":4202:4211   */\n      dup8\n        /* \"#utility.yul\":4193:4200   */\n      dup10\n        /* \"#utility.yul\":4189:4212   */\n      sub\n        /* \"#utility.yul\":4185:4217   */\n      slt\n        /* \"#utility.yul\":4182:4234   */\n      iszero\n      tag_150\n      jumpi\n        /* \"#utility.yul\":4230:4231   */\n      0x00\n        /* \"#utility.yul\":4227:4228   */\n      dup1\n        /* \"#utility.yul\":4220:4232   */\n      revert\n        /* \"#utility.yul\":4182:4234   */\n    tag_150:\n        /* \"#utility.yul\":4270:4279   */\n      dup7\n        /* \"#utility.yul\":4257:4280   */\n      calldataload\n        /* \"#utility.yul\":4299:4317   */\n      0xffffffffffffffff\n        /* \"#utility.yul\":4340:4342   */\n      dup1\n        /* \"#utility.yul\":4332:4338   */\n      dup3\n        /* \"#utility.yul\":4329:4343   */\n      gt\n        /* \"#utility.yul\":4326:4360   */\n      iszero\n      tag_151\n      jumpi\n        /* \"#utility.yul\":4356:4357   */\n      0x00\n        /* \"#utility.yul\":4353:4354   */\n      dup1\n        /* \"#utility.yul\":4346:4358   */\n      revert\n        /* \"#utility.yul\":4326:4360   */\n    tag_151:\n        /* \"#utility.yul\":4395:4454   */\n      tag_152\n        /* \"#utility.yul\":4446:4453   */\n      dup11\n        /* \"#utility.yul\":4437:4443   */\n      dup4\n        /* \"#utility.yul\":4426:4435   */\n      dup12\n        /* \"#utility.yul\":4422:4444   */\n      add\n        /* \"#utility.yul\":4395:4454   */\n      tag_111\n      jump\t// in\n    tag_152:\n        /* \"#utility.yul\":4473:4481   */\n      swap1\n      swap9\n      pop\n        /* \"#utility.yul\":4369:4454   */\n      swap7\n      pop\n        /* \"#utility.yul\":4561:4563   */\n      0x20\n        /* \"#utility.yul\":4546:4564   */\n      dup10\n      add\n        /* \"#utility.yul\":4533:4565   */\n      calldataload\n      swap2\n      pop\n        /* \"#utility.yul\":4577:4593   */\n      dup1\n      dup3\n      gt\n        /* \"#utility.yul\":4574:4610   */\n      iszero\n      tag_153\n      jumpi\n        /* \"#utility.yul\":4606:4607   */\n      0x00\n        /* \"#utility.yul\":4603:4604   */\n      dup1\n        /* \"#utility.yul\":4596:4608   */\n      revert\n        /* \"#utility.yul\":4574:4610   */\n    tag_153:\n        /* \"#utility.yul\":4645:4706   */\n      tag_154\n        /* \"#utility.yul\":4698:4705   */\n      dup11\n        /* \"#utility.yul\":4687:4695   */\n      dup4\n        /* \"#utility.yul\":4676:4685   */\n      dup12\n        /* \"#utility.yul\":4672:4696   */\n      add\n        /* \"#utility.yul\":4645:4706   */\n      tag_111\n      jump\t// in\n    tag_154:\n        /* \"#utility.yul\":4725:4733   */\n      swap1\n      swap7\n      pop\n        /* \"#utility.yul\":4619:4706   */\n      swap5\n      pop\n        /* \"#utility.yul\":4813:4815   */\n      0x40\n        /* \"#utility.yul\":4798:4816   */\n      dup10\n      add\n        /* \"#utility.yul\":4785:4817   */\n      calldataload\n      swap2\n      pop\n        /* \"#utility.yul\":4829:4845   */\n      dup1\n      dup3\n      gt\n        /* \"#utility.yul\":4826:4862   */\n      iszero\n      tag_155\n      jumpi\n        /* \"#utility.yul\":4858:4859   */\n      0x00\n        /* \"#utility.yul\":4855:4856   */\n      dup1\n        /* \"#utility.yul\":4848:4860   */\n      revert\n        /* \"#utility.yul\":4826:4862   */\n    tag_155:\n      pop\n        /* \"#utility.yul\":4897:4958   */\n      tag_156\n        /* \"#utility.yul\":4950:4957   */\n      dup10\n        /* \"#utility.yul\":4939:4947   */\n      dup3\n        /* \"#utility.yul\":4928:4937   */\n      dup11\n        /* \"#utility.yul\":4924:4948   */\n      add\n        /* \"#utility.yul\":4897:4958   */\n      tag_111\n      jump\t// in\n    tag_156:\n        /* \"#utility.yul\":4008:5018   */\n      swap8\n      swap11\n      swap7\n      swap10\n      pop\n      swap5\n      swap8\n      pop\n      swap3\n      swap6\n        /* \"#utility.yul\":4977:4985   */\n      swap4\n      swap5\n        /* \"#utility.yul\":4008:5018   */\n      swap3\n      pop\n      pop\n      pop\n      jump\t// out\n        /* \"#utility.yul\":5023:5294   */\n    tag_50:\n        /* \"#utility.yul\":5206:5212   */\n      dup2\n        /* \"#utility.yul\":5198:5204   */\n      dup4\n        /* \"#utility.yul\":5193:5196   */\n      dup3\n        /* \"#utility.yul\":5180:5213   */\n      calldatacopy\n        /* \"#utility.yul\":5162:5165   */\n      0x00\n        /* \"#utility.yul\":5232:5248   */\n      swap2\n      add\n        /* \"#utility.yul\":5257:5270   */\n      swap1\n      dup2\n      mstore\n        /* \"#utility.yul\":5232:5248   */\n      swap2\n        /* \"#utility.yul\":5023:5294   */\n      swap1\n      pop\n      jump\t// out\n        /* \"#utility.yul\":5299:5566   */\n    tag_113:\n        /* \"#utility.yul\":5388:5394   */\n      dup2\n        /* \"#utility.yul\":5383:5386   */\n      dup4\n        /* \"#utility.yul\":5376:5395   */\n      mstore\n        /* \"#utility.yul\":5440:5446   */\n      dup2\n        /* \"#utility.yul\":5433:5438   */\n      dup2\n        /* \"#utility.yul\":5426:5430   */\n      0x20\n        /* \"#utility.yul\":5421:5424   */\n      dup6\n        /* \"#utility.yul\":5417:5431   */\n      add\n        /* \"#utility.yul\":5404:5447   */\n      calldatacopy\n      pop\n        /* \"#utility.yul\":5492:5493   */\n      0x00\n        /* \"#utility.yul\":5467:5483   */\n      dup3\n      dup3\n      add\n        /* \"#utility.yul\":5485:5489   */\n      0x20\n        /* \"#utility.yul\":5463:5490   */\n      swap1\n      dup2\n      add\n        /* \"#utility.yul\":5456:5494   */\n      swap2\n      swap1\n      swap2\n      mstore\n        /* \"#utility.yul\":5548:5550   */\n      0x1f\n        /* \"#utility.yul\":5527:5542   */\n      swap1\n      swap2\n      add\n      not(0x1f)\n        /* \"#utility.yul\":5523:5552   */\n      and\n        /* \"#utility.yul\":5514:5553   */\n      swap1\n      swap2\n      add\n        /* \"#utility.yul\":5510:5560   */\n      add\n      swap1\n        /* \"#utility.yul\":5299:5566   */\n      jump\t// out\n        /* \"#utility.yul\":5571:6415   */\n    tag_52:\n        /* \"#utility.yul\":5930:5936   */\n      dup10\n        /* \"#utility.yul\":5919:5928   */\n      dup2\n        /* \"#utility.yul\":5912:5937   */\n      mstore\n        /* \"#utility.yul\":5973:5976   */\n      0xc0\n        /* \"#utility.yul\":5968:5970   */\n      0x20\n        /* \"#utility.yul\":5957:5966   */\n      dup3\n        /* \"#utility.yul\":5953:5971   */\n      add\n        /* \"#utility.yul\":5946:5977   */\n      mstore\n        /* \"#utility.yul\":5893:5897   */\n      0x00\n        /* \"#utility.yul\":6000:6063   */\n      tag_160\n        /* \"#utility.yul\":6058:6061   */\n      0xc0\n        /* \"#utility.yul\":6047:6056   */\n      dup4\n        /* \"#utility.yul\":6043:6062   */\n      add\n        /* \"#utility.yul\":6035:6041   */\n      dup11\n        /* \"#utility.yul\":6027:6033   */\n      dup13\n        /* \"#utility.yul\":6000:6063   */\n      tag_113\n      jump\t// in\n    tag_160:\n        /* \"#utility.yul\":6111:6120   */\n      dup3\n        /* \"#utility.yul\":6103:6109   */\n      dup2\n        /* \"#utility.yul\":6099:6121   */\n      sub\n        /* \"#utility.yul\":6094:6096   */\n      0x40\n        /* \"#utility.yul\":6083:6092   */\n      dup5\n        /* \"#utility.yul\":6079:6097   */\n      add\n        /* \"#utility.yul\":6072:6122   */\n      mstore\n        /* \"#utility.yul\":6145:6195   */\n      tag_161\n        /* \"#utility.yul\":6188:6194   */\n      dup2\n        /* \"#utility.yul\":6180:6186   */\n      dup10\n        /* \"#utility.yul\":6172:6178   */\n      dup12\n        /* \"#utility.yul\":6145:6195   */\n      tag_113\n      jump\t// in\n    tag_161:\n        /* \"#utility.yul\":6131:6195   */\n      swap1\n      pop\n        /* \"#utility.yul\":6231:6237   */\n      dup7\n        /* \"#utility.yul\":6226:6228   */\n      0x60\n        /* \"#utility.yul\":6215:6224   */\n      dup5\n        /* \"#utility.yul\":6211:6229   */\n      add\n        /* \"#utility.yul\":6204:6238   */\n      mstore\n        /* \"#utility.yul\":6287:6296   */\n      dup3\n        /* \"#utility.yul\":6279:6285   */\n      dup2\n        /* \"#utility.yul\":6275:6297   */\n      sub\n        /* \"#utility.yul\":6269:6272   */\n      0x80\n        /* \"#utility.yul\":6258:6267   */\n      dup5\n        /* \"#utility.yul\":6254:6273   */\n      add\n        /* \"#utility.yul\":6247:6298   */\n      mstore\n        /* \"#utility.yul\":6315:6365   */\n      tag_162\n        /* \"#utility.yul\":6358:6364   */\n      dup2\n        /* \"#utility.yul\":6350:6356   */\n      dup7\n        /* \"#utility.yul\":6342:6348   */\n      dup9\n        /* \"#utility.yul\":6315:6365   */\n      tag_113\n      jump\t// in\n    tag_162:\n        /* \"#utility.yul\":6307:6365   */\n      swap2\n      pop\n      pop\n        /* \"#utility.yul\":6402:6408   */\n      dup3\n        /* \"#utility.yul\":6396:6399   */\n      0xa0\n        /* \"#utility.yul\":6385:6394   */\n      dup4\n        /* \"#utility.yul\":6381:6400   */\n      add\n        /* \"#utility.yul\":6374:6409   */\n      mstore\n        /* \"#utility.yul\":5571:6415   */\n      swap11\n      swap10\n      pop\n      pop\n      pop\n      pop\n      pop\n      pop\n      pop\n      pop\n      pop\n      pop\n      jump\t// out\n        /* \"#utility.yul\":6420:6697   */\n    tag_56:\n        /* \"#utility.yul\":6487:6493   */\n      0x00\n        /* \"#utility.yul\":6540:6542   */\n      0x20\n        /* \"#utility.yul\":6528:6537   */\n      dup3\n        /* \"#utility.yul\":6519:6526   */\n      dup5\n        /* \"#utility.yul\":6515:6538   */\n      sub\n        /* \"#utility.yul\":6511:6543   */\n      slt\n        /* \"#utility.yul\":6508:6560   */\n      iszero\n      tag_164\n      jumpi\n        /* \"#utility.yul\":6556:6557   */\n      0x00\n        /* \"#utility.yul\":6553:6554   */\n      dup1\n        /* \"#utility.yul\":6546:6558   */\n      revert\n        /* \"#utility.yul\":6508:6560   */\n    tag_164:\n        /* \"#utility.yul\":6588:6597   */\n      dup2\n        /* \"#utility.yul\":6582:6598   */\n      mload\n        /* \"#utility.yul\":6641:6646   */\n      dup1\n        /* \"#utility.yul\":6634:6647   */\n      iszero\n        /* \"#utility.yul\":6627:6648   */\n      iszero\n        /* \"#utility.yul\":6620:6625   */\n      dup2\n        /* \"#utility.yul\":6617:6649   */\n      eq\n        /* \"#utility.yul\":6607:6667   */\n      tag_139\n      jumpi\n        /* \"#utility.yul\":6663:6664   */\n      0x00\n        /* \"#utility.yul\":6660:6661   */\n      dup1\n        /* \"#utility.yul\":6653:6665   */\n      revert\n        /* \"#utility.yul\":6702:7082   */\n    tag_61:\n        /* \"#utility.yul\":6781:6782   */\n      0x01\n        /* \"#utility.yul\":6777:6789   */\n      dup2\n      dup2\n      shr\n      swap1\n        /* \"#utility.yul\":6824:6836   */\n      dup3\n      and\n      dup1\n        /* \"#utility.yul\":6845:6906   */\n      tag_167\n      jumpi\n        /* \"#utility.yul\":6899:6903   */\n      0x7f\n        /* \"#utility.yul\":6891:6897   */\n      dup3\n        /* \"#utility.yul\":6887:6904   */\n      and\n        /* \"#utility.yul\":6877:6904   */\n      swap2\n      pop\n        /* \"#utility.yul\":6845:6906   */\n    tag_167:\n        /* \"#utility.yul\":6952:6954   */\n      0x20\n        /* \"#utility.yul\":6944:6950   */\n      dup3\n        /* \"#utility.yul\":6941:6955   */\n      lt\n        /* \"#utility.yul\":6921:6939   */\n      dup2\n        /* \"#utility.yul\":6918:6956   */\n      sub\n        /* \"#utility.yul\":6915:7076   */\n      tag_168\n      jumpi\n        /* \"#utility.yul\":6998:7008   */\n      0x4e487b71\n        /* \"#utility.yul\":6993:6996   */\n      0xe0\n        /* \"#utility.yul\":6989:7009   */\n      shl\n        /* \"#utility.yul\":6986:6987   */\n      0x00\n        /* \"#utility.yul\":6979:7010   */\n      mstore\n        /* \"#utility.yul\":7033:7037   */\n      0x22\n        /* \"#utility.yul\":7030:7031   */\n      0x04\n        /* \"#utility.yul\":7023:7038   */\n      mstore\n        /* \"#utility.yul\":7061:7065   */\n      0x24\n        /* \"#utility.yul\":7058:7059   */\n      0x00\n        /* \"#utility.yul\":7051:7066   */\n      revert\n        /* \"#utility.yul\":6915:7076   */\n    tag_168:\n      pop\n        /* \"#utility.yul\":6702:7082   */\n      swap2\n      swap1\n      pop\n      jump\t// out\n        /* \"#utility.yul\":7087:7668   */\n    tag_74:\n        /* \"#utility.yul\":7360:7366   */\n      dup7\n        /* \"#utility.yul\":7349:7358   */\n      dup2\n        /* \"#utility.yul\":7342:7367   */\n      mstore\n        /* \"#utility.yul\":7403:7406   */\n      0x80\n        /* \"#utility.yul\":7398:7400   */\n      0x20\n        /* \"#utility.yul\":7387:7396   */\n      dup3\n        /* \"#utility.yul\":7383:7401   */\n      add\n        /* \"#utility.yul\":7376:7407   */\n      mstore\n        /* \"#utility.yul\":7323:7327   */\n      0x00\n        /* \"#utility.yul\":7430:7493   */\n      tag_170\n        /* \"#utility.yul\":7488:7491   */\n      0x80\n        /* \"#utility.yul\":7477:7486   */\n      dup4\n        /* \"#utility.yul\":7473:7492   */\n      add\n        /* \"#utility.yul\":7465:7471   */\n      dup8\n        /* \"#utility.yul\":7457:7463   */\n      dup10\n        /* \"#utility.yul\":7430:7493   */\n      tag_113\n      jump\t// in\n    tag_170:\n        /* \"#utility.yul\":7541:7550   */\n      dup3\n        /* \"#utility.yul\":7533:7539   */\n      dup2\n        /* \"#utility.yul\":7529:7551   */\n      sub\n        /* \"#utility.yul\":7524:7526   */\n      0x40\n        /* \"#utility.yul\":7513:7522   */\n      dup5\n        /* \"#utility.yul\":7509:7527   */\n      add\n        /* \"#utility.yul\":7502:7552   */\n      mstore\n        /* \"#utility.yul\":7569:7619   */\n      tag_171\n        /* \"#utility.yul\":7612:7618   */\n      dup2\n        /* \"#utility.yul\":7604:7610   */\n      dup7\n        /* \"#utility.yul\":7596:7602   */\n      dup9\n        /* \"#utility.yul\":7569:7619   */\n      tag_113\n      jump\t// in\n    tag_171:\n        /* \"#utility.yul\":7561:7619   */\n      swap2\n      pop\n      pop\n        /* \"#utility.yul\":7655:7661   */\n      dup3\n        /* \"#utility.yul\":7650:7652   */\n      0x60\n        /* \"#utility.yul\":7639:7648   */\n      dup4\n        /* \"#utility.yul\":7635:7653   */\n      add\n        /* \"#utility.yul\":7628:7662   */\n      mstore\n        /* \"#utility.yul\":7087:7668   */\n      swap8\n      swap7\n      pop\n      pop\n      pop\n      pop\n      pop\n      pop\n      pop\n      jump\t// out\n        /* \"#utility.yul\":8025:8272   */\n    tag_86:\n        /* \"#utility.yul\":8184:8186   */\n      0x20\n        /* \"#utility.yul\":8173:8182   */\n      dup2\n        /* \"#utility.yul\":8166:8187   */\n      mstore\n        /* \"#utility.yul\":8147:8151   */\n      0x00\n        /* \"#utility.yul\":8204:8266   */\n      tag_174\n        /* \"#utility.yul\":8262:8264   */\n      0x20\n        /* \"#utility.yul\":8251:8260   */\n      dup4\n        /* \"#utility.yul\":8247:8265   */\n      add\n        /* \"#utility.yul\":8239:8245   */\n      dup5\n        /* \"#utility.yul\":8231:8237   */\n      dup7\n        /* \"#utility.yul\":8204:8266   */\n      tag_113\n      jump\t// in\n    tag_174:\n        /* \"#utility.yul\":8196:8266   */\n      swap5\n        /* \"#utility.yul\":8025:8272   */\n      swap4\n      pop\n      pop\n      pop\n      pop\n      jump\t// out\n        /* \"#utility.yul\":8277:9076   */\n    tag_88:\n        /* \"#utility.yul\":8559:8563   */\n      0x00\n        /* \"#utility.yul\":8605:8606   */\n      0x01\n        /* \"#utility.yul\":8601:8602   */\n      dup1\n        /* \"#utility.yul\":8596:8599   */\n      0xa0\n        /* \"#utility.yul\":8592:8603   */\n      shl\n        /* \"#utility.yul\":8588:8607   */\n      sub\n        /* \"#utility.yul\":8646:8648   */\n      dup1\n        /* \"#utility.yul\":8638:8644   */\n      dup11\n        /* \"#utility.yul\":8634:8649   */\n      and\n        /* \"#utility.yul\":8623:8632   */\n      dup4\n        /* \"#utility.yul\":8616:8650   */\n      mstore\n        /* \"#utility.yul\":8686:8689   */\n      0xa0\n        /* \"#utility.yul\":8681:8683   */\n      0x20\n        /* \"#utility.yul\":8670:8679   */\n      dup5\n        /* \"#utility.yul\":8666:8684   */\n      add\n        /* \"#utility.yul\":8659:8690   */\n      mstore\n        /* \"#utility.yul\":8713:8776   */\n      tag_176\n        /* \"#utility.yul\":8771:8774   */\n      0xa0\n        /* \"#utility.yul\":8760:8769   */\n      dup5\n        /* \"#utility.yul\":8756:8775   */\n      add\n        /* \"#utility.yul\":8748:8754   */\n      dup10\n        /* \"#utility.yul\":8740:8746   */\n      dup12\n        /* \"#utility.yul\":8713:8776   */\n      tag_113\n      jump\t// in\n    tag_176:\n        /* \"#utility.yul\":8824:8833   */\n      dup4\n        /* \"#utility.yul\":8816:8822   */\n      dup2\n        /* \"#utility.yul\":8812:8834   */\n      sub\n        /* \"#utility.yul\":8807:8809   */\n      0x40\n        /* \"#utility.yul\":8796:8805   */\n      dup6\n        /* \"#utility.yul\":8792:8810   */\n      add\n        /* \"#utility.yul\":8785:8835   */\n      mstore\n        /* \"#utility.yul\":8858:8908   */\n      tag_177\n        /* \"#utility.yul\":8901:8907   */\n      dup2\n        /* \"#utility.yul\":8893:8899   */\n      dup9\n        /* \"#utility.yul\":8885:8891   */\n      dup11\n        /* \"#utility.yul\":8858:8908   */\n      tag_113\n      jump\t// in\n    tag_177:\n        /* \"#utility.yul\":8844:8908   */\n      swap1\n      pop\n        /* \"#utility.yul\":8956:8965   */\n      dup4\n        /* \"#utility.yul\":8948:8954   */\n      dup2\n        /* \"#utility.yul\":8944:8966   */\n      sub\n        /* \"#utility.yul\":8939:8941   */\n      0x60\n        /* \"#utility.yul\":8928:8937   */\n      dup6\n        /* \"#utility.yul\":8924:8942   */\n      add\n        /* \"#utility.yul\":8917:8967   */\n      mstore\n        /* \"#utility.yul\":8984:9017   */\n      tag_178\n        /* \"#utility.yul\":9010:9016   */\n      dup2\n        /* \"#utility.yul\":9002:9008   */\n      dup8\n        /* \"#utility.yul\":8984:9017   */\n      tag_112\n      jump\t// in\n    tag_178:\n        /* \"#utility.yul\":8976:9017   */\n      swap3\n      pop\n      pop\n        /* \"#utility.yul\":9066:9068   */\n      dup1\n        /* \"#utility.yul\":9058:9064   */\n      dup5\n        /* \"#utility.yul\":9054:9069   */\n      and\n        /* \"#utility.yul\":9048:9051   */\n      0x80\n        /* \"#utility.yul\":9037:9046   */\n      dup5\n        /* \"#utility.yul\":9033:9052   */\n      add\n        /* \"#utility.yul\":9026:9070   */\n      mstore\n      pop\n        /* \"#utility.yul\":8277:9076   */\n      swap9\n      swap8\n      pop\n      pop\n      pop\n      pop\n      pop\n      pop\n      pop\n      pop\n      jump\t// out\n        /* \"#utility.yul\":9081:9679   */\n    tag_93:\n        /* \"#utility.yul\":9344:9346   */\n      0x60\n        /* \"#utility.yul\":9333:9342   */\n      dup2\n        /* \"#utility.yul\":9326:9347   */\n      mstore\n        /* \"#utility.yul\":9307:9311   */\n      0x00\n        /* \"#utility.yul\":9370:9432   */\n      tag_180\n        /* \"#utility.yul\":9428:9430   */\n      0x60\n        /* \"#utility.yul\":9417:9426   */\n      dup4\n        /* \"#utility.yul\":9413:9431   */\n      add\n        /* \"#utility.yul\":9405:9411   */\n      dup8\n        /* \"#utility.yul\":9397:9403   */\n      dup10\n        /* \"#utility.yul\":9370:9432   */\n      tag_113\n      jump\t// in\n    tag_180:\n        /* \"#utility.yul\":9480:9489   */\n      dup3\n        /* \"#utility.yul\":9472:9478   */\n      dup2\n        /* \"#utility.yul\":9468:9490   */\n      sub\n        /* \"#utility.yul\":9463:9465   */\n      0x20\n        /* \"#utility.yul\":9452:9461   */\n      dup5\n        /* \"#utility.yul\":9448:9466   */\n      add\n        /* \"#utility.yul\":9441:9491   */\n      mstore\n        /* \"#utility.yul\":9514:9564   */\n      tag_181\n        /* \"#utility.yul\":9557:9563   */\n      dup2\n        /* \"#utility.yul\":9549:9555   */\n      dup7\n        /* \"#utility.yul\":9541:9547   */\n      dup9\n        /* \"#utility.yul\":9514:9564   */\n      tag_113\n      jump\t// in\n    tag_181:\n        /* \"#utility.yul\":9500:9564   */\n      swap1\n      pop\n        /* \"#utility.yul\":9612:9621   */\n      dup3\n        /* \"#utility.yul\":9604:9610   */\n      dup2\n        /* \"#utility.yul\":9600:9622   */\n      sub\n        /* \"#utility.yul\":9595:9597   */\n      0x40\n        /* \"#utility.yul\":9584:9593   */\n      dup5\n        /* \"#utility.yul\":9580:9598   */\n      add\n        /* \"#utility.yul\":9573:9623   */\n      mstore\n        /* \"#utility.yul\":9640:9673   */\n      tag_182\n        /* \"#utility.yul\":9666:9672   */\n      dup2\n        /* \"#utility.yul\":9658:9664   */\n      dup6\n        /* \"#utility.yul\":9640:9673   */\n      tag_112\n      jump\t// in\n    tag_182:\n        /* \"#utility.yul\":9632:9673   */\n      swap9\n        /* \"#utility.yul\":9081:9679   */\n      swap8\n      pop\n      pop\n      pop\n      pop\n      pop\n      pop\n      pop\n      pop\n      jump\t// out\n        /* \"#utility.yul\":9684:9811   */\n    tag_114:\n        /* \"#utility.yul\":9745:9755   */\n      0x4e487b71\n        /* \"#utility.yul\":9740:9743   */\n      0xe0\n        /* \"#utility.yul\":9736:9756   */\n      shl\n        /* \"#utility.yul\":9733:9734   */\n      0x00\n        /* \"#utility.yul\":9726:9757   */\n      mstore\n        /* \"#utility.yul\":9776:9780   */\n      0x41\n        /* \"#utility.yul\":9773:9774   */\n      0x04\n        /* \"#utility.yul\":9766:9781   */\n      mstore\n        /* \"#utility.yul\":9800:9804   */\n      0x24\n        /* \"#utility.yul\":9797:9798   */\n      0x00\n        /* \"#utility.yul\":9790:9805   */\n      revert\n        /* \"#utility.yul\":9816:10738   */\n    tag_105:\n        /* \"#utility.yul\":9885:9891   */\n      0x00\n        /* \"#utility.yul\":9938:9940   */\n      0x20\n        /* \"#utility.yul\":9926:9935   */\n      dup3\n        /* \"#utility.yul\":9917:9924   */\n      dup5\n        /* \"#utility.yul\":9913:9936   */\n      sub\n        /* \"#utility.yul\":9909:9941   */\n      slt\n        /* \"#utility.yul\":9906:9958   */\n      iszero\n      tag_185\n      jumpi\n        /* \"#utility.yul\":9954:9955   */\n      0x00\n        /* \"#utility.yul\":9951:9952   */\n      dup1\n        /* \"#utility.yul\":9944:9956   */\n      revert\n        /* \"#utility.yul\":9906:9958   */\n    tag_185:\n        /* \"#utility.yul\":9994:10003   */\n      dup2\n        /* \"#utility.yul\":9981:10004   */\n      calldataload\n        /* \"#utility.yul\":10023:10041   */\n      0xffffffffffffffff\n        /* \"#utility.yul\":10064:10066   */\n      dup1\n        /* \"#utility.yul\":10056:10062   */\n      dup3\n        /* \"#utility.yul\":10053:10067   */\n      gt\n        /* \"#utility.yul\":10050:10084   */\n      iszero\n      tag_186\n      jumpi\n        /* \"#utility.yul\":10080:10081   */\n      0x00\n        /* \"#utility.yul\":10077:10078   */\n      dup1\n        /* \"#utility.yul\":10070:10082   */\n      revert\n        /* \"#utility.yul\":10050:10084   */\n    tag_186:\n        /* \"#utility.yul\":10118:10124   */\n      dup2\n        /* \"#utility.yul\":10107:10116   */\n      dup5\n        /* \"#utility.yul\":10103:10125   */\n      add\n        /* \"#utility.yul\":10093:10125   */\n      swap2\n      pop\n        /* \"#utility.yul\":10163:10170   */\n      dup5\n        /* \"#utility.yul\":10156:10160   */\n      0x1f\n        /* \"#utility.yul\":10152:10154   */\n      dup4\n        /* \"#utility.yul\":10148:10161   */\n      add\n        /* \"#utility.yul\":10144:10171   */\n      slt\n        /* \"#utility.yul\":10134:10189   */\n      tag_187\n      jumpi\n        /* \"#utility.yul\":10185:10186   */\n      0x00\n        /* \"#utility.yul\":10182:10183   */\n      dup1\n        /* \"#utility.yul\":10175:10187   */\n      revert\n        /* \"#utility.yul\":10134:10189   */\n    tag_187:\n        /* \"#utility.yul\":10221:10223   */\n      dup2\n        /* \"#utility.yul\":10208:10224   */\n      calldataload\n        /* \"#utility.yul\":10243:10245   */\n      dup2\n        /* \"#utility.yul\":10239:10241   */\n      dup2\n        /* \"#utility.yul\":10236:10246   */\n      gt\n        /* \"#utility.yul\":10233:10269   */\n      iszero\n      tag_189\n      jumpi\n        /* \"#utility.yul\":10249:10267   */\n      tag_189\n      tag_114\n      jump\t// in\n    tag_189:\n        /* \"#utility.yul\":10324:10326   */\n      0x40\n        /* \"#utility.yul\":10318:10327   */\n      mload\n        /* \"#utility.yul\":10292:10294   */\n      0x1f\n        /* \"#utility.yul\":10378:10391   */\n      dup3\n      add\n      not(0x1f)\n        /* \"#utility.yul\":10374:10396   */\n      swap1\n      dup2\n      and\n        /* \"#utility.yul\":10398:10400   */\n      0x3f\n        /* \"#utility.yul\":10370:10401   */\n      add\n        /* \"#utility.yul\":10366:10406   */\n      and\n        /* \"#utility.yul\":10354:10407   */\n      dup2\n      add\n      swap1\n        /* \"#utility.yul\":10422:10440   */\n      dup4\n      dup3\n      gt\n        /* \"#utility.yul\":10442:10464   */\n      dup2\n      dup4\n      lt\n        /* \"#utility.yul\":10419:10465   */\n      or\n        /* \"#utility.yul\":10416:10488   */\n      iszero\n      tag_191\n      jumpi\n        /* \"#utility.yul\":10468:10486   */\n      tag_191\n      tag_114\n      jump\t// in\n    tag_191:\n        /* \"#utility.yul\":10508:10518   */\n      dup2\n        /* \"#utility.yul\":10504:10506   */\n      0x40\n        /* \"#utility.yul\":10497:10519   */\n      mstore\n        /* \"#utility.yul\":10543:10545   */\n      dup3\n        /* \"#utility.yul\":10535:10541   */\n      dup2\n        /* \"#utility.yul\":10528:10546   */\n      mstore\n        /* \"#utility.yul\":10583:10590   */\n      dup8\n        /* \"#utility.yul\":10578:10580   */\n      0x20\n        /* \"#utility.yul\":10573:10575   */\n      dup5\n        /* \"#utility.yul\":10569:10571   */\n      dup8\n        /* \"#utility.yul\":10565:10576   */\n      add\n        /* \"#utility.yul\":10561:10581   */\n      add\n        /* \"#utility.yul\":10558:10591   */\n      gt\n        /* \"#utility.yul\":10555:10608   */\n      iszero\n      tag_192\n      jumpi\n        /* \"#utility.yul\":10604:10605   */\n      0x00\n        /* \"#utility.yul\":10601:10602   */\n      dup1\n        /* \"#utility.yul\":10594:10606   */\n      revert\n        /* \"#utility.yul\":10555:10608   */\n    tag_192:\n        /* \"#utility.yul\":10660:10662   */\n      dup3\n        /* \"#utility.yul\":10655:10657   */\n      0x20\n        /* \"#utility.yul\":10651:10653   */\n      dup7\n        /* \"#utility.yul\":10647:10658   */\n      add\n        /* \"#utility.yul\":10642:10644   */\n      0x20\n        /* \"#utility.yul\":10634:10640   */\n      dup4\n        /* \"#utility.yul\":10630:10645   */\n      add\n        /* \"#utility.yul\":10617:10663   */\n      calldatacopy\n        /* \"#utility.yul\":10705:10706   */\n      0x00\n        /* \"#utility.yul\":10683:10698   */\n      swap3\n      dup2\n      add\n        /* \"#utility.yul\":10700:10702   */\n      0x20\n        /* \"#utility.yul\":10679:10703   */\n      add\n        /* \"#utility.yul\":10672:10707   */\n      swap3\n      swap1\n      swap3\n      mstore\n      pop\n        /* \"#utility.yul\":10687:10693   */\n      swap6\n        /* \"#utility.yul\":9816:10738   */\n      swap5\n      pop\n      pop\n      pop\n      pop\n      pop\n      jump\t// out\n        /* \"#utility.yul\":10869:11414   */\n    tag_116:\n        /* \"#utility.yul\":10971:10973   */\n      0x1f\n        /* \"#utility.yul\":10966:10969   */\n      dup3\n        /* \"#utility.yul\":10963:10974   */\n      gt\n        /* \"#utility.yul\":10960:11408   */\n      iszero\n      tag_195\n      jumpi\n        /* \"#utility.yul\":11007:11008   */\n      0x00\n        /* \"#utility.yul\":11032:11037   */\n      dup2\n        /* \"#utility.yul\":11028:11030   */\n      dup2\n        /* \"#utility.yul\":11021:11038   */\n      mstore\n        /* \"#utility.yul\":11077:11081   */\n      0x20\n        /* \"#utility.yul\":11073:11075   */\n      dup2\n        /* \"#utility.yul\":11063:11082   */\n      keccak256\n        /* \"#utility.yul\":11147:11149   */\n      0x1f\n        /* \"#utility.yul\":11135:11145   */\n      dup6\n        /* \"#utility.yul\":11131:11150   */\n      add\n        /* \"#utility.yul\":11128:11129   */\n      0x05\n        /* \"#utility.yul\":11124:11151   */\n      shr\n        /* \"#utility.yul\":11118:11122   */\n      dup2\n        /* \"#utility.yul\":11114:11152   */\n      add\n        /* \"#utility.yul\":11183:11187   */\n      0x20\n        /* \"#utility.yul\":11171:11181   */\n      dup7\n        /* \"#utility.yul\":11168:11188   */\n      lt\n        /* \"#utility.yul\":11165:11212   */\n      iszero\n      tag_196\n      jumpi\n      pop\n        /* \"#utility.yul\":11206:11210   */\n      dup1\n        /* \"#utility.yul\":11165:11212   */\n    tag_196:\n        /* \"#utility.yul\":11261:11263   */\n      0x1f\n        /* \"#utility.yul\":11256:11259   */\n      dup6\n        /* \"#utility.yul\":11252:11264   */\n      add\n        /* \"#utility.yul\":11249:11250   */\n      0x05\n        /* \"#utility.yul\":11245:11265   */\n      shr\n        /* \"#utility.yul\":11239:11243   */\n      dup3\n        /* \"#utility.yul\":11235:11266   */\n      add\n        /* \"#utility.yul\":11225:11266   */\n      swap2\n      pop\n        /* \"#utility.yul\":11316:11398   */\n    tag_197:\n        /* \"#utility.yul\":11334:11336   */\n      dup2\n        /* \"#utility.yul\":11327:11332   */\n      dup2\n        /* \"#utility.yul\":11324:11337   */\n      lt\n        /* \"#utility.yul\":11316:11398   */\n      iszero\n      tag_199\n      jumpi\n        /* \"#utility.yul\":11379:11396   */\n      dup3\n      dup2\n      sstore\n        /* \"#utility.yul\":11360:11361   */\n      0x01\n        /* \"#utility.yul\":11349:11362   */\n      add\n        /* \"#utility.yul\":11316:11398   */\n      jump(tag_197)\n    tag_199:\n        /* \"#utility.yul\":11320:11323   */\n      pop\n      pop\n      pop\n        /* \"#utility.yul\":10960:11408   */\n    tag_195:\n        /* \"#utility.yul\":10869:11414   */\n      pop\n      pop\n      pop\n      jump\t// out\n        /* \"#utility.yul\":11590:12942   */\n    tag_107:\n        /* \"#utility.yul\":11716:11719   */\n      dup2\n        /* \"#utility.yul\":11710:11720   */\n      mload\n        /* \"#utility.yul\":11743:11761   */\n      0xffffffffffffffff\n        /* \"#utility.yul\":11735:11741   */\n      dup2\n        /* \"#utility.yul\":11732:11762   */\n      gt\n        /* \"#utility.yul\":11729:11785   */\n      iszero\n      tag_203\n      jumpi\n        /* \"#utility.yul\":11765:11783   */\n      tag_203\n      tag_114\n      jump\t// in\n    tag_203:\n        /* \"#utility.yul\":11794:11891   */\n      tag_204\n        /* \"#utility.yul\":11884:11890   */\n      dup2\n        /* \"#utility.yul\":11844:11882   */\n      tag_205\n        /* \"#utility.yul\":11876:11880   */\n      dup5\n        /* \"#utility.yul\":11870:11881   */\n      sload\n        /* \"#utility.yul\":11844:11882   */\n      tag_61\n      jump\t// in\n    tag_205:\n        /* \"#utility.yul\":11838:11842   */\n      dup5\n        /* \"#utility.yul\":11794:11891   */\n      tag_116\n      jump\t// in\n    tag_204:\n        /* \"#utility.yul\":11946:11950   */\n      0x20\n      dup1\n        /* \"#utility.yul\":12010:12012   */\n      0x1f\n        /* \"#utility.yul\":11999:12013   */\n      dup4\n      gt\n        /* \"#utility.yul\":12027:12028   */\n      0x01\n        /* \"#utility.yul\":12022:12685   */\n      dup2\n      eq\n      tag_207\n      jumpi\n        /* \"#utility.yul\":12729:12730   */\n      0x00\n        /* \"#utility.yul\":12746:12752   */\n      dup5\n        /* \"#utility.yul\":12743:12832   */\n      iszero\n      tag_208\n      jumpi\n      pop\n        /* \"#utility.yul\":12798:12817   */\n      dup6\n      dup4\n      add\n        /* \"#utility.yul\":12792:12818   */\n      mload\n        /* \"#utility.yul\":12743:12832   */\n    tag_208:\n      not(0x00)\n        /* \"#utility.yul\":11547:11548   */\n      0x03\n        /* \"#utility.yul\":11543:11554   */\n      dup7\n      swap1\n      shl\n        /* \"#utility.yul\":11539:11563   */\n      shr\n        /* \"#utility.yul\":11535:11564   */\n      not\n        /* \"#utility.yul\":11525:11565   */\n      and\n        /* \"#utility.yul\":11571:11572   */\n      0x01\n        /* \"#utility.yul\":11567:11578   */\n      dup6\n      swap1\n      shl\n        /* \"#utility.yul\":11522:11579   */\n      or\n        /* \"#utility.yul\":12845:12926   */\n      dup6\n      sstore\n        /* \"#utility.yul\":11992:12936   */\n      jump(tag_199)\n        /* \"#utility.yul\":12022:12685   */\n    tag_207:\n        /* \"#utility.yul\":10816:10817   */\n      0x00\n        /* \"#utility.yul\":10809:10823   */\n      dup6\n      dup2\n      mstore\n        /* \"#utility.yul\":10853:10857   */\n      0x20\n        /* \"#utility.yul\":10840:10858   */\n      dup2\n      keccak256\n      not(0x1f)\n        /* \"#utility.yul\":12058:12078   */\n      dup7\n      and\n      swap2\n        /* \"#utility.yul\":12176:12412   */\n    tag_211:\n        /* \"#utility.yul\":12190:12197   */\n      dup3\n        /* \"#utility.yul\":12187:12188   */\n      dup2\n        /* \"#utility.yul\":12184:12198   */\n      lt\n        /* \"#utility.yul\":12176:12412   */\n      iszero\n      tag_213\n      jumpi\n        /* \"#utility.yul\":12279:12298   */\n      dup9\n      dup7\n      add\n        /* \"#utility.yul\":12273:12299   */\n      mload\n        /* \"#utility.yul\":12258:12300   */\n      dup3\n      sstore\n        /* \"#utility.yul\":12371:12398   */\n      swap5\n      dup5\n      add\n      swap5\n        /* \"#utility.yul\":12339:12340   */\n      0x01\n        /* \"#utility.yul\":12327:12341   */\n      swap1\n      swap2\n      add\n      swap1\n        /* \"#utility.yul\":12206:12225   */\n      dup5\n      add\n        /* \"#utility.yul\":12176:12412   */\n      jump(tag_211)\n    tag_213:\n        /* \"#utility.yul\":12180:12183   */\n      pop\n        /* \"#utility.yul\":12440:12446   */\n      dup6\n        /* \"#utility.yul\":12431:12438   */\n      dup3\n        /* \"#utility.yul\":12428:12447   */\n      lt\n        /* \"#utility.yul\":12425:12626   */\n      iszero\n      tag_214\n      jumpi\n        /* \"#utility.yul\":12501:12520   */\n      dup8\n      dup6\n      add\n        /* \"#utility.yul\":12495:12521   */\n      mload\n      not(0x00)\n        /* \"#utility.yul\":12584:12585   */\n      0x03\n        /* \"#utility.yul\":12580:12594   */\n      dup9\n      swap1\n      shl\n        /* \"#utility.yul\":12596:12599   */\n      0xf8\n        /* \"#utility.yul\":12576:12600   */\n      and\n        /* \"#utility.yul\":12572:12609   */\n      shr\n        /* \"#utility.yul\":12568:12610   */\n      not\n        /* \"#utility.yul\":12553:12611   */\n      and\n        /* \"#utility.yul\":12538:12612   */\n      dup2\n      sstore\n        /* \"#utility.yul\":12425:12626   */\n    tag_214:\n      pop\n      pop\n      pop\n      pop\n      pop\n        /* \"#utility.yul\":12672:12673   */\n      0x01\n        /* \"#utility.yul\":12656:12670   */\n      swap1\n      dup2\n      shl\n        /* \"#utility.yul\":12652:12674   */\n      add\n        /* \"#utility.yul\":12639:12675   */\n      swap1\n      sstore\n      pop\n        /* \"#utility.yul\":11590:12942   */\n      jump\t// out\n        /* \"#utility.yul\":12947:14153   */\n    tag_109:\n        /* \"#utility.yul\":13071:13089   */\n      0xffffffffffffffff\n        /* \"#utility.yul\":13066:13069   */\n      dup4\n        /* \"#utility.yul\":13063:13090   */\n      gt\n        /* \"#utility.yul\":13060:13113   */\n      iszero\n      tag_217\n      jumpi\n        /* \"#utility.yul\":13093:13111   */\n      tag_217\n      tag_114\n      jump\t// in\n    tag_217:\n        /* \"#utility.yul\":13122:13216   */\n      tag_218\n        /* \"#utility.yul\":13212:13215   */\n      dup4\n        /* \"#utility.yul\":13172:13210   */\n      tag_219\n        /* \"#utility.yul\":13204:13208   */\n      dup4\n        /* \"#utility.yul\":13198:13209   */\n      sload\n        /* \"#utility.yul\":13172:13210   */\n      tag_61\n      jump\t// in\n    tag_219:\n        /* \"#utility.yul\":13166:13170   */\n      dup4\n        /* \"#utility.yul\":13122:13216   */\n      tag_116\n      jump\t// in\n    tag_218:\n        /* \"#utility.yul\":13242:13243   */\n      0x00\n        /* \"#utility.yul\":13267:13269   */\n      0x1f\n        /* \"#utility.yul\":13262:13265   */\n      dup5\n        /* \"#utility.yul\":13259:13270   */\n      gt\n        /* \"#utility.yul\":13284:13285   */\n      0x01\n        /* \"#utility.yul\":13279:13895   */\n      dup2\n      eq\n      tag_221\n      jumpi\n        /* \"#utility.yul\":13939:13940   */\n      0x00\n        /* \"#utility.yul\":13956:13959   */\n      dup6\n        /* \"#utility.yul\":13953:14046   */\n      iszero\n      tag_222\n      jumpi\n      pop\n        /* \"#utility.yul\":14012:14031   */\n      dup4\n      dup3\n      add\n        /* \"#utility.yul\":13999:14032   */\n      calldataload\n        /* \"#utility.yul\":13953:14046   */\n    tag_222:\n      not(0x00)\n        /* \"#utility.yul\":11547:11548   */\n      0x03\n        /* \"#utility.yul\":11543:11554   */\n      dup8\n      swap1\n      shl\n        /* \"#utility.yul\":11539:11563   */\n      shr\n        /* \"#utility.yul\":11535:11564   */\n      not\n        /* \"#utility.yul\":11525:11565   */\n      and\n        /* \"#utility.yul\":11571:11572   */\n      0x01\n        /* \"#utility.yul\":11567:11578   */\n      dup7\n      swap1\n      shl\n        /* \"#utility.yul\":11522:11579   */\n      or\n        /* \"#utility.yul\":14059:14137   */\n      dup4\n      sstore\n        /* \"#utility.yul\":13252:14147   */\n      jump(tag_220)\n        /* \"#utility.yul\":13279:13895   */\n    tag_221:\n        /* \"#utility.yul\":10816:10817   */\n      0x00\n        /* \"#utility.yul\":10809:10823   */\n      dup4\n      dup2\n      mstore\n        /* \"#utility.yul\":10853:10857   */\n      0x20\n        /* \"#utility.yul\":10840:10858   */\n      swap1\n      keccak256\n      not(0x1f)\n        /* \"#utility.yul\":13315:13332   */\n      dup7\n      and\n      swap1\n        /* \"#utility.yul\":13416:13425   */\n      dup4\n        /* \"#utility.yul\":13438:13667   */\n    tag_225:\n        /* \"#utility.yul\":13452:13459   */\n      dup3\n        /* \"#utility.yul\":13449:13450   */\n      dup2\n        /* \"#utility.yul\":13446:13460   */\n      lt\n        /* \"#utility.yul\":13438:13667   */\n      iszero\n      tag_227\n      jumpi\n        /* \"#utility.yul\":13541:13560   */\n      dup7\n      dup6\n      add\n        /* \"#utility.yul\":13528:13561   */\n      calldataload\n        /* \"#utility.yul\":13513:13562   */\n      dup3\n      sstore\n        /* \"#utility.yul\":13648:13652   */\n      0x20\n        /* \"#utility.yul\":13633:13653   */\n      swap5\n      dup6\n      add\n      swap5\n        /* \"#utility.yul\":13601:13602   */\n      0x01\n        /* \"#utility.yul\":13589:13603   */\n      swap1\n      swap3\n      add\n      swap2\n        /* \"#utility.yul\":13468:13480   */\n      add\n        /* \"#utility.yul\":13438:13667   */\n      jump(tag_225)\n    tag_227:\n        /* \"#utility.yul\":13442:13445   */\n      pop\n        /* \"#utility.yul\":13695:13698   */\n      dup7\n        /* \"#utility.yul\":13686:13693   */\n      dup3\n        /* \"#utility.yul\":13683:13699   */\n      lt\n        /* \"#utility.yul\":13680:13839   */\n      iszero\n      tag_228\n      jumpi\n        /* \"#utility.yul\":13819:13820   */\n      0x00\n        /* \"#utility.yul\":13815:13821   */\n      not\n        /* \"#utility.yul\":13809:13812   */\n      0xf8\n        /* \"#utility.yul\":13803:13806   */\n      dup9\n        /* \"#utility.yul\":13800:13801   */\n      0x03\n        /* \"#utility.yul\":13796:13807   */\n      shl\n        /* \"#utility.yul\":13792:13813   */\n      and\n        /* \"#utility.yul\":13788:13822   */\n      shr\n        /* \"#utility.yul\":13784:13823   */\n      not\n        /* \"#utility.yul\":13771:13780   */\n      dup5\n        /* \"#utility.yul\":13766:13769   */\n      dup8\n        /* \"#utility.yul\":13762:13781   */\n      add\n        /* \"#utility.yul\":13749:13782   */\n      calldataload\n        /* \"#utility.yul\":13745:13824   */\n      and\n        /* \"#utility.yul\":13737:13743   */\n      dup2\n        /* \"#utility.yul\":13730:13825   */\n      sstore\n        /* \"#utility.yul\":13680:13839   */\n    tag_228:\n      pop\n      pop\n        /* \"#utility.yul\":13882:13883   */\n      0x01\n        /* \"#utility.yul\":13876:13879   */\n      dup6\n        /* \"#utility.yul\":13873:13874   */\n      0x01\n        /* \"#utility.yul\":13869:13880   */\n      shl\n        /* \"#utility.yul\":13865:13884   */\n      add\n        /* \"#utility.yul\":13859:13863   */\n      dup4\n        /* \"#utility.yul\":13852:13885   */\n      sstore\n        /* \"#utility.yul\":13252:14147   */\n    tag_220:\n      pop\n      pop\n        /* \"#utility.yul\":12947:14153   */\n      pop\n      pop\n      pop\n      jump\t// out\n\n    auxdata: 0xa26469706673582212203169031e55509799b2021f25eb26881eef7d8afd103c1f832635e5202229ecdd64736f6c63430008120033\n}\n",
				"bytecode": {
					"linkReferences": {},
					"object": "60c060405234801561001057600080fd5b50604051610e64380380610e6483398101604081905261002f9161008b565b816001600160a01b0381166100575760405163e6c4247b60e01b815260040160405180910390fd5b6001600160a01b039081166080521660a052506100be565b80516001600160a01b038116811461008657600080fd5b919050565b6000806040838503121561009e57600080fd5b6100a78361006f565b91506100b56020840161006f565b90509250929050565b60805160a051610d666100fe6000396000818161015c015261049c0152600081816092015281816101d70152818161035501526105250152610d666000f3fe60806040526004361061007b5760003560e01c8063491606581161004e578063491606581461012a5780636a22d8cc1461014a57806380d326971461017e578063b0fa84441461019157600080fd5b8063116191b6146100805780631a98b2e0146100d15780631c6ffa46146100f35780633fa4f24514610115575b600080fd5b34801561008c57600080fd5b506100b47f000000000000000000000000000000000000000000000000000000000000000081565b6040516001600160a01b0390911681526020015b60405180910390f35b3480156100dd57600080fd5b506100f16100ec366004610627565b6101a6565b005b3480156100ff57600080fd5b50610108610289565b6040516100c89190610747565b34801561012157600080fd5b50610108610317565b34801561013657600080fd5b506100f1610145366004610761565b610324565b34801561015657600080fd5b506100b47f000000000000000000000000000000000000000000000000000000000000000081565b6100f161018c366004610805565b61040c565b34801561019d57600080fd5b50610108610593565b600085856040516101b892919061089f565b604051908190038120631876eed960e01b825291506001600160a01b037f00000000000000000000000000000000000000000000000000000000000000001690631876eed99061021c908e908e908e908e908e9089908d908d908d906004016108d8565b6020604051808303816000875af115801561023b573d6000803e3d6000fd5b505050506040513d601f19601f8201168201806040525081019061025f9190610937565b61027c57604051631403112d60e21b815260040160405180910390fd5b5050505050505050505050565b6001805461029690610959565b80601f01602080910402602001604051908101604052809291908181526020018280546102c290610959565b801561030f5780601f106102e45761010080835404028352916020019161030f565b820191906000526020600020905b8154815290600101906020018083116102f257829003601f168201915b505050505081565b6000805461029690610959565b6000828260405161033692919061089f565b604051908190038120635f6970c360e01b825291506001600160a01b037f00000000000000000000000000000000000000000000000000000000000000001690635f6970c390610394908b908b908b908b908b908990600401610993565b6020604051808303816000875af11580156103b3573d6000803e3d6000fd5b505050506040513d601f19601f820116820180604052508101906103d79190610937565b6103f457604051631403112d60e21b815260040160405180910390fd5b6104028787878787876105a0565b5050505050505050565b600034116104605760405162461bcd60e51b815260206004820152601760248201527f476173207061796d656e74206973207265717569726564000000000000000000604482015260640160405180910390fd5b600082826040516020016104759291906109d4565b60408051601f1981840301815290829052630c93e3bb60e01b825291506001600160a01b037f00000000000000000000000000000000000000000000000000000000000000001690630c93e3bb9034906104df9030908c908c908c908c908a9033906004016109f0565b6000604051808303818588803b1580156104f857600080fd5b505af115801561050c573d6000803e3d6000fd5b5050604051631c92115f60e01b81526001600160a01b037f0000000000000000000000000000000000000000000000000000000000000000169350631c92115f925061056591508a908a908a908a908890600401610a52565b600060405180830381600087803b15801561057f57600080fd5b505af115801561027c573d6000803e3d6000fd5b6002805461029690610959565b6105ac81830183610aaf565b6000906105b99082610baf565b5060016105c7868883610c6f565b5060026105d5848683610c6f565b50505050505050565b60008083601f8401126105f057600080fd5b50813567ffffffffffffffff81111561060857600080fd5b60208301915083602082850101111561062057600080fd5b9250929050565b60008060008060008060008060008060c08b8d03121561064657600080fd5b8a35995060208b013567ffffffffffffffff8082111561066557600080fd5b6106718e838f016105de565b909b50995060408d013591508082111561068a57600080fd5b6106968e838f016105de565b909950975060608d01359150808211156106af57600080fd5b6106bb8e838f016105de565b909750955060808d01359150808211156106d457600080fd5b506106e18d828e016105de565b9150809450508092505060a08b013590509295989b9194979a5092959850565b6000815180845260005b818110156107275760208185018101518683018201520161070b565b506000602082860101526020601f19601f83011685010191505092915050565b60208152600061075a6020830184610701565b9392505050565b60008060008060008060006080888a03121561077c57600080fd5b87359650602088013567ffffffffffffffff8082111561079b57600080fd5b6107a78b838c016105de565b909850965060408a01359150808211156107c057600080fd5b6107cc8b838c016105de565b909650945060608a01359150808211156107e557600080fd5b506107f28a828b016105de565b989b979a50959850939692959293505050565b6000806000806000806060878903121561081e57600080fd5b863567ffffffffffffffff8082111561083657600080fd5b6108428a838b016105de565b9098509650602089013591508082111561085b57600080fd5b6108678a838b016105de565b9096509450604089013591508082111561088057600080fd5b5061088d89828a016105de565b979a9699509497509295939492505050565b8183823760009101908152919050565b81835281816020850137506000828201602090810191909152601f909101601f19169091010190565b89815260c0602082015260006108f260c083018a8c6108af565b828103604084015261090581898b6108af565b905086606084015282810360808401526109208186886108af565b9150508260a08301529a9950505050505050505050565b60006020828403121561094957600080fd5b8151801515811461075a57600080fd5b600181811c9082168061096d57607f821691505b60208210810361098d57634e487b7160e01b600052602260045260246000fd5b50919050565b8681526080602082015260006109ad6080830187896108af565b82810360408401526109c08186886108af565b915050826060830152979650505050505050565b6020815260006109e86020830184866108af565b949350505050565b600060018060a01b03808a16835260a06020840152610a1360a08401898b6108af565b8381036040850152610a2681888a6108af565b90508381036060850152610a3a8187610701565b92505080841660808401525098975050505050505050565b606081526000610a666060830187896108af565b8281036020840152610a798186886108af565b90508281036040840152610a8d8185610701565b98975050505050505050565b634e487b7160e01b600052604160045260246000fd5b600060208284031215610ac157600080fd5b813567ffffffffffffffff80821115610ad957600080fd5b818401915084601f830112610aed57600080fd5b813581811115610aff57610aff610a99565b604051601f8201601f19908116603f01168101908382118183101715610b2757610b27610a99565b81604052828152876020848701011115610b4057600080fd5b826020860160208301376000928101602001929092525095945050505050565b601f821115610baa57600081815260208120601f850160051c81016020861015610b875750805b601f850160051c820191505b81811015610ba657828155600101610b93565b5050505b505050565b815167ffffffffffffffff811115610bc957610bc9610a99565b610bdd81610bd78454610959565b84610b60565b602080601f831160018114610c125760008415610bfa5750858301515b600019600386901b1c1916600185901b178555610ba6565b600085815260208120601f198616915b82811015610c4157888601518255948401946001909101908401610c22565b5085821015610c5f5787850151600019600388901b60f8161c191681555b5050505050600190811b01905550565b67ffffffffffffffff831115610c8757610c87610a99565b610c9b83610c958354610959565b83610b60565b6000601f841160018114610ccf5760008515610cb75750838201355b600019600387901b1c1916600186901b178355610d29565b600083815260209020601f19861690835b82811015610d005786850135825560209485019460019092019101610ce0565b5086821015610d1d5760001960f88860031b161c19848701351681555b505060018560011b0183555b505050505056fea26469706673582212203169031e55509799b2021f25eb26881eef7d8afd103c1f832635e5202229ecdd64736f6c63430008120033",
					"opcodes": "PUSH1 0xC0 PUSH1 0x40 MSTORE CALLVALUE DUP1 ISZERO PUSH2 0x10 JUMPI PUSH1 0x0 DUP1 REVERT JUMPDEST POP PUSH1 0x40 MLOAD PUSH2 0xE64 CODESIZE SUB DUP1 PUSH2 0xE64 DUP4 CODECOPY DUP2 ADD PUSH1 0x40 DUP2 SWAP1 MSTORE PUSH2 0x2F SWAP2 PUSH2 0x8B JUMP JUMPDEST DUP2 PUSH1 0x1 PUSH1 0x1 PUSH1 0xA0 SHL SUB DUP2 AND PUSH2 0x57 JUMPI PUSH1 0x40 MLOAD PUSH4 0xE6C4247B PUSH1 0xE0 SHL DUP2 MSTORE PUSH1 0x4 ADD PUSH1 0x40 MLOAD DUP1 SWAP2 SUB SWAP1 REVERT JUMPDEST PUSH1 0x1 PUSH1 0x1 PUSH1 0xA0 SHL SUB SWAP1 DUP2 AND PUSH1 0x80 MSTORE AND PUSH1 0xA0 MSTORE POP PUSH2 0xBE JUMP JUMPDEST DUP1 MLOAD PUSH1 0x1 PUSH1 0x1 PUSH1 0xA0 SHL SUB DUP2 AND DUP2 EQ PUSH2 0x86 JUMPI PUSH1 0x0 DUP1 REVERT JUMPDEST SWAP2 SWAP1 POP JUMP JUMPDEST PUSH1 0x0 DUP1 PUSH1 0x40 DUP4 DUP6 SUB SLT ISZERO PUSH2 0x9E JUMPI PUSH1 0x0 DUP1 REVERT JUMPDEST PUSH2 0xA7 DUP4 PUSH2 0x6F JUMP JUMPDEST SWAP2 POP PUSH2 0xB5 PUSH1 0x20 DUP5 ADD PUSH2 0x6F JUMP JUMPDEST SWAP1 POP SWAP3 POP SWAP3 SWAP1 POP JUMP JUMPDEST PUSH1 0x80 MLOAD PUSH1 0xA0 MLOAD PUSH2 0xD66 PUSH2 0xFE PUSH1 0x0 CODECOPY PUSH1 0x0 DUP2 DUP2 PUSH2 0x15C ADD MSTORE PUSH2 0x49C ADD MSTORE PUSH1 0x0 DUP2 DUP2 PUSH1 0x92 ADD MSTORE DUP2 DUP2 PUSH2 0x1D7 ADD MSTORE DUP2 DUP2 PUSH2 0x355 ADD MSTORE PUSH2 0x525 ADD MSTORE PUSH2 0xD66 PUSH1 0x0 RETURN INVALID PUSH1 0x80 PUSH1 0x40 MSTORE PUSH1 0x4 CALLDATASIZE LT PUSH2 0x7B JUMPI PUSH1 0x0 CALLDATALOAD PUSH1 0xE0 SHR DUP1 PUSH4 0x49160658 GT PUSH2 0x4E JUMPI DUP1 PUSH4 0x49160658 EQ PUSH2 0x12A JUMPI DUP1 PUSH4 0x6A22D8CC EQ PUSH2 0x14A JUMPI DUP1 PUSH4 0x80D32697 EQ PUSH2 0x17E JUMPI DUP1 PUSH4 0xB0FA8444 EQ PUSH2 0x191 JUMPI PUSH1 0x0 DUP1 REVERT JUMPDEST DUP1 PUSH4 0x116191B6 EQ PUSH2 0x80 JUMPI DUP1 PUSH4 0x1A98B2E0 EQ PUSH2 0xD1 JUMPI DUP1 PUSH4 0x1C6FFA46 EQ PUSH2 0xF3 JUMPI DUP1 PUSH4 0x3FA4F245 EQ PUSH2 0x115 JUMPI JUMPDEST PUSH1 0x0 DUP1 REVERT JUMPDEST CALLVALUE DUP1 ISZERO PUSH2 0x8C JUMPI PUSH1 0x0 DUP1 REVERT JUMPDEST POP PUSH2 0xB4 PUSH32 0x0 DUP2 JUMP JUMPDEST PUSH1 0x40 MLOAD PUSH1 0x1 PUSH1 0x1 PUSH1 0xA0 SHL SUB SWAP1 SWAP2 AND DUP2 MSTORE PUSH1 0x20 ADD JUMPDEST PUSH1 0x40 MLOAD DUP1 SWAP2 SUB SWAP1 RETURN JUMPDEST CALLVALUE DUP1 ISZERO PUSH2 0xDD JUMPI PUSH1 0x0 DUP1 REVERT JUMPDEST POP PUSH2 0xF1 PUSH2 0xEC CALLDATASIZE PUSH1 0x4 PUSH2 0x627 JUMP JUMPDEST PUSH2 0x1A6 JUMP JUMPDEST STOP JUMPDEST CALLVALUE DUP1 ISZERO PUSH2 0xFF JUMPI PUSH1 0x0 DUP1 REVERT JUMPDEST POP PUSH2 0x108 PUSH2 0x289 JUMP JUMPDEST PUSH1 0x40 MLOAD PUSH2 0xC8 SWAP2 SWAP1 PUSH2 0x747 JUMP JUMPDEST CALLVALUE DUP1 ISZERO PUSH2 0x121 JUMPI PUSH1 0x0 DUP1 REVERT JUMPDEST POP PUSH2 0x108 PUSH2 0x317 JUMP JUMPDEST CALLVALUE DUP1 ISZERO PUSH2 0x136 JUMPI PUSH1 0x0 DUP1 REVERT JUMPDEST POP PUSH2 0xF1 PUSH2 0x145 CALLDATASIZE PUSH1 0x4 PUSH2 0x761 JUMP JUMPDEST PUSH2 0x324 JUMP JUMPDEST CALLVALUE DUP1 ISZERO PUSH2 0x156 JUMPI PUSH1 0x0 DUP1 REVERT JUMPDEST POP PUSH2 0xB4 PUSH32 0x0 DUP2 JUMP JUMPDEST PUSH2 0xF1 PUSH2 0x18C CALLDATASIZE PUSH1 0x4 PUSH2 0x805 JUMP JUMPDEST PUSH2 0x40C JUMP JUMPDEST CALLVALUE DUP1 ISZERO PUSH2 0x19D JUMPI PUSH1 0x0 DUP1 REVERT JUMPDEST POP PUSH2 0x108 PUSH2 0x593 JUMP JUMPDEST PUSH1 0x0 DUP6 DUP6 PUSH1 0x40 MLOAD PUSH2 0x1B8 SWAP3 SWAP2 SWAP1 PUSH2 0x89F JUMP JUMPDEST PUSH1 0x40 MLOAD SWAP1 DUP2 SWAP1 SUB DUP2 KECCAK256 PUSH4 0x1876EED9 PUSH1 0xE0 SHL DUP3 MSTORE SWAP2 POP PUSH1 0x1 PUSH1 0x1 PUSH1 0xA0 SHL SUB PUSH32 0x0 AND SWAP1 PUSH4 0x1876EED9 SWAP1 PUSH2 0x21C SWAP1 DUP15 SWAP1 DUP15 SWAP1 DUP15 SWAP1 DUP15 SWAP1 DUP15 SWAP1 DUP10 SWAP1 DUP14 SWAP1 DUP14 SWAP1 DUP14 SWAP1 PUSH1 0x4 ADD PUSH2 0x8D8 JUMP JUMPDEST PUSH1 0x20 PUSH1 0x40 MLOAD DUP1 DUP4 SUB DUP2 PUSH1 0x0 DUP8 GAS CALL ISZERO DUP1 ISZERO PUSH2 0x23B JUMPI RETURNDATASIZE PUSH1 0x0 DUP1 RETURNDATACOPY RETURNDATASIZE PUSH1 0x0 REVERT JUMPDEST POP POP POP POP PUSH1 0x40 MLOAD RETURNDATASIZE PUSH1 0x1F NOT PUSH1 0x1F DUP3 ADD AND DUP3 ADD DUP1 PUSH1 0x40 MSTORE POP DUP2 ADD SWAP1 PUSH2 0x25F SWAP2 SWAP1 PUSH2 0x937 JUMP JUMPDEST PUSH2 0x27C JUMPI PUSH1 0x40 MLOAD PUSH4 0x1403112D PUSH1 0xE2 SHL DUP2 MSTORE PUSH1 0x4 ADD PUSH1 0x40 MLOAD DUP1 SWAP2 SUB SWAP1 REVERT JUMPDEST POP POP POP POP POP POP POP POP POP POP POP JUMP JUMPDEST PUSH1 0x1 DUP1 SLOAD PUSH2 0x296 SWAP1 PUSH2 0x959 JUMP JUMPDEST DUP1 PUSH1 0x1F ADD PUSH1 0x20 DUP1 SWAP2 DIV MUL PUSH1 0x20 ADD PUSH1 0x40 MLOAD SWAP1 DUP2 ADD PUSH1 0x40 MSTORE DUP1 SWAP3 SWAP2 SWAP1 DUP2 DUP2 MSTORE PUSH1 0x20 ADD DUP3 DUP1 SLOAD PUSH2 0x2C2 SWAP1 PUSH2 0x959 JUMP JUMPDEST DUP1 ISZERO PUSH2 0x30F JUMPI DUP1 PUSH1 0x1F LT PUSH2 0x2E4 JUMPI PUSH2 0x100 DUP1 DUP4 SLOAD DIV MUL DUP4 MSTORE SWAP2 PUSH1 0x20 ADD SWAP2 PUSH2 0x30F JUMP JUMPDEST DUP3 ADD SWAP2 SWAP1 PUSH1 0x0 MSTORE PUSH1 0x20 PUSH1 0x0 KECCAK256 SWAP1 JUMPDEST DUP2 SLOAD DUP2 MSTORE SWAP1 PUSH1 0x1 ADD SWAP1 PUSH1 0x20 ADD DUP1 DUP4 GT PUSH2 0x2F2 JUMPI DUP3 SWAP1 SUB PUSH1 0x1F AND DUP3 ADD SWAP2 JUMPDEST POP POP POP POP POP DUP2 JUMP JUMPDEST PUSH1 0x0 DUP1 SLOAD PUSH2 0x296 SWAP1 PUSH2 0x959 JUMP JUMPDEST PUSH1 0x0 DUP3 DUP3 PUSH1 0x40 MLOAD PUSH2 0x336 SWAP3 SWAP2 SWAP1 PUSH2 0x89F JUMP JUMPDEST PUSH1 0x40 MLOAD SWAP1 DUP2 SWAP1 SUB DUP2 KECCAK256 PUSH4 0x5F6970C3 PUSH1 0xE0 SHL DUP3 MSTORE SWAP2 POP PUSH1 0x1 PUSH1 0x1 PUSH1 0xA0 SHL SUB PUSH32 0x0 AND SWAP1 PUSH4 0x5F6970C3 SWAP1 PUSH2 0x394 SWAP1 DUP12 SWAP1 DUP12 SWAP1 DUP12 SWAP1 DUP12 SWAP1 DUP12 SWAP1 DUP10 SWAP1 PUSH1 0x4 ADD PUSH2 0x993 JUMP JUMPDEST PUSH1 0x20 PUSH1 0x40 MLOAD DUP1 DUP4 SUB DUP2 PUSH1 0x0 DUP8 GAS CALL ISZERO DUP1 ISZERO PUSH2 0x3B3 JUMPI RETURNDATASIZE PUSH1 0x0 DUP1 RETURNDATACOPY RETURNDATASIZE PUSH1 0x0 REVERT JUMPDEST POP POP POP POP PUSH1 0x40 MLOAD RETURNDATASIZE PUSH1 0x1F NOT PUSH1 0x1F DUP3 ADD AND DUP3 ADD DUP1 PUSH1 0x40 MSTORE POP DUP2 ADD SWAP1 PUSH2 0x3D7 SWAP2 SWAP1 PUSH2 0x937 JUMP JUMPDEST PUSH2 0x3F4 JUMPI PUSH1 0x40 MLOAD PUSH4 0x1403112D PUSH1 0xE2 SHL DUP2 MSTORE PUSH1 0x4 ADD PUSH1 0x40 MLOAD DUP1 SWAP2 SUB SWAP1 REVERT JUMPDEST PUSH2 0x402 DUP8 DUP8 DUP8 DUP8 DUP8 DUP8 PUSH2 0x5A0 JUMP JUMPDEST POP POP POP POP POP POP POP POP JUMP JUMPDEST PUSH1 0x0 CALLVALUE GT PUSH2 0x460 JUMPI PUSH1 0x40 MLOAD PUSH3 0x461BCD PUSH1 0xE5 SHL DUP2 MSTORE PUSH1 0x20 PUSH1 0x4 DUP3 ADD MSTORE PUSH1 0x17 PUSH1 0x24 DUP3 ADD MSTORE PUSH32 0x476173207061796D656E74206973207265717569726564000000000000000000 PUSH1 0x44 DUP3 ADD MSTORE PUSH1 0x64 ADD PUSH1 0x40 MLOAD DUP1 SWAP2 SUB SWAP1 REVERT JUMPDEST PUSH1 0x0 DUP3 DUP3 PUSH1 0x40 MLOAD PUSH1 0x20 ADD PUSH2 0x475 SWAP3 SWAP2 SWAP1 PUSH2 0x9D4 JUMP JUMPDEST PUSH1 0x40 DUP1 MLOAD PUSH1 0x1F NOT DUP2 DUP5 SUB ADD DUP2 MSTORE SWAP1 DUP3 SWAP1 MSTORE PUSH4 0xC93E3BB PUSH1 0xE0 SHL DUP3 MSTORE SWAP2 POP PUSH1 0x1 PUSH1 0x1 PUSH1 0xA0 SHL SUB PUSH32 0x0 AND SWAP1 PUSH4 0xC93E3BB SWAP1 CALLVALUE SWAP1 PUSH2 0x4DF SWAP1 ADDRESS SWAP1 DUP13 SWAP1 DUP13 SWAP1 DUP13 SWAP1 DUP13 SWAP1 DUP11 SWAP1 CALLER SWAP1 PUSH1 0x4 ADD PUSH2 0x9F0 JUMP JUMPDEST PUSH1 0x0 PUSH1 0x40 MLOAD DUP1 DUP4 SUB DUP2 DUP6 DUP9 DUP1 EXTCODESIZE ISZERO DUP1 ISZERO PUSH2 0x4F8 JUMPI PUSH1 0x0 DUP1 REVERT JUMPDEST POP GAS CALL ISZERO DUP1 ISZERO PUSH2 0x50C JUMPI RETURNDATASIZE PUSH1 0x0 DUP1 RETURNDATACOPY RETURNDATASIZE PUSH1 0x0 REVERT JUMPDEST POP POP PUSH1 0x40 MLOAD PUSH4 0x1C92115F PUSH1 0xE0 SHL DUP2 MSTORE PUSH1 0x1 PUSH1 0x1 PUSH1 0xA0 SHL SUB PUSH32 0x0 AND SWAP4 POP PUSH4 0x1C92115F SWAP3 POP PUSH2 0x565 SWAP2 POP DUP11 SWAP1 DUP11 SWAP1 DUP11 SWAP1 DUP11 SWAP1 DUP9 SWAP1 PUSH1 0x4 ADD PUSH2 0xA52 JUMP JUMPDEST PUSH1 0x0 PUSH1 0x40 MLOAD DUP1 DUP4 SUB DUP2 PUSH1 0x0 DUP8 DUP1 EXTCODESIZE ISZERO DUP1 ISZERO PUSH2 0x57F JUMPI PUSH1 0x0 DUP1 REVERT JUMPDEST POP GAS CALL ISZERO DUP1 ISZERO PUSH2 0x27C JUMPI RETURNDATASIZE PUSH1 0x0 DUP1 RETURNDATACOPY RETURNDATASIZE PUSH1 0x0 REVERT JUMPDEST PUSH1 0x2 DUP1 SLOAD PUSH2 0x296 SWAP1 PUSH2 0x959 JUMP JUMPDEST PUSH2 0x5AC DUP2 DUP4 ADD DUP4 PUSH2 0xAAF JUMP JUMPDEST PUSH1 0x0 SWAP1 PUSH2 0x5B9 SWAP1 DUP3 PUSH2 0xBAF JUMP JUMPDEST POP PUSH1 0x1 PUSH2 0x5C7 DUP7 DUP9 DUP4 PUSH2 0xC6F JUMP JUMPDEST POP PUSH1 0x2 PUSH2 0x5D5 DUP5 DUP7 DUP4 PUSH2 0xC6F JUMP JUMPDEST POP POP POP POP POP POP POP JUMP JUMPDEST PUSH1 0x0 DUP1 DUP4 PUSH1 0x1F DUP5 ADD SLT PUSH2 0x5F0 JUMPI PUSH1 0x0 DUP1 REVERT JUMPDEST POP DUP2 CALLDATALOAD PUSH8 0xFFFFFFFFFFFFFFFF DUP2 GT ISZERO PUSH2 0x608 JUMPI PUSH1 0x0 DUP1 REVERT JUMPDEST PUSH1 0x20 DUP4 ADD SWAP2 POP DUP4 PUSH1 0x20 DUP3 DUP6 ADD ADD GT ISZERO PUSH2 0x620 JUMPI PUSH1 0x0 DUP1 REVERT JUMPDEST SWAP3 POP SWAP3 SWAP1 POP JUMP JUMPDEST PUSH1 0x0 DUP1 PUSH1 0x0 DUP1 PUSH1 0x0 DUP1 PUSH1 0x0 DUP1 PUSH1 0x0 DUP1 PUSH1 0xC0 DUP12 DUP14 SUB SLT ISZERO PUSH2 0x646 JUMPI PUSH1 0x0 DUP1 REVERT JUMPDEST DUP11 CALLDATALOAD SWAP10 POP PUSH1 0x20 DUP12 ADD CALLDATALOAD PUSH8 0xFFFFFFFFFFFFFFFF DUP1 DUP3 GT ISZERO PUSH2 0x665 JUMPI PUSH1 0x0 DUP1 REVERT JUMPDEST PUSH2 0x671 DUP15 DUP4 DUP16 ADD PUSH2 0x5DE JUMP JUMPDEST SWAP1 SWAP12 POP SWAP10 POP PUSH1 0x40 DUP14 ADD CALLDATALOAD SWAP2 POP DUP1 DUP3 GT ISZERO PUSH2 0x68A JUMPI PUSH1 0x0 DUP1 REVERT JUMPDEST PUSH2 0x696 DUP15 DUP4 DUP16 ADD PUSH2 0x5DE JUMP JUMPDEST SWAP1 SWAP10 POP SWAP8 POP PUSH1 0x60 DUP14 ADD CALLDATALOAD SWAP2 POP DUP1 DUP3 GT ISZERO PUSH2 0x6AF JUMPI PUSH1 0x0 DUP1 REVERT JUMPDEST PUSH2 0x6BB DUP15 DUP4 DUP16 ADD PUSH2 0x5DE JUMP JUMPDEST SWAP1 SWAP8 POP SWAP6 POP PUSH1 0x80 DUP14 ADD CALLDATALOAD SWAP2 POP DUP1 DUP3 GT ISZERO PUSH2 0x6D4 JUMPI PUSH1 0x0 DUP1 REVERT JUMPDEST POP PUSH2 0x6E1 DUP14 DUP3 DUP15 ADD PUSH2 0x5DE JUMP JUMPDEST SWAP2 POP DUP1 SWAP5 POP POP DUP1 SWAP3 POP POP PUSH1 0xA0 DUP12 ADD CALLDATALOAD SWAP1 POP SWAP3 SWAP6 SWAP9 SWAP12 SWAP2 SWAP5 SWAP8 SWAP11 POP SWAP3 SWAP6 SWAP9 POP JUMP JUMPDEST PUSH1 0x0 DUP2 MLOAD DUP1 DUP5 MSTORE PUSH1 0x0 JUMPDEST DUP2 DUP2 LT ISZERO PUSH2 0x727 JUMPI PUSH1 0x20 DUP2 DUP6 ADD DUP2 ADD MLOAD DUP7 DUP4 ADD DUP3 ADD MSTORE ADD PUSH2 0x70B JUMP JUMPDEST POP PUSH1 0x0 PUSH1 0x20 DUP3 DUP7 ADD ADD MSTORE PUSH1 0x20 PUSH1 0x1F NOT PUSH1 0x1F DUP4 ADD AND DUP6 ADD ADD SWAP2 POP POP SWAP3 SWAP2 POP POP JUMP JUMPDEST PUSH1 0x20 DUP2 MSTORE PUSH1 0x0 PUSH2 0x75A PUSH1 0x20 DUP4 ADD DUP5 PUSH2 0x701 JUMP JUMPDEST SWAP4 SWAP3 POP POP POP JUMP JUMPDEST PUSH1 0x0 DUP1 PUSH1 0x0 DUP1 PUSH1 0x0 DUP1 PUSH1 0x0 PUSH1 0x80 DUP9 DUP11 SUB SLT ISZERO PUSH2 0x77C JUMPI PUSH1 0x0 DUP1 REVERT JUMPDEST DUP8 CALLDATALOAD SWAP7 POP PUSH1 0x20 DUP9 ADD CALLDATALOAD PUSH8 0xFFFFFFFFFFFFFFFF DUP1 DUP3 GT ISZERO PUSH2 0x79B JUMPI PUSH1 0x0 DUP1 REVERT JUMPDEST PUSH2 0x7A7 DUP12 DUP4 DUP13 ADD PUSH2 0x5DE JUMP JUMPDEST SWAP1 SWAP9 POP SWAP7 POP PUSH1 0x40 DUP11 ADD CALLDATALOAD SWAP2 POP DUP1 DUP3 GT ISZERO PUSH2 0x7C0 JUMPI PUSH1 0x0 DUP1 REVERT JUMPDEST PUSH2 0x7CC DUP12 DUP4 DUP13 ADD PUSH2 0x5DE JUMP JUMPDEST SWAP1 SWAP7 POP SWAP5 POP PUSH1 0x60 DUP11 ADD CALLDATALOAD SWAP2 POP DUP1 DUP3 GT ISZERO PUSH2 0x7E5 JUMPI PUSH1 0x0 DUP1 REVERT JUMPDEST POP PUSH2 0x7F2 DUP11 DUP3 DUP12 ADD PUSH2 0x5DE JUMP JUMPDEST SWAP9 SWAP12 SWAP8 SWAP11 POP SWAP6 SWAP9 POP SWAP4 SWAP7 SWAP3 SWAP6 SWAP3 SWAP4 POP POP POP JUMP JUMPDEST PUSH1 0x0 DUP1 PUSH1 0x0 DUP1 PUSH1 0x0 DUP1 PUSH1 0x60 DUP8 DUP10 SUB SLT ISZERO PUSH2 0x81E JUMPI PUSH1 0x0 DUP1 REVERT JUMPDEST DUP7 CALLDATALOAD PUSH8 0xFFFFFFFFFFFFFFFF DUP1 DUP3 GT ISZERO PUSH2 0x836 JUMPI PUSH1 0x0 DUP1 REVERT JUMPDEST PUSH2 0x842 DUP11 DUP4 DUP12 ADD PUSH2 0x5DE JUMP JUMPDEST SWAP1 SWAP9 POP SWAP7 POP PUSH1 0x20 DUP10 ADD CALLDATALOAD SWAP2 POP DUP1 DUP3 GT ISZERO PUSH2 0x85B JUMPI PUSH1 0x0 DUP1 REVERT JUMPDEST PUSH2 0x867 DUP11 DUP4 DUP12 ADD PUSH2 0x5DE JUMP JUMPDEST SWAP1 SWAP7 POP SWAP5 POP PUSH1 0x40 DUP10 ADD CALLDATALOAD SWAP2 POP DUP1 DUP3 GT ISZERO PUSH2 0x880 JUMPI PUSH1 0x0 DUP1 REVERT JUMPDEST POP PUSH2 0x88D DUP10 DUP3 DUP11 ADD PUSH2 0x5DE JUMP JUMPDEST SWAP8 SWAP11 SWAP7 SWAP10 POP SWAP5 SWAP8 POP SWAP3 SWAP6 SWAP4 SWAP5 SWAP3 POP POP POP JUMP JUMPDEST DUP2 DUP4 DUP3 CALLDATACOPY PUSH1 0x0 SWAP2 ADD SWAP1 DUP2 MSTORE SWAP2 SWAP1 POP JUMP JUMPDEST DUP2 DUP4 MSTORE DUP2 DUP2 PUSH1 0x20 DUP6 ADD CALLDATACOPY POP PUSH1 0x0 DUP3 DUP3 ADD PUSH1 0x20 SWAP1 DUP2 ADD SWAP2 SWAP1 SWAP2 MSTORE PUSH1 0x1F SWAP1 SWAP2 ADD PUSH1 0x1F NOT AND SWAP1 SWAP2 ADD ADD SWAP1 JUMP JUMPDEST DUP10 DUP2 MSTORE PUSH1 0xC0 PUSH1 0x20 DUP3 ADD MSTORE PUSH1 0x0 PUSH2 0x8F2 PUSH1 0xC0 DUP4 ADD DUP11 DUP13 PUSH2 0x8AF JUMP JUMPDEST DUP3 DUP2 SUB PUSH1 0x40 DUP5 ADD MSTORE PUSH2 0x905 DUP2 DUP10 DUP12 PUSH2 0x8AF JUMP JUMPDEST SWAP1 POP DUP7 PUSH1 0x60 DUP5 ADD MSTORE DUP3 DUP2 SUB PUSH1 0x80 DUP5 ADD MSTORE PUSH2 0x920 DUP2 DUP7 DUP9 PUSH2 0x8AF JUMP JUMPDEST SWAP2 POP POP DUP3 PUSH1 0xA0 DUP4 ADD MSTORE SWAP11 SWAP10 POP POP POP POP POP POP POP POP POP POP JUMP JUMPDEST PUSH1 0x0 PUSH1 0x20 DUP3 DUP5 SUB SLT ISZERO PUSH2 0x949 JUMPI PUSH1 0x0 DUP1 REVERT JUMPDEST DUP2 MLOAD DUP1 ISZERO ISZERO DUP2 EQ PUSH2 0x75A JUMPI PUSH1 0x0 DUP1 REVERT JUMPDEST PUSH1 0x1 DUP2 DUP2 SHR SWAP1 DUP3 AND DUP1 PUSH2 0x96D JUMPI PUSH1 0x7F DUP3 AND SWAP2 POP JUMPDEST PUSH1 0x20 DUP3 LT DUP2 SUB PUSH2 0x98D JUMPI PUSH4 0x4E487B71 PUSH1 0xE0 SHL PUSH1 0x0 MSTORE PUSH1 0x22 PUSH1 0x4 MSTORE PUSH1 0x24 PUSH1 0x0 REVERT JUMPDEST POP SWAP2 SWAP1 POP JUMP JUMPDEST DUP7 DUP2 MSTORE PUSH1 0x80 PUSH1 0x20 DUP3 ADD MSTORE PUSH1 0x0 PUSH2 0x9AD PUSH1 0x80 DUP4 ADD DUP8 DUP10 PUSH2 0x8AF JUMP JUMPDEST DUP3 DUP2 SUB PUSH1 0x40 DUP5 ADD MSTORE PUSH2 0x9C0 DUP2 DUP7 DUP9 PUSH2 0x8AF JUMP JUMPDEST SWAP2 POP POP DUP3 PUSH1 0x60 DUP4 ADD MSTORE SWAP8 SWAP7 POP POP POP POP POP POP POP JUMP JUMPDEST PUSH1 0x20 DUP2 MSTORE PUSH1 0x0 PUSH2 0x9E8 PUSH1 0x20 DUP4 ADD DUP5 DUP7 PUSH2 0x8AF JUMP JUMPDEST SWAP5 SWAP4 POP POP POP POP JUMP JUMPDEST PUSH1 0x0 PUSH1 0x1 DUP1 PUSH1 0xA0 SHL SUB DUP1 DUP11 AND DUP4 MSTORE PUSH1 0xA0 PUSH1 0x20 DUP5 ADD MSTORE PUSH2 0xA13 PUSH1 0xA0 DUP5 ADD DUP10 DUP12 PUSH2 0x8AF JUMP JUMPDEST DUP4 DUP2 SUB PUSH1 0x40 DUP6 ADD MSTORE PUSH2 0xA26 DUP2 DUP9 DUP11 PUSH2 0x8AF JUMP JUMPDEST SWAP1 POP DUP4 DUP2 SUB PUSH1 0x60 DUP6 ADD MSTORE PUSH2 0xA3A DUP2 DUP8 PUSH2 0x701 JUMP JUMPDEST SWAP3 POP POP DUP1 DUP5 AND PUSH1 0x80 DUP5 ADD MSTORE POP SWAP9 SWAP8 POP POP POP POP POP POP POP POP JUMP JUMPDEST PUSH1 0x60 DUP2 MSTORE PUSH1 0x0 PUSH2 0xA66 PUSH1 0x60 DUP4 ADD DUP8 DUP10 PUSH2 0x8AF JUMP JUMPDEST DUP3 DUP2 SUB PUSH1 0x20 DUP5 ADD MSTORE PUSH2 0xA79 DUP2 DUP7 DUP9 PUSH2 0x8AF JUMP JUMPDEST SWAP1 POP DUP3 DUP2 SUB PUSH1 0x40 DUP5 ADD MSTORE PUSH2 0xA8D DUP2 DUP6 PUSH2 0x701 JUMP JUMPDEST SWAP9 SWAP8 POP POP POP POP POP POP POP POP JUMP JUMPDEST PUSH4 0x4E487B71 PUSH1 0xE0 SHL PUSH1 0x0 MSTORE PUSH1 0x41 PUSH1 0x4 MSTORE PUSH1 0x24 PUSH1 0x0 REVERT JUMPDEST PUSH1 0x0 PUSH1 0x20 DUP3 DUP5 SUB SLT ISZERO PUSH2 0xAC1 JUMPI PUSH1 0x0 DUP1 REVERT JUMPDEST DUP2 CALLDATALOAD PUSH8 0xFFFFFFFFFFFFFFFF DUP1 DUP3 GT ISZERO PUSH2 0xAD9 JUMPI PUSH1 0x0 DUP1 REVERT JUMPDEST DUP2 DUP5 ADD SWAP2 POP DUP5 PUSH1 0x1F DUP4 ADD SLT PUSH2 0xAED JUMPI PUSH1 0x0 DUP1 REVERT JUMPDEST DUP2 CALLDATALOAD DUP2 DUP2 GT ISZERO PUSH2 0xAFF JUMPI PUSH2 0xAFF PUSH2 0xA99 JUMP JUMPDEST PUSH1 0x40 MLOAD PUSH1 0x1F DUP3 ADD PUSH1 0x1F NOT SWAP1 DUP2 AND PUSH1 0x3F ADD AND DUP2 ADD SWAP1 DUP4 DUP3 GT DUP2 DUP4 LT OR ISZERO PUSH2 0xB27 JUMPI PUSH2 0xB27 PUSH2 0xA99 JUMP JUMPDEST DUP2 PUSH1 0x40 MSTORE DUP3 DUP2 MSTORE DUP8 PUSH1 0x20 DUP5 DUP8 ADD ADD GT ISZERO PUSH2 0xB40 JUMPI PUSH1 0x0 DUP1 REVERT JUMPDEST DUP3 PUSH1 0x20 DUP7 ADD PUSH1 0x20 DUP4 ADD CALLDATACOPY PUSH1 0x0 SWAP3 DUP2 ADD PUSH1 0x20 ADD SWAP3 SWAP1 SWAP3 MSTORE POP SWAP6 SWAP5 POP POP POP POP POP JUMP JUMPDEST PUSH1 0x1F DUP3 GT ISZERO PUSH2 0xBAA JUMPI PUSH1 0x0 DUP2 DUP2 MSTORE PUSH1 0x20 DUP2 KECCAK256 PUSH1 0x1F DUP6 ADD PUSH1 0x5 SHR DUP2 ADD PUSH1 0x20 DUP7 LT ISZERO PUSH2 0xB87 JUMPI POP DUP1 JUMPDEST PUSH1 0x1F DUP6 ADD PUSH1 0x5 SHR DUP3 ADD SWAP2 POP JUMPDEST DUP2 DUP2 LT ISZERO PUSH2 0xBA6 JUMPI DUP3 DUP2 SSTORE PUSH1 0x1 ADD PUSH2 0xB93 JUMP JUMPDEST POP POP POP JUMPDEST POP POP POP JUMP JUMPDEST DUP2 MLOAD PUSH8 0xFFFFFFFFFFFFFFFF DUP2 GT ISZERO PUSH2 0xBC9 JUMPI PUSH2 0xBC9 PUSH2 0xA99 JUMP JUMPDEST PUSH2 0xBDD DUP2 PUSH2 0xBD7 DUP5 SLOAD PUSH2 0x959 JUMP JUMPDEST DUP5 PUSH2 0xB60 JUMP JUMPDEST PUSH1 0x20 DUP1 PUSH1 0x1F DUP4 GT PUSH1 0x1 DUP2 EQ PUSH2 0xC12 JUMPI PUSH1 0x0 DUP5 ISZERO PUSH2 0xBFA JUMPI POP DUP6 DUP4 ADD MLOAD JUMPDEST PUSH1 0x0 NOT PUSH1 0x3 DUP7 SWAP1 SHL SHR NOT AND PUSH1 0x1 DUP6 SWAP1 SHL OR DUP6 SSTORE PUSH2 0xBA6 JUMP JUMPDEST PUSH1 0x0 DUP6 DUP2 MSTORE PUSH1 0x20 DUP2 KECCAK256 PUSH1 0x1F NOT DUP7 AND SWAP2 JUMPDEST DUP3 DUP2 LT ISZERO PUSH2 0xC41 JUMPI DUP9 DUP7 ADD MLOAD DUP3 SSTORE SWAP5 DUP5 ADD SWAP5 PUSH1 0x1 SWAP1 SWAP2 ADD SWAP1 DUP5 ADD PUSH2 0xC22 JUMP JUMPDEST POP DUP6 DUP3 LT ISZERO PUSH2 0xC5F JUMPI DUP8 DUP6 ADD MLOAD PUSH1 0x0 NOT PUSH1 0x3 DUP9 SWAP1 SHL PUSH1 0xF8 AND SHR NOT AND DUP2 SSTORE JUMPDEST POP POP POP POP POP PUSH1 0x1 SWAP1 DUP2 SHL ADD SWAP1 SSTORE POP JUMP JUMPDEST PUSH8 0xFFFFFFFFFFFFFFFF DUP4 GT ISZERO PUSH2 0xC87 JUMPI PUSH2 0xC87 PUSH2 0xA99 JUMP JUMPDEST PUSH2 0xC9B DUP4 PUSH2 0xC95 DUP4 SLOAD PUSH2 0x959 JUMP JUMPDEST DUP4 PUSH2 0xB60 JUMP JUMPDEST PUSH1 0x0 PUSH1 0x1F DUP5 GT PUSH1 0x1 DUP2 EQ PUSH2 0xCCF JUMPI PUSH1 0x0 DUP6 ISZERO PUSH2 0xCB7 JUMPI POP DUP4 DUP3 ADD CALLDATALOAD JUMPDEST PUSH1 0x0 NOT PUSH1 0x3 DUP8 SWAP1 SHL SHR NOT AND PUSH1 0x1 DUP7 SWAP1 SHL OR DUP4 SSTORE PUSH2 0xD29 JUMP JUMPDEST PUSH1 0x0 DUP4 DUP2 MSTORE PUSH1 0x20 SWAP1 KECCAK256 PUSH1 0x1F NOT DUP7 AND SWAP1 DUP4 JUMPDEST DUP3 DUP2 LT ISZERO PUSH2 0xD00 JUMPI DUP7 DUP6 ADD CALLDATALOAD DUP3 SSTORE PUSH1 0x20 SWAP5 DUP6 ADD SWAP5 PUSH1 0x1 SWAP1 SWAP3 ADD SWAP2 ADD PUSH2 0xCE0 JUMP JUMPDEST POP DUP7 DUP3 LT ISZERO PUSH2 0xD1D JUMPI PUSH1 0x0 NOT PUSH1 0xF8 DUP9 PUSH1 0x3 SHL AND SHR NOT DUP5 DUP8 ADD CALLDATALOAD AND DUP2 SSTORE JUMPDEST POP POP PUSH1 0x1 DUP6 PUSH1 0x1 SHL ADD DUP4 SSTORE JUMPDEST POP POP POP POP POP JUMP INVALID LOG2 PUSH5 0x6970667358 0x22 SLT KECCAK256 BALANCE PUSH10 0x31E55509799B2021F25 0xEB 0x26 DUP9 0x1E 0xEF PUSH30 0x8AFD103C1F832635E5202229ECDD64736F6C634300081200330000000000 "
				},
				"gasEstimates": {
					"creation": {
						"codeDepositCost": "686000",
						"executionCost": "infinite",
						"totalCost": "infinite"
					},
					"external": {
						"execute(bytes32,string,string,bytes)": "infinite",
						"executeWithToken(bytes32,string,string,bytes,string,uint256)": "infinite",
						"gasService()": "infinite",
						"gateway()": "infinite",
						"setRemoteValue(string,string,string)": "infinite",
						"sourceAddress()": "infinite",
						"sourceChain()": "infinite",
						"value()": "infinite"
					},
					"internal": {
						"_execute(string calldata,string calldata,bytes calldata)": "infinite"
					}
				},
				"methodIdentifiers": {
					"execute(bytes32,string,string,bytes)": "49160658",
					"executeWithToken(bytes32,string,string,bytes,string,uint256)": "1a98b2e0",
					"gasService()": "6a22d8cc",
					"gateway()": "116191b6",
					"setRemoteValue(string,string,string)": "80d32697",
					"sourceAddress()": "b0fa8444",
					"sourceChain()": "1c6ffa46",
					"value()": "3fa4f245"
				}
			},
			"storageLayout": {
				"storage": [
					{
						"astId": 1204,
						"contract": "contracts/axelar.sol:yieldSeeker",
						"label": "value",
						"offset": 0,
						"slot": "0",
						"type": "t_string_storage"
					},
					{
						"astId": 1206,
						"contract": "contracts/axelar.sol:yieldSeeker",
						"label": "sourceChain",
						"offset": 0,
						"slot": "1",
						"type": "t_string_storage"
					},
					{
						"astId": 1208,
						"contract": "contracts/axelar.sol:yieldSeeker",
						"label": "sourceAddress",
						"offset": 0,
						"slot": "2",
						"type": "t_string_storage"
					}
				],
				"types": {
					"t_string_storage": {
						"encoding": "bytes",
						"label": "string",
						"numberOfBytes": "32"
					}
				}
			},
			"userdoc": {
				"kind": "user",
				"methods": {},
				"version": 1
			}
		}
	}
}