{
	"contracts/yieldSeeker.sol": {
		"yieldSeeker": {
			"abi": [
				{
					"inputs": [],
					"stateMutability": "nonpayable",
					"type": "constructor"
				},
				{
					"inputs": [],
					"name": "InvalidAddress",
					"type": "error"
				},
				{
					"inputs": [],
					"name": "NotApprovedByGateway",
					"type": "error"
				},
				{
					"inputs": [
						{
							"internalType": "bytes32",
							"name": "commandId",
							"type": "bytes32"
						},
						{
							"internalType": "string",
							"name": "sourceChain",
							"type": "string"
						},
						{
							"internalType": "string",
							"name": "sourceAddress",
							"type": "string"
						},
						{
							"internalType": "bytes",
							"name": "payload",
							"type": "bytes"
						}
					],
					"name": "execute",
					"outputs": [],
					"stateMutability": "nonpayable",
					"type": "function"
				},
				{
					"inputs": [
						{
							"internalType": "bytes32",
							"name": "commandId",
							"type": "bytes32"
						},
						{
							"internalType": "string",
							"name": "sourceChain",
							"type": "string"
						},
						{
							"internalType": "string",
							"name": "sourceAddress",
							"type": "string"
						},
						{
							"internalType": "bytes",
							"name": "payload",
							"type": "bytes"
						},
						{
							"internalType": "string",
							"name": "tokenSymbol",
							"type": "string"
						},
						{
							"internalType": "uint256",
							"name": "amount",
							"type": "uint256"
						}
					],
					"name": "executeWithToken",
					"outputs": [],
					"stateMutability": "nonpayable",
					"type": "function"
				},
				{
					"inputs": [],
					"name": "gasService",
					"outputs": [
						{
							"internalType": "contract IAxelarGasService",
							"name": "",
							"type": "address"
						}
					],
					"stateMutability": "view",
					"type": "function"
				},
				{
					"inputs": [],
					"name": "gateway",
					"outputs": [
						{
							"internalType": "contract IAxelarGateway",
							"name": "",
							"type": "address"
						}
					],
					"stateMutability": "view",
					"type": "function"
				},
				{
					"inputs": [
						{
							"internalType": "string",
							"name": "destinationChain",
							"type": "string"
						},
						{
							"internalType": "string",
							"name": "destinationAddress",
							"type": "string"
						}
					],
					"name": "setAPYValue",
					"outputs": [],
					"stateMutability": "payable",
					"type": "function"
				},
				{
					"inputs": [],
					"name": "sourceAddress",
					"outputs": [
						{
							"internalType": "string",
							"name": "",
							"type": "string"
						}
					],
					"stateMutability": "view",
					"type": "function"
				},
				{
					"inputs": [],
					"name": "sourceChain",
					"outputs": [
						{
							"internalType": "string",
							"name": "",
							"type": "string"
						}
					],
					"stateMutability": "view",
					"type": "function"
				},
				{
					"inputs": [],
					"name": "value",
					"outputs": [
						{
							"internalType": "string",
							"name": "",
							"type": "string"
						}
					],
					"stateMutability": "view",
					"type": "function"
				}
			],
			"devdoc": {
				"kind": "dev",
				"methods": {},
				"version": 1
			},
			"evm": {
				"assembly": "    /* \"contracts/yieldSeeker.sol\":885:2313  contract yieldSeeker is AxelarExecutable {... */\n  mstore(0x40, 0xc0)\n    /* \"contracts/yieldSeeker.sol\":1072:1142  address _getValueArbitrum = 0xDd02E3b2480473E1758a1c80F700348aB45216d2 */\n  0x03\n  dup1\n  sload\n  not(sub(shl(0xa0, 0x01), 0x01))\n  swap1\n  dup2\n  and\n    /* \"contracts/yieldSeeker.sol\":1100:1142  0xDd02E3b2480473E1758a1c80F700348aB45216d2 */\n  0xdd02e3b2480473e1758a1c80f700348ab45216d2\n    /* \"contracts/yieldSeeker.sol\":1072:1142  address _getValueArbitrum = 0xDd02E3b2480473E1758a1c80F700348aB45216d2 */\n  or\n  swap1\n  swap2\n  sstore\n    /* \"contracts/yieldSeeker.sol\":1318:1379  address _gateway = 0xe432150cce91c13a887f7D836923d5597adD8E31 */\n  0x04\n  dup1\n  sload\n  dup3\n  and\n    /* \"contracts/yieldSeeker.sol\":1337:1379  0xe432150cce91c13a887f7D836923d5597adD8E31 */\n  0xe432150cce91c13a887f7d836923d5597add8e31\n    /* \"contracts/yieldSeeker.sol\":1318:1379  address _gateway = 0xe432150cce91c13a887f7D836923d5597adD8E31 */\n  or\n  swap1\n  sstore\n    /* \"contracts/yieldSeeker.sol\":1385:1450  address _gasReceiver = 0xbE406F0189A0B4cf3A05C286473D23791Dd44Cc6 */\n  0x05\n  dup1\n  sload\n  swap1\n  swap2\n  and\n    /* \"contracts/yieldSeeker.sol\":1408:1450  0xbE406F0189A0B4cf3A05C286473D23791Dd44Cc6 */\n  0xbe406f0189a0b4cf3a05c286473d23791dd44cc6\n    /* \"contracts/yieldSeeker.sol\":1385:1450  address _gasReceiver = 0xbE406F0189A0B4cf3A05C286473D23791Dd44Cc6 */\n  or\n  swap1\n  sstore\n    /* \"contracts/yieldSeeker.sol\":1457:1559  constructor() AxelarExecutable(_gateway) {... */\n  callvalue\n  dup1\n  iszero\n  tag_1\n  jumpi\n  0x00\n  dup1\n  revert\ntag_1:\n  pop\n    /* \"contracts/yieldSeeker.sol\":1488:1496  _gateway */\n  and(sub(shl(0xa0, 0x01), 0x01), sload(0x04))\n  dup1\n    /* \"@axelar-network/axelar-gmp-sdk-solidity/contracts/executable/AxelarExecutable.sol\":338:389  if (gateway_ == address(0)) revert InvalidAddress() */\n  tag_5\n  jumpi\n    /* \"@axelar-network/axelar-gmp-sdk-solidity/contracts/executable/AxelarExecutable.sol\":373:389  InvalidAddress() */\n  mload(0x40)\n  shl(0xe0, 0xe6c4247b)\n  dup2\n  mstore\n  0x04\n  add\n  mload(0x40)\n  dup1\n  swap2\n  sub\n  swap1\n  revert\n    /* \"@axelar-network/axelar-gmp-sdk-solidity/contracts/executable/AxelarExecutable.sol\":338:389  if (gateway_ == address(0)) revert InvalidAddress() */\ntag_5:\n  sub(shl(0xa0, 0x01), 0x01)\n    /* \"@axelar-network/axelar-gmp-sdk-solidity/contracts/executable/AxelarExecutable.sol\":400:434  gateway = IAxelarGateway(gateway_) */\n  swap1\n  dup2\n  and\n  0x80\n  mstore\n    /* \"contracts/yieldSeeker.sol\":1539:1551  _gasReceiver */\n  sload(0x05)\n  and\n    /* \"contracts/yieldSeeker.sol\":1508:1552  gasService = IAxelarGasService(_gasReceiver) */\n  0xa0\n  mstore\n    /* \"contracts/yieldSeeker.sol\":885:2313  contract yieldSeeker is AxelarExecutable {... */\n  mload(0x80)\n  mload(0xa0)\n  codecopy(0x00, dataOffset(sub_0), dataSize(sub_0))\n  0x00\n  assignImmutable(\"0xd8dd77ef205b843eebffa51565657f8add679a25fbf239f803ae74f42ece1b28\")\n  0x00\n  assignImmutable(\"0x1a192fabce13988b84994d4296e6cdc418d55e2f1d7f942188d4040b94fc57ac\")\n  return(0x00, dataSize(sub_0))\nstop\n\nsub_0: assembly {\n        /* \"contracts/yieldSeeker.sol\":885:2313  contract yieldSeeker is AxelarExecutable {... */\n      mstore(0x40, 0x80)\n      jumpi(tag_1, lt(calldatasize, 0x04))\n      shr(0xe0, calldataload(0x00))\n      dup1\n      0x3fa4f245\n      gt\n      tag_10\n      jumpi\n      dup1\n      0x3fa4f245\n      eq\n      tag_6\n      jumpi\n      dup1\n      0x49160658\n      eq\n      tag_7\n      jumpi\n      dup1\n      0x6a22d8cc\n      eq\n      tag_8\n      jumpi\n      dup1\n      0xb0fa8444\n      eq\n      tag_9\n      jumpi\n      0x00\n      dup1\n      revert\n    tag_10:\n      dup1\n      0x04600250\n      eq\n      tag_2\n      jumpi\n      dup1\n      0x116191b6\n      eq\n      tag_3\n      jumpi\n      dup1\n      0x1a98b2e0\n      eq\n      tag_4\n      jumpi\n      dup1\n      0x1c6ffa46\n      eq\n      tag_5\n      jumpi\n    tag_1:\n      0x00\n      dup1\n      revert\n        /* \"contracts/yieldSeeker.sol\":1658:2310  function setAPYValue(... */\n    tag_2:\n      tag_11\n      tag_12\n      calldatasize\n      0x04\n      tag_13\n      jump\t// in\n    tag_12:\n      tag_14\n      jump\t// in\n    tag_11:\n      stop\n        /* \"@axelar-network/axelar-gmp-sdk-solidity/contracts/executable/AxelarExecutable.sol\":252:291  IAxelarGateway public immutable gateway */\n    tag_3:\n      callvalue\n      dup1\n      iszero\n      tag_15\n      jumpi\n      0x00\n      dup1\n      revert\n    tag_15:\n      pop\n      tag_16\n      immutable(\"0x1a192fabce13988b84994d4296e6cdc418d55e2f1d7f942188d4040b94fc57ac\")\n      dup2\n      jump\n    tag_16:\n      mload(0x40)\n      sub(shl(0xa0, 0x01), 0x01)\n        /* \"#utility.yul\":1279:1311   */\n      swap1\n      swap2\n      and\n        /* \"#utility.yul\":1261:1312   */\n      dup2\n      mstore\n        /* \"#utility.yul\":1249:1251   */\n      0x20\n        /* \"#utility.yul\":1234:1252   */\n      add\n        /* \"@axelar-network/axelar-gmp-sdk-solidity/contracts/executable/AxelarExecutable.sol\":252:291  IAxelarGateway public immutable gateway */\n    tag_18:\n      mload(0x40)\n      dup1\n      swap2\n      sub\n      swap1\n      return\n        /* \"@axelar-network/axelar-gmp-sdk-solidity/contracts/executable/AxelarExecutable.sol\":872:1539  function executeWithToken(... */\n    tag_4:\n      callvalue\n      dup1\n      iszero\n      tag_20\n      jumpi\n      0x00\n      dup1\n      revert\n    tag_20:\n      pop\n      tag_11\n      tag_22\n      calldatasize\n      0x04\n      tag_23\n      jump\t// in\n    tag_22:\n      tag_24\n      jump\t// in\n        /* \"contracts/yieldSeeker.sol\":957:982  string public sourceChain */\n    tag_5:\n      callvalue\n      dup1\n      iszero\n      tag_25\n      jumpi\n      0x00\n      dup1\n      revert\n    tag_25:\n      pop\n      tag_26\n      tag_27\n      jump\t// in\n    tag_26:\n      mload(0x40)\n      tag_18\n      swap2\n      swap1\n      tag_29\n      jump\t// in\n        /* \"contracts/yieldSeeker.sol\":932:951  string public value */\n    tag_6:\n      callvalue\n      dup1\n      iszero\n      tag_30\n      jumpi\n      0x00\n      dup1\n      revert\n    tag_30:\n      pop\n      tag_26\n      tag_32\n      jump\t// in\n        /* \"@axelar-network/axelar-gmp-sdk-solidity/contracts/executable/AxelarExecutable.sol\":447:866  function execute(... */\n    tag_7:\n      callvalue\n      dup1\n      iszero\n      tag_34\n      jumpi\n      0x00\n      dup1\n      revert\n    tag_34:\n      pop\n      tag_11\n      tag_36\n      calldatasize\n      0x04\n      tag_37\n      jump\t// in\n    tag_36:\n      tag_38\n      jump\t// in\n        /* \"contracts/yieldSeeker.sol\":1021:1066  IAxelarGasService public immutable gasService */\n    tag_8:\n      callvalue\n      dup1\n      iszero\n      tag_39\n      jumpi\n      0x00\n      dup1\n      revert\n    tag_39:\n      pop\n      tag_16\n      immutable(\"0xd8dd77ef205b843eebffa51565657f8add679a25fbf239f803ae74f42ece1b28\")\n      dup2\n      jump\n        /* \"contracts/yieldSeeker.sol\":988:1015  string public sourceAddress */\n    tag_9:\n      callvalue\n      dup1\n      iszero\n      tag_44\n      jumpi\n      0x00\n      dup1\n      revert\n    tag_44:\n      pop\n      tag_26\n      tag_46\n      jump\t// in\n        /* \"contracts/yieldSeeker.sol\":1658:2310  function setAPYValue(... */\n    tag_14:\n        /* \"contracts/yieldSeeker.sol\":1818:1819  0 */\n      0x00\n        /* \"contracts/yieldSeeker.sol\":1806:1815  msg.value */\n      callvalue\n        /* \"contracts/yieldSeeker.sol\":1806:1819  msg.value > 0 */\n      gt\n        /* \"contracts/yieldSeeker.sol\":1798:1847  require(msg.value > 0, \"Gas payment is required\") */\n      tag_49\n      jumpi\n      mload(0x40)\n      shl(0xe5, 0x461bcd)\n      dup2\n      mstore\n        /* \"#utility.yul\":4936:4938   */\n      0x20\n        /* \"contracts/yieldSeeker.sol\":1798:1847  require(msg.value > 0, \"Gas payment is required\") */\n      0x04\n      dup3\n      add\n        /* \"#utility.yul\":4918:4939   */\n      mstore\n        /* \"#utility.yul\":4975:4977   */\n      0x17\n        /* \"#utility.yul\":4955:4973   */\n      0x24\n      dup3\n      add\n        /* \"#utility.yul\":4948:4978   */\n      mstore\n        /* \"#utility.yul\":5014:5039   */\n      0x476173207061796d656e74206973207265717569726564000000000000000000\n        /* \"#utility.yul\":4994:5012   */\n      0x44\n      dup3\n      add\n        /* \"#utility.yul\":4987:5040   */\n      mstore\n        /* \"#utility.yul\":5057:5075   */\n      0x64\n      add\n        /* \"contracts/yieldSeeker.sol\":1798:1847  require(msg.value > 0, \"Gas payment is required\") */\n      mload(0x40)\n      dup1\n      swap2\n      sub\n      swap1\n      revert\n    tag_49:\n        /* \"contracts/yieldSeeker.sol\":1885:1902  _getValueArbitrum */\n      sload(0x03)\n        /* \"contracts/yieldSeeker.sol\":1877:1912  IClaims(_getValueArbitrum).getAPY() */\n      0x40\n      dup1\n      mload\n      shl(0xe0, 0xd2cbf7ad)\n      dup2\n      mstore\n      swap1\n      mload\n        /* \"contracts/yieldSeeker.sol\":1858:1874  uint128 valueAPY */\n      0x00\n      swap3\n      sub(shl(0xa0, 0x01), 0x01)\n        /* \"contracts/yieldSeeker.sol\":1885:1902  _getValueArbitrum */\n      and\n      swap2\n        /* \"contracts/yieldSeeker.sol\":1877:1910  IClaims(_getValueArbitrum).getAPY */\n      0xd2cbf7ad\n      swap2\n        /* \"contracts/yieldSeeker.sol\":1877:1912  IClaims(_getValueArbitrum).getAPY() */\n      0x04\n      dup1\n      dup4\n      add\n      swap3\n      0x20\n      swap3\n      swap2\n      swap1\n      dup3\n      swap1\n      sub\n      add\n      dup2\n        /* \"contracts/yieldSeeker.sol\":1885:1902  _getValueArbitrum */\n      dup7\n        /* \"contracts/yieldSeeker.sol\":1877:1912  IClaims(_getValueArbitrum).getAPY() */\n      gas\n      staticcall\n      iszero\n      dup1\n      iszero\n      tag_53\n      jumpi\n      returndatasize\n      0x00\n      dup1\n      returndatacopy\n      revert(0x00, returndatasize)\n    tag_53:\n      pop\n      pop\n      pop\n      pop\n      mload(0x40)\n      returndatasize\n      not(0x1f)\n      0x1f\n      dup3\n      add\n      and\n      dup3\n      add\n      dup1\n      0x40\n      mstore\n      pop\n      dup2\n      add\n      swap1\n      tag_54\n      swap2\n      swap1\n      tag_55\n      jump\t// in\n    tag_54:\n        /* \"contracts/yieldSeeker.sol\":1858:1912  uint128 valueAPY = IClaims(_getValueArbitrum).getAPY() */\n      swap1\n      pop\n        /* \"contracts/yieldSeeker.sol\":1923:1943  bytes memory payload */\n      0x00\n        /* \"contracts/yieldSeeker.sol\":1990:1991  1 */\n      0x01\n        /* \"contracts/yieldSeeker.sol\":2005:2013  valueAPY */\n      dup3\n        /* \"contracts/yieldSeeker.sol\":1946:2014  abi.encode(\"setAPY(uint, string, uint128)\", 1, \"arbitrum\", valueAPY) */\n      add(0x20, mload(0x40))\n      tag_56\n      swap3\n      swap2\n      swap1\n        /* \"#utility.yul\":5761:5764   */\n      0x80\n        /* \"#utility.yul\":5743:5765   */\n      dup1\n      dup3\n      mstore\n        /* \"#utility.yul\":5802:5804   */\n      0x1d\n        /* \"#utility.yul\":5781:5800   */\n      swap1\n      dup3\n      add\n        /* \"#utility.yul\":5774:5805   */\n      mstore\n        /* \"#utility.yul\":5842:5873   */\n      0x7365744150592875696e742c20737472696e672c2075696e7431323829000000\n        /* \"#utility.yul\":5836:5839   */\n      0xa0\n        /* \"#utility.yul\":5821:5840   */\n      dup3\n      add\n        /* \"#utility.yul\":5814:5874   */\n      mstore\n        /* \"#utility.yul\":5924:5928   */\n      0xff\n        /* \"#utility.yul\":5912:5929   */\n      swap3\n      swap1\n      swap3\n      and\n        /* \"#utility.yul\":5905:5909   */\n      0x20\n        /* \"#utility.yul\":5890:5910   */\n      dup4\n      add\n        /* \"#utility.yul\":5883:5930   */\n      mstore\n        /* \"#utility.yul\":5966:5969   */\n      0xc0\n        /* \"#utility.yul\":5961:5963   */\n      0x40\n        /* \"#utility.yul\":5946:5964   */\n      dup4\n      add\n        /* \"#utility.yul\":5939:5970   */\n      dup2\n      swap1\n      mstore\n        /* \"#utility.yul\":6007:6008   */\n      0x08\n        /* \"#utility.yul\":5986:6005   */\n      swap1\n      dup4\n      add\n        /* \"#utility.yul\":5979:6009   */\n      mstore\n      shl(0xc0, 0x617262697472756d)\n        /* \"#utility.yul\":6040:6043   */\n      0xe0\n        /* \"#utility.yul\":6025:6044   */\n      dup4\n      add\n        /* \"#utility.yul\":6018:6057   */\n      mstore\n      sub(shl(0x80, 0x01), 0x01)\n        /* \"#utility.yul\":6129:6176   */\n      and\n      0x60\n        /* \"#utility.yul\":6109:6127   */\n      dup3\n      add\n        /* \"#utility.yul\":6102:6177   */\n      mstore\n        /* \"#utility.yul\":6089:6092   */\n      0x0100\n        /* \"#utility.yul\":6074:6093   */\n      add\n      swap1\n        /* \"#utility.yul\":5396:6183   */\n      jump\n        /* \"contracts/yieldSeeker.sol\":1946:2014  abi.encode(\"setAPY(uint, string, uint128)\", 1, \"arbitrum\", valueAPY) */\n    tag_56:\n      0x40\n      dup1\n      mload\n      not(0x1f)\n      dup2\n      dup5\n      sub\n      add\n      dup2\n      mstore\n      swap1\n      dup3\n      swap1\n      mstore\n      shl(0xe0, 0x0c93e3bb)\n        /* \"contracts/yieldSeeker.sol\":2024:2226  gasService.payNativeGasForContractCall{ value: msg.value }(... */\n      dup3\n      mstore\n        /* \"contracts/yieldSeeker.sol\":1946:2014  abi.encode(\"setAPY(uint, string, uint128)\", 1, \"arbitrum\", valueAPY) */\n      swap2\n      pop\n      sub(shl(0xa0, 0x01), 0x01)\n        /* \"contracts/yieldSeeker.sol\":2024:2034  gasService */\n      immutable(\"0xd8dd77ef205b843eebffa51565657f8add679a25fbf239f803ae74f42ece1b28\")\n        /* \"contracts/yieldSeeker.sol\":2024:2062  gasService.payNativeGasForContractCall */\n      and\n      swap1\n      0x0c93e3bb\n      swap1\n        /* \"contracts/yieldSeeker.sol\":2071:2080  msg.value */\n      callvalue\n      swap1\n        /* \"contracts/yieldSeeker.sol\":2024:2226  gasService.payNativeGasForContractCall{ value: msg.value }(... */\n      tag_58\n      swap1\n        /* \"contracts/yieldSeeker.sol\":2104:2108  this */\n      address\n      swap1\n        /* \"contracts/yieldSeeker.sol\":2123:2139  destinationChain */\n      dup12\n      swap1\n      dup12\n      swap1\n        /* \"contracts/yieldSeeker.sol\":2153:2171  destinationAddress */\n      dup12\n      swap1\n      dup12\n      swap1\n        /* \"contracts/yieldSeeker.sol\":1946:2014  abi.encode(\"setAPY(uint, string, uint128)\", 1, \"arbitrum\", valueAPY) */\n      dup11\n      swap1\n        /* \"contracts/yieldSeeker.sol\":2206:2216  msg.sender */\n      caller\n      swap1\n        /* \"contracts/yieldSeeker.sol\":2024:2226  gasService.payNativeGasForContractCall{ value: msg.value }(... */\n      0x04\n      add\n      tag_59\n      jump\t// in\n    tag_58:\n      0x00\n      mload(0x40)\n      dup1\n      dup4\n      sub\n      dup2\n      dup6\n      dup9\n      dup1\n      extcodesize\n      iszero\n      dup1\n      iszero\n      tag_60\n      jumpi\n      0x00\n      dup1\n      revert\n    tag_60:\n      pop\n      gas\n      call\n      iszero\n      dup1\n      iszero\n      tag_62\n      jumpi\n      returndatasize\n      0x00\n      dup1\n      returndatacopy\n      revert(0x00, returndatasize)\n    tag_62:\n      pop\n      pop\n        /* \"contracts/yieldSeeker.sol\":2236:2303  gateway.callContract(destinationChain, destinationAddress, payload) */\n      mload(0x40)\n      shl(0xe0, 0x1c92115f)\n      dup2\n      mstore\n      sub(shl(0xa0, 0x01), 0x01)\n        /* \"contracts/yieldSeeker.sol\":2236:2243  gateway */\n      immutable(\"0x1a192fabce13988b84994d4296e6cdc418d55e2f1d7f942188d4040b94fc57ac\")\n        /* \"contracts/yieldSeeker.sol\":2236:2256  gateway.callContract */\n      and\n      swap4\n      pop\n      0x1c92115f\n      swap3\n      pop\n        /* \"contracts/yieldSeeker.sol\":2236:2303  gateway.callContract(destinationChain, destinationAddress, payload) */\n      tag_63\n      swap2\n      pop\n        /* \"contracts/yieldSeeker.sol\":2257:2273  destinationChain */\n      dup10\n      swap1\n      dup10\n      swap1\n        /* \"contracts/yieldSeeker.sol\":2275:2293  destinationAddress */\n      dup10\n      swap1\n      dup10\n      swap1\n        /* \"contracts/yieldSeeker.sol\":2295:2302  payload */\n      dup9\n      swap1\n        /* \"contracts/yieldSeeker.sol\":2236:2303  gateway.callContract(destinationChain, destinationAddress, payload) */\n      0x04\n      add\n      tag_64\n      jump\t// in\n    tag_63:\n      0x00\n      mload(0x40)\n      dup1\n      dup4\n      sub\n      dup2\n      0x00\n      dup8\n      dup1\n      extcodesize\n      iszero\n      dup1\n      iszero\n      tag_65\n      jumpi\n      0x00\n      dup1\n      revert\n    tag_65:\n      pop\n      gas\n      call\n      iszero\n      dup1\n      iszero\n      tag_67\n      jumpi\n      returndatasize\n      0x00\n      dup1\n      returndatacopy\n      revert(0x00, returndatasize)\n    tag_67:\n      pop\n      pop\n      pop\n      pop\n        /* \"contracts/yieldSeeker.sol\":1788:2310  {... */\n      pop\n      pop\n        /* \"contracts/yieldSeeker.sol\":1658:2310  function setAPYValue(... */\n      pop\n      pop\n      pop\n      pop\n      jump\t// out\n        /* \"@axelar-network/axelar-gmp-sdk-solidity/contracts/executable/AxelarExecutable.sol\":872:1539  function executeWithToken(... */\n    tag_24:\n        /* \"@axelar-network/axelar-gmp-sdk-solidity/contracts/executable/AxelarExecutable.sol\":1119:1138  bytes32 payloadHash */\n      0x00\n        /* \"@axelar-network/axelar-gmp-sdk-solidity/contracts/executable/AxelarExecutable.sol\":1151:1158  payload */\n      dup6\n      dup6\n        /* \"@axelar-network/axelar-gmp-sdk-solidity/contracts/executable/AxelarExecutable.sol\":1141:1159  keccak256(payload) */\n      mload(0x40)\n      tag_69\n      swap3\n      swap2\n      swap1\n      tag_70\n      jump\t// in\n    tag_69:\n      mload(0x40)\n      swap1\n      dup2\n      swap1\n      sub\n      dup2\n      keccak256\n      shl(0xe0, 0x1876eed9)\n        /* \"@axelar-network/axelar-gmp-sdk-solidity/contracts/executable/AxelarExecutable.sol\":1188:1406  gateway.validateContractCallAndMint(... */\n      dup3\n      mstore\n        /* \"@axelar-network/axelar-gmp-sdk-solidity/contracts/executable/AxelarExecutable.sol\":1141:1159  keccak256(payload) */\n      swap2\n      pop\n      sub(shl(0xa0, 0x01), 0x01)\n        /* \"@axelar-network/axelar-gmp-sdk-solidity/contracts/executable/AxelarExecutable.sol\":1188:1195  gateway */\n      immutable(\"0x1a192fabce13988b84994d4296e6cdc418d55e2f1d7f942188d4040b94fc57ac\")\n        /* \"@axelar-network/axelar-gmp-sdk-solidity/contracts/executable/AxelarExecutable.sol\":1188:1223  gateway.validateContractCallAndMint */\n      and\n      swap1\n      0x1876eed9\n      swap1\n        /* \"@axelar-network/axelar-gmp-sdk-solidity/contracts/executable/AxelarExecutable.sol\":1188:1406  gateway.validateContractCallAndMint(... */\n      tag_71\n      swap1\n        /* \"@axelar-network/axelar-gmp-sdk-solidity/contracts/executable/AxelarExecutable.sol\":1241:1250  commandId */\n      dup15\n      swap1\n        /* \"@axelar-network/axelar-gmp-sdk-solidity/contracts/executable/AxelarExecutable.sol\":1268:1279  sourceChain */\n      dup15\n      swap1\n      dup15\n      swap1\n        /* \"@axelar-network/axelar-gmp-sdk-solidity/contracts/executable/AxelarExecutable.sol\":1297:1310  sourceAddress */\n      dup15\n      swap1\n      dup15\n      swap1\n        /* \"@axelar-network/axelar-gmp-sdk-solidity/contracts/executable/AxelarExecutable.sol\":1141:1159  keccak256(payload) */\n      dup10\n      swap1\n        /* \"@axelar-network/axelar-gmp-sdk-solidity/contracts/executable/AxelarExecutable.sol\":1357:1368  tokenSymbol */\n      dup14\n      swap1\n      dup14\n      swap1\n        /* \"@axelar-network/axelar-gmp-sdk-solidity/contracts/executable/AxelarExecutable.sol\":1386:1392  amount */\n      dup14\n      swap1\n        /* \"@axelar-network/axelar-gmp-sdk-solidity/contracts/executable/AxelarExecutable.sol\":1188:1406  gateway.validateContractCallAndMint(... */\n      0x04\n      add\n      tag_72\n      jump\t// in\n    tag_71:\n      0x20\n      mload(0x40)\n      dup1\n      dup4\n      sub\n      dup2\n      0x00\n      dup8\n      gas\n      call\n      iszero\n      dup1\n      iszero\n      tag_74\n      jumpi\n      returndatasize\n      0x00\n      dup1\n      returndatacopy\n      revert(0x00, returndatasize)\n    tag_74:\n      pop\n      pop\n      pop\n      pop\n      mload(0x40)\n      returndatasize\n      not(0x1f)\n      0x1f\n      dup3\n      add\n      and\n      dup3\n      add\n      dup1\n      0x40\n      mstore\n      pop\n      dup2\n      add\n      swap1\n      tag_75\n      swap2\n      swap1\n      tag_76\n      jump\t// in\n    tag_75:\n        /* \"@axelar-network/axelar-gmp-sdk-solidity/contracts/executable/AxelarExecutable.sol\":1170:1446  if (... */\n      tag_77\n      jumpi\n        /* \"@axelar-network/axelar-gmp-sdk-solidity/contracts/executable/AxelarExecutable.sol\":1424:1446  NotApprovedByGateway() */\n      mload(0x40)\n      shl(0xe2, 0x1403112d)\n      dup2\n      mstore\n      0x04\n      add\n      mload(0x40)\n      dup1\n      swap2\n      sub\n      swap1\n      revert\n        /* \"@axelar-network/axelar-gmp-sdk-solidity/contracts/executable/AxelarExecutable.sol\":1170:1446  if (... */\n    tag_77:\n        /* \"@axelar-network/axelar-gmp-sdk-solidity/contracts/executable/AxelarExecutable.sol\":1109:1539  {... */\n      pop\n        /* \"@axelar-network/axelar-gmp-sdk-solidity/contracts/executable/AxelarExecutable.sol\":872:1539  function executeWithToken(... */\n      pop\n      pop\n      pop\n      pop\n      pop\n      pop\n      pop\n      pop\n      pop\n      pop\n      jump\t// out\n        /* \"contracts/yieldSeeker.sol\":957:982  string public sourceChain */\n    tag_27:\n      0x01\n      dup1\n      sload\n      tag_80\n      swap1\n      tag_81\n      jump\t// in\n    tag_80:\n      dup1\n      0x1f\n      add\n      0x20\n      dup1\n      swap2\n      div\n      mul\n      0x20\n      add\n      mload(0x40)\n      swap1\n      dup2\n      add\n      0x40\n      mstore\n      dup1\n      swap3\n      swap2\n      swap1\n      dup2\n      dup2\n      mstore\n      0x20\n      add\n      dup3\n      dup1\n      sload\n      tag_82\n      swap1\n      tag_81\n      jump\t// in\n    tag_82:\n      dup1\n      iszero\n      tag_83\n      jumpi\n      dup1\n      0x1f\n      lt\n      tag_84\n      jumpi\n      0x0100\n      dup1\n      dup4\n      sload\n      div\n      mul\n      dup4\n      mstore\n      swap2\n      0x20\n      add\n      swap2\n      jump(tag_83)\n    tag_84:\n      dup3\n      add\n      swap2\n      swap1\n      0x00\n      mstore\n      keccak256(0x00, 0x20)\n      swap1\n    tag_85:\n      dup2\n      sload\n      dup2\n      mstore\n      swap1\n      0x01\n      add\n      swap1\n      0x20\n      add\n      dup1\n      dup4\n      gt\n      tag_85\n      jumpi\n      dup3\n      swap1\n      sub\n      0x1f\n      and\n      dup3\n      add\n      swap2\n    tag_83:\n      pop\n      pop\n      pop\n      pop\n      pop\n      dup2\n      jump\t// out\n        /* \"contracts/yieldSeeker.sol\":932:951  string public value */\n    tag_32:\n      0x00\n      dup1\n      sload\n      tag_80\n      swap1\n      tag_81\n      jump\t// in\n        /* \"@axelar-network/axelar-gmp-sdk-solidity/contracts/executable/AxelarExecutable.sol\":447:866  function execute(... */\n    tag_38:\n        /* \"@axelar-network/axelar-gmp-sdk-solidity/contracts/executable/AxelarExecutable.sol\":624:643  bytes32 payloadHash */\n      0x00\n        /* \"@axelar-network/axelar-gmp-sdk-solidity/contracts/executable/AxelarExecutable.sol\":656:663  payload */\n      dup3\n      dup3\n        /* \"@axelar-network/axelar-gmp-sdk-solidity/contracts/executable/AxelarExecutable.sol\":646:664  keccak256(payload) */\n      mload(0x40)\n      tag_92\n      swap3\n      swap2\n      swap1\n      tag_70\n      jump\t// in\n    tag_92:\n      mload(0x40)\n      swap1\n      dup2\n      swap1\n      sub\n      dup2\n      keccak256\n      shl(0xe0, 0x5f6970c3)\n        /* \"@axelar-network/axelar-gmp-sdk-solidity/contracts/executable/AxelarExecutable.sol\":680:760  gateway.validateContractCall(commandId, sourceChain, sourceAddress, payloadHash) */\n      dup3\n      mstore\n        /* \"@axelar-network/axelar-gmp-sdk-solidity/contracts/executable/AxelarExecutable.sol\":646:664  keccak256(payload) */\n      swap2\n      pop\n      sub(shl(0xa0, 0x01), 0x01)\n        /* \"@axelar-network/axelar-gmp-sdk-solidity/contracts/executable/AxelarExecutable.sol\":680:687  gateway */\n      immutable(\"0x1a192fabce13988b84994d4296e6cdc418d55e2f1d7f942188d4040b94fc57ac\")\n        /* \"@axelar-network/axelar-gmp-sdk-solidity/contracts/executable/AxelarExecutable.sol\":680:708  gateway.validateContractCall */\n      and\n      swap1\n      0x5f6970c3\n      swap1\n        /* \"@axelar-network/axelar-gmp-sdk-solidity/contracts/executable/AxelarExecutable.sol\":680:760  gateway.validateContractCall(commandId, sourceChain, sourceAddress, payloadHash) */\n      tag_93\n      swap1\n        /* \"@axelar-network/axelar-gmp-sdk-solidity/contracts/executable/AxelarExecutable.sol\":709:718  commandId */\n      dup12\n      swap1\n        /* \"@axelar-network/axelar-gmp-sdk-solidity/contracts/executable/AxelarExecutable.sol\":720:731  sourceChain */\n      dup12\n      swap1\n      dup12\n      swap1\n        /* \"@axelar-network/axelar-gmp-sdk-solidity/contracts/executable/AxelarExecutable.sol\":733:746  sourceAddress */\n      dup12\n      swap1\n      dup12\n      swap1\n        /* \"@axelar-network/axelar-gmp-sdk-solidity/contracts/executable/AxelarExecutable.sol\":646:664  keccak256(payload) */\n      dup10\n      swap1\n        /* \"@axelar-network/axelar-gmp-sdk-solidity/contracts/executable/AxelarExecutable.sol\":680:760  gateway.validateContractCall(commandId, sourceChain, sourceAddress, payloadHash) */\n      0x04\n      add\n      tag_94\n      jump\t// in\n    tag_93:\n      0x20\n      mload(0x40)\n      dup1\n      dup4\n      sub\n      dup2\n      0x00\n      dup8\n      gas\n      call\n      iszero\n      dup1\n      iszero\n      tag_96\n      jumpi\n      returndatasize\n      0x00\n      dup1\n      returndatacopy\n      revert(0x00, returndatasize)\n    tag_96:\n      pop\n      pop\n      pop\n      pop\n      mload(0x40)\n      returndatasize\n      not(0x1f)\n      0x1f\n      dup3\n      add\n      and\n      dup3\n      add\n      dup1\n      0x40\n      mstore\n      pop\n      dup2\n      add\n      swap1\n      tag_97\n      swap2\n      swap1\n      tag_76\n      jump\t// in\n    tag_97:\n        /* \"@axelar-network/axelar-gmp-sdk-solidity/contracts/executable/AxelarExecutable.sol\":675:803  if (!gateway.validateContractCall(commandId, sourceChain, sourceAddress, payloadHash))... */\n      tag_98\n      jumpi\n        /* \"@axelar-network/axelar-gmp-sdk-solidity/contracts/executable/AxelarExecutable.sol\":781:803  NotApprovedByGateway() */\n      mload(0x40)\n      shl(0xe2, 0x1403112d)\n      dup2\n      mstore\n      0x04\n      add\n      mload(0x40)\n      dup1\n      swap2\n      sub\n      swap1\n      revert\n        /* \"@axelar-network/axelar-gmp-sdk-solidity/contracts/executable/AxelarExecutable.sol\":675:803  if (!gateway.validateContractCall(commandId, sourceChain, sourceAddress, payloadHash))... */\n    tag_98:\n        /* \"@axelar-network/axelar-gmp-sdk-solidity/contracts/executable/AxelarExecutable.sol\":614:866  {... */\n      pop\n        /* \"@axelar-network/axelar-gmp-sdk-solidity/contracts/executable/AxelarExecutable.sol\":447:866  function execute(... */\n      pop\n      pop\n      pop\n      pop\n      pop\n      pop\n      pop\n      jump\t// out\n        /* \"contracts/yieldSeeker.sol\":988:1015  string public sourceAddress */\n    tag_46:\n      0x02\n      dup1\n      sload\n      tag_80\n      swap1\n      tag_81\n      jump\t// in\n        /* \"#utility.yul\":14:362   */\n    tag_108:\n        /* \"#utility.yul\":66:74   */\n      0x00\n        /* \"#utility.yul\":76:82   */\n      dup1\n        /* \"#utility.yul\":130:133   */\n      dup4\n        /* \"#utility.yul\":123:127   */\n      0x1f\n        /* \"#utility.yul\":115:121   */\n      dup5\n        /* \"#utility.yul\":111:128   */\n      add\n        /* \"#utility.yul\":107:134   */\n      slt\n        /* \"#utility.yul\":97:152   */\n      tag_113\n      jumpi\n        /* \"#utility.yul\":148:149   */\n      0x00\n        /* \"#utility.yul\":145:146   */\n      dup1\n        /* \"#utility.yul\":138:150   */\n      revert\n        /* \"#utility.yul\":97:152   */\n    tag_113:\n      pop\n        /* \"#utility.yul\":171:191   */\n      dup2\n      calldataload\n        /* \"#utility.yul\":214:232   */\n      0xffffffffffffffff\n        /* \"#utility.yul\":203:233   */\n      dup2\n      gt\n        /* \"#utility.yul\":200:250   */\n      iszero\n      tag_114\n      jumpi\n        /* \"#utility.yul\":246:247   */\n      0x00\n        /* \"#utility.yul\":243:244   */\n      dup1\n        /* \"#utility.yul\":236:248   */\n      revert\n        /* \"#utility.yul\":200:250   */\n    tag_114:\n        /* \"#utility.yul\":283:287   */\n      0x20\n        /* \"#utility.yul\":275:281   */\n      dup4\n        /* \"#utility.yul\":271:288   */\n      add\n        /* \"#utility.yul\":259:288   */\n      swap2\n      pop\n        /* \"#utility.yul\":335:338   */\n      dup4\n        /* \"#utility.yul\":328:332   */\n      0x20\n        /* \"#utility.yul\":319:325   */\n      dup3\n        /* \"#utility.yul\":311:317   */\n      dup6\n        /* \"#utility.yul\":307:326   */\n      add\n        /* \"#utility.yul\":303:333   */\n      add\n        /* \"#utility.yul\":300:339   */\n      gt\n        /* \"#utility.yul\":297:356   */\n      iszero\n      tag_115\n      jumpi\n        /* \"#utility.yul\":352:353   */\n      0x00\n        /* \"#utility.yul\":349:350   */\n      dup1\n        /* \"#utility.yul\":342:354   */\n      revert\n        /* \"#utility.yul\":297:356   */\n    tag_115:\n        /* \"#utility.yul\":14:362   */\n      swap3\n      pop\n      swap3\n      swap1\n      pop\n      jump\t// out\n        /* \"#utility.yul\":367:1088   */\n    tag_13:\n        /* \"#utility.yul\":459:465   */\n      0x00\n        /* \"#utility.yul\":467:473   */\n      dup1\n        /* \"#utility.yul\":475:481   */\n      0x00\n        /* \"#utility.yul\":483:489   */\n      dup1\n        /* \"#utility.yul\":536:538   */\n      0x40\n        /* \"#utility.yul\":524:533   */\n      dup6\n        /* \"#utility.yul\":515:522   */\n      dup8\n        /* \"#utility.yul\":511:534   */\n      sub\n        /* \"#utility.yul\":507:539   */\n      slt\n        /* \"#utility.yul\":504:556   */\n      iszero\n      tag_117\n      jumpi\n        /* \"#utility.yul\":552:553   */\n      0x00\n        /* \"#utility.yul\":549:550   */\n      dup1\n        /* \"#utility.yul\":542:554   */\n      revert\n        /* \"#utility.yul\":504:556   */\n    tag_117:\n        /* \"#utility.yul\":592:601   */\n      dup5\n        /* \"#utility.yul\":579:602   */\n      calldataload\n        /* \"#utility.yul\":621:639   */\n      0xffffffffffffffff\n        /* \"#utility.yul\":662:664   */\n      dup1\n        /* \"#utility.yul\":654:660   */\n      dup3\n        /* \"#utility.yul\":651:665   */\n      gt\n        /* \"#utility.yul\":648:682   */\n      iszero\n      tag_118\n      jumpi\n        /* \"#utility.yul\":678:679   */\n      0x00\n        /* \"#utility.yul\":675:676   */\n      dup1\n        /* \"#utility.yul\":668:680   */\n      revert\n        /* \"#utility.yul\":648:682   */\n    tag_118:\n        /* \"#utility.yul\":717:776   */\n      tag_119\n        /* \"#utility.yul\":768:775   */\n      dup9\n        /* \"#utility.yul\":759:765   */\n      dup4\n        /* \"#utility.yul\":748:757   */\n      dup10\n        /* \"#utility.yul\":744:766   */\n      add\n        /* \"#utility.yul\":717:776   */\n      tag_108\n      jump\t// in\n    tag_119:\n        /* \"#utility.yul\":795:803   */\n      swap1\n      swap7\n      pop\n        /* \"#utility.yul\":691:776   */\n      swap5\n      pop\n        /* \"#utility.yul\":883:885   */\n      0x20\n        /* \"#utility.yul\":868:886   */\n      dup8\n      add\n        /* \"#utility.yul\":855:887   */\n      calldataload\n      swap2\n      pop\n        /* \"#utility.yul\":899:915   */\n      dup1\n      dup3\n      gt\n        /* \"#utility.yul\":896:932   */\n      iszero\n      tag_120\n      jumpi\n        /* \"#utility.yul\":928:929   */\n      0x00\n        /* \"#utility.yul\":925:926   */\n      dup1\n        /* \"#utility.yul\":918:930   */\n      revert\n        /* \"#utility.yul\":896:932   */\n    tag_120:\n      pop\n        /* \"#utility.yul\":967:1028   */\n      tag_121\n        /* \"#utility.yul\":1020:1027   */\n      dup8\n        /* \"#utility.yul\":1009:1017   */\n      dup3\n        /* \"#utility.yul\":998:1007   */\n      dup9\n        /* \"#utility.yul\":994:1018   */\n      add\n        /* \"#utility.yul\":967:1028   */\n      tag_108\n      jump\t// in\n    tag_121:\n        /* \"#utility.yul\":367:1088   */\n      swap6\n      swap9\n      swap5\n      swap8\n      pop\n        /* \"#utility.yul\":1047:1055   */\n      swap6\n      pop\n      pop\n      pop\n      pop\n        /* \"#utility.yul\":367:1088   */\n      jump\t// out\n        /* \"#utility.yul\":1323:2760   */\n    tag_23:\n        /* \"#utility.yul\":1474:1480   */\n      0x00\n        /* \"#utility.yul\":1482:1488   */\n      dup1\n        /* \"#utility.yul\":1490:1496   */\n      0x00\n        /* \"#utility.yul\":1498:1504   */\n      dup1\n        /* \"#utility.yul\":1506:1512   */\n      0x00\n        /* \"#utility.yul\":1514:1520   */\n      dup1\n        /* \"#utility.yul\":1522:1528   */\n      0x00\n        /* \"#utility.yul\":1530:1536   */\n      dup1\n        /* \"#utility.yul\":1538:1544   */\n      0x00\n        /* \"#utility.yul\":1546:1552   */\n      dup1\n        /* \"#utility.yul\":1599:1602   */\n      0xc0\n        /* \"#utility.yul\":1587:1596   */\n      dup12\n        /* \"#utility.yul\":1578:1585   */\n      dup14\n        /* \"#utility.yul\":1574:1597   */\n      sub\n        /* \"#utility.yul\":1570:1603   */\n      slt\n        /* \"#utility.yul\":1567:1620   */\n      iszero\n      tag_124\n      jumpi\n        /* \"#utility.yul\":1616:1617   */\n      0x00\n        /* \"#utility.yul\":1613:1614   */\n      dup1\n        /* \"#utility.yul\":1606:1618   */\n      revert\n        /* \"#utility.yul\":1567:1620   */\n    tag_124:\n        /* \"#utility.yul\":1652:1661   */\n      dup11\n        /* \"#utility.yul\":1639:1662   */\n      calldataload\n        /* \"#utility.yul\":1629:1662   */\n      swap10\n      pop\n        /* \"#utility.yul\":1713:1715   */\n      0x20\n        /* \"#utility.yul\":1702:1711   */\n      dup12\n        /* \"#utility.yul\":1698:1716   */\n      add\n        /* \"#utility.yul\":1685:1717   */\n      calldataload\n        /* \"#utility.yul\":1736:1754   */\n      0xffffffffffffffff\n        /* \"#utility.yul\":1777:1779   */\n      dup1\n        /* \"#utility.yul\":1769:1775   */\n      dup3\n        /* \"#utility.yul\":1766:1780   */\n      gt\n        /* \"#utility.yul\":1763:1797   */\n      iszero\n      tag_125\n      jumpi\n        /* \"#utility.yul\":1793:1794   */\n      0x00\n        /* \"#utility.yul\":1790:1791   */\n      dup1\n        /* \"#utility.yul\":1783:1795   */\n      revert\n        /* \"#utility.yul\":1763:1797   */\n    tag_125:\n        /* \"#utility.yul\":1832:1891   */\n      tag_126\n        /* \"#utility.yul\":1883:1890   */\n      dup15\n        /* \"#utility.yul\":1874:1880   */\n      dup4\n        /* \"#utility.yul\":1863:1872   */\n      dup16\n        /* \"#utility.yul\":1859:1881   */\n      add\n        /* \"#utility.yul\":1832:1891   */\n      tag_108\n      jump\t// in\n    tag_126:\n        /* \"#utility.yul\":1910:1918   */\n      swap1\n      swap12\n      pop\n        /* \"#utility.yul\":1806:1891   */\n      swap10\n      pop\n        /* \"#utility.yul\":1998:2000   */\n      0x40\n        /* \"#utility.yul\":1983:2001   */\n      dup14\n      add\n        /* \"#utility.yul\":1970:2002   */\n      calldataload\n      swap2\n      pop\n        /* \"#utility.yul\":2014:2030   */\n      dup1\n      dup3\n      gt\n        /* \"#utility.yul\":2011:2047   */\n      iszero\n      tag_127\n      jumpi\n        /* \"#utility.yul\":2043:2044   */\n      0x00\n        /* \"#utility.yul\":2040:2041   */\n      dup1\n        /* \"#utility.yul\":2033:2045   */\n      revert\n        /* \"#utility.yul\":2011:2047   */\n    tag_127:\n        /* \"#utility.yul\":2082:2143   */\n      tag_128\n        /* \"#utility.yul\":2135:2142   */\n      dup15\n        /* \"#utility.yul\":2124:2132   */\n      dup4\n        /* \"#utility.yul\":2113:2122   */\n      dup16\n        /* \"#utility.yul\":2109:2133   */\n      add\n        /* \"#utility.yul\":2082:2143   */\n      tag_108\n      jump\t// in\n    tag_128:\n        /* \"#utility.yul\":2162:2170   */\n      swap1\n      swap10\n      pop\n        /* \"#utility.yul\":2056:2143   */\n      swap8\n      pop\n        /* \"#utility.yul\":2250:2252   */\n      0x60\n        /* \"#utility.yul\":2235:2253   */\n      dup14\n      add\n        /* \"#utility.yul\":2222:2254   */\n      calldataload\n      swap2\n      pop\n        /* \"#utility.yul\":2266:2282   */\n      dup1\n      dup3\n      gt\n        /* \"#utility.yul\":2263:2299   */\n      iszero\n      tag_129\n      jumpi\n        /* \"#utility.yul\":2295:2296   */\n      0x00\n        /* \"#utility.yul\":2292:2293   */\n      dup1\n        /* \"#utility.yul\":2285:2297   */\n      revert\n        /* \"#utility.yul\":2263:2299   */\n    tag_129:\n        /* \"#utility.yul\":2334:2395   */\n      tag_130\n        /* \"#utility.yul\":2387:2394   */\n      dup15\n        /* \"#utility.yul\":2376:2384   */\n      dup4\n        /* \"#utility.yul\":2365:2374   */\n      dup16\n        /* \"#utility.yul\":2361:2385   */\n      add\n        /* \"#utility.yul\":2334:2395   */\n      tag_108\n      jump\t// in\n    tag_130:\n        /* \"#utility.yul\":2414:2422   */\n      swap1\n      swap8\n      pop\n        /* \"#utility.yul\":2308:2395   */\n      swap6\n      pop\n        /* \"#utility.yul\":2502:2505   */\n      0x80\n        /* \"#utility.yul\":2487:2506   */\n      dup14\n      add\n        /* \"#utility.yul\":2474:2507   */\n      calldataload\n      swap2\n      pop\n        /* \"#utility.yul\":2519:2535   */\n      dup1\n      dup3\n      gt\n        /* \"#utility.yul\":2516:2552   */\n      iszero\n      tag_131\n      jumpi\n        /* \"#utility.yul\":2548:2549   */\n      0x00\n        /* \"#utility.yul\":2545:2546   */\n      dup1\n        /* \"#utility.yul\":2538:2550   */\n      revert\n        /* \"#utility.yul\":2516:2552   */\n    tag_131:\n      pop\n        /* \"#utility.yul\":2587:2648   */\n      tag_132\n        /* \"#utility.yul\":2640:2647   */\n      dup14\n        /* \"#utility.yul\":2629:2637   */\n      dup3\n        /* \"#utility.yul\":2618:2627   */\n      dup15\n        /* \"#utility.yul\":2614:2638   */\n      add\n        /* \"#utility.yul\":2587:2648   */\n      tag_108\n      jump\t// in\n    tag_132:\n        /* \"#utility.yul\":2561:2648   */\n      swap2\n      pop\n        /* \"#utility.yul\":2667:2675   */\n      dup1\n        /* \"#utility.yul\":2657:2675   */\n      swap5\n      pop\n      pop\n        /* \"#utility.yul\":2694:2702   */\n      dup1\n        /* \"#utility.yul\":2684:2702   */\n      swap3\n      pop\n      pop\n        /* \"#utility.yul\":2749:2752   */\n      0xa0\n        /* \"#utility.yul\":2738:2747   */\n      dup12\n        /* \"#utility.yul\":2734:2753   */\n      add\n        /* \"#utility.yul\":2721:2754   */\n      calldataload\n        /* \"#utility.yul\":2711:2754   */\n      swap1\n      pop\n        /* \"#utility.yul\":1323:2760   */\n      swap3\n      swap6\n      swap9\n      swap12\n      swap2\n      swap5\n      swap8\n      swap11\n      pop\n      swap3\n      swap6\n      swap9\n      pop\n      jump\t// out\n        /* \"#utility.yul\":2765:3188   */\n    tag_109:\n        /* \"#utility.yul\":2807:2810   */\n      0x00\n        /* \"#utility.yul\":2845:2850   */\n      dup2\n        /* \"#utility.yul\":2839:2851   */\n      mload\n        /* \"#utility.yul\":2872:2878   */\n      dup1\n        /* \"#utility.yul\":2867:2870   */\n      dup5\n        /* \"#utility.yul\":2860:2879   */\n      mstore\n        /* \"#utility.yul\":2897:2898   */\n      0x00\n        /* \"#utility.yul\":2907:3069   */\n    tag_134:\n        /* \"#utility.yul\":2921:2927   */\n      dup2\n        /* \"#utility.yul\":2918:2919   */\n      dup2\n        /* \"#utility.yul\":2915:2928   */\n      lt\n        /* \"#utility.yul\":2907:3069   */\n      iszero\n      tag_136\n      jumpi\n        /* \"#utility.yul\":2983:2987   */\n      0x20\n        /* \"#utility.yul\":3039:3052   */\n      dup2\n      dup6\n      add\n        /* \"#utility.yul\":3035:3057   */\n      dup2\n      add\n        /* \"#utility.yul\":3029:3058   */\n      mload\n        /* \"#utility.yul\":3011:3022   */\n      dup7\n      dup4\n      add\n        /* \"#utility.yul\":3007:3027   */\n      dup3\n      add\n        /* \"#utility.yul\":3000:3059   */\n      mstore\n        /* \"#utility.yul\":2936:2948   */\n      add\n        /* \"#utility.yul\":2907:3069   */\n      jump(tag_134)\n    tag_136:\n        /* \"#utility.yul\":2911:2914   */\n      pop\n        /* \"#utility.yul\":3114:3115   */\n      0x00\n        /* \"#utility.yul\":3107:3111   */\n      0x20\n        /* \"#utility.yul\":3098:3104   */\n      dup3\n        /* \"#utility.yul\":3093:3096   */\n      dup7\n        /* \"#utility.yul\":3089:3105   */\n      add\n        /* \"#utility.yul\":3085:3112   */\n      add\n        /* \"#utility.yul\":3078:3116   */\n      mstore\n        /* \"#utility.yul\":3177:3181   */\n      0x20\n        /* \"#utility.yul\":3170:3172   */\n      0x1f\n        /* \"#utility.yul\":3166:3173   */\n      not\n        /* \"#utility.yul\":3161:3163   */\n      0x1f\n        /* \"#utility.yul\":3153:3159   */\n      dup4\n        /* \"#utility.yul\":3149:3164   */\n      add\n        /* \"#utility.yul\":3145:3174   */\n      and\n        /* \"#utility.yul\":3140:3143   */\n      dup6\n        /* \"#utility.yul\":3136:3175   */\n      add\n        /* \"#utility.yul\":3132:3182   */\n      add\n        /* \"#utility.yul\":3125:3182   */\n      swap2\n      pop\n      pop\n        /* \"#utility.yul\":2765:3188   */\n      swap3\n      swap2\n      pop\n      pop\n      jump\t// out\n        /* \"#utility.yul\":3193:3413   */\n    tag_29:\n        /* \"#utility.yul\":3342:3344   */\n      0x20\n        /* \"#utility.yul\":3331:3340   */\n      dup2\n        /* \"#utility.yul\":3324:3345   */\n      mstore\n        /* \"#utility.yul\":3305:3309   */\n      0x00\n        /* \"#utility.yul\":3362:3407   */\n      tag_138\n        /* \"#utility.yul\":3403:3405   */\n      0x20\n        /* \"#utility.yul\":3392:3401   */\n      dup4\n        /* \"#utility.yul\":3388:3406   */\n      add\n        /* \"#utility.yul\":3380:3386   */\n      dup5\n        /* \"#utility.yul\":3362:3407   */\n      tag_109\n      jump\t// in\n    tag_138:\n        /* \"#utility.yul\":3354:3407   */\n      swap4\n        /* \"#utility.yul\":3193:3413   */\n      swap3\n      pop\n      pop\n      pop\n      jump\t// out\n        /* \"#utility.yul\":3418:4496   */\n    tag_37:\n        /* \"#utility.yul\":3539:3545   */\n      0x00\n        /* \"#utility.yul\":3547:3553   */\n      dup1\n        /* \"#utility.yul\":3555:3561   */\n      0x00\n        /* \"#utility.yul\":3563:3569   */\n      dup1\n        /* \"#utility.yul\":3571:3577   */\n      0x00\n        /* \"#utility.yul\":3579:3585   */\n      dup1\n        /* \"#utility.yul\":3587:3593   */\n      0x00\n        /* \"#utility.yul\":3640:3643   */\n      0x80\n        /* \"#utility.yul\":3628:3637   */\n      dup9\n        /* \"#utility.yul\":3619:3626   */\n      dup11\n        /* \"#utility.yul\":3615:3638   */\n      sub\n        /* \"#utility.yul\":3611:3644   */\n      slt\n        /* \"#utility.yul\":3608:3661   */\n      iszero\n      tag_140\n      jumpi\n        /* \"#utility.yul\":3657:3658   */\n      0x00\n        /* \"#utility.yul\":3654:3655   */\n      dup1\n        /* \"#utility.yul\":3647:3659   */\n      revert\n        /* \"#utility.yul\":3608:3661   */\n    tag_140:\n        /* \"#utility.yul\":3693:3702   */\n      dup8\n        /* \"#utility.yul\":3680:3703   */\n      calldataload\n        /* \"#utility.yul\":3670:3703   */\n      swap7\n      pop\n        /* \"#utility.yul\":3754:3756   */\n      0x20\n        /* \"#utility.yul\":3743:3752   */\n      dup9\n        /* \"#utility.yul\":3739:3757   */\n      add\n        /* \"#utility.yul\":3726:3758   */\n      calldataload\n        /* \"#utility.yul\":3777:3795   */\n      0xffffffffffffffff\n        /* \"#utility.yul\":3818:3820   */\n      dup1\n        /* \"#utility.yul\":3810:3816   */\n      dup3\n        /* \"#utility.yul\":3807:3821   */\n      gt\n        /* \"#utility.yul\":3804:3838   */\n      iszero\n      tag_141\n      jumpi\n        /* \"#utility.yul\":3834:3835   */\n      0x00\n        /* \"#utility.yul\":3831:3832   */\n      dup1\n        /* \"#utility.yul\":3824:3836   */\n      revert\n        /* \"#utility.yul\":3804:3838   */\n    tag_141:\n        /* \"#utility.yul\":3873:3932   */\n      tag_142\n        /* \"#utility.yul\":3924:3931   */\n      dup12\n        /* \"#utility.yul\":3915:3921   */\n      dup4\n        /* \"#utility.yul\":3904:3913   */\n      dup13\n        /* \"#utility.yul\":3900:3922   */\n      add\n        /* \"#utility.yul\":3873:3932   */\n      tag_108\n      jump\t// in\n    tag_142:\n        /* \"#utility.yul\":3951:3959   */\n      swap1\n      swap9\n      pop\n        /* \"#utility.yul\":3847:3932   */\n      swap7\n      pop\n        /* \"#utility.yul\":4039:4041   */\n      0x40\n        /* \"#utility.yul\":4024:4042   */\n      dup11\n      add\n        /* \"#utility.yul\":4011:4043   */\n      calldataload\n      swap2\n      pop\n        /* \"#utility.yul\":4055:4071   */\n      dup1\n      dup3\n      gt\n        /* \"#utility.yul\":4052:4088   */\n      iszero\n      tag_143\n      jumpi\n        /* \"#utility.yul\":4084:4085   */\n      0x00\n        /* \"#utility.yul\":4081:4082   */\n      dup1\n        /* \"#utility.yul\":4074:4086   */\n      revert\n        /* \"#utility.yul\":4052:4088   */\n    tag_143:\n        /* \"#utility.yul\":4123:4184   */\n      tag_144\n        /* \"#utility.yul\":4176:4183   */\n      dup12\n        /* \"#utility.yul\":4165:4173   */\n      dup4\n        /* \"#utility.yul\":4154:4163   */\n      dup13\n        /* \"#utility.yul\":4150:4174   */\n      add\n        /* \"#utility.yul\":4123:4184   */\n      tag_108\n      jump\t// in\n    tag_144:\n        /* \"#utility.yul\":4203:4211   */\n      swap1\n      swap7\n      pop\n        /* \"#utility.yul\":4097:4184   */\n      swap5\n      pop\n        /* \"#utility.yul\":4291:4293   */\n      0x60\n        /* \"#utility.yul\":4276:4294   */\n      dup11\n      add\n        /* \"#utility.yul\":4263:4295   */\n      calldataload\n      swap2\n      pop\n        /* \"#utility.yul\":4307:4323   */\n      dup1\n      dup3\n      gt\n        /* \"#utility.yul\":4304:4340   */\n      iszero\n      tag_145\n      jumpi\n        /* \"#utility.yul\":4336:4337   */\n      0x00\n        /* \"#utility.yul\":4333:4334   */\n      dup1\n        /* \"#utility.yul\":4326:4338   */\n      revert\n        /* \"#utility.yul\":4304:4340   */\n    tag_145:\n      pop\n        /* \"#utility.yul\":4375:4436   */\n      tag_146\n        /* \"#utility.yul\":4428:4435   */\n      dup11\n        /* \"#utility.yul\":4417:4425   */\n      dup3\n        /* \"#utility.yul\":4406:4415   */\n      dup12\n        /* \"#utility.yul\":4402:4426   */\n      add\n        /* \"#utility.yul\":4375:4436   */\n      tag_108\n      jump\t// in\n    tag_146:\n        /* \"#utility.yul\":3418:4496   */\n      swap9\n      swap12\n      swap8\n      swap11\n      pop\n      swap6\n      swap9\n      pop\n      swap4\n      swap7\n      swap3\n      swap6\n        /* \"#utility.yul\":4349:4436   */\n      swap3\n      swap4\n      pop\n      pop\n      pop\n        /* \"#utility.yul\":3418:4496   */\n      jump\t// out\n        /* \"#utility.yul\":5086:5391   */\n    tag_55:\n        /* \"#utility.yul\":5156:5162   */\n      0x00\n        /* \"#utility.yul\":5209:5211   */\n      0x20\n        /* \"#utility.yul\":5197:5206   */\n      dup3\n        /* \"#utility.yul\":5188:5195   */\n      dup5\n        /* \"#utility.yul\":5184:5207   */\n      sub\n        /* \"#utility.yul\":5180:5212   */\n      slt\n        /* \"#utility.yul\":5177:5229   */\n      iszero\n      tag_150\n      jumpi\n        /* \"#utility.yul\":5225:5226   */\n      0x00\n        /* \"#utility.yul\":5222:5223   */\n      dup1\n        /* \"#utility.yul\":5215:5227   */\n      revert\n        /* \"#utility.yul\":5177:5229   */\n    tag_150:\n        /* \"#utility.yul\":5257:5266   */\n      dup2\n        /* \"#utility.yul\":5251:5267   */\n      mload\n      sub(shl(0x80, 0x01), 0x01)\n        /* \"#utility.yul\":5300:5305   */\n      dup2\n        /* \"#utility.yul\":5296:5342   */\n      and\n        /* \"#utility.yul\":5289:5294   */\n      dup2\n        /* \"#utility.yul\":5286:5343   */\n      eq\n        /* \"#utility.yul\":5276:5361   */\n      tag_138\n      jumpi\n        /* \"#utility.yul\":5357:5358   */\n      0x00\n        /* \"#utility.yul\":5354:5355   */\n      dup1\n        /* \"#utility.yul\":5347:5359   */\n      revert\n        /* \"#utility.yul\":6188:6455   */\n    tag_110:\n        /* \"#utility.yul\":6277:6283   */\n      dup2\n        /* \"#utility.yul\":6272:6275   */\n      dup4\n        /* \"#utility.yul\":6265:6284   */\n      mstore\n        /* \"#utility.yul\":6329:6335   */\n      dup2\n        /* \"#utility.yul\":6322:6327   */\n      dup2\n        /* \"#utility.yul\":6315:6319   */\n      0x20\n        /* \"#utility.yul\":6310:6313   */\n      dup6\n        /* \"#utility.yul\":6306:6320   */\n      add\n        /* \"#utility.yul\":6293:6336   */\n      calldatacopy\n      pop\n        /* \"#utility.yul\":6381:6382   */\n      0x00\n        /* \"#utility.yul\":6356:6372   */\n      dup3\n      dup3\n      add\n        /* \"#utility.yul\":6374:6378   */\n      0x20\n        /* \"#utility.yul\":6352:6379   */\n      swap1\n      dup2\n      add\n        /* \"#utility.yul\":6345:6383   */\n      swap2\n      swap1\n      swap2\n      mstore\n        /* \"#utility.yul\":6437:6439   */\n      0x1f\n        /* \"#utility.yul\":6416:6431   */\n      swap1\n      swap2\n      add\n      not(0x1f)\n        /* \"#utility.yul\":6412:6441   */\n      and\n        /* \"#utility.yul\":6403:6442   */\n      swap1\n      swap2\n      add\n        /* \"#utility.yul\":6399:6449   */\n      add\n      swap1\n        /* \"#utility.yul\":6188:6455   */\n      jump\t// out\n        /* \"#utility.yul\":6460:7259   */\n    tag_59:\n        /* \"#utility.yul\":6742:6746   */\n      0x00\n        /* \"#utility.yul\":6788:6789   */\n      0x01\n        /* \"#utility.yul\":6784:6785   */\n      dup1\n        /* \"#utility.yul\":6779:6782   */\n      0xa0\n        /* \"#utility.yul\":6775:6786   */\n      shl\n        /* \"#utility.yul\":6771:6790   */\n      sub\n        /* \"#utility.yul\":6829:6831   */\n      dup1\n        /* \"#utility.yul\":6821:6827   */\n      dup11\n        /* \"#utility.yul\":6817:6832   */\n      and\n        /* \"#utility.yul\":6806:6815   */\n      dup4\n        /* \"#utility.yul\":6799:6833   */\n      mstore\n        /* \"#utility.yul\":6869:6872   */\n      0xa0\n        /* \"#utility.yul\":6864:6866   */\n      0x20\n        /* \"#utility.yul\":6853:6862   */\n      dup5\n        /* \"#utility.yul\":6849:6867   */\n      add\n        /* \"#utility.yul\":6842:6873   */\n      mstore\n        /* \"#utility.yul\":6896:6959   */\n      tag_155\n        /* \"#utility.yul\":6954:6957   */\n      0xa0\n        /* \"#utility.yul\":6943:6952   */\n      dup5\n        /* \"#utility.yul\":6939:6958   */\n      add\n        /* \"#utility.yul\":6931:6937   */\n      dup10\n        /* \"#utility.yul\":6923:6929   */\n      dup12\n        /* \"#utility.yul\":6896:6959   */\n      tag_110\n      jump\t// in\n    tag_155:\n        /* \"#utility.yul\":7007:7016   */\n      dup4\n        /* \"#utility.yul\":6999:7005   */\n      dup2\n        /* \"#utility.yul\":6995:7017   */\n      sub\n        /* \"#utility.yul\":6990:6992   */\n      0x40\n        /* \"#utility.yul\":6979:6988   */\n      dup6\n        /* \"#utility.yul\":6975:6993   */\n      add\n        /* \"#utility.yul\":6968:7018   */\n      mstore\n        /* \"#utility.yul\":7041:7091   */\n      tag_156\n        /* \"#utility.yul\":7084:7090   */\n      dup2\n        /* \"#utility.yul\":7076:7082   */\n      dup9\n        /* \"#utility.yul\":7068:7074   */\n      dup11\n        /* \"#utility.yul\":7041:7091   */\n      tag_110\n      jump\t// in\n    tag_156:\n        /* \"#utility.yul\":7027:7091   */\n      swap1\n      pop\n        /* \"#utility.yul\":7139:7148   */\n      dup4\n        /* \"#utility.yul\":7131:7137   */\n      dup2\n        /* \"#utility.yul\":7127:7149   */\n      sub\n        /* \"#utility.yul\":7122:7124   */\n      0x60\n        /* \"#utility.yul\":7111:7120   */\n      dup6\n        /* \"#utility.yul\":7107:7125   */\n      add\n        /* \"#utility.yul\":7100:7150   */\n      mstore\n        /* \"#utility.yul\":7167:7200   */\n      tag_157\n        /* \"#utility.yul\":7193:7199   */\n      dup2\n        /* \"#utility.yul\":7185:7191   */\n      dup8\n        /* \"#utility.yul\":7167:7200   */\n      tag_109\n      jump\t// in\n    tag_157:\n        /* \"#utility.yul\":7159:7200   */\n      swap3\n      pop\n      pop\n        /* \"#utility.yul\":7249:7251   */\n      dup1\n        /* \"#utility.yul\":7241:7247   */\n      dup5\n        /* \"#utility.yul\":7237:7252   */\n      and\n        /* \"#utility.yul\":7231:7234   */\n      0x80\n        /* \"#utility.yul\":7220:7229   */\n      dup5\n        /* \"#utility.yul\":7216:7235   */\n      add\n        /* \"#utility.yul\":7209:7253   */\n      mstore\n      pop\n        /* \"#utility.yul\":6460:7259   */\n      swap9\n      swap8\n      pop\n      pop\n      pop\n      pop\n      pop\n      pop\n      pop\n      pop\n      jump\t// out\n        /* \"#utility.yul\":7264:7862   */\n    tag_64:\n        /* \"#utility.yul\":7527:7529   */\n      0x60\n        /* \"#utility.yul\":7516:7525   */\n      dup2\n        /* \"#utility.yul\":7509:7530   */\n      mstore\n        /* \"#utility.yul\":7490:7494   */\n      0x00\n        /* \"#utility.yul\":7553:7615   */\n      tag_159\n        /* \"#utility.yul\":7611:7613   */\n      0x60\n        /* \"#utility.yul\":7600:7609   */\n      dup4\n        /* \"#utility.yul\":7596:7614   */\n      add\n        /* \"#utility.yul\":7588:7594   */\n      dup8\n        /* \"#utility.yul\":7580:7586   */\n      dup10\n        /* \"#utility.yul\":7553:7615   */\n      tag_110\n      jump\t// in\n    tag_159:\n        /* \"#utility.yul\":7663:7672   */\n      dup3\n        /* \"#utility.yul\":7655:7661   */\n      dup2\n        /* \"#utility.yul\":7651:7673   */\n      sub\n        /* \"#utility.yul\":7646:7648   */\n      0x20\n        /* \"#utility.yul\":7635:7644   */\n      dup5\n        /* \"#utility.yul\":7631:7649   */\n      add\n        /* \"#utility.yul\":7624:7674   */\n      mstore\n        /* \"#utility.yul\":7697:7747   */\n      tag_160\n        /* \"#utility.yul\":7740:7746   */\n      dup2\n        /* \"#utility.yul\":7732:7738   */\n      dup7\n        /* \"#utility.yul\":7724:7730   */\n      dup9\n        /* \"#utility.yul\":7697:7747   */\n      tag_110\n      jump\t// in\n    tag_160:\n        /* \"#utility.yul\":7683:7747   */\n      swap1\n      pop\n        /* \"#utility.yul\":7795:7804   */\n      dup3\n        /* \"#utility.yul\":7787:7793   */\n      dup2\n        /* \"#utility.yul\":7783:7805   */\n      sub\n        /* \"#utility.yul\":7778:7780   */\n      0x40\n        /* \"#utility.yul\":7767:7776   */\n      dup5\n        /* \"#utility.yul\":7763:7781   */\n      add\n        /* \"#utility.yul\":7756:7806   */\n      mstore\n        /* \"#utility.yul\":7823:7856   */\n      tag_161\n        /* \"#utility.yul\":7849:7855   */\n      dup2\n        /* \"#utility.yul\":7841:7847   */\n      dup6\n        /* \"#utility.yul\":7823:7856   */\n      tag_109\n      jump\t// in\n    tag_161:\n        /* \"#utility.yul\":7815:7856   */\n      swap9\n        /* \"#utility.yul\":7264:7862   */\n      swap8\n      pop\n      pop\n      pop\n      pop\n      pop\n      pop\n      pop\n      pop\n      jump\t// out\n        /* \"#utility.yul\":7867:8138   */\n    tag_70:\n        /* \"#utility.yul\":8050:8056   */\n      dup2\n        /* \"#utility.yul\":8042:8048   */\n      dup4\n        /* \"#utility.yul\":8037:8040   */\n      dup3\n        /* \"#utility.yul\":8024:8057   */\n      calldatacopy\n        /* \"#utility.yul\":8006:8009   */\n      0x00\n        /* \"#utility.yul\":8076:8092   */\n      swap2\n      add\n        /* \"#utility.yul\":8101:8114   */\n      swap1\n      dup2\n      mstore\n        /* \"#utility.yul\":8076:8092   */\n      swap2\n        /* \"#utility.yul\":7867:8138   */\n      swap1\n      pop\n      jump\t// out\n        /* \"#utility.yul\":8143:8987   */\n    tag_72:\n        /* \"#utility.yul\":8502:8508   */\n      dup10\n        /* \"#utility.yul\":8491:8500   */\n      dup2\n        /* \"#utility.yul\":8484:8509   */\n      mstore\n        /* \"#utility.yul\":8545:8548   */\n      0xc0\n        /* \"#utility.yul\":8540:8542   */\n      0x20\n        /* \"#utility.yul\":8529:8538   */\n      dup3\n        /* \"#utility.yul\":8525:8543   */\n      add\n        /* \"#utility.yul\":8518:8549   */\n      mstore\n        /* \"#utility.yul\":8465:8469   */\n      0x00\n        /* \"#utility.yul\":8572:8635   */\n      tag_164\n        /* \"#utility.yul\":8630:8633   */\n      0xc0\n        /* \"#utility.yul\":8619:8628   */\n      dup4\n        /* \"#utility.yul\":8615:8634   */\n      add\n        /* \"#utility.yul\":8607:8613   */\n      dup11\n        /* \"#utility.yul\":8599:8605   */\n      dup13\n        /* \"#utility.yul\":8572:8635   */\n      tag_110\n      jump\t// in\n    tag_164:\n        /* \"#utility.yul\":8683:8692   */\n      dup3\n        /* \"#utility.yul\":8675:8681   */\n      dup2\n        /* \"#utility.yul\":8671:8693   */\n      sub\n        /* \"#utility.yul\":8666:8668   */\n      0x40\n        /* \"#utility.yul\":8655:8664   */\n      dup5\n        /* \"#utility.yul\":8651:8669   */\n      add\n        /* \"#utility.yul\":8644:8694   */\n      mstore\n        /* \"#utility.yul\":8717:8767   */\n      tag_165\n        /* \"#utility.yul\":8760:8766   */\n      dup2\n        /* \"#utility.yul\":8752:8758   */\n      dup10\n        /* \"#utility.yul\":8744:8750   */\n      dup12\n        /* \"#utility.yul\":8717:8767   */\n      tag_110\n      jump\t// in\n    tag_165:\n        /* \"#utility.yul\":8703:8767   */\n      swap1\n      pop\n        /* \"#utility.yul\":8803:8809   */\n      dup7\n        /* \"#utility.yul\":8798:8800   */\n      0x60\n        /* \"#utility.yul\":8787:8796   */\n      dup5\n        /* \"#utility.yul\":8783:8801   */\n      add\n        /* \"#utility.yul\":8776:8810   */\n      mstore\n        /* \"#utility.yul\":8859:8868   */\n      dup3\n        /* \"#utility.yul\":8851:8857   */\n      dup2\n        /* \"#utility.yul\":8847:8869   */\n      sub\n        /* \"#utility.yul\":8841:8844   */\n      0x80\n        /* \"#utility.yul\":8830:8839   */\n      dup5\n        /* \"#utility.yul\":8826:8845   */\n      add\n        /* \"#utility.yul\":8819:8870   */\n      mstore\n        /* \"#utility.yul\":8887:8937   */\n      tag_166\n        /* \"#utility.yul\":8930:8936   */\n      dup2\n        /* \"#utility.yul\":8922:8928   */\n      dup7\n        /* \"#utility.yul\":8914:8920   */\n      dup9\n        /* \"#utility.yul\":8887:8937   */\n      tag_110\n      jump\t// in\n    tag_166:\n        /* \"#utility.yul\":8879:8937   */\n      swap2\n      pop\n      pop\n        /* \"#utility.yul\":8974:8980   */\n      dup3\n        /* \"#utility.yul\":8968:8971   */\n      0xa0\n        /* \"#utility.yul\":8957:8966   */\n      dup4\n        /* \"#utility.yul\":8953:8972   */\n      add\n        /* \"#utility.yul\":8946:8981   */\n      mstore\n        /* \"#utility.yul\":8143:8987   */\n      swap11\n      swap10\n      pop\n      pop\n      pop\n      pop\n      pop\n      pop\n      pop\n      pop\n      pop\n      pop\n      jump\t// out\n        /* \"#utility.yul\":8992:9269   */\n    tag_76:\n        /* \"#utility.yul\":9059:9065   */\n      0x00\n        /* \"#utility.yul\":9112:9114   */\n      0x20\n        /* \"#utility.yul\":9100:9109   */\n      dup3\n        /* \"#utility.yul\":9091:9098   */\n      dup5\n        /* \"#utility.yul\":9087:9110   */\n      sub\n        /* \"#utility.yul\":9083:9115   */\n      slt\n        /* \"#utility.yul\":9080:9132   */\n      iszero\n      tag_168\n      jumpi\n        /* \"#utility.yul\":9128:9129   */\n      0x00\n        /* \"#utility.yul\":9125:9126   */\n      dup1\n        /* \"#utility.yul\":9118:9130   */\n      revert\n        /* \"#utility.yul\":9080:9132   */\n    tag_168:\n        /* \"#utility.yul\":9160:9169   */\n      dup2\n        /* \"#utility.yul\":9154:9170   */\n      mload\n        /* \"#utility.yul\":9213:9218   */\n      dup1\n        /* \"#utility.yul\":9206:9219   */\n      iszero\n        /* \"#utility.yul\":9199:9220   */\n      iszero\n        /* \"#utility.yul\":9192:9197   */\n      dup2\n        /* \"#utility.yul\":9189:9221   */\n      eq\n        /* \"#utility.yul\":9179:9239   */\n      tag_138\n      jumpi\n        /* \"#utility.yul\":9235:9236   */\n      0x00\n        /* \"#utility.yul\":9232:9233   */\n      dup1\n        /* \"#utility.yul\":9225:9237   */\n      revert\n        /* \"#utility.yul\":9274:9654   */\n    tag_81:\n        /* \"#utility.yul\":9353:9354   */\n      0x01\n        /* \"#utility.yul\":9349:9361   */\n      dup2\n      dup2\n      shr\n      swap1\n        /* \"#utility.yul\":9396:9408   */\n      dup3\n      and\n      dup1\n        /* \"#utility.yul\":9417:9478   */\n      tag_171\n      jumpi\n        /* \"#utility.yul\":9471:9475   */\n      0x7f\n        /* \"#utility.yul\":9463:9469   */\n      dup3\n        /* \"#utility.yul\":9459:9476   */\n      and\n        /* \"#utility.yul\":9449:9476   */\n      swap2\n      pop\n        /* \"#utility.yul\":9417:9478   */\n    tag_171:\n        /* \"#utility.yul\":9524:9526   */\n      0x20\n        /* \"#utility.yul\":9516:9522   */\n      dup3\n        /* \"#utility.yul\":9513:9527   */\n      lt\n        /* \"#utility.yul\":9493:9511   */\n      dup2\n        /* \"#utility.yul\":9490:9528   */\n      sub\n        /* \"#utility.yul\":9487:9648   */\n      tag_172\n      jumpi\n        /* \"#utility.yul\":9570:9580   */\n      0x4e487b71\n        /* \"#utility.yul\":9565:9568   */\n      0xe0\n        /* \"#utility.yul\":9561:9581   */\n      shl\n        /* \"#utility.yul\":9558:9559   */\n      0x00\n        /* \"#utility.yul\":9551:9582   */\n      mstore\n        /* \"#utility.yul\":9605:9609   */\n      0x22\n        /* \"#utility.yul\":9602:9603   */\n      0x04\n        /* \"#utility.yul\":9595:9610   */\n      mstore\n        /* \"#utility.yul\":9633:9637   */\n      0x24\n        /* \"#utility.yul\":9630:9631   */\n      0x00\n        /* \"#utility.yul\":9623:9638   */\n      revert\n        /* \"#utility.yul\":9487:9648   */\n    tag_172:\n      pop\n        /* \"#utility.yul\":9274:9654   */\n      swap2\n      swap1\n      pop\n      jump\t// out\n        /* \"#utility.yul\":9659:10240   */\n    tag_94:\n        /* \"#utility.yul\":9932:9938   */\n      dup7\n        /* \"#utility.yul\":9921:9930   */\n      dup2\n        /* \"#utility.yul\":9914:9939   */\n      mstore\n        /* \"#utility.yul\":9975:9978   */\n      0x80\n        /* \"#utility.yul\":9970:9972   */\n      0x20\n        /* \"#utility.yul\":9959:9968   */\n      dup3\n        /* \"#utility.yul\":9955:9973   */\n      add\n        /* \"#utility.yul\":9948:9979   */\n      mstore\n        /* \"#utility.yul\":9895:9899   */\n      0x00\n        /* \"#utility.yul\":10002:10065   */\n      tag_174\n        /* \"#utility.yul\":10060:10063   */\n      0x80\n        /* \"#utility.yul\":10049:10058   */\n      dup4\n        /* \"#utility.yul\":10045:10064   */\n      add\n        /* \"#utility.yul\":10037:10043   */\n      dup8\n        /* \"#utility.yul\":10029:10035   */\n      dup10\n        /* \"#utility.yul\":10002:10065   */\n      tag_110\n      jump\t// in\n    tag_174:\n        /* \"#utility.yul\":10113:10122   */\n      dup3\n        /* \"#utility.yul\":10105:10111   */\n      dup2\n        /* \"#utility.yul\":10101:10123   */\n      sub\n        /* \"#utility.yul\":10096:10098   */\n      0x40\n        /* \"#utility.yul\":10085:10094   */\n      dup5\n        /* \"#utility.yul\":10081:10099   */\n      add\n        /* \"#utility.yul\":10074:10124   */\n      mstore\n        /* \"#utility.yul\":10141:10191   */\n      tag_175\n        /* \"#utility.yul\":10184:10190   */\n      dup2\n        /* \"#utility.yul\":10176:10182   */\n      dup7\n        /* \"#utility.yul\":10168:10174   */\n      dup9\n        /* \"#utility.yul\":10141:10191   */\n      tag_110\n      jump\t// in\n    tag_175:\n        /* \"#utility.yul\":10133:10191   */\n      swap2\n      pop\n      pop\n        /* \"#utility.yul\":10227:10233   */\n      dup3\n        /* \"#utility.yul\":10222:10224   */\n      0x60\n        /* \"#utility.yul\":10211:10220   */\n      dup4\n        /* \"#utility.yul\":10207:10225   */\n      add\n        /* \"#utility.yul\":10200:10234   */\n      mstore\n        /* \"#utility.yul\":9659:10240   */\n      swap8\n      swap7\n      pop\n      pop\n      pop\n      pop\n      pop\n      pop\n      pop\n      jump\t// out\n\n    auxdata: 0xa264697066735822122093a65e4d334e0560d852b9f81908985c33a15fe5db51c24e6c460bbe8afc2fb864736f6c63430008120033\n}\n",
				"bytecode": {
					"linkReferences": {},
					"object": "60c0604052600380546001600160a01b031990811673dd02e3b2480473e1758a1c80f700348ab45216d21790915560048054821673e432150cce91c13a887f7d836923d5597add8e311790556005805490911673be406f0189a0b4cf3a05c286473d23791dd44cc617905534801561007657600080fd5b506004546001600160a01b0316806100a15760405163e6c4247b60e01b815260040160405180910390fd5b6001600160a01b039081166080526005541660a05260805160a051610b4b6100f66000396000818161016f015261031301526000818160a70152818161039c0152818161044701526105c50152610b4b6000f3fe60806040526004361061007b5760003560e01c80633fa4f2451161004e5780633fa4f24514610128578063491606581461013d5780636a22d8cc1461015d578063b0fa84441461019157600080fd5b80630460025014610080578063116191b6146100955780631a98b2e0146100e65780631c6ffa4614610106575b600080fd5b61009361008e3660046106c4565b6101a6565b005b3480156100a157600080fd5b506100c97f000000000000000000000000000000000000000000000000000000000000000081565b6040516001600160a01b0390911681526020015b60405180910390f35b3480156100f257600080fd5b50610093610101366004610730565b610416565b34801561011257600080fd5b5061011b6104f9565b6040516100dd9190610850565b34801561013457600080fd5b5061011b610587565b34801561014957600080fd5b5061009361015836600461086a565b610594565b34801561016957600080fd5b506100c97f000000000000000000000000000000000000000000000000000000000000000081565b34801561019d57600080fd5b5061011b61066e565b600034116101fa5760405162461bcd60e51b815260206004820152601760248201527f476173207061796d656e74206973207265717569726564000000000000000000604482015260640160405180910390fd5b6003546040805163d2cbf7ad60e01b815290516000926001600160a01b03169163d2cbf7ad9160048083019260209291908290030181865afa158015610244573d6000803e3d6000fd5b505050506040513d601f19601f82011682018060405250810190610268919061090e565b905060006001826040516020016102ec9291906080808252601d908201527f7365744150592875696e742c20737472696e672c2075696e743132382900000060a082015260ff92909216602083015260c06040830181905260089083015267617262697472756d60c01b60e08301526001600160801b031660608201526101000190565b60408051601f1981840301815290829052630c93e3bb60e01b825291506001600160a01b037f00000000000000000000000000000000000000000000000000000000000000001690630c93e3bb9034906103569030908b908b908b908b908a903390600401610960565b6000604051808303818588803b15801561036f57600080fd5b505af1158015610383573d6000803e3d6000fd5b5050604051631c92115f60e01b81526001600160a01b037f0000000000000000000000000000000000000000000000000000000000000000169350631c92115f92506103dc9150899089908990899088906004016109c2565b600060405180830381600087803b1580156103f657600080fd5b505af115801561040a573d6000803e3d6000fd5b50505050505050505050565b60008585604051610428929190610a09565b604051908190038120631876eed960e01b825291506001600160a01b037f00000000000000000000000000000000000000000000000000000000000000001690631876eed99061048c908e908e908e908e908e9089908d908d908d90600401610a19565b6020604051808303816000875af11580156104ab573d6000803e3d6000fd5b505050506040513d601f19601f820116820180604052508101906104cf9190610a78565b6104ec57604051631403112d60e21b815260040160405180910390fd5b5050505050505050505050565b6001805461050690610a9a565b80601f016020809104026020016040519081016040528092919081815260200182805461053290610a9a565b801561057f5780601f106105545761010080835404028352916020019161057f565b820191906000526020600020905b81548152906001019060200180831161056257829003601f168201915b505050505081565b6000805461050690610a9a565b600082826040516105a6929190610a09565b604051908190038120635f6970c360e01b825291506001600160a01b037f00000000000000000000000000000000000000000000000000000000000000001690635f6970c390610604908b908b908b908b908b908990600401610ad4565b6020604051808303816000875af1158015610623573d6000803e3d6000fd5b505050506040513d601f19601f820116820180604052508101906106479190610a78565b61066457604051631403112d60e21b815260040160405180910390fd5b5050505050505050565b6002805461050690610a9a565b60008083601f84011261068d57600080fd5b50813567ffffffffffffffff8111156106a557600080fd5b6020830191508360208285010111156106bd57600080fd5b9250929050565b600080600080604085870312156106da57600080fd5b843567ffffffffffffffff808211156106f257600080fd5b6106fe8883890161067b565b9096509450602087013591508082111561071757600080fd5b506107248782880161067b565b95989497509550505050565b60008060008060008060008060008060c08b8d03121561074f57600080fd5b8a35995060208b013567ffffffffffffffff8082111561076e57600080fd5b61077a8e838f0161067b565b909b50995060408d013591508082111561079357600080fd5b61079f8e838f0161067b565b909950975060608d01359150808211156107b857600080fd5b6107c48e838f0161067b565b909750955060808d01359150808211156107dd57600080fd5b506107ea8d828e0161067b565b9150809450508092505060a08b013590509295989b9194979a5092959850565b6000815180845260005b8181101561083057602081850181015186830182015201610814565b506000602082860101526020601f19601f83011685010191505092915050565b602081526000610863602083018461080a565b9392505050565b60008060008060008060006080888a03121561088557600080fd5b87359650602088013567ffffffffffffffff808211156108a457600080fd5b6108b08b838c0161067b565b909850965060408a01359150808211156108c957600080fd5b6108d58b838c0161067b565b909650945060608a01359150808211156108ee57600080fd5b506108fb8a828b0161067b565b989b979a50959850939692959293505050565b60006020828403121561092057600080fd5b81516001600160801b038116811461086357600080fd5b81835281816020850137506000828201602090810191909152601f909101601f19169091010190565b600060018060a01b03808a16835260a0602084015261098360a08401898b610937565b838103604085015261099681888a610937565b905083810360608501526109aa818761080a565b92505080841660808401525098975050505050505050565b6060815260006109d6606083018789610937565b82810360208401526109e9818688610937565b905082810360408401526109fd818561080a565b98975050505050505050565b8183823760009101908152919050565b89815260c060208201526000610a3360c083018a8c610937565b8281036040840152610a4681898b610937565b90508660608401528281036080840152610a61818688610937565b9150508260a08301529a9950505050505050505050565b600060208284031215610a8a57600080fd5b8151801515811461086357600080fd5b600181811c90821680610aae57607f821691505b602082108103610ace57634e487b7160e01b600052602260045260246000fd5b50919050565b868152608060208201526000610aee608083018789610937565b8281036040840152610b01818688610937565b91505082606083015297965050505050505056fea264697066735822122093a65e4d334e0560d852b9f81908985c33a15fe5db51c24e6c460bbe8afc2fb864736f6c63430008120033",
					"opcodes": "PUSH1 0xC0 PUSH1 0x40 MSTORE PUSH1 0x3 DUP1 SLOAD PUSH1 0x1 PUSH1 0x1 PUSH1 0xA0 SHL SUB NOT SWAP1 DUP2 AND PUSH20 0xDD02E3B2480473E1758A1C80F700348AB45216D2 OR SWAP1 SWAP2 SSTORE PUSH1 0x4 DUP1 SLOAD DUP3 AND PUSH20 0xE432150CCE91C13A887F7D836923D5597ADD8E31 OR SWAP1 SSTORE PUSH1 0x5 DUP1 SLOAD SWAP1 SWAP2 AND PUSH20 0xBE406F0189A0B4CF3A05C286473D23791DD44CC6 OR SWAP1 SSTORE CALLVALUE DUP1 ISZERO PUSH2 0x76 JUMPI PUSH1 0x0 DUP1 REVERT JUMPDEST POP PUSH1 0x4 SLOAD PUSH1 0x1 PUSH1 0x1 PUSH1 0xA0 SHL SUB AND DUP1 PUSH2 0xA1 JUMPI PUSH1 0x40 MLOAD PUSH4 0xE6C4247B PUSH1 0xE0 SHL DUP2 MSTORE PUSH1 0x4 ADD PUSH1 0x40 MLOAD DUP1 SWAP2 SUB SWAP1 REVERT JUMPDEST PUSH1 0x1 PUSH1 0x1 PUSH1 0xA0 SHL SUB SWAP1 DUP2 AND PUSH1 0x80 MSTORE PUSH1 0x5 SLOAD AND PUSH1 0xA0 MSTORE PUSH1 0x80 MLOAD PUSH1 0xA0 MLOAD PUSH2 0xB4B PUSH2 0xF6 PUSH1 0x0 CODECOPY PUSH1 0x0 DUP2 DUP2 PUSH2 0x16F ADD MSTORE PUSH2 0x313 ADD MSTORE PUSH1 0x0 DUP2 DUP2 PUSH1 0xA7 ADD MSTORE DUP2 DUP2 PUSH2 0x39C ADD MSTORE DUP2 DUP2 PUSH2 0x447 ADD MSTORE PUSH2 0x5C5 ADD MSTORE PUSH2 0xB4B PUSH1 0x0 RETURN INVALID PUSH1 0x80 PUSH1 0x40 MSTORE PUSH1 0x4 CALLDATASIZE LT PUSH2 0x7B JUMPI PUSH1 0x0 CALLDATALOAD PUSH1 0xE0 SHR DUP1 PUSH4 0x3FA4F245 GT PUSH2 0x4E JUMPI DUP1 PUSH4 0x3FA4F245 EQ PUSH2 0x128 JUMPI DUP1 PUSH4 0x49160658 EQ PUSH2 0x13D JUMPI DUP1 PUSH4 0x6A22D8CC EQ PUSH2 0x15D JUMPI DUP1 PUSH4 0xB0FA8444 EQ PUSH2 0x191 JUMPI PUSH1 0x0 DUP1 REVERT JUMPDEST DUP1 PUSH4 0x4600250 EQ PUSH2 0x80 JUMPI DUP1 PUSH4 0x116191B6 EQ PUSH2 0x95 JUMPI DUP1 PUSH4 0x1A98B2E0 EQ PUSH2 0xE6 JUMPI DUP1 PUSH4 0x1C6FFA46 EQ PUSH2 0x106 JUMPI JUMPDEST PUSH1 0x0 DUP1 REVERT JUMPDEST PUSH2 0x93 PUSH2 0x8E CALLDATASIZE PUSH1 0x4 PUSH2 0x6C4 JUMP JUMPDEST PUSH2 0x1A6 JUMP JUMPDEST STOP JUMPDEST CALLVALUE DUP1 ISZERO PUSH2 0xA1 JUMPI PUSH1 0x0 DUP1 REVERT JUMPDEST POP PUSH2 0xC9 PUSH32 0x0 DUP2 JUMP JUMPDEST PUSH1 0x40 MLOAD PUSH1 0x1 PUSH1 0x1 PUSH1 0xA0 SHL SUB SWAP1 SWAP2 AND DUP2 MSTORE PUSH1 0x20 ADD JUMPDEST PUSH1 0x40 MLOAD DUP1 SWAP2 SUB SWAP1 RETURN JUMPDEST CALLVALUE DUP1 ISZERO PUSH2 0xF2 JUMPI PUSH1 0x0 DUP1 REVERT JUMPDEST POP PUSH2 0x93 PUSH2 0x101 CALLDATASIZE PUSH1 0x4 PUSH2 0x730 JUMP JUMPDEST PUSH2 0x416 JUMP JUMPDEST CALLVALUE DUP1 ISZERO PUSH2 0x112 JUMPI PUSH1 0x0 DUP1 REVERT JUMPDEST POP PUSH2 0x11B PUSH2 0x4F9 JUMP JUMPDEST PUSH1 0x40 MLOAD PUSH2 0xDD SWAP2 SWAP1 PUSH2 0x850 JUMP JUMPDEST CALLVALUE DUP1 ISZERO PUSH2 0x134 JUMPI PUSH1 0x0 DUP1 REVERT JUMPDEST POP PUSH2 0x11B PUSH2 0x587 JUMP JUMPDEST CALLVALUE DUP1 ISZERO PUSH2 0x149 JUMPI PUSH1 0x0 DUP1 REVERT JUMPDEST POP PUSH2 0x93 PUSH2 0x158 CALLDATASIZE PUSH1 0x4 PUSH2 0x86A JUMP JUMPDEST PUSH2 0x594 JUMP JUMPDEST CALLVALUE DUP1 ISZERO PUSH2 0x169 JUMPI PUSH1 0x0 DUP1 REVERT JUMPDEST POP PUSH2 0xC9 PUSH32 0x0 DUP2 JUMP JUMPDEST CALLVALUE DUP1 ISZERO PUSH2 0x19D JUMPI PUSH1 0x0 DUP1 REVERT JUMPDEST POP PUSH2 0x11B PUSH2 0x66E JUMP JUMPDEST PUSH1 0x0 CALLVALUE GT PUSH2 0x1FA JUMPI PUSH1 0x40 MLOAD PUSH3 0x461BCD PUSH1 0xE5 SHL DUP2 MSTORE PUSH1 0x20 PUSH1 0x4 DUP3 ADD MSTORE PUSH1 0x17 PUSH1 0x24 DUP3 ADD MSTORE PUSH32 0x476173207061796D656E74206973207265717569726564000000000000000000 PUSH1 0x44 DUP3 ADD MSTORE PUSH1 0x64 ADD PUSH1 0x40 MLOAD DUP1 SWAP2 SUB SWAP1 REVERT JUMPDEST PUSH1 0x3 SLOAD PUSH1 0x40 DUP1 MLOAD PUSH4 0xD2CBF7AD PUSH1 0xE0 SHL DUP2 MSTORE SWAP1 MLOAD PUSH1 0x0 SWAP3 PUSH1 0x1 PUSH1 0x1 PUSH1 0xA0 SHL SUB AND SWAP2 PUSH4 0xD2CBF7AD SWAP2 PUSH1 0x4 DUP1 DUP4 ADD SWAP3 PUSH1 0x20 SWAP3 SWAP2 SWAP1 DUP3 SWAP1 SUB ADD DUP2 DUP7 GAS STATICCALL ISZERO DUP1 ISZERO PUSH2 0x244 JUMPI RETURNDATASIZE PUSH1 0x0 DUP1 RETURNDATACOPY RETURNDATASIZE PUSH1 0x0 REVERT JUMPDEST POP POP POP POP PUSH1 0x40 MLOAD RETURNDATASIZE PUSH1 0x1F NOT PUSH1 0x1F DUP3 ADD AND DUP3 ADD DUP1 PUSH1 0x40 MSTORE POP DUP2 ADD SWAP1 PUSH2 0x268 SWAP2 SWAP1 PUSH2 0x90E JUMP JUMPDEST SWAP1 POP PUSH1 0x0 PUSH1 0x1 DUP3 PUSH1 0x40 MLOAD PUSH1 0x20 ADD PUSH2 0x2EC SWAP3 SWAP2 SWAP1 PUSH1 0x80 DUP1 DUP3 MSTORE PUSH1 0x1D SWAP1 DUP3 ADD MSTORE PUSH32 0x7365744150592875696E742C20737472696E672C2075696E7431323829000000 PUSH1 0xA0 DUP3 ADD MSTORE PUSH1 0xFF SWAP3 SWAP1 SWAP3 AND PUSH1 0x20 DUP4 ADD MSTORE PUSH1 0xC0 PUSH1 0x40 DUP4 ADD DUP2 SWAP1 MSTORE PUSH1 0x8 SWAP1 DUP4 ADD MSTORE PUSH8 0x617262697472756D PUSH1 0xC0 SHL PUSH1 0xE0 DUP4 ADD MSTORE PUSH1 0x1 PUSH1 0x1 PUSH1 0x80 SHL SUB AND PUSH1 0x60 DUP3 ADD MSTORE PUSH2 0x100 ADD SWAP1 JUMP JUMPDEST PUSH1 0x40 DUP1 MLOAD PUSH1 0x1F NOT DUP2 DUP5 SUB ADD DUP2 MSTORE SWAP1 DUP3 SWAP1 MSTORE PUSH4 0xC93E3BB PUSH1 0xE0 SHL DUP3 MSTORE SWAP2 POP PUSH1 0x1 PUSH1 0x1 PUSH1 0xA0 SHL SUB PUSH32 0x0 AND SWAP1 PUSH4 0xC93E3BB SWAP1 CALLVALUE SWAP1 PUSH2 0x356 SWAP1 ADDRESS SWAP1 DUP12 SWAP1 DUP12 SWAP1 DUP12 SWAP1 DUP12 SWAP1 DUP11 SWAP1 CALLER SWAP1 PUSH1 0x4 ADD PUSH2 0x960 JUMP JUMPDEST PUSH1 0x0 PUSH1 0x40 MLOAD DUP1 DUP4 SUB DUP2 DUP6 DUP9 DUP1 EXTCODESIZE ISZERO DUP1 ISZERO PUSH2 0x36F JUMPI PUSH1 0x0 DUP1 REVERT JUMPDEST POP GAS CALL ISZERO DUP1 ISZERO PUSH2 0x383 JUMPI RETURNDATASIZE PUSH1 0x0 DUP1 RETURNDATACOPY RETURNDATASIZE PUSH1 0x0 REVERT JUMPDEST POP POP PUSH1 0x40 MLOAD PUSH4 0x1C92115F PUSH1 0xE0 SHL DUP2 MSTORE PUSH1 0x1 PUSH1 0x1 PUSH1 0xA0 SHL SUB PUSH32 0x0 AND SWAP4 POP PUSH4 0x1C92115F SWAP3 POP PUSH2 0x3DC SWAP2 POP DUP10 SWAP1 DUP10 SWAP1 DUP10 SWAP1 DUP10 SWAP1 DUP9 SWAP1 PUSH1 0x4 ADD PUSH2 0x9C2 JUMP JUMPDEST PUSH1 0x0 PUSH1 0x40 MLOAD DUP1 DUP4 SUB DUP2 PUSH1 0x0 DUP8 DUP1 EXTCODESIZE ISZERO DUP1 ISZERO PUSH2 0x3F6 JUMPI PUSH1 0x0 DUP1 REVERT JUMPDEST POP GAS CALL ISZERO DUP1 ISZERO PUSH2 0x40A JUMPI RETURNDATASIZE PUSH1 0x0 DUP1 RETURNDATACOPY RETURNDATASIZE PUSH1 0x0 REVERT JUMPDEST POP POP POP POP POP POP POP POP POP POP JUMP JUMPDEST PUSH1 0x0 DUP6 DUP6 PUSH1 0x40 MLOAD PUSH2 0x428 SWAP3 SWAP2 SWAP1 PUSH2 0xA09 JUMP JUMPDEST PUSH1 0x40 MLOAD SWAP1 DUP2 SWAP1 SUB DUP2 KECCAK256 PUSH4 0x1876EED9 PUSH1 0xE0 SHL DUP3 MSTORE SWAP2 POP PUSH1 0x1 PUSH1 0x1 PUSH1 0xA0 SHL SUB PUSH32 0x0 AND SWAP1 PUSH4 0x1876EED9 SWAP1 PUSH2 0x48C SWAP1 DUP15 SWAP1 DUP15 SWAP1 DUP15 SWAP1 DUP15 SWAP1 DUP15 SWAP1 DUP10 SWAP1 DUP14 SWAP1 DUP14 SWAP1 DUP14 SWAP1 PUSH1 0x4 ADD PUSH2 0xA19 JUMP JUMPDEST PUSH1 0x20 PUSH1 0x40 MLOAD DUP1 DUP4 SUB DUP2 PUSH1 0x0 DUP8 GAS CALL ISZERO DUP1 ISZERO PUSH2 0x4AB JUMPI RETURNDATASIZE PUSH1 0x0 DUP1 RETURNDATACOPY RETURNDATASIZE PUSH1 0x0 REVERT JUMPDEST POP POP POP POP PUSH1 0x40 MLOAD RETURNDATASIZE PUSH1 0x1F NOT PUSH1 0x1F DUP3 ADD AND DUP3 ADD DUP1 PUSH1 0x40 MSTORE POP DUP2 ADD SWAP1 PUSH2 0x4CF SWAP2 SWAP1 PUSH2 0xA78 JUMP JUMPDEST PUSH2 0x4EC JUMPI PUSH1 0x40 MLOAD PUSH4 0x1403112D PUSH1 0xE2 SHL DUP2 MSTORE PUSH1 0x4 ADD PUSH1 0x40 MLOAD DUP1 SWAP2 SUB SWAP1 REVERT JUMPDEST POP POP POP POP POP POP POP POP POP POP POP JUMP JUMPDEST PUSH1 0x1 DUP1 SLOAD PUSH2 0x506 SWAP1 PUSH2 0xA9A JUMP JUMPDEST DUP1 PUSH1 0x1F ADD PUSH1 0x20 DUP1 SWAP2 DIV MUL PUSH1 0x20 ADD PUSH1 0x40 MLOAD SWAP1 DUP2 ADD PUSH1 0x40 MSTORE DUP1 SWAP3 SWAP2 SWAP1 DUP2 DUP2 MSTORE PUSH1 0x20 ADD DUP3 DUP1 SLOAD PUSH2 0x532 SWAP1 PUSH2 0xA9A JUMP JUMPDEST DUP1 ISZERO PUSH2 0x57F JUMPI DUP1 PUSH1 0x1F LT PUSH2 0x554 JUMPI PUSH2 0x100 DUP1 DUP4 SLOAD DIV MUL DUP4 MSTORE SWAP2 PUSH1 0x20 ADD SWAP2 PUSH2 0x57F JUMP JUMPDEST DUP3 ADD SWAP2 SWAP1 PUSH1 0x0 MSTORE PUSH1 0x20 PUSH1 0x0 KECCAK256 SWAP1 JUMPDEST DUP2 SLOAD DUP2 MSTORE SWAP1 PUSH1 0x1 ADD SWAP1 PUSH1 0x20 ADD DUP1 DUP4 GT PUSH2 0x562 JUMPI DUP3 SWAP1 SUB PUSH1 0x1F AND DUP3 ADD SWAP2 JUMPDEST POP POP POP POP POP DUP2 JUMP JUMPDEST PUSH1 0x0 DUP1 SLOAD PUSH2 0x506 SWAP1 PUSH2 0xA9A JUMP JUMPDEST PUSH1 0x0 DUP3 DUP3 PUSH1 0x40 MLOAD PUSH2 0x5A6 SWAP3 SWAP2 SWAP1 PUSH2 0xA09 JUMP JUMPDEST PUSH1 0x40 MLOAD SWAP1 DUP2 SWAP1 SUB DUP2 KECCAK256 PUSH4 0x5F6970C3 PUSH1 0xE0 SHL DUP3 MSTORE SWAP2 POP PUSH1 0x1 PUSH1 0x1 PUSH1 0xA0 SHL SUB PUSH32 0x0 AND SWAP1 PUSH4 0x5F6970C3 SWAP1 PUSH2 0x604 SWAP1 DUP12 SWAP1 DUP12 SWAP1 DUP12 SWAP1 DUP12 SWAP1 DUP12 SWAP1 DUP10 SWAP1 PUSH1 0x4 ADD PUSH2 0xAD4 JUMP JUMPDEST PUSH1 0x20 PUSH1 0x40 MLOAD DUP1 DUP4 SUB DUP2 PUSH1 0x0 DUP8 GAS CALL ISZERO DUP1 ISZERO PUSH2 0x623 JUMPI RETURNDATASIZE PUSH1 0x0 DUP1 RETURNDATACOPY RETURNDATASIZE PUSH1 0x0 REVERT JUMPDEST POP POP POP POP PUSH1 0x40 MLOAD RETURNDATASIZE PUSH1 0x1F NOT PUSH1 0x1F DUP3 ADD AND DUP3 ADD DUP1 PUSH1 0x40 MSTORE POP DUP2 ADD SWAP1 PUSH2 0x647 SWAP2 SWAP1 PUSH2 0xA78 JUMP JUMPDEST PUSH2 0x664 JUMPI PUSH1 0x40 MLOAD PUSH4 0x1403112D PUSH1 0xE2 SHL DUP2 MSTORE PUSH1 0x4 ADD PUSH1 0x40 MLOAD DUP1 SWAP2 SUB SWAP1 REVERT JUMPDEST POP POP POP POP POP POP POP POP JUMP JUMPDEST PUSH1 0x2 DUP1 SLOAD PUSH2 0x506 SWAP1 PUSH2 0xA9A JUMP JUMPDEST PUSH1 0x0 DUP1 DUP4 PUSH1 0x1F DUP5 ADD SLT PUSH2 0x68D JUMPI PUSH1 0x0 DUP1 REVERT JUMPDEST POP DUP2 CALLDATALOAD PUSH8 0xFFFFFFFFFFFFFFFF DUP2 GT ISZERO PUSH2 0x6A5 JUMPI PUSH1 0x0 DUP1 REVERT JUMPDEST PUSH1 0x20 DUP4 ADD SWAP2 POP DUP4 PUSH1 0x20 DUP3 DUP6 ADD ADD GT ISZERO PUSH2 0x6BD JUMPI PUSH1 0x0 DUP1 REVERT JUMPDEST SWAP3 POP SWAP3 SWAP1 POP JUMP JUMPDEST PUSH1 0x0 DUP1 PUSH1 0x0 DUP1 PUSH1 0x40 DUP6 DUP8 SUB SLT ISZERO PUSH2 0x6DA JUMPI PUSH1 0x0 DUP1 REVERT JUMPDEST DUP5 CALLDATALOAD PUSH8 0xFFFFFFFFFFFFFFFF DUP1 DUP3 GT ISZERO PUSH2 0x6F2 JUMPI PUSH1 0x0 DUP1 REVERT JUMPDEST PUSH2 0x6FE DUP9 DUP4 DUP10 ADD PUSH2 0x67B JUMP JUMPDEST SWAP1 SWAP7 POP SWAP5 POP PUSH1 0x20 DUP8 ADD CALLDATALOAD SWAP2 POP DUP1 DUP3 GT ISZERO PUSH2 0x717 JUMPI PUSH1 0x0 DUP1 REVERT JUMPDEST POP PUSH2 0x724 DUP8 DUP3 DUP9 ADD PUSH2 0x67B JUMP JUMPDEST SWAP6 SWAP9 SWAP5 SWAP8 POP SWAP6 POP POP POP POP JUMP JUMPDEST PUSH1 0x0 DUP1 PUSH1 0x0 DUP1 PUSH1 0x0 DUP1 PUSH1 0x0 DUP1 PUSH1 0x0 DUP1 PUSH1 0xC0 DUP12 DUP14 SUB SLT ISZERO PUSH2 0x74F JUMPI PUSH1 0x0 DUP1 REVERT JUMPDEST DUP11 CALLDATALOAD SWAP10 POP PUSH1 0x20 DUP12 ADD CALLDATALOAD PUSH8 0xFFFFFFFFFFFFFFFF DUP1 DUP3 GT ISZERO PUSH2 0x76E JUMPI PUSH1 0x0 DUP1 REVERT JUMPDEST PUSH2 0x77A DUP15 DUP4 DUP16 ADD PUSH2 0x67B JUMP JUMPDEST SWAP1 SWAP12 POP SWAP10 POP PUSH1 0x40 DUP14 ADD CALLDATALOAD SWAP2 POP DUP1 DUP3 GT ISZERO PUSH2 0x793 JUMPI PUSH1 0x0 DUP1 REVERT JUMPDEST PUSH2 0x79F DUP15 DUP4 DUP16 ADD PUSH2 0x67B JUMP JUMPDEST SWAP1 SWAP10 POP SWAP8 POP PUSH1 0x60 DUP14 ADD CALLDATALOAD SWAP2 POP DUP1 DUP3 GT ISZERO PUSH2 0x7B8 JUMPI PUSH1 0x0 DUP1 REVERT JUMPDEST PUSH2 0x7C4 DUP15 DUP4 DUP16 ADD PUSH2 0x67B JUMP JUMPDEST SWAP1 SWAP8 POP SWAP6 POP PUSH1 0x80 DUP14 ADD CALLDATALOAD SWAP2 POP DUP1 DUP3 GT ISZERO PUSH2 0x7DD JUMPI PUSH1 0x0 DUP1 REVERT JUMPDEST POP PUSH2 0x7EA DUP14 DUP3 DUP15 ADD PUSH2 0x67B JUMP JUMPDEST SWAP2 POP DUP1 SWAP5 POP POP DUP1 SWAP3 POP POP PUSH1 0xA0 DUP12 ADD CALLDATALOAD SWAP1 POP SWAP3 SWAP6 SWAP9 SWAP12 SWAP2 SWAP5 SWAP8 SWAP11 POP SWAP3 SWAP6 SWAP9 POP JUMP JUMPDEST PUSH1 0x0 DUP2 MLOAD DUP1 DUP5 MSTORE PUSH1 0x0 JUMPDEST DUP2 DUP2 LT ISZERO PUSH2 0x830 JUMPI PUSH1 0x20 DUP2 DUP6 ADD DUP2 ADD MLOAD DUP7 DUP4 ADD DUP3 ADD MSTORE ADD PUSH2 0x814 JUMP JUMPDEST POP PUSH1 0x0 PUSH1 0x20 DUP3 DUP7 ADD ADD MSTORE PUSH1 0x20 PUSH1 0x1F NOT PUSH1 0x1F DUP4 ADD AND DUP6 ADD ADD SWAP2 POP POP SWAP3 SWAP2 POP POP JUMP JUMPDEST PUSH1 0x20 DUP2 MSTORE PUSH1 0x0 PUSH2 0x863 PUSH1 0x20 DUP4 ADD DUP5 PUSH2 0x80A JUMP JUMPDEST SWAP4 SWAP3 POP POP POP JUMP JUMPDEST PUSH1 0x0 DUP1 PUSH1 0x0 DUP1 PUSH1 0x0 DUP1 PUSH1 0x0 PUSH1 0x80 DUP9 DUP11 SUB SLT ISZERO PUSH2 0x885 JUMPI PUSH1 0x0 DUP1 REVERT JUMPDEST DUP8 CALLDATALOAD SWAP7 POP PUSH1 0x20 DUP9 ADD CALLDATALOAD PUSH8 0xFFFFFFFFFFFFFFFF DUP1 DUP3 GT ISZERO PUSH2 0x8A4 JUMPI PUSH1 0x0 DUP1 REVERT JUMPDEST PUSH2 0x8B0 DUP12 DUP4 DUP13 ADD PUSH2 0x67B JUMP JUMPDEST SWAP1 SWAP9 POP SWAP7 POP PUSH1 0x40 DUP11 ADD CALLDATALOAD SWAP2 POP DUP1 DUP3 GT ISZERO PUSH2 0x8C9 JUMPI PUSH1 0x0 DUP1 REVERT JUMPDEST PUSH2 0x8D5 DUP12 DUP4 DUP13 ADD PUSH2 0x67B JUMP JUMPDEST SWAP1 SWAP7 POP SWAP5 POP PUSH1 0x60 DUP11 ADD CALLDATALOAD SWAP2 POP DUP1 DUP3 GT ISZERO PUSH2 0x8EE JUMPI PUSH1 0x0 DUP1 REVERT JUMPDEST POP PUSH2 0x8FB DUP11 DUP3 DUP12 ADD PUSH2 0x67B JUMP JUMPDEST SWAP9 SWAP12 SWAP8 SWAP11 POP SWAP6 SWAP9 POP SWAP4 SWAP7 SWAP3 SWAP6 SWAP3 SWAP4 POP POP POP JUMP JUMPDEST PUSH1 0x0 PUSH1 0x20 DUP3 DUP5 SUB SLT ISZERO PUSH2 0x920 JUMPI PUSH1 0x0 DUP1 REVERT JUMPDEST DUP2 MLOAD PUSH1 0x1 PUSH1 0x1 PUSH1 0x80 SHL SUB DUP2 AND DUP2 EQ PUSH2 0x863 JUMPI PUSH1 0x0 DUP1 REVERT JUMPDEST DUP2 DUP4 MSTORE DUP2 DUP2 PUSH1 0x20 DUP6 ADD CALLDATACOPY POP PUSH1 0x0 DUP3 DUP3 ADD PUSH1 0x20 SWAP1 DUP2 ADD SWAP2 SWAP1 SWAP2 MSTORE PUSH1 0x1F SWAP1 SWAP2 ADD PUSH1 0x1F NOT AND SWAP1 SWAP2 ADD ADD SWAP1 JUMP JUMPDEST PUSH1 0x0 PUSH1 0x1 DUP1 PUSH1 0xA0 SHL SUB DUP1 DUP11 AND DUP4 MSTORE PUSH1 0xA0 PUSH1 0x20 DUP5 ADD MSTORE PUSH2 0x983 PUSH1 0xA0 DUP5 ADD DUP10 DUP12 PUSH2 0x937 JUMP JUMPDEST DUP4 DUP2 SUB PUSH1 0x40 DUP6 ADD MSTORE PUSH2 0x996 DUP2 DUP9 DUP11 PUSH2 0x937 JUMP JUMPDEST SWAP1 POP DUP4 DUP2 SUB PUSH1 0x60 DUP6 ADD MSTORE PUSH2 0x9AA DUP2 DUP8 PUSH2 0x80A JUMP JUMPDEST SWAP3 POP POP DUP1 DUP5 AND PUSH1 0x80 DUP5 ADD MSTORE POP SWAP9 SWAP8 POP POP POP POP POP POP POP POP JUMP JUMPDEST PUSH1 0x60 DUP2 MSTORE PUSH1 0x0 PUSH2 0x9D6 PUSH1 0x60 DUP4 ADD DUP8 DUP10 PUSH2 0x937 JUMP JUMPDEST DUP3 DUP2 SUB PUSH1 0x20 DUP5 ADD MSTORE PUSH2 0x9E9 DUP2 DUP7 DUP9 PUSH2 0x937 JUMP JUMPDEST SWAP1 POP DUP3 DUP2 SUB PUSH1 0x40 DUP5 ADD MSTORE PUSH2 0x9FD DUP2 DUP6 PUSH2 0x80A JUMP JUMPDEST SWAP9 SWAP8 POP POP POP POP POP POP POP POP JUMP JUMPDEST DUP2 DUP4 DUP3 CALLDATACOPY PUSH1 0x0 SWAP2 ADD SWAP1 DUP2 MSTORE SWAP2 SWAP1 POP JUMP JUMPDEST DUP10 DUP2 MSTORE PUSH1 0xC0 PUSH1 0x20 DUP3 ADD MSTORE PUSH1 0x0 PUSH2 0xA33 PUSH1 0xC0 DUP4 ADD DUP11 DUP13 PUSH2 0x937 JUMP JUMPDEST DUP3 DUP2 SUB PUSH1 0x40 DUP5 ADD MSTORE PUSH2 0xA46 DUP2 DUP10 DUP12 PUSH2 0x937 JUMP JUMPDEST SWAP1 POP DUP7 PUSH1 0x60 DUP5 ADD MSTORE DUP3 DUP2 SUB PUSH1 0x80 DUP5 ADD MSTORE PUSH2 0xA61 DUP2 DUP7 DUP9 PUSH2 0x937 JUMP JUMPDEST SWAP2 POP POP DUP3 PUSH1 0xA0 DUP4 ADD MSTORE SWAP11 SWAP10 POP POP POP POP POP POP POP POP POP POP JUMP JUMPDEST PUSH1 0x0 PUSH1 0x20 DUP3 DUP5 SUB SLT ISZERO PUSH2 0xA8A JUMPI PUSH1 0x0 DUP1 REVERT JUMPDEST DUP2 MLOAD DUP1 ISZERO ISZERO DUP2 EQ PUSH2 0x863 JUMPI PUSH1 0x0 DUP1 REVERT JUMPDEST PUSH1 0x1 DUP2 DUP2 SHR SWAP1 DUP3 AND DUP1 PUSH2 0xAAE JUMPI PUSH1 0x7F DUP3 AND SWAP2 POP JUMPDEST PUSH1 0x20 DUP3 LT DUP2 SUB PUSH2 0xACE JUMPI PUSH4 0x4E487B71 PUSH1 0xE0 SHL PUSH1 0x0 MSTORE PUSH1 0x22 PUSH1 0x4 MSTORE PUSH1 0x24 PUSH1 0x0 REVERT JUMPDEST POP SWAP2 SWAP1 POP JUMP JUMPDEST DUP7 DUP2 MSTORE PUSH1 0x80 PUSH1 0x20 DUP3 ADD MSTORE PUSH1 0x0 PUSH2 0xAEE PUSH1 0x80 DUP4 ADD DUP8 DUP10 PUSH2 0x937 JUMP JUMPDEST DUP3 DUP2 SUB PUSH1 0x40 DUP5 ADD MSTORE PUSH2 0xB01 DUP2 DUP7 DUP9 PUSH2 0x937 JUMP JUMPDEST SWAP2 POP POP DUP3 PUSH1 0x60 DUP4 ADD MSTORE SWAP8 SWAP7 POP POP POP POP POP POP POP JUMP INVALID LOG2 PUSH5 0x6970667358 0x22 SLT KECCAK256 SWAP4 0xA6 0x5E 0x4D CALLER 0x4E SDIV PUSH1 0xD8 MSTORE 0xB9 0xF8 NOT ADDMOD SWAP9 0x5C CALLER LOG1 0x5F 0xE5 0xDB MLOAD 0xC2 0x4E PUSH13 0x460BBE8AFC2FB864736F6C6343 STOP ADDMOD SLT STOP CALLER "
				},
				"gasEstimates": {
					"creation": {
						"codeDepositCost": "578200",
						"executionCost": "infinite",
						"totalCost": "infinite"
					},
					"external": {
						"execute(bytes32,string,string,bytes)": "infinite",
						"executeWithToken(bytes32,string,string,bytes,string,uint256)": "infinite",
						"gasService()": "infinite",
						"gateway()": "infinite",
						"setAPYValue(string,string)": "infinite",
						"sourceAddress()": "infinite",
						"sourceChain()": "infinite",
						"value()": "infinite"
					}
				},
				"methodIdentifiers": {
					"execute(bytes32,string,string,bytes)": "49160658",
					"executeWithToken(bytes32,string,string,bytes,string,uint256)": "1a98b2e0",
					"gasService()": "6a22d8cc",
					"gateway()": "116191b6",
					"setAPYValue(string,string)": "04600250",
					"sourceAddress()": "b0fa8444",
					"sourceChain()": "1c6ffa46",
					"value()": "3fa4f245"
				}
			},
			"storageLayout": {
				"storage": [
					{
						"astId": 1210,
						"contract": "contracts/yieldSeeker.sol:yieldSeeker",
						"label": "value",
						"offset": 0,
						"slot": "0",
						"type": "t_string_storage"
					},
					{
						"astId": 1212,
						"contract": "contracts/yieldSeeker.sol:yieldSeeker",
						"label": "sourceChain",
						"offset": 0,
						"slot": "1",
						"type": "t_string_storage"
					},
					{
						"astId": 1214,
						"contract": "contracts/yieldSeeker.sol:yieldSeeker",
						"label": "sourceAddress",
						"offset": 0,
						"slot": "2",
						"type": "t_string_storage"
					},
					{
						"astId": 1220,
						"contract": "contracts/yieldSeeker.sol:yieldSeeker",
						"label": "_getValueArbitrum",
						"offset": 0,
						"slot": "3",
						"type": "t_address"
					},
					{
						"astId": 1223,
						"contract": "contracts/yieldSeeker.sol:yieldSeeker",
						"label": "_gateway",
						"offset": 0,
						"slot": "4",
						"type": "t_address"
					},
					{
						"astId": 1226,
						"contract": "contracts/yieldSeeker.sol:yieldSeeker",
						"label": "_gasReceiver",
						"offset": 0,
						"slot": "5",
						"type": "t_address"
					}
				],
				"types": {
					"t_address": {
						"encoding": "inplace",
						"label": "address",
						"numberOfBytes": "20"
					},
					"t_string_storage": {
						"encoding": "bytes",
						"label": "string",
						"numberOfBytes": "32"
					}
				}
			},
			"userdoc": {
				"kind": "user",
				"methods": {},
				"version": 1
			}
		}
	}
}