{
	"contracts/insurance.sol": {
		"insurance": {
			"abi": [
				{
					"inputs": [],
					"stateMutability": "nonpayable",
					"type": "constructor"
				},
				{
					"anonymous": false,
					"inputs": [
						{
							"indexed": true,
							"internalType": "address",
							"name": "previousOwner",
							"type": "address"
						},
						{
							"indexed": true,
							"internalType": "address",
							"name": "newOwner",
							"type": "address"
						}
					],
					"name": "OwnershipTransferred",
					"type": "event"
				},
				{
					"inputs": [
						{
							"internalType": "address",
							"name": "account",
							"type": "address"
						}
					],
					"name": "assetsOf",
					"outputs": [
						{
							"internalType": "uint256",
							"name": "",
							"type": "uint256"
						}
					],
					"stateMutability": "view",
					"type": "function"
				},
				{
					"inputs": [
						{
							"internalType": "address",
							"name": "newAddress",
							"type": "address"
						}
					],
					"name": "changeAddressClaimContract",
					"outputs": [],
					"stateMutability": "nonpayable",
					"type": "function"
				},
				{
					"inputs": [
						{
							"internalType": "uint256",
							"name": "amount",
							"type": "uint256"
						}
					],
					"name": "depositAsset",
					"outputs": [],
					"stateMutability": "nonpayable",
					"type": "function"
				},
				{
					"inputs": [],
					"name": "getATokenAddress",
					"outputs": [
						{
							"internalType": "address",
							"name": "",
							"type": "address"
						}
					],
					"stateMutability": "view",
					"type": "function"
				},
				{
					"inputs": [],
					"name": "owner",
					"outputs": [
						{
							"internalType": "address",
							"name": "",
							"type": "address"
						}
					],
					"stateMutability": "view",
					"type": "function"
				},
				{
					"inputs": [],
					"name": "renounceOwnership",
					"outputs": [],
					"stateMutability": "nonpayable",
					"type": "function"
				},
				{
					"inputs": [
						{
							"internalType": "address",
							"name": "account",
							"type": "address"
						}
					],
					"name": "sharesLoansOf",
					"outputs": [
						{
							"internalType": "uint256",
							"name": "",
							"type": "uint256"
						}
					],
					"stateMutability": "view",
					"type": "function"
				},
				{
					"inputs": [
						{
							"internalType": "address",
							"name": "newOwner",
							"type": "address"
						}
					],
					"name": "transferOwnership",
					"outputs": [],
					"stateMutability": "nonpayable",
					"type": "function"
				},
				{
					"inputs": [
						{
							"internalType": "uint256",
							"name": "percentage",
							"type": "uint256"
						}
					],
					"name": "withdrawAsset",
					"outputs": [],
					"stateMutability": "nonpayable",
					"type": "function"
				},
				{
					"stateMutability": "payable",
					"type": "receive"
				}
			],
			"devdoc": {
				"kind": "dev",
				"methods": {
					"owner()": {
						"details": "Returns the address of the current owner."
					},
					"renounceOwnership()": {
						"details": "Leaves the contract without owner. It will not be possible to call `onlyOwner` functions. Can only be called by the current owner. NOTE: Renouncing ownership will leave the contract without an owner, thereby disabling any functionality that is only available to the owner."
					},
					"transferOwnership(address)": {
						"details": "Transfers ownership of the contract to a new account (`newOwner`). Can only be called by the current owner."
					}
				},
				"version": 1
			},
			"evm": {
				"assembly": "    /* \"contracts/insurance.sol\":672:4302  contract insurance is Ownable {... */\n  mstore(0x40, 0xa0)\n    /* \"contracts/insurance.sol\":886:887  0 */\n  0x00\n    /* \"contracts/insurance.sol\":851:887  uint256 totalSharesLoansPerAsset = 0 */\n  0x03\n  sstore\n    /* \"contracts/insurance.sol\":929:987  address _USDC = 0xF14f9596430931E177469715c591513308244e8F */\n  0x05\n  dup1\n  sload\n  not(sub(shl(0xa0, 0x01), 0x01))\n  and\n    /* \"contracts/insurance.sol\":945:987  0xF14f9596430931E177469715c591513308244e8F */\n  0xf14f9596430931e177469715c591513308244e8f\n    /* \"contracts/insurance.sol\":929:987  address _USDC = 0xF14f9596430931E177469715c591513308244e8F */\n  or\n  swap1\n  sstore\n    /* \"contracts/insurance.sol\":1137:1348  constructor() {... */\n  callvalue\n  dup1\n  iszero\n  tag_1\n  jumpi\n  0x00\n  dup1\n  revert\ntag_1:\n  pop\n    /* \"@openzeppelin/contracts/access/Ownable.sol\":936:968  _transferOwnership(_msgSender()) */\n  tag_5\n    /* \"@openzeppelin/contracts/utils/Context.sol\":719:729  msg.sender */\n  caller\n    /* \"@openzeppelin/contracts/access/Ownable.sol\":936:954  _transferOwnership */\n  tag_8\n    /* \"@openzeppelin/contracts/access/Ownable.sol\":936:968  _transferOwnership(_msgSender()) */\n  jump\t// in\ntag_5:\n    /* \"contracts/insurance.sol\":1206:1248  0xeb7A892BB04A8f836bDEeBbf60897A7Af1Bf5d7F */\n  0xeb7a892bb04a8f836bdeebbf60897a7af1bf5d7f\n    /* \"contracts/insurance.sol\":1161:1249  poolAddressProvider = IPoolAddressesProvider(0xeb7A892BB04A8f836bDEeBbf60897A7Af1Bf5d7F) */\n  0x80\n  dup2\n  swap1\n  mstore\n    /* \"contracts/insurance.sol\":1273:1302  poolAddressProvider.getPool() */\n  0x40\n  dup1\n  mload\n  shl(0xe0, 0x026b1d5f)\n  dup2\n  mstore\n  swap1\n  mload\n    /* \"contracts/insurance.sol\":1273:1300  poolAddressProvider.getPool */\n  0x026b1d5f\n  swap2\n    /* \"contracts/insurance.sol\":1273:1302  poolAddressProvider.getPool() */\n  0x04\n  dup1\n  dup3\n  add\n  swap3\n  0x20\n  swap3\n  swap1\n  swap2\n  swap1\n  dup3\n  swap1\n  sub\n  add\n  dup2\n    /* \"contracts/insurance.sol\":1206:1248  0xeb7A892BB04A8f836bDEeBbf60897A7Af1Bf5d7F */\n  dup7\n    /* \"contracts/insurance.sol\":1273:1302  poolAddressProvider.getPool() */\n  gas\n  staticcall\n  iszero\n  dup1\n  iszero\n  tag_11\n  jumpi\n  returndatasize\n  0x00\n  dup1\n  returndatacopy\n  revert(0x00, returndatasize)\ntag_11:\n  pop\n  pop\n  pop\n  pop\n  mload(0x40)\n  returndatasize\n  not(0x1f)\n  0x1f\n  dup3\n  add\n  and\n  dup3\n  add\n  dup1\n  0x40\n  mstore\n  pop\n  dup2\n  add\n  swap1\n  tag_12\n  swap2\n  swap1\n  tag_13\n  jump\t// in\ntag_12:\n    /* \"contracts/insurance.sol\":1259:1270  aaveAddress */\n  0x01\n    /* \"contracts/insurance.sol\":1259:1302  aaveAddress = poolAddressProvider.getPool() */\n  dup1\n  sload\n  sub(shl(0xa0, 0x01), 0x01)\n  swap3\n  swap1\n  swap3\n  and\n  not(sub(shl(0xa0, 0x01), 0x01))\n  swap3\n  dup4\n  and\n  dup2\n  or\n  swap1\n  swap2\n  sstore\n    /* \"contracts/insurance.sol\":1312:1320  poolAave */\n  0x02\n    /* \"contracts/insurance.sol\":1312:1341  poolAave = IPool(aaveAddress) */\n  dup1\n  sload\n  swap1\n  swap3\n  and\n  or\n  swap1\n  sstore\n    /* \"contracts/insurance.sol\":672:4302  contract insurance is Ownable {... */\n  jump(tag_17)\n    /* \"@openzeppelin/contracts/access/Ownable.sol\":2426:2613  function _transferOwnership(address newOwner) internal virtual {... */\ntag_8:\n    /* \"@openzeppelin/contracts/access/Ownable.sol\":2499:2515  address oldOwner */\n  0x00\n    /* \"@openzeppelin/contracts/access/Ownable.sol\":2518:2524  _owner */\n  dup1\n  sload\n  sub(shl(0xa0, 0x01), 0x01)\n    /* \"@openzeppelin/contracts/access/Ownable.sol\":2534:2551  _owner = newOwner */\n  dup4\n  dup2\n  and\n  not(sub(shl(0xa0, 0x01), 0x01))\n  dup4\n  and\n  dup2\n  or\n  dup5\n  sstore\n    /* \"@openzeppelin/contracts/access/Ownable.sol\":2566:2606  OwnershipTransferred(oldOwner, newOwner) */\n  mload(0x40)\n    /* \"@openzeppelin/contracts/access/Ownable.sol\":2518:2524  _owner */\n  swap2\n  swap1\n  swap3\n  and\n  swap3\n  dup4\n  swap2\n    /* \"@openzeppelin/contracts/access/Ownable.sol\":2566:2606  OwnershipTransferred(oldOwner, newOwner) */\n  0x8be0079c531659141344cd1fd0a4f28419497f9722a3daafe3b4186f6b6457e0\n  swap2\n    /* \"@openzeppelin/contracts/access/Ownable.sol\":2499:2515  address oldOwner */\n  swap1\n    /* \"@openzeppelin/contracts/access/Ownable.sol\":2566:2606  OwnershipTransferred(oldOwner, newOwner) */\n  log3\n    /* \"@openzeppelin/contracts/access/Ownable.sol\":2489:2613  {... */\n  pop\n    /* \"@openzeppelin/contracts/access/Ownable.sol\":2426:2613  function _transferOwnership(address newOwner) internal virtual {... */\n  pop\n  jump\t// out\n    /* \"#utility.yul\":14:304   */\ntag_13:\n    /* \"#utility.yul\":84:90   */\n  0x00\n    /* \"#utility.yul\":137:139   */\n  0x20\n    /* \"#utility.yul\":125:134   */\n  dup3\n    /* \"#utility.yul\":116:123   */\n  dup5\n    /* \"#utility.yul\":112:135   */\n  sub\n    /* \"#utility.yul\":108:140   */\n  slt\n    /* \"#utility.yul\":105:157   */\n  iszero\n  tag_19\n  jumpi\n    /* \"#utility.yul\":153:154   */\n  0x00\n    /* \"#utility.yul\":150:151   */\n  dup1\n    /* \"#utility.yul\":143:155   */\n  revert\n    /* \"#utility.yul\":105:157   */\ntag_19:\n    /* \"#utility.yul\":179:195   */\n  dup2\n  mload\n  sub(shl(0xa0, 0x01), 0x01)\n    /* \"#utility.yul\":224:255   */\n  dup2\n  and\n    /* \"#utility.yul\":214:256   */\n  dup2\n  eq\n    /* \"#utility.yul\":204:274   */\n  tag_20\n  jumpi\n    /* \"#utility.yul\":270:271   */\n  0x00\n    /* \"#utility.yul\":267:268   */\n  dup1\n    /* \"#utility.yul\":260:272   */\n  revert\n    /* \"#utility.yul\":204:274   */\ntag_20:\n    /* \"#utility.yul\":293:298   */\n  swap4\n    /* \"#utility.yul\":14:304   */\n  swap3\n  pop\n  pop\n  pop\n  jump\t// out\ntag_17:\n    /* \"contracts/insurance.sol\":672:4302  contract insurance is Ownable {... */\n  mload(0x80)\n  codecopy(0x00, dataOffset(sub_0), dataSize(sub_0))\n  0x00\n  assignImmutable(\"0x81a38106a3559b8bc66b11db71a8e6c2e2e852c71ce3c3a27a7c602a20e8508d\")\n  return(0x00, dataSize(sub_0))\nstop\n\nsub_0: assembly {\n        /* \"contracts/insurance.sol\":672:4302  contract insurance is Ownable {... */\n      mstore(0x40, 0x80)\n      jumpi(tag_1, lt(calldatasize, 0x04))\n      shr(0xe0, calldataload(0x00))\n      dup1\n      0x8da5cb5b\n      gt\n      tag_12\n      jumpi\n      dup1\n      0x8da5cb5b\n      eq\n      tag_7\n      jumpi\n      dup1\n      0xc0c24ddd\n      eq\n      tag_8\n      jumpi\n      dup1\n      0xd414c820\n      eq\n      tag_9\n      jumpi\n      dup1\n      0xf2fde38b\n      eq\n      tag_10\n      jumpi\n      dup1\n      0xfa2df414\n      eq\n      tag_11\n      jumpi\n      0x00\n      dup1\n      revert\n    tag_12:\n      dup1\n      0x2c62fa10\n      eq\n      tag_3\n      jumpi\n      dup1\n      0x715018a6\n      eq\n      tag_4\n      jumpi\n      dup1\n      0x82899756\n      eq\n      tag_5\n      jumpi\n      dup1\n      0x8d92fdf3\n      eq\n      tag_6\n      jumpi\n      0x00\n      dup1\n      revert\n    tag_1:\n      jumpi(tag_2, calldatasize)\n      stop\n    tag_2:\n      0x00\n      dup1\n      revert\n        /* \"contracts/insurance.sol\":3729:3833  function assetsOf(address account) public view returns (uint256) {... */\n    tag_3:\n      callvalue\n      dup1\n      iszero\n      tag_15\n      jumpi\n      0x00\n      dup1\n      revert\n    tag_15:\n      pop\n      tag_16\n      tag_17\n      calldatasize\n      0x04\n      tag_18\n      jump\t// in\n    tag_17:\n      sub(shl(0xa0, 0x01), 0x01)\n        /* \"contracts/insurance.sol\":3811:3826  assets[account] */\n      and\n        /* \"contracts/insurance.sol\":3785:3792  uint256 */\n      0x00\n        /* \"contracts/insurance.sol\":3811:3826  assets[account] */\n      swap1\n      dup2\n      mstore\n        /* \"contracts/insurance.sol\":3811:3817  assets */\n      0x06\n        /* \"contracts/insurance.sol\":3811:3826  assets[account] */\n      0x20\n      mstore\n      0x40\n      swap1\n      keccak256\n      sload\n      swap1\n        /* \"contracts/insurance.sol\":3729:3833  function assetsOf(address account) public view returns (uint256) {... */\n      jump\n    tag_16:\n      mload(0x40)\n        /* \"#utility.yul\":548:573   */\n      swap1\n      dup2\n      mstore\n        /* \"#utility.yul\":536:538   */\n      0x20\n        /* \"#utility.yul\":521:539   */\n      add\n        /* \"contracts/insurance.sol\":3729:3833  function assetsOf(address account) public view returns (uint256) {... */\n    tag_20:\n      mload(0x40)\n      dup1\n      swap2\n      sub\n      swap1\n      return\n        /* \"@openzeppelin/contracts/access/Ownable.sol\":1824:1925  function renounceOwnership() public virtual onlyOwner {... */\n    tag_4:\n      callvalue\n      dup1\n      iszero\n      tag_22\n      jumpi\n      0x00\n      dup1\n      revert\n    tag_22:\n      pop\n      tag_23\n      tag_24\n      jump\t// in\n    tag_23:\n      stop\n        /* \"contracts/insurance.sol\":3959:4085  function getATokenAddress() public view returns (address) {... */\n    tag_5:\n      callvalue\n      dup1\n      iszero\n      tag_25\n      jumpi\n      0x00\n      dup1\n      revert\n    tag_25:\n      pop\n      tag_26\n      tag_27\n      jump\t// in\n    tag_26:\n      mload(0x40)\n      sub(shl(0xa0, 0x01), 0x01)\n        /* \"#utility.yul\":748:780   */\n      swap1\n      swap2\n      and\n        /* \"#utility.yul\":730:781   */\n      dup2\n      mstore\n        /* \"#utility.yul\":718:720   */\n      0x20\n        /* \"#utility.yul\":703:721   */\n      add\n        /* \"contracts/insurance.sol\":3959:4085  function getATokenAddress() public view returns (address) {... */\n      tag_20\n        /* \"#utility.yul\":584:787   */\n      jump\n        /* \"contracts/insurance.sol\":1819:2135  function withdrawAsset(uint256 percentage) public {... */\n    tag_6:\n      callvalue\n      dup1\n      iszero\n      tag_30\n      jumpi\n      0x00\n      dup1\n      revert\n    tag_30:\n      pop\n      tag_23\n      tag_32\n      calldatasize\n      0x04\n      tag_33\n      jump\t// in\n    tag_32:\n      tag_34\n      jump\t// in\n        /* \"@openzeppelin/contracts/access/Ownable.sol\":1201:1286  function owner() public view virtual returns (address) {... */\n    tag_7:\n      callvalue\n      dup1\n      iszero\n      tag_35\n      jumpi\n      0x00\n      dup1\n      revert\n    tag_35:\n      pop\n        /* \"@openzeppelin/contracts/access/Ownable.sol\":1247:1254  address */\n      0x00\n        /* \"@openzeppelin/contracts/access/Ownable.sol\":1273:1279  _owner */\n      sload\n      sub(shl(0xa0, 0x01), 0x01)\n      and\n        /* \"@openzeppelin/contracts/access/Ownable.sol\":1201:1286  function owner() public view virtual returns (address) {... */\n      jump(tag_26)\n        /* \"contracts/insurance.sol\":4141:4265  function changeAddressClaimContract(address newAddress) public onlyOwner {... */\n    tag_8:\n      callvalue\n      dup1\n      iszero\n      tag_39\n      jumpi\n      0x00\n      dup1\n      revert\n    tag_39:\n      pop\n      tag_23\n      tag_41\n      calldatasize\n      0x04\n      tag_18\n      jump\t// in\n    tag_41:\n      tag_42\n      jump\t// in\n        /* \"contracts/insurance.sol\":3839:3953  function sharesLoansOf(address account) public view returns (uint256) {... */\n    tag_9:\n      callvalue\n      dup1\n      iszero\n      tag_43\n      jumpi\n      0x00\n      dup1\n      revert\n    tag_43:\n      pop\n      tag_16\n      tag_45\n      calldatasize\n      0x04\n      tag_18\n      jump\t// in\n    tag_45:\n      sub(shl(0xa0, 0x01), 0x01)\n        /* \"contracts/insurance.sol\":3926:3946  sharesLoans[account] */\n      and\n        /* \"contracts/insurance.sol\":3900:3907  uint256 */\n      0x00\n        /* \"contracts/insurance.sol\":3926:3946  sharesLoans[account] */\n      swap1\n      dup2\n      mstore\n        /* \"contracts/insurance.sol\":3926:3937  sharesLoans */\n      0x07\n        /* \"contracts/insurance.sol\":3926:3946  sharesLoans[account] */\n      0x20\n      mstore\n      0x40\n      swap1\n      keccak256\n      sload\n      swap1\n        /* \"contracts/insurance.sol\":3839:3953  function sharesLoansOf(address account) public view returns (uint256) {... */\n      jump\n        /* \"@openzeppelin/contracts/access/Ownable.sol\":2074:2272  function transferOwnership(address newOwner) public virtual onlyOwner {... */\n    tag_10:\n      callvalue\n      dup1\n      iszero\n      tag_48\n      jumpi\n      0x00\n      dup1\n      revert\n    tag_48:\n      pop\n      tag_23\n      tag_50\n      calldatasize\n      0x04\n      tag_18\n      jump\t// in\n    tag_50:\n      tag_51\n      jump\t// in\n        /* \"contracts/insurance.sol\":1354:1813  function depositAsset(uint256 amount) public {... */\n    tag_11:\n      callvalue\n      dup1\n      iszero\n      tag_52\n      jumpi\n      0x00\n      dup1\n      revert\n    tag_52:\n      pop\n      tag_23\n      tag_54\n      calldatasize\n      0x04\n      tag_33\n      jump\t// in\n    tag_54:\n      tag_55\n      jump\t// in\n        /* \"@openzeppelin/contracts/access/Ownable.sol\":1824:1925  function renounceOwnership() public virtual onlyOwner {... */\n    tag_24:\n        /* \"@openzeppelin/contracts/access/Ownable.sol\":1094:1107  _checkOwner() */\n      tag_58\n        /* \"@openzeppelin/contracts/access/Ownable.sol\":1094:1105  _checkOwner */\n      tag_59\n        /* \"@openzeppelin/contracts/access/Ownable.sol\":1094:1107  _checkOwner() */\n      jump\t// in\n    tag_58:\n        /* \"@openzeppelin/contracts/access/Ownable.sol\":1888:1918  _transferOwnership(address(0)) */\n      tag_61\n        /* \"@openzeppelin/contracts/access/Ownable.sol\":1915:1916  0 */\n      0x00\n        /* \"@openzeppelin/contracts/access/Ownable.sol\":1888:1906  _transferOwnership */\n      tag_62\n        /* \"@openzeppelin/contracts/access/Ownable.sol\":1888:1918  _transferOwnership(address(0)) */\n      jump\t// in\n    tag_61:\n        /* \"@openzeppelin/contracts/access/Ownable.sol\":1824:1925  function renounceOwnership() public virtual onlyOwner {... */\n      jump\t// out\n        /* \"contracts/insurance.sol\":3959:4085  function getATokenAddress() public view returns (address) {... */\n    tag_27:\n        /* \"contracts/insurance.sol\":4034:4042  poolAave */\n      sload(0x02)\n        /* \"contracts/insurance.sol\":4058:4063  _USDC */\n      sload(0x05)\n        /* \"contracts/insurance.sol\":4034:4064  poolAave.getReserveData(_USDC) */\n      mload(0x40)\n      shl(0xe0, 0x35ea6a75)\n      dup2\n      mstore\n      sub(shl(0xa0, 0x01), 0x01)\n        /* \"contracts/insurance.sol\":4058:4063  _USDC */\n      swap2\n      dup3\n      and\n        /* \"contracts/insurance.sol\":4034:4064  poolAave.getReserveData(_USDC) */\n      0x04\n      dup3\n      add\n        /* \"#utility.yul\":730:781   */\n      mstore\n        /* \"contracts/insurance.sol\":4008:4015  address */\n      0x00\n      swap3\n        /* \"contracts/insurance.sol\":4034:4042  poolAave */\n      swap2\n      swap1\n      swap2\n      and\n      swap1\n        /* \"contracts/insurance.sol\":4034:4057  poolAave.getReserveData */\n      0x35ea6a75\n      swap1\n        /* \"#utility.yul\":703:721   */\n      0x24\n      add\n        /* \"contracts/insurance.sol\":4034:4064  poolAave.getReserveData(_USDC) */\n      0x01e0\n      mload(0x40)\n      dup1\n      dup4\n      sub\n      dup2\n      dup7\n      gas\n      staticcall\n      iszero\n      dup1\n      iszero\n      tag_66\n      jumpi\n      returndatasize\n      0x00\n      dup1\n      returndatacopy\n      revert(0x00, returndatasize)\n    tag_66:\n      pop\n      pop\n      pop\n      pop\n      mload(0x40)\n      returndatasize\n      not(0x1f)\n      0x1f\n      dup3\n      add\n      and\n      dup3\n      add\n      dup1\n      0x40\n      mstore\n      pop\n      dup2\n      add\n      swap1\n      tag_67\n      swap2\n      swap1\n      tag_68\n      jump\t// in\n    tag_67:\n        /* \"contracts/insurance.sol\":4034:4078  poolAave.getReserveData(_USDC).aTokenAddress */\n      0x0100\n      add\n      mload\n        /* \"contracts/insurance.sol\":4027:4078  return poolAave.getReserveData(_USDC).aTokenAddress */\n      swap1\n      pop\n        /* \"contracts/insurance.sol\":3959:4085  function getATokenAddress() public view returns (address) {... */\n      swap1\n      jump\t// out\n        /* \"contracts/insurance.sol\":1819:2135  function withdrawAsset(uint256 percentage) public {... */\n    tag_34:\n        /* \"contracts/insurance.sol\":1879:1898  uint256 finalAmount */\n      0x00\n        /* \"contracts/insurance.sol\":1901:1944  withdrawLendToken( msg.sender, percentage ) */\n      tag_70\n        /* \"contracts/insurance.sol\":1920:1930  msg.sender */\n      caller\n        /* \"contracts/insurance.sol\":1932:1942  percentage */\n      dup4\n        /* \"contracts/insurance.sol\":1901:1918  withdrawLendToken */\n      tag_71\n        /* \"contracts/insurance.sol\":1901:1944  withdrawLendToken( msg.sender, percentage ) */\n      jump\t// in\n    tag_70:\n        /* \"contracts/insurance.sol\":1962:1983  _addressClaimContract */\n      0x04\n      dup1\n      sload\n        /* \"contracts/insurance.sol\":1954:2026  IClaims(_addressClaimContract).reduceCoverage( finalAmount, msg.sender ) */\n      mload(0x40)\n      shl(0xe0, 0xa3df437b)\n      dup2\n      mstore\n      swap2\n      dup3\n      add\n        /* \"#utility.yul\":4360:4385   */\n      dup4\n      swap1\n      mstore\n        /* \"contracts/insurance.sol\":2014:2024  msg.sender */\n      caller\n        /* \"#utility.yul\":4401:4419   */\n      0x24\n      dup4\n      add\n        /* \"#utility.yul\":4394:4454   */\n      mstore\n        /* \"contracts/insurance.sol\":1879:1944  uint256 finalAmount = withdrawLendToken( msg.sender, percentage ) */\n      swap2\n      swap3\n      pop\n      sub(shl(0xa0, 0x01), 0x01)\n        /* \"contracts/insurance.sol\":1962:1983  _addressClaimContract */\n      swap1\n      swap2\n      and\n      swap1\n        /* \"contracts/insurance.sol\":1954:1999  IClaims(_addressClaimContract).reduceCoverage */\n      0xa3df437b\n      swap1\n        /* \"#utility.yul\":4333:4351   */\n      0x44\n      add\n        /* \"contracts/insurance.sol\":1954:2026  IClaims(_addressClaimContract).reduceCoverage( finalAmount, msg.sender ) */\n      0x00\n      mload(0x40)\n      dup1\n      dup4\n      sub\n      dup2\n      0x00\n      dup8\n      dup1\n      extcodesize\n      iszero\n      dup1\n      iszero\n      tag_74\n      jumpi\n      0x00\n      dup1\n      revert\n    tag_74:\n      pop\n      gas\n      call\n      iszero\n      dup1\n      iszero\n      tag_76\n      jumpi\n      returndatasize\n      0x00\n      dup1\n      returndatacopy\n      revert(0x00, returndatasize)\n    tag_76:\n      pop\n      pop\n        /* \"contracts/insurance.sol\":2043:2053  msg.sender */\n      caller\n        /* \"contracts/insurance.sol\":2036:2054  assets[msg.sender] */\n      0x00\n      swap1\n      dup2\n      mstore\n        /* \"contracts/insurance.sol\":2036:2042  assets */\n      0x06\n        /* \"contracts/insurance.sol\":2036:2054  assets[msg.sender] */\n      0x20\n      mstore\n      0x40\n      dup2\n      keccak256\n        /* \"contracts/insurance.sol\":2036:2069  assets[msg.sender] -= finalAmount */\n      dup1\n      sload\n        /* \"contracts/insurance.sol\":2058:2069  finalAmount */\n      dup6\n      swap5\n      pop\n        /* \"contracts/insurance.sol\":2036:2054  assets[msg.sender] */\n      swap1\n      swap3\n      pop\n        /* \"contracts/insurance.sol\":2036:2069  assets[msg.sender] -= finalAmount */\n      tag_77\n      swap1\n        /* \"contracts/insurance.sol\":2058:2069  finalAmount */\n      dup5\n      swap1\n        /* \"contracts/insurance.sol\":2036:2069  assets[msg.sender] -= finalAmount */\n      tag_78\n      jump\t// in\n    tag_77:\n      swap1\n      swap2\n      sstore\n      pop\n      pop\n        /* \"contracts/insurance.sol\":2086:2091  _USDC */\n      sload(0x05)\n        /* \"contracts/insurance.sol\":2079:2128  IERC20(_USDC).transfer( msg.sender, finalAmount ) */\n      mload(0x40)\n      shl(0xe0, 0xa9059cbb)\n      dup2\n      mstore\n        /* \"contracts/insurance.sol\":2103:2113  msg.sender */\n      caller\n        /* \"contracts/insurance.sol\":2079:2128  IERC20(_USDC).transfer( msg.sender, finalAmount ) */\n      0x04\n      dup3\n      add\n        /* \"#utility.yul\":4904:4955   */\n      mstore\n        /* \"#utility.yul\":4971:4989   */\n      0x24\n      dup2\n      add\n        /* \"#utility.yul\":4964:4998   */\n      dup4\n      swap1\n      mstore\n      sub(shl(0xa0, 0x01), 0x01)\n        /* \"contracts/insurance.sol\":2086:2091  _USDC */\n      swap1\n      swap2\n      and\n      swap1\n        /* \"contracts/insurance.sol\":2079:2101  IERC20(_USDC).transfer */\n      0xa9059cbb\n      swap1\n        /* \"#utility.yul\":4877:4895   */\n      0x44\n      add\n        /* \"contracts/insurance.sol\":2079:2128  IERC20(_USDC).transfer( msg.sender, finalAmount ) */\n      0x20\n      mload(0x40)\n      dup1\n      dup4\n      sub\n      dup2\n      0x00\n      dup8\n      gas\n      call\n      iszero\n      dup1\n      iszero\n      tag_82\n      jumpi\n      returndatasize\n      0x00\n      dup1\n      returndatacopy\n      revert(0x00, returndatasize)\n    tag_82:\n      pop\n      pop\n      pop\n      pop\n      mload(0x40)\n      returndatasize\n      not(0x1f)\n      0x1f\n      dup3\n      add\n      and\n      dup3\n      add\n      dup1\n      0x40\n      mstore\n      pop\n      dup2\n      add\n      swap1\n      tag_83\n      swap2\n      swap1\n      tag_84\n      jump\t// in\n    tag_83:\n      pop\n        /* \"contracts/insurance.sol\":1869:2135  {... */\n      pop\n        /* \"contracts/insurance.sol\":1819:2135  function withdrawAsset(uint256 percentage) public {... */\n      pop\n      jump\t// out\n        /* \"contracts/insurance.sol\":4141:4265  function changeAddressClaimContract(address newAddress) public onlyOwner {... */\n    tag_42:\n        /* \"@openzeppelin/contracts/access/Ownable.sol\":1094:1107  _checkOwner() */\n      tag_87\n        /* \"@openzeppelin/contracts/access/Ownable.sol\":1094:1105  _checkOwner */\n      tag_59\n        /* \"@openzeppelin/contracts/access/Ownable.sol\":1094:1107  _checkOwner() */\n      jump\t// in\n    tag_87:\n        /* \"contracts/insurance.sol\":4224:4245  _addressClaimContract */\n      0x04\n        /* \"contracts/insurance.sol\":4224:4258  _addressClaimContract = newAddress */\n      dup1\n      sload\n      not(sub(shl(0xa0, 0x01), 0x01))\n      and\n      sub(shl(0xa0, 0x01), 0x01)\n      swap3\n      swap1\n      swap3\n      and\n      swap2\n      swap1\n      swap2\n      or\n      swap1\n      sstore\n        /* \"contracts/insurance.sol\":4141:4265  function changeAddressClaimContract(address newAddress) public onlyOwner {... */\n      jump\t// out\n        /* \"@openzeppelin/contracts/access/Ownable.sol\":2074:2272  function transferOwnership(address newOwner) public virtual onlyOwner {... */\n    tag_51:\n        /* \"@openzeppelin/contracts/access/Ownable.sol\":1094:1107  _checkOwner() */\n      tag_91\n        /* \"@openzeppelin/contracts/access/Ownable.sol\":1094:1105  _checkOwner */\n      tag_59\n        /* \"@openzeppelin/contracts/access/Ownable.sol\":1094:1107  _checkOwner() */\n      jump\t// in\n    tag_91:\n      sub(shl(0xa0, 0x01), 0x01)\n        /* \"@openzeppelin/contracts/access/Ownable.sol\":2162:2184  newOwner != address(0) */\n      dup2\n      and\n        /* \"@openzeppelin/contracts/access/Ownable.sol\":2154:2227  require(newOwner != address(0), \"Ownable: new owner is the zero address\") */\n      tag_93\n      jumpi\n      mload(0x40)\n      shl(0xe5, 0x461bcd)\n      dup2\n      mstore\n        /* \"#utility.yul\":5493:5495   */\n      0x20\n        /* \"@openzeppelin/contracts/access/Ownable.sol\":2154:2227  require(newOwner != address(0), \"Ownable: new owner is the zero address\") */\n      0x04\n      dup3\n      add\n        /* \"#utility.yul\":5475:5496   */\n      mstore\n        /* \"#utility.yul\":5532:5534   */\n      0x26\n        /* \"#utility.yul\":5512:5530   */\n      0x24\n      dup3\n      add\n        /* \"#utility.yul\":5505:5535   */\n      mstore\n        /* \"#utility.yul\":5571:5605   */\n      0x4f776e61626c653a206e6577206f776e657220697320746865207a65726f2061\n        /* \"#utility.yul\":5551:5569   */\n      0x44\n      dup3\n      add\n        /* \"#utility.yul\":5544:5606   */\n      mstore\n      shl(0xd0, 0x646472657373)\n        /* \"#utility.yul\":5622:5640   */\n      0x64\n      dup3\n      add\n        /* \"#utility.yul\":5615:5651   */\n      mstore\n        /* \"#utility.yul\":5668:5687   */\n      0x84\n      add\n        /* \"@openzeppelin/contracts/access/Ownable.sol\":2154:2227  require(newOwner != address(0), \"Ownable: new owner is the zero address\") */\n    tag_94:\n      mload(0x40)\n      dup1\n      swap2\n      sub\n      swap1\n      revert\n    tag_93:\n        /* \"@openzeppelin/contracts/access/Ownable.sol\":2237:2265  _transferOwnership(newOwner) */\n      tag_96\n        /* \"@openzeppelin/contracts/access/Ownable.sol\":2256:2264  newOwner */\n      dup2\n        /* \"@openzeppelin/contracts/access/Ownable.sol\":2237:2255  _transferOwnership */\n      tag_62\n        /* \"@openzeppelin/contracts/access/Ownable.sol\":2237:2265  _transferOwnership(newOwner) */\n      jump\t// in\n    tag_96:\n        /* \"@openzeppelin/contracts/access/Ownable.sol\":2074:2272  function transferOwnership(address newOwner) public virtual onlyOwner {... */\n      pop\n      jump\t// out\n        /* \"contracts/insurance.sol\":1354:1813  function depositAsset(uint256 amount) public {... */\n    tag_55:\n        /* \"contracts/insurance.sol\":1416:1421  _USDC */\n      sload(0x05)\n        /* \"contracts/insurance.sol\":1409:1471  IERC20(_USDC).transferFrom(msg.sender, address(this), amount ) */\n      mload(0x40)\n      shl(0xe0, 0x23b872dd)\n      dup2\n      mstore\n        /* \"contracts/insurance.sol\":1436:1446  msg.sender */\n      caller\n        /* \"contracts/insurance.sol\":1409:1471  IERC20(_USDC).transferFrom(msg.sender, address(this), amount ) */\n      0x04\n      dup3\n      add\n        /* \"#utility.yul\":5938:5972   */\n      mstore\n        /* \"contracts/insurance.sol\":1456:1460  this */\n      address\n        /* \"#utility.yul\":5988:6006   */\n      0x24\n      dup3\n      add\n        /* \"#utility.yul\":5981:6024   */\n      mstore\n        /* \"#utility.yul\":6040:6058   */\n      0x44\n      dup2\n      add\n        /* \"#utility.yul\":6033:6067   */\n      dup4\n      swap1\n      mstore\n      sub(shl(0xa0, 0x01), 0x01)\n        /* \"contracts/insurance.sol\":1416:1421  _USDC */\n      swap1\n      swap2\n      and\n      swap1\n        /* \"contracts/insurance.sol\":1409:1435  IERC20(_USDC).transferFrom */\n      0x23b872dd\n      swap1\n        /* \"#utility.yul\":5873:5891   */\n      0x64\n      add\n        /* \"contracts/insurance.sol\":1409:1471  IERC20(_USDC).transferFrom(msg.sender, address(this), amount ) */\n      0x20\n      mload(0x40)\n      dup1\n      dup4\n      sub\n      dup2\n      0x00\n      dup8\n      gas\n      call\n      iszero\n      dup1\n      iszero\n      tag_101\n      jumpi\n      returndatasize\n      0x00\n      dup1\n      returndatacopy\n      revert(0x00, returndatasize)\n    tag_101:\n      pop\n      pop\n      pop\n      pop\n      mload(0x40)\n      returndatasize\n      not(0x1f)\n      0x1f\n      dup3\n      add\n      and\n      dup3\n      add\n      dup1\n      0x40\n      mstore\n      pop\n      dup2\n      add\n      swap1\n      tag_102\n      swap2\n      swap1\n      tag_84\n      jump\t// in\n    tag_102:\n      pop\n        /* \"contracts/insurance.sol\":1508:1529  _addressClaimContract */\n      0x04\n      dup1\n      sload\n        /* \"contracts/insurance.sol\":1500:1555  IClaims(_addressClaimContract).computePremium( amount ) */\n      mload(0x40)\n      shl(0xe2, 0x21ae0895)\n      dup2\n      mstore\n      swap2\n      dup3\n      add\n        /* \"#utility.yul\":548:573   */\n      dup4\n      swap1\n      mstore\n        /* \"contracts/insurance.sol\":1481:1497  uint256 discount */\n      0x00\n      swap2\n      sub(shl(0xa0, 0x01), 0x01)\n        /* \"contracts/insurance.sol\":1508:1529  _addressClaimContract */\n      swap1\n      swap2\n      and\n      swap1\n        /* \"contracts/insurance.sol\":1500:1545  IClaims(_addressClaimContract).computePremium */\n      0x86b82254\n      swap1\n        /* \"#utility.yul\":521:539   */\n      0x24\n      add\n        /* \"contracts/insurance.sol\":1500:1555  IClaims(_addressClaimContract).computePremium( amount ) */\n      0x20\n      mload(0x40)\n      dup1\n      dup4\n      sub\n      dup2\n      dup7\n      gas\n      staticcall\n      iszero\n      dup1\n      iszero\n      tag_105\n      jumpi\n      returndatasize\n      0x00\n      dup1\n      returndatacopy\n      revert(0x00, returndatasize)\n    tag_105:\n      pop\n      pop\n      pop\n      pop\n      mload(0x40)\n      returndatasize\n      not(0x1f)\n      0x1f\n      dup3\n      add\n      and\n      dup3\n      add\n      dup1\n      0x40\n      mstore\n      pop\n      dup2\n      add\n      swap1\n      tag_106\n      swap2\n      swap1\n      tag_107\n      jump\t// in\n    tag_106:\n        /* \"contracts/insurance.sol\":1481:1555  uint256 discount = IClaims(_addressClaimContract).computePremium( amount ) */\n      swap1\n      pop\n        /* \"contracts/insurance.sol\":1565:1583  amount -= discount */\n      tag_108\n        /* \"contracts/insurance.sol\":1481:1555  uint256 discount = IClaims(_addressClaimContract).computePremium( amount ) */\n      dup2\n        /* \"contracts/insurance.sol\":1565:1583  amount -= discount */\n      dup4\n      tag_78\n      jump\t// in\n    tag_108:\n        /* \"contracts/insurance.sol\":1600:1605  _USDC */\n      sload(0x05)\n        /* \"contracts/insurance.sol\":1615:1636  _addressClaimContract */\n      0x04\n      dup1\n      sload\n        /* \"contracts/insurance.sol\":1593:1647  IERC20(_USDC).approve(_addressClaimContract, discount) */\n      mload(0x40)\n      shl(0xe0, 0x095ea7b3)\n      dup2\n      mstore\n      sub(shl(0xa0, 0x01), 0x01)\n        /* \"contracts/insurance.sol\":1615:1636  _addressClaimContract */\n      swap2\n      dup3\n      and\n        /* \"contracts/insurance.sol\":1593:1647  IERC20(_USDC).approve(_addressClaimContract, discount) */\n      swap3\n      dup2\n      add\n        /* \"#utility.yul\":4904:4955   */\n      swap3\n      swap1\n      swap3\n      mstore\n        /* \"#utility.yul\":4971:4989   */\n      0x24\n      dup3\n      add\n        /* \"#utility.yul\":4964:4998   */\n      dup6\n      swap1\n      mstore\n        /* \"contracts/insurance.sol\":1565:1583  amount -= discount */\n      swap3\n      swap5\n      pop\n        /* \"contracts/insurance.sol\":1600:1605  _USDC */\n      swap2\n      and\n      swap1\n        /* \"contracts/insurance.sol\":1593:1614  IERC20(_USDC).approve */\n      0x095ea7b3\n      swap1\n        /* \"#utility.yul\":4877:4895   */\n      0x44\n      add\n        /* \"contracts/insurance.sol\":1593:1647  IERC20(_USDC).approve(_addressClaimContract, discount) */\n      0x20\n      mload(0x40)\n      dup1\n      dup4\n      sub\n      dup2\n      0x00\n      dup8\n      gas\n      call\n      iszero\n      dup1\n      iszero\n      tag_111\n      jumpi\n      returndatasize\n      0x00\n      dup1\n      returndatacopy\n      revert(0x00, returndatasize)\n    tag_111:\n      pop\n      pop\n      pop\n      pop\n      mload(0x40)\n      returndatasize\n      not(0x1f)\n      0x1f\n      dup3\n      add\n      and\n      dup3\n      add\n      dup1\n      0x40\n      mstore\n      pop\n      dup2\n      add\n      swap1\n      tag_112\n      swap2\n      swap1\n      tag_84\n      jump\t// in\n    tag_112:\n      pop\n        /* \"contracts/insurance.sol\":1665:1686  _addressClaimContract */\n      0x04\n      dup1\n      sload\n        /* \"contracts/insurance.sol\":1657:1721  IClaims(_addressClaimContract).addCoverage( amount, msg.sender ) */\n      mload(0x40)\n      shl(0xe0, 0xf75f6029)\n      dup2\n      mstore\n      swap2\n      dup3\n      add\n        /* \"#utility.yul\":4360:4385   */\n      dup5\n      swap1\n      mstore\n        /* \"contracts/insurance.sol\":1709:1719  msg.sender */\n      caller\n        /* \"#utility.yul\":4401:4419   */\n      0x24\n      dup4\n      add\n        /* \"#utility.yul\":4394:4454   */\n      mstore\n      sub(shl(0xa0, 0x01), 0x01)\n        /* \"contracts/insurance.sol\":1665:1686  _addressClaimContract */\n      and\n      swap1\n        /* \"contracts/insurance.sol\":1657:1699  IClaims(_addressClaimContract).addCoverage */\n      0xf75f6029\n      swap1\n        /* \"#utility.yul\":4333:4351   */\n      0x44\n      add\n        /* \"contracts/insurance.sol\":1657:1721  IClaims(_addressClaimContract).addCoverage( amount, msg.sender ) */\n      0x00\n      mload(0x40)\n      dup1\n      dup4\n      sub\n      dup2\n      0x00\n      dup8\n      dup1\n      extcodesize\n      iszero\n      dup1\n      iszero\n      tag_114\n      jumpi\n      0x00\n      dup1\n      revert\n    tag_114:\n      pop\n      gas\n      call\n      iszero\n      dup1\n      iszero\n      tag_116\n      jumpi\n      returndatasize\n      0x00\n      dup1\n      returndatacopy\n      revert(0x00, returndatasize)\n    tag_116:\n      pop\n      pop\n        /* \"contracts/insurance.sol\":1738:1748  msg.sender */\n      caller\n        /* \"contracts/insurance.sol\":1731:1749  assets[msg.sender] */\n      0x00\n      swap1\n      dup2\n      mstore\n        /* \"contracts/insurance.sol\":1731:1737  assets */\n      0x06\n        /* \"contracts/insurance.sol\":1731:1749  assets[msg.sender] */\n      0x20\n      mstore\n      0x40\n      dup2\n      keccak256\n        /* \"contracts/insurance.sol\":1731:1759  assets[msg.sender] += amount */\n      dup1\n      sload\n        /* \"contracts/insurance.sol\":1753:1759  amount */\n      dup7\n      swap5\n      pop\n        /* \"contracts/insurance.sol\":1731:1749  assets[msg.sender] */\n      swap1\n      swap3\n      pop\n        /* \"contracts/insurance.sol\":1731:1759  assets[msg.sender] += amount */\n      tag_117\n      swap1\n        /* \"contracts/insurance.sol\":1753:1759  amount */\n      dup5\n      swap1\n        /* \"contracts/insurance.sol\":1731:1759  assets[msg.sender] += amount */\n      tag_118\n      jump\t// in\n    tag_117:\n      swap1\n      swap2\n      sstore\n      pop\n        /* \"contracts/insurance.sol\":1769:1806  supplyLendToken( msg.sender, amount ) */\n      tag_119\n      swap1\n      pop\n        /* \"contracts/insurance.sol\":1786:1796  msg.sender */\n      caller\n        /* \"contracts/insurance.sol\":1798:1804  amount */\n      dup4\n        /* \"contracts/insurance.sol\":1769:1784  supplyLendToken */\n      tag_120\n        /* \"contracts/insurance.sol\":1769:1806  supplyLendToken( msg.sender, amount ) */\n      jump\t// in\n    tag_119:\n        /* \"contracts/insurance.sol\":1399:1813  {... */\n      pop\n        /* \"contracts/insurance.sol\":1354:1813  function depositAsset(uint256 amount) public {... */\n      pop\n      jump\t// out\n        /* \"@openzeppelin/contracts/access/Ownable.sol\":1359:1489  function _checkOwner() internal view virtual {... */\n    tag_59:\n        /* \"@openzeppelin/contracts/access/Ownable.sol\":1247:1254  address */\n      0x00\n        /* \"@openzeppelin/contracts/access/Ownable.sol\":1273:1279  _owner */\n      sload\n      sub(shl(0xa0, 0x01), 0x01)\n      and\n        /* \"@openzeppelin/contracts/utils/Context.sol\":719:729  msg.sender */\n      caller\n        /* \"@openzeppelin/contracts/access/Ownable.sol\":1422:1445  owner() == _msgSender() */\n      eq\n        /* \"@openzeppelin/contracts/access/Ownable.sol\":1414:1482  require(owner() == _msgSender(), \"Ownable: caller is not the owner\") */\n      tag_61\n      jumpi\n      mload(0x40)\n      shl(0xe5, 0x461bcd)\n      dup2\n      mstore\n        /* \"#utility.yul\":6599:6601   */\n      0x20\n        /* \"@openzeppelin/contracts/access/Ownable.sol\":1414:1482  require(owner() == _msgSender(), \"Ownable: caller is not the owner\") */\n      0x04\n      dup3\n      add\n        /* \"#utility.yul\":6581:6602   */\n      dup2\n      swap1\n      mstore\n        /* \"#utility.yul\":6618:6636   */\n      0x24\n      dup3\n      add\n        /* \"#utility.yul\":6611:6641   */\n      mstore\n        /* \"#utility.yul\":6677:6711   */\n      0x4f776e61626c653a2063616c6c6572206973206e6f7420746865206f776e6572\n        /* \"#utility.yul\":6657:6675   */\n      0x44\n      dup3\n      add\n        /* \"#utility.yul\":6650:6712   */\n      mstore\n        /* \"#utility.yul\":6729:6747   */\n      0x64\n      add\n        /* \"@openzeppelin/contracts/access/Ownable.sol\":1414:1482  require(owner() == _msgSender(), \"Ownable: caller is not the owner\") */\n      tag_94\n        /* \"#utility.yul\":6397:6753   */\n      jump\n        /* \"@openzeppelin/contracts/access/Ownable.sol\":2426:2613  function _transferOwnership(address newOwner) internal virtual {... */\n    tag_62:\n        /* \"@openzeppelin/contracts/access/Ownable.sol\":2499:2515  address oldOwner */\n      0x00\n        /* \"@openzeppelin/contracts/access/Ownable.sol\":2518:2524  _owner */\n      dup1\n      sload\n      sub(shl(0xa0, 0x01), 0x01)\n        /* \"@openzeppelin/contracts/access/Ownable.sol\":2534:2551  _owner = newOwner */\n      dup4\n      dup2\n      and\n      not(sub(shl(0xa0, 0x01), 0x01))\n      dup4\n      and\n      dup2\n      or\n      dup5\n      sstore\n        /* \"@openzeppelin/contracts/access/Ownable.sol\":2566:2606  OwnershipTransferred(oldOwner, newOwner) */\n      mload(0x40)\n        /* \"@openzeppelin/contracts/access/Ownable.sol\":2518:2524  _owner */\n      swap2\n      swap1\n      swap3\n      and\n      swap3\n      dup4\n      swap2\n        /* \"@openzeppelin/contracts/access/Ownable.sol\":2566:2606  OwnershipTransferred(oldOwner, newOwner) */\n      0x8be0079c531659141344cd1fd0a4f28419497f9722a3daafe3b4186f6b6457e0\n      swap2\n        /* \"@openzeppelin/contracts/access/Ownable.sol\":2499:2515  address oldOwner */\n      swap1\n        /* \"@openzeppelin/contracts/access/Ownable.sol\":2566:2606  OwnershipTransferred(oldOwner, newOwner) */\n      log3\n        /* \"@openzeppelin/contracts/access/Ownable.sol\":2489:2613  {... */\n      pop\n        /* \"@openzeppelin/contracts/access/Ownable.sol\":2426:2613  function _transferOwnership(address newOwner) internal virtual {... */\n      pop\n      jump\t// out\n        /* \"contracts/insurance.sol\":2923:3723  function withdrawLendToken(address account, uint256 percentage) private returns (uint256){... */\n    tag_71:\n      sub(shl(0xa0, 0x01), 0x01)\n        /* \"contracts/insurance.sol\":3030:3050  sharesLoans[account] */\n      dup3\n      and\n        /* \"contracts/insurance.sol\":3004:3011  uint256 */\n      0x00\n        /* \"contracts/insurance.sol\":3030:3050  sharesLoans[account] */\n      swap1\n      dup2\n      mstore\n        /* \"contracts/insurance.sol\":3030:3041  sharesLoans */\n      0x07\n        /* \"contracts/insurance.sol\":3030:3050  sharesLoans[account] */\n      0x20\n      mstore\n      0x40\n      dup2\n      keccak256\n      sload\n        /* \"contracts/insurance.sol\":3022:3103  require(sharesLoans[account] > 0, \"User has not provided this token for lending\") */\n      tag_130\n      jumpi\n      mload(0x40)\n      shl(0xe5, 0x461bcd)\n      dup2\n      mstore\n        /* \"#utility.yul\":6960:6962   */\n      0x20\n        /* \"contracts/insurance.sol\":3022:3103  require(sharesLoans[account] > 0, \"User has not provided this token for lending\") */\n      0x04\n      dup3\n      add\n        /* \"#utility.yul\":6942:6963   */\n      mstore\n        /* \"#utility.yul\":6999:7001   */\n      0x2c\n        /* \"#utility.yul\":6979:6997   */\n      0x24\n      dup3\n      add\n        /* \"#utility.yul\":6972:7002   */\n      mstore\n        /* \"#utility.yul\":7038:7072   */\n      0x5573657220686173206e6f742070726f7669646564207468697320746f6b656e\n        /* \"#utility.yul\":7018:7036   */\n      0x44\n      dup3\n      add\n        /* \"#utility.yul\":7011:7073   */\n      mstore\n      shl(0xa0, 0x20666f72206c656e64696e67)\n        /* \"#utility.yul\":7089:7107   */\n      0x64\n      dup3\n      add\n        /* \"#utility.yul\":7082:7124   */\n      mstore\n        /* \"#utility.yul\":7141:7160   */\n      0x84\n      add\n        /* \"contracts/insurance.sol\":3022:3103  require(sharesLoans[account] > 0, \"User has not provided this token for lending\") */\n      tag_94\n        /* \"#utility.yul\":6758:7166   */\n      jump\n        /* \"contracts/insurance.sol\":3022:3103  require(sharesLoans[account] > 0, \"User has not provided this token for lending\") */\n    tag_130:\n      sub(shl(0xa0, 0x01), 0x01)\n        /* \"contracts/insurance.sol\":3141:3161  sharesLoans[account] */\n      dup4\n      dup2\n      and\n        /* \"contracts/insurance.sol\":3114:3138  uint256 amountSharesUser */\n      0x00\n        /* \"contracts/insurance.sol\":3141:3161  sharesLoans[account] */\n      swap1\n      dup2\n      mstore\n        /* \"contracts/insurance.sol\":3141:3152  sharesLoans */\n      0x07\n        /* \"contracts/insurance.sol\":3141:3161  sharesLoans[account] */\n      0x20\n      mstore\n      0x40\n      dup1\n      dup3\n      keccak256\n      sload\n        /* \"contracts/insurance.sol\":3196:3204  poolAave */\n      sload(0x02)\n        /* \"contracts/insurance.sol\":3220:3225  _USDC */\n      sload(0x05)\n        /* \"contracts/insurance.sol\":3196:3226  poolAave.getReserveData(_USDC) */\n      swap3\n      mload\n      shl(0xe0, 0x35ea6a75)\n      dup2\n      mstore\n        /* \"contracts/insurance.sol\":3220:3225  _USDC */\n      swap3\n      dup6\n      and\n        /* \"contracts/insurance.sol\":3196:3226  poolAave.getReserveData(_USDC) */\n      0x04\n      dup5\n      add\n        /* \"#utility.yul\":730:781   */\n      mstore\n        /* \"contracts/insurance.sol\":3141:3161  sharesLoans[account] */\n      swap1\n      swap4\n        /* \"contracts/insurance.sol\":3196:3204  poolAave */\n      and\n      swap1\n        /* \"contracts/insurance.sol\":3196:3219  poolAave.getReserveData */\n      0x35ea6a75\n      swap1\n        /* \"#utility.yul\":703:721   */\n      0x24\n      add\n        /* \"contracts/insurance.sol\":3196:3226  poolAave.getReserveData(_USDC) */\n      0x01e0\n      mload(0x40)\n      dup1\n      dup4\n      sub\n      dup2\n      dup7\n      gas\n      staticcall\n      iszero\n      dup1\n      iszero\n      tag_135\n      jumpi\n      returndatasize\n      0x00\n      dup1\n      returndatacopy\n      revert(0x00, returndatasize)\n    tag_135:\n      pop\n      pop\n      pop\n      pop\n      mload(0x40)\n      returndatasize\n      not(0x1f)\n      0x1f\n      dup3\n      add\n      and\n      dup3\n      add\n      dup1\n      0x40\n      mstore\n      pop\n      dup2\n      add\n      swap1\n      tag_136\n      swap2\n      swap1\n      tag_68\n      jump\t// in\n    tag_136:\n        /* \"contracts/insurance.sol\":3195:3241  (poolAave.getReserveData(_USDC)).aTokenAddress */\n      0x0100\n      add\n      mload\n        /* \"contracts/insurance.sol\":3276:3322  IERC20(aTokenAddress).balanceOf(address(this)) */\n      mload(0x40)\n      shl(0xe0, 0x70a08231)\n      dup2\n      mstore\n        /* \"contracts/insurance.sol\":3316:3320  this */\n      address\n        /* \"contracts/insurance.sol\":3276:3322  IERC20(aTokenAddress).balanceOf(address(this)) */\n      0x04\n      dup3\n      add\n        /* \"#utility.yul\":730:781   */\n      mstore\n        /* \"contracts/insurance.sol\":3195:3241  (poolAave.getReserveData(_USDC)).aTokenAddress */\n      swap1\n      swap2\n      pop\n        /* \"contracts/insurance.sol\":3251:3273  uint256 currentBalance */\n      0x00\n      swap1\n      sub(shl(0xa0, 0x01), 0x01)\n        /* \"contracts/insurance.sol\":3276:3307  IERC20(aTokenAddress).balanceOf */\n      dup4\n      and\n      swap1\n      0x70a08231\n      swap1\n        /* \"#utility.yul\":703:721   */\n      0x24\n      add\n        /* \"contracts/insurance.sol\":3276:3322  IERC20(aTokenAddress).balanceOf(address(this)) */\n      0x20\n      mload(0x40)\n      dup1\n      dup4\n      sub\n      dup2\n      dup7\n      gas\n      staticcall\n      iszero\n      dup1\n      iszero\n      tag_139\n      jumpi\n      returndatasize\n      0x00\n      dup1\n      returndatacopy\n      revert(0x00, returndatasize)\n    tag_139:\n      pop\n      pop\n      pop\n      pop\n      mload(0x40)\n      returndatasize\n      not(0x1f)\n      0x1f\n      dup3\n      add\n      and\n      dup3\n      add\n      dup1\n      0x40\n      mstore\n      pop\n      dup2\n      add\n      swap1\n      tag_140\n      swap2\n      swap1\n      tag_107\n      jump\t// in\n    tag_140:\n        /* \"contracts/insurance.sol\":3251:3322  uint256 currentBalance = IERC20(aTokenAddress).balanceOf(address(this)) */\n      swap1\n      pop\n        /* \"contracts/insurance.sol\":3333:3352  uint256 amountAsset */\n      0x00\n        /* \"contracts/insurance.sol\":3355:3447  Math.mulDiv( amountSharesUser * percentage, currentBalance, totalSharesLoansPerAsset * 1000) */\n      tag_141\n        /* \"contracts/insurance.sol\":3368:3397  amountSharesUser * percentage */\n      tag_142\n        /* \"contracts/insurance.sol\":3387:3397  percentage */\n      dup8\n        /* \"contracts/insurance.sol\":3368:3384  amountSharesUser */\n      dup7\n        /* \"contracts/insurance.sol\":3368:3397  amountSharesUser * percentage */\n      tag_143\n      jump\t// in\n    tag_142:\n        /* \"contracts/insurance.sol\":3399:3413  currentBalance */\n      dup4\n        /* \"contracts/insurance.sol\":3415:3439  totalSharesLoansPerAsset */\n      sload(0x03)\n        /* \"contracts/insurance.sol\":3442:3446  1000 */\n      0x03e8\n        /* \"contracts/insurance.sol\":3415:3446  totalSharesLoansPerAsset * 1000 */\n      tag_144\n      swap2\n      swap1\n      tag_143\n      jump\t// in\n    tag_144:\n        /* \"contracts/insurance.sol\":3355:3366  Math.mulDiv */\n      tag_145\n        /* \"contracts/insurance.sol\":3355:3447  Math.mulDiv( amountSharesUser * percentage, currentBalance, totalSharesLoansPerAsset * 1000) */\n      jump\t// in\n    tag_141:\n        /* \"contracts/insurance.sol\":3333:3447  uint256 amountAsset = Math.mulDiv( amountSharesUser * percentage, currentBalance, totalSharesLoansPerAsset * 1000) */\n      swap1\n      pop\n        /* \"contracts/insurance.sol\":3457:3477  uint256 amountShares */\n      0x00\n        /* \"contracts/insurance.sol\":3480:3528  Math.mulDiv( amountSharesUser, percentage, 1000) */\n      tag_146\n        /* \"contracts/insurance.sol\":3493:3509  amountSharesUser */\n      dup6\n        /* \"contracts/insurance.sol\":3511:3521  percentage */\n      dup9\n        /* \"contracts/insurance.sol\":3523:3527  1000 */\n      0x03e8\n        /* \"contracts/insurance.sol\":3480:3491  Math.mulDiv */\n      tag_145\n        /* \"contracts/insurance.sol\":3480:3528  Math.mulDiv( amountSharesUser, percentage, 1000) */\n      jump\t// in\n    tag_146:\n        /* \"contracts/insurance.sol\":3539:3547  poolAave */\n      sload(0x02)\n        /* \"contracts/insurance.sol\":3557:3562  _USDC */\n      sload(0x05)\n        /* \"contracts/insurance.sol\":3539:3591  poolAave.withdraw(_USDC, amountAsset, address(this)) */\n      mload(0x40)\n      shl(0xe2, 0x1a4ca37b)\n      dup2\n      mstore\n      sub(shl(0xa0, 0x01), 0x01)\n        /* \"contracts/insurance.sol\":3557:3562  _USDC */\n      swap2\n      dup3\n      and\n        /* \"contracts/insurance.sol\":3539:3591  poolAave.withdraw(_USDC, amountAsset, address(this)) */\n      0x04\n      dup3\n      add\n        /* \"#utility.yul\":7584:7618   */\n      mstore\n        /* \"#utility.yul\":7634:7652   */\n      0x24\n      dup2\n      add\n        /* \"#utility.yul\":7627:7661   */\n      dup7\n      swap1\n      mstore\n        /* \"contracts/insurance.sol\":3585:3589  this */\n      address\n        /* \"#utility.yul\":7677:7695   */\n      0x44\n      dup3\n      add\n        /* \"#utility.yul\":7670:7713   */\n      mstore\n        /* \"contracts/insurance.sol\":3457:3528  uint256 amountShares = Math.mulDiv( amountSharesUser, percentage, 1000) */\n      swap3\n      swap4\n      pop\n        /* \"contracts/insurance.sol\":3539:3547  poolAave */\n      and\n      swap1\n        /* \"contracts/insurance.sol\":3539:3556  poolAave.withdraw */\n      0x69328dec\n      swap1\n        /* \"#utility.yul\":7519:7537   */\n      0x64\n      add\n        /* \"contracts/insurance.sol\":3539:3591  poolAave.withdraw(_USDC, amountAsset, address(this)) */\n      0x20\n      mload(0x40)\n      dup1\n      dup4\n      sub\n      dup2\n      0x00\n      dup8\n      gas\n      call\n      iszero\n      dup1\n      iszero\n      tag_150\n      jumpi\n      returndatasize\n      0x00\n      dup1\n      returndatacopy\n      revert(0x00, returndatasize)\n    tag_150:\n      pop\n      pop\n      pop\n      pop\n      mload(0x40)\n      returndatasize\n      not(0x1f)\n      0x1f\n      dup3\n      add\n      and\n      dup3\n      add\n      dup1\n      0x40\n      mstore\n      pop\n      dup2\n      add\n      swap1\n      tag_151\n      swap2\n      swap1\n      tag_107\n      jump\t// in\n    tag_151:\n      pop\n      sub(shl(0xa0, 0x01), 0x01)\n        /* \"contracts/insurance.sol\":3601:3621  sharesLoans[account] */\n      dup9\n      and\n      0x00\n      swap1\n      dup2\n      mstore\n        /* \"contracts/insurance.sol\":3601:3612  sharesLoans */\n      0x07\n        /* \"contracts/insurance.sol\":3601:3621  sharesLoans[account] */\n      0x20\n      mstore\n      0x40\n      dup2\n      keccak256\n        /* \"contracts/insurance.sol\":3601:3637  sharesLoans[account] -= amountShares */\n      dup1\n      sload\n        /* \"contracts/insurance.sol\":3625:3637  amountShares */\n      dup4\n      swap3\n        /* \"contracts/insurance.sol\":3601:3621  sharesLoans[account] */\n      swap1\n        /* \"contracts/insurance.sol\":3601:3637  sharesLoans[account] -= amountShares */\n      tag_152\n      swap1\n        /* \"contracts/insurance.sol\":3625:3637  amountShares */\n      dup5\n      swap1\n        /* \"contracts/insurance.sol\":3601:3637  sharesLoans[account] -= amountShares */\n      tag_78\n      jump\t// in\n    tag_152:\n      swap3\n      pop\n      pop\n      dup2\n      swap1\n      sstore\n      pop\n        /* \"contracts/insurance.sol\":3675:3687  amountShares */\n      dup1\n        /* \"contracts/insurance.sol\":3647:3671  totalSharesLoansPerAsset */\n      0x03\n      0x00\n        /* \"contracts/insurance.sol\":3647:3687  totalSharesLoansPerAsset -= amountShares */\n      dup3\n      dup3\n      sload\n      tag_153\n      swap2\n      swap1\n      tag_78\n      jump\t// in\n    tag_153:\n      swap1\n      swap2\n      sstore\n      pop\n        /* \"contracts/insurance.sol\":3705:3716  amountAsset */\n      swap2\n      swap6\n      pop\n      pop\n      pop\n      pop\n      pop\n      pop\n        /* \"contracts/insurance.sol\":2923:3723  function withdrawLendToken(address account, uint256 percentage) private returns (uint256){... */\n    tag_129:\n      swap3\n      swap2\n      pop\n      pop\n      jump\t// out\n        /* \"contracts/insurance.sol\":2141:2917  function supplyLendToken(address account, uint256 amount) private {... */\n    tag_120:\n        /* \"contracts/insurance.sol\":2233:2238  _USDC */\n      sload(0x05)\n      0x01\n        /* \"contracts/insurance.sol\":2248:2259  aaveAddress */\n      sload\n        /* \"contracts/insurance.sol\":2226:2268  IERC20(_USDC).approve(aaveAddress, amount) */\n      mload(0x40)\n      shl(0xe0, 0x095ea7b3)\n      dup2\n      mstore\n      sub(shl(0xa0, 0x01), 0x01)\n        /* \"contracts/insurance.sol\":2248:2259  aaveAddress */\n      swap2\n      dup3\n      and\n        /* \"contracts/insurance.sol\":2226:2268  IERC20(_USDC).approve(aaveAddress, amount) */\n      0x04\n      dup3\n      add\n        /* \"#utility.yul\":4904:4955   */\n      mstore\n        /* \"#utility.yul\":4971:4989   */\n      0x24\n      dup2\n      add\n        /* \"#utility.yul\":4964:4998   */\n      dup5\n      swap1\n      mstore\n        /* \"contracts/insurance.sol\":2233:2238  _USDC */\n      swap2\n      and\n      swap1\n        /* \"contracts/insurance.sol\":2226:2247  IERC20(_USDC).approve */\n      0x095ea7b3\n      swap1\n        /* \"#utility.yul\":4877:4895   */\n      0x44\n      add\n        /* \"contracts/insurance.sol\":2226:2268  IERC20(_USDC).approve(aaveAddress, amount) */\n      0x20\n      mload(0x40)\n      dup1\n      dup4\n      sub\n      dup2\n      0x00\n      dup8\n      gas\n      call\n      iszero\n      dup1\n      iszero\n      tag_157\n      jumpi\n      returndatasize\n      0x00\n      dup1\n      returndatacopy\n      revert(0x00, returndatasize)\n    tag_157:\n      pop\n      pop\n      pop\n      pop\n      mload(0x40)\n      returndatasize\n      not(0x1f)\n      0x1f\n      dup3\n      add\n      and\n      dup3\n      add\n      dup1\n      0x40\n      mstore\n      pop\n      dup2\n      add\n      swap1\n      tag_158\n      swap2\n      swap1\n      tag_84\n      jump\t// in\n    tag_158:\n        /* \"contracts/insurance.sol\":2217:2309  require( IERC20(_USDC).approve(aaveAddress, amount), \"This contract has not enough tokens\" ) */\n      tag_159\n      jumpi\n      mload(0x40)\n      shl(0xe5, 0x461bcd)\n      dup2\n      mstore\n        /* \"#utility.yul\":7926:7928   */\n      0x20\n        /* \"contracts/insurance.sol\":2217:2309  require( IERC20(_USDC).approve(aaveAddress, amount), \"This contract has not enough tokens\" ) */\n      0x04\n      dup3\n      add\n        /* \"#utility.yul\":7908:7929   */\n      mstore\n        /* \"#utility.yul\":7965:7967   */\n      0x23\n        /* \"#utility.yul\":7945:7963   */\n      0x24\n      dup3\n      add\n        /* \"#utility.yul\":7938:7968   */\n      mstore\n        /* \"#utility.yul\":8004:8038   */\n      0x5468697320636f6e747261637420686173206e6f7420656e6f75676820746f6b\n        /* \"#utility.yul\":7984:8002   */\n      0x44\n      dup3\n      add\n        /* \"#utility.yul\":7977:8039   */\n      mstore\n      shl(0xe8, 0x656e73)\n        /* \"#utility.yul\":8055:8073   */\n      0x64\n      dup3\n      add\n        /* \"#utility.yul\":8048:8081   */\n      mstore\n        /* \"#utility.yul\":8098:8117   */\n      0x84\n      add\n        /* \"contracts/insurance.sol\":2217:2309  require( IERC20(_USDC).approve(aaveAddress, amount), \"This contract has not enough tokens\" ) */\n      tag_94\n        /* \"#utility.yul\":7724:8123   */\n      jump\n        /* \"contracts/insurance.sol\":2217:2309  require( IERC20(_USDC).approve(aaveAddress, amount), \"This contract has not enough tokens\" ) */\n    tag_159:\n        /* \"contracts/insurance.sol\":2319:2327  poolAave */\n      sload(0x02)\n        /* \"contracts/insurance.sol\":2335:2340  _USDC */\n      sload(0x05)\n        /* \"contracts/insurance.sol\":2319:2367  poolAave.supply(_USDC, amount, address(this), 0) */\n      mload(0x40)\n      shl(0xe0, 0x617ba037)\n      dup2\n      mstore\n      sub(shl(0xa0, 0x01), 0x01)\n        /* \"contracts/insurance.sol\":2335:2340  _USDC */\n      swap2\n      dup3\n      and\n        /* \"contracts/insurance.sol\":2319:2367  poolAave.supply(_USDC, amount, address(this), 0) */\n      0x04\n      dup3\n      add\n        /* \"#utility.yul\":8404:8438   */\n      mstore\n        /* \"#utility.yul\":8454:8472   */\n      0x24\n      dup2\n      add\n        /* \"#utility.yul\":8447:8481   */\n      dup5\n      swap1\n      mstore\n        /* \"contracts/insurance.sol\":2358:2362  this */\n      address\n        /* \"#utility.yul\":8497:8515   */\n      0x44\n      dup3\n      add\n        /* \"#utility.yul\":8490:8533   */\n      mstore\n        /* \"contracts/insurance.sol\":2319:2327  poolAave */\n      0x00\n        /* \"#utility.yul\":8549:8567   */\n      0x64\n      dup3\n      add\n        /* \"#utility.yul\":8542:8589   */\n      mstore\n        /* \"contracts/insurance.sol\":2319:2327  poolAave */\n      swap2\n      and\n      swap1\n        /* \"contracts/insurance.sol\":2319:2334  poolAave.supply */\n      0x617ba037\n      swap1\n        /* \"#utility.yul\":8338:8357   */\n      0x84\n      add\n        /* \"contracts/insurance.sol\":2319:2367  poolAave.supply(_USDC, amount, address(this), 0) */\n      0x00\n      mload(0x40)\n      dup1\n      dup4\n      sub\n      dup2\n      0x00\n      dup8\n      dup1\n      extcodesize\n      iszero\n      dup1\n      iszero\n      tag_164\n      jumpi\n      0x00\n      dup1\n      revert\n    tag_164:\n      pop\n      gas\n      call\n      iszero\n      dup1\n      iszero\n      tag_166\n      jumpi\n      returndatasize\n      0x00\n      dup1\n      returndatacopy\n      revert(0x00, returndatasize)\n    tag_166:\n      pop\n      pop\n      pop\n      pop\n        /* \"contracts/insurance.sol\":2383:2407  totalSharesLoansPerAsset */\n      sload(0x03)\n        /* \"contracts/insurance.sol\":2411:2412  0 */\n      0x00\n        /* \"contracts/insurance.sol\":2383:2412  totalSharesLoansPerAsset == 0 */\n      sub\n        /* \"contracts/insurance.sol\":2378:2910  if ( totalSharesLoansPerAsset == 0 ) {... */\n      tag_167\n      jumpi\n      sub(shl(0xa0, 0x01), 0x01)\n        /* \"contracts/insurance.sol\":2429:2449  sharesLoans[account] */\n      dup3\n      and\n      0x00\n      swap1\n      dup2\n      mstore\n        /* \"contracts/insurance.sol\":2429:2440  sharesLoans */\n      0x07\n        /* \"contracts/insurance.sol\":2429:2449  sharesLoans[account] */\n      0x20\n      mstore\n      0x40\n      dup2\n      keccak256\n        /* \"contracts/insurance.sol\":2429:2459  sharesLoans[account] += amount */\n      dup1\n      sload\n        /* \"contracts/insurance.sol\":2453:2459  amount */\n      dup4\n      swap3\n        /* \"contracts/insurance.sol\":2429:2449  sharesLoans[account] */\n      swap1\n        /* \"contracts/insurance.sol\":2429:2459  sharesLoans[account] += amount */\n      tag_168\n      swap1\n        /* \"contracts/insurance.sol\":2453:2459  amount */\n      dup5\n      swap1\n        /* \"contracts/insurance.sol\":2429:2459  sharesLoans[account] += amount */\n      tag_118\n      jump\t// in\n    tag_168:\n      swap3\n      pop\n      pop\n      dup2\n      swap1\n      sstore\n      pop\n        /* \"contracts/insurance.sol\":2501:2507  amount */\n      dup1\n        /* \"contracts/insurance.sol\":2473:2497  totalSharesLoansPerAsset */\n      0x03\n      0x00\n        /* \"contracts/insurance.sol\":2473:2507  totalSharesLoansPerAsset += amount */\n      dup3\n      dup3\n      sload\n      tag_169\n      swap2\n      swap1\n      tag_118\n      jump\t// in\n    tag_169:\n      swap1\n      swap2\n      sstore\n      pop\n        /* \"contracts/insurance.sol\":2378:2910  if ( totalSharesLoansPerAsset == 0 ) {... */\n      tag_119\n      swap1\n      pop\n      jump\n    tag_167:\n        /* \"contracts/insurance.sol\":2563:2571  poolAave */\n      sload(0x02)\n        /* \"contracts/insurance.sol\":2587:2592  _USDC */\n      sload(0x05)\n        /* \"contracts/insurance.sol\":2563:2593  poolAave.getReserveData(_USDC) */\n      mload(0x40)\n      shl(0xe0, 0x35ea6a75)\n      dup2\n      mstore\n      sub(shl(0xa0, 0x01), 0x01)\n        /* \"contracts/insurance.sol\":2587:2592  _USDC */\n      swap2\n      dup3\n      and\n        /* \"contracts/insurance.sol\":2563:2593  poolAave.getReserveData(_USDC) */\n      0x04\n      dup3\n      add\n        /* \"#utility.yul\":730:781   */\n      mstore\n        /* \"contracts/insurance.sol\":2538:2559  address aTokenAddress */\n      0x00\n      swap3\n        /* \"contracts/insurance.sol\":2563:2571  poolAave */\n      swap2\n      swap1\n      swap2\n      and\n      swap1\n        /* \"contracts/insurance.sol\":2563:2586  poolAave.getReserveData */\n      0x35ea6a75\n      swap1\n        /* \"#utility.yul\":703:721   */\n      0x24\n      add\n        /* \"contracts/insurance.sol\":2563:2593  poolAave.getReserveData(_USDC) */\n      0x01e0\n      mload(0x40)\n      dup1\n      dup4\n      sub\n      dup2\n      dup7\n      gas\n      staticcall\n      iszero\n      dup1\n      iszero\n      tag_173\n      jumpi\n      returndatasize\n      0x00\n      dup1\n      returndatacopy\n      revert(0x00, returndatasize)\n    tag_173:\n      pop\n      pop\n      pop\n      pop\n      mload(0x40)\n      returndatasize\n      not(0x1f)\n      0x1f\n      dup3\n      add\n      and\n      dup3\n      add\n      dup1\n      0x40\n      mstore\n      pop\n      dup2\n      add\n      swap1\n      tag_174\n      swap2\n      swap1\n      tag_68\n      jump\t// in\n    tag_174:\n        /* \"contracts/insurance.sol\":2562:2608  (poolAave.getReserveData(_USDC)).aTokenAddress */\n      0x0100\n      add\n      mload\n        /* \"contracts/insurance.sol\":2647:2695  IERC20(aTokenAddress).balanceOf( address(this) ) */\n      mload(0x40)\n      shl(0xe0, 0x70a08231)\n      dup2\n      mstore\n        /* \"contracts/insurance.sol\":2688:2692  this */\n      address\n        /* \"contracts/insurance.sol\":2647:2695  IERC20(aTokenAddress).balanceOf( address(this) ) */\n      0x04\n      dup3\n      add\n        /* \"#utility.yul\":730:781   */\n      mstore\n        /* \"contracts/insurance.sol\":2562:2608  (poolAave.getReserveData(_USDC)).aTokenAddress */\n      swap1\n      swap2\n      pop\n        /* \"contracts/insurance.sol\":2622:2644  uint256 currentBalance */\n      0x00\n      swap1\n      sub(shl(0xa0, 0x01), 0x01)\n        /* \"contracts/insurance.sol\":2647:2678  IERC20(aTokenAddress).balanceOf */\n      dup4\n      and\n      swap1\n      0x70a08231\n      swap1\n        /* \"#utility.yul\":703:721   */\n      0x24\n      add\n        /* \"contracts/insurance.sol\":2647:2695  IERC20(aTokenAddress).balanceOf( address(this) ) */\n      0x20\n      mload(0x40)\n      dup1\n      dup4\n      sub\n      dup2\n      dup7\n      gas\n      staticcall\n      iszero\n      dup1\n      iszero\n      tag_177\n      jumpi\n      returndatasize\n      0x00\n      dup1\n      returndatacopy\n      revert(0x00, returndatasize)\n    tag_177:\n      pop\n      pop\n      pop\n      pop\n      mload(0x40)\n      returndatasize\n      not(0x1f)\n      0x1f\n      dup3\n      add\n      and\n      dup3\n      add\n      dup1\n      0x40\n      mstore\n      pop\n      dup2\n      add\n      swap1\n      tag_178\n      swap2\n      swap1\n      tag_107\n      jump\t// in\n    tag_178:\n        /* \"contracts/insurance.sol\":2622:2695  uint256 currentBalance = IERC20(aTokenAddress).balanceOf( address(this) ) */\n      swap1\n      pop\n        /* \"contracts/insurance.sol\":2709:2729  uint256 amountShares */\n      0x00\n        /* \"contracts/insurance.sol\":2732:2795  Math.mulDiv( amount, totalSharesLoansPerAsset, currentBalance ) */\n      tag_179\n        /* \"contracts/insurance.sol\":2745:2751  amount */\n      dup5\n        /* \"contracts/insurance.sol\":2753:2777  totalSharesLoansPerAsset */\n      sload(0x03)\n        /* \"contracts/insurance.sol\":2779:2793  currentBalance */\n      dup5\n        /* \"contracts/insurance.sol\":2732:2743  Math.mulDiv */\n      tag_145\n        /* \"contracts/insurance.sol\":2732:2795  Math.mulDiv( amount, totalSharesLoansPerAsset, currentBalance ) */\n      jump\t// in\n    tag_179:\n      sub(shl(0xa0, 0x01), 0x01)\n        /* \"contracts/insurance.sol\":2809:2829  sharesLoans[account] */\n      dup7\n      and\n      0x00\n      swap1\n      dup2\n      mstore\n        /* \"contracts/insurance.sol\":2809:2820  sharesLoans */\n      0x07\n        /* \"contracts/insurance.sol\":2809:2829  sharesLoans[account] */\n      0x20\n      mstore\n      0x40\n      dup2\n      keccak256\n        /* \"contracts/insurance.sol\":2809:2845  sharesLoans[account] += amountShares */\n      dup1\n      sload\n        /* \"contracts/insurance.sol\":2709:2795  uint256 amountShares = Math.mulDiv( amount, totalSharesLoansPerAsset, currentBalance ) */\n      swap3\n      swap4\n      pop\n      dup4\n      swap3\n        /* \"contracts/insurance.sol\":2809:2829  sharesLoans[account] */\n      swap1\n      swap2\n      swap1\n        /* \"contracts/insurance.sol\":2809:2845  sharesLoans[account] += amountShares */\n      tag_180\n      swap1\n        /* \"contracts/insurance.sol\":2709:2795  uint256 amountShares = Math.mulDiv( amount, totalSharesLoansPerAsset, currentBalance ) */\n      dup5\n      swap1\n        /* \"contracts/insurance.sol\":2809:2845  sharesLoans[account] += amountShares */\n      tag_118\n      jump\t// in\n    tag_180:\n      swap3\n      pop\n      pop\n      dup2\n      swap1\n      sstore\n      pop\n        /* \"contracts/insurance.sol\":2887:2899  amountShares */\n      dup1\n        /* \"contracts/insurance.sol\":2859:2883  totalSharesLoansPerAsset */\n      0x03\n      0x00\n        /* \"contracts/insurance.sol\":2859:2899  totalSharesLoansPerAsset += amountShares */\n      dup3\n      dup3\n      sload\n      tag_181\n      swap2\n      swap1\n      tag_118\n      jump\t// in\n    tag_181:\n      swap1\n      swap2\n      sstore\n      pop\n      pop\n      pop\n      pop\n      pop\n        /* \"contracts/insurance.sol\":2141:2917  function supplyLendToken(address account, uint256 amount) private {... */\n      pop\n      pop\n      jump\t// out\n        /* \"@openzeppelin/contracts/utils/math/Math.sol\":1667:5880  function mulDiv(uint256 x, uint256 y, uint256 denominator) internal pure returns (uint256 result) {... */\n    tag_145:\n        /* \"@openzeppelin/contracts/utils/math/Math.sol\":1749:1763  uint256 result */\n      0x00\n      dup1\n      dup1\n      not(0x00)\n        /* \"@openzeppelin/contracts/utils/math/Math.sol\":2286:2287  y */\n      dup6\n        /* \"@openzeppelin/contracts/utils/math/Math.sol\":2283:2284  x */\n      dup8\n        /* \"@openzeppelin/contracts/utils/math/Math.sol\":2276:2296  mulmod(x, y, not(0)) */\n      mulmod\n        /* \"@openzeppelin/contracts/utils/math/Math.sol\":2329:2330  y */\n      dup6\n        /* \"@openzeppelin/contracts/utils/math/Math.sol\":2326:2327  x */\n      dup8\n        /* \"@openzeppelin/contracts/utils/math/Math.sol\":2322:2331  mul(x, y) */\n      mul\n        /* \"@openzeppelin/contracts/utils/math/Math.sol\":2313:2331  prod0 := mul(x, y) */\n      swap3\n      pop\n        /* \"@openzeppelin/contracts/utils/math/Math.sol\":2384:2389  prod0 */\n      dup3\n        /* \"@openzeppelin/contracts/utils/math/Math.sol\":2380:2382  mm */\n      dup2\n        /* \"@openzeppelin/contracts/utils/math/Math.sol\":2377:2390  lt(mm, prod0) */\n      lt\n        /* \"@openzeppelin/contracts/utils/math/Math.sol\":2369:2374  prod0 */\n      dup4\n        /* \"@openzeppelin/contracts/utils/math/Math.sol\":2365:2367  mm */\n      dup3\n        /* \"@openzeppelin/contracts/utils/math/Math.sol\":2361:2375  sub(mm, prod0) */\n      sub\n        /* \"@openzeppelin/contracts/utils/math/Math.sol\":2357:2391  sub(sub(mm, prod0), lt(mm, prod0)) */\n      sub\n        /* \"@openzeppelin/contracts/utils/math/Math.sol\":2348:2391  prod1 := sub(sub(mm, prod0), lt(mm, prod0)) */\n      swap2\n      pop\n      pop\n        /* \"@openzeppelin/contracts/utils/math/Math.sol\":2486:2491  prod1 */\n      dup1\n        /* \"@openzeppelin/contracts/utils/math/Math.sol\":2495:2496  0 */\n      0x00\n        /* \"@openzeppelin/contracts/utils/math/Math.sol\":2486:2496  prod1 == 0 */\n      sub\n        /* \"@openzeppelin/contracts/utils/math/Math.sol\":2482:2850  if (prod1 == 0) {... */\n      tag_184\n      jumpi\n        /* \"@openzeppelin/contracts/utils/math/Math.sol\":2824:2835  denominator */\n      dup4\n        /* \"@openzeppelin/contracts/utils/math/Math.sol\":2816:2821  prod0 */\n      dup3\n        /* \"@openzeppelin/contracts/utils/math/Math.sol\":2816:2835  prod0 / denominator */\n      dup2\n      tag_186\n      jumpi\n      tag_186\n      tag_187\n      jump\t// in\n    tag_186:\n      div\n        /* \"@openzeppelin/contracts/utils/math/Math.sol\":2809:2835  return prod0 / denominator */\n      swap3\n      pop\n      pop\n      pop\n      jump(tag_183)\n        /* \"@openzeppelin/contracts/utils/math/Math.sol\":2482:2850  if (prod1 == 0) {... */\n    tag_184:\n        /* \"@openzeppelin/contracts/utils/math/Math.sol\":2974:2979  prod1 */\n      dup1\n        /* \"@openzeppelin/contracts/utils/math/Math.sol\":2960:2971  denominator */\n      dup5\n        /* \"@openzeppelin/contracts/utils/math/Math.sol\":2960:2979  denominator > prod1 */\n      gt\n        /* \"@openzeppelin/contracts/utils/math/Math.sol\":2952:3005  require(denominator > prod1, \"Math: mulDiv overflow\") */\n      tag_188\n      jumpi\n      mload(0x40)\n      shl(0xe5, 0x461bcd)\n      dup2\n      mstore\n        /* \"#utility.yul\":8934:8936   */\n      0x20\n        /* \"@openzeppelin/contracts/utils/math/Math.sol\":2952:3005  require(denominator > prod1, \"Math: mulDiv overflow\") */\n      0x04\n      dup3\n      add\n        /* \"#utility.yul\":8916:8937   */\n      mstore\n        /* \"#utility.yul\":8973:8975   */\n      0x15\n        /* \"#utility.yul\":8953:8971   */\n      0x24\n      dup3\n      add\n        /* \"#utility.yul\":8946:8976   */\n      mstore\n      shl(0x58, 0x4d6174683a206d756c446976206f766572666c6f77)\n        /* \"#utility.yul\":8992:9010   */\n      0x44\n      dup3\n      add\n        /* \"#utility.yul\":8985:9036   */\n      mstore\n        /* \"#utility.yul\":9053:9071   */\n      0x64\n      add\n        /* \"@openzeppelin/contracts/utils/math/Math.sol\":2952:3005  require(denominator > prod1, \"Math: mulDiv overflow\") */\n      tag_94\n        /* \"#utility.yul\":8732:9077   */\n      jump\n        /* \"@openzeppelin/contracts/utils/math/Math.sol\":2952:3005  require(denominator > prod1, \"Math: mulDiv overflow\") */\n    tag_188:\n        /* \"@openzeppelin/contracts/utils/math/Math.sol\":3261:3278  uint256 remainder */\n      0x00\n        /* \"@openzeppelin/contracts/utils/math/Math.sol\":3396:3407  denominator */\n      dup5\n        /* \"@openzeppelin/contracts/utils/math/Math.sol\":3393:3394  y */\n      dup7\n        /* \"@openzeppelin/contracts/utils/math/Math.sol\":3390:3391  x */\n      dup9\n        /* \"@openzeppelin/contracts/utils/math/Math.sol\":3383:3408  mulmod(x, y, denominator) */\n      mulmod\n        /* \"@openzeppelin/contracts/utils/math/Math.sol\":3929:3941  ~denominator */\n      dup6\n      not\n        /* \"@openzeppelin/contracts/utils/math/Math.sol\":3944:3945  1 */\n      0x01\n        /* \"@openzeppelin/contracts/utils/math/Math.sol\":3929:3945  ~denominator + 1 */\n      swap1\n      dup2\n      add\n        /* \"@openzeppelin/contracts/utils/math/Math.sol\":3914:3946  denominator & (~denominator + 1) */\n      dup8\n      and\n        /* \"@openzeppelin/contracts/utils/math/Math.sol\":4049:4071  div(denominator, twos) */\n      swap7\n      dup8\n      swap1\n      div\n      swap7\n        /* \"@openzeppelin/contracts/utils/math/Math.sol\":3557:3578  sub(prod0, remainder) */\n      dup3\n      dup7\n      sub\n        /* \"@openzeppelin/contracts/utils/math/Math.sol\":4147:4163  div(prod0, twos) */\n      dup2\n      swap1\n      div\n        /* \"@openzeppelin/contracts/utils/math/Math.sol\":3510:3530  gt(remainder, prod0) */\n      swap6\n      swap1\n      swap3\n      gt\n        /* \"@openzeppelin/contracts/utils/math/Math.sol\":3499:3531  sub(prod1, gt(remainder, prod0)) */\n      swap1\n      swap4\n      sub\n        /* \"@openzeppelin/contracts/utils/math/Math.sol\":3899:3911  uint256 twos */\n      0x00\n        /* \"@openzeppelin/contracts/utils/math/Math.sol\":4294:4306  sub(0, twos) */\n      dup3\n      swap1\n      sub\n        /* \"@openzeppelin/contracts/utils/math/Math.sol\":4290:4313  div(sub(0, twos), twos) */\n      swap2\n      swap1\n      swap2\n      div\n        /* \"@openzeppelin/contracts/utils/math/Math.sol\":4286:4317  add(div(sub(0, twos), twos), 1) */\n      swap1\n      swap3\n      add\n        /* \"@openzeppelin/contracts/utils/math/Math.sol\":4406:4418  prod1 * twos */\n      swap2\n      swap1\n      swap2\n      mul\n        /* \"@openzeppelin/contracts/utils/math/Math.sol\":4397:4418  prod0 |= prod1 * twos */\n      swap2\n      swap1\n      swap2\n      or\n        /* \"@openzeppelin/contracts/utils/math/Math.sol\":4755:4756  3 */\n      0x03\n        /* \"@openzeppelin/contracts/utils/math/Math.sol\":4755:4770  3 * denominator */\n      dup5\n      mul\n        /* \"@openzeppelin/contracts/utils/math/Math.sol\":4774:4775  2 */\n      0x02\n        /* \"@openzeppelin/contracts/utils/math/Math.sol\":4754:4775  (3 * denominator) ^ 2 */\n      swap1\n      dup2\n      xor\n        /* \"@openzeppelin/contracts/utils/math/Math.sol\":5007:5028  denominator * inverse */\n      dup1\n      dup7\n      mul\n        /* \"@openzeppelin/contracts/utils/math/Math.sol\":5003:5028  2 - denominator * inverse */\n      dup3\n      sub\n        /* \"@openzeppelin/contracts/utils/math/Math.sol\":4992:5028  inverse *= 2 - denominator * inverse */\n      mul\n        /* \"@openzeppelin/contracts/utils/math/Math.sol\":5076:5097  denominator * inverse */\n      dup1\n      dup7\n      mul\n        /* \"@openzeppelin/contracts/utils/math/Math.sol\":5072:5097  2 - denominator * inverse */\n      dup3\n      sub\n        /* \"@openzeppelin/contracts/utils/math/Math.sol\":5061:5097  inverse *= 2 - denominator * inverse */\n      mul\n        /* \"@openzeppelin/contracts/utils/math/Math.sol\":5146:5167  denominator * inverse */\n      dup1\n      dup7\n      mul\n        /* \"@openzeppelin/contracts/utils/math/Math.sol\":5142:5167  2 - denominator * inverse */\n      dup3\n      sub\n        /* \"@openzeppelin/contracts/utils/math/Math.sol\":5131:5167  inverse *= 2 - denominator * inverse */\n      mul\n        /* \"@openzeppelin/contracts/utils/math/Math.sol\":5216:5237  denominator * inverse */\n      dup1\n      dup7\n      mul\n        /* \"@openzeppelin/contracts/utils/math/Math.sol\":5212:5237  2 - denominator * inverse */\n      dup3\n      sub\n        /* \"@openzeppelin/contracts/utils/math/Math.sol\":5201:5237  inverse *= 2 - denominator * inverse */\n      mul\n        /* \"@openzeppelin/contracts/utils/math/Math.sol\":5286:5307  denominator * inverse */\n      dup1\n      dup7\n      mul\n        /* \"@openzeppelin/contracts/utils/math/Math.sol\":5282:5307  2 - denominator * inverse */\n      dup3\n      sub\n        /* \"@openzeppelin/contracts/utils/math/Math.sol\":5271:5307  inverse *= 2 - denominator * inverse */\n      mul\n        /* \"@openzeppelin/contracts/utils/math/Math.sol\":5357:5378  denominator * inverse */\n      dup1\n      dup7\n      mul\n        /* \"@openzeppelin/contracts/utils/math/Math.sol\":5353:5378  2 - denominator * inverse */\n      swap1\n      swap2\n      sub\n        /* \"@openzeppelin/contracts/utils/math/Math.sol\":5342:5378  inverse *= 2 - denominator * inverse */\n      mul\n        /* \"@openzeppelin/contracts/utils/math/Math.sol\":5821:5836  prod0 * inverse */\n      mul\n      swap2\n      pop\n      pop\n        /* \"@openzeppelin/contracts/utils/math/Math.sol\":1667:5880  function mulDiv(uint256 x, uint256 y, uint256 denominator) internal pure returns (uint256 result) {... */\n    tag_183:\n      swap4\n      swap3\n      pop\n      pop\n      pop\n      jump\t// out\n        /* \"#utility.yul\":14:145   */\n    tag_191:\n      sub(shl(0xa0, 0x01), 0x01)\n        /* \"#utility.yul\":89:120   */\n      dup2\n      and\n        /* \"#utility.yul\":79:121   */\n      dup2\n      eq\n        /* \"#utility.yul\":69:139   */\n      tag_96\n      jumpi\n        /* \"#utility.yul\":135:136   */\n      0x00\n        /* \"#utility.yul\":132:133   */\n      dup1\n        /* \"#utility.yul\":125:137   */\n      revert\n        /* \"#utility.yul\":150:397   */\n    tag_18:\n        /* \"#utility.yul\":209:215   */\n      0x00\n        /* \"#utility.yul\":262:264   */\n      0x20\n        /* \"#utility.yul\":250:259   */\n      dup3\n        /* \"#utility.yul\":241:248   */\n      dup5\n        /* \"#utility.yul\":237:260   */\n      sub\n        /* \"#utility.yul\":233:265   */\n      slt\n        /* \"#utility.yul\":230:282   */\n      iszero\n      tag_203\n      jumpi\n        /* \"#utility.yul\":278:279   */\n      0x00\n        /* \"#utility.yul\":275:276   */\n      dup1\n        /* \"#utility.yul\":268:280   */\n      revert\n        /* \"#utility.yul\":230:282   */\n    tag_203:\n        /* \"#utility.yul\":317:326   */\n      dup2\n        /* \"#utility.yul\":304:327   */\n      calldataload\n        /* \"#utility.yul\":336:367   */\n      tag_183\n        /* \"#utility.yul\":361:366   */\n      dup2\n        /* \"#utility.yul\":336:367   */\n      tag_191\n      jump\t// in\n        /* \"#utility.yul\":792:972   */\n    tag_33:\n        /* \"#utility.yul\":851:857   */\n      0x00\n        /* \"#utility.yul\":904:906   */\n      0x20\n        /* \"#utility.yul\":892:901   */\n      dup3\n        /* \"#utility.yul\":883:890   */\n      dup5\n        /* \"#utility.yul\":879:902   */\n      sub\n        /* \"#utility.yul\":875:907   */\n      slt\n        /* \"#utility.yul\":872:924   */\n      iszero\n      tag_208\n      jumpi\n        /* \"#utility.yul\":920:921   */\n      0x00\n        /* \"#utility.yul\":917:918   */\n      dup1\n        /* \"#utility.yul\":910:922   */\n      revert\n        /* \"#utility.yul\":872:924   */\n    tag_208:\n      pop\n        /* \"#utility.yul\":943:966   */\n      calldataload\n      swap2\n        /* \"#utility.yul\":792:972   */\n      swap1\n      pop\n      jump\t// out\n        /* \"#utility.yul\":977:1321   */\n    tag_192:\n        /* \"#utility.yul\":1044:1046   */\n      0x40\n        /* \"#utility.yul\":1038:1047   */\n      mload\n        /* \"#utility.yul\":1086:1089   */\n      0x01e0\n        /* \"#utility.yul\":1074:1090   */\n      dup2\n      add\n        /* \"#utility.yul\":1120:1138   */\n      0xffffffffffffffff\n        /* \"#utility.yul\":1105:1139   */\n      dup2\n      gt\n        /* \"#utility.yul\":1141:1163   */\n      dup3\n      dup3\n      lt\n        /* \"#utility.yul\":1102:1164   */\n      or\n        /* \"#utility.yul\":1099:1284   */\n      iszero\n      tag_210\n      jumpi\n        /* \"#utility.yul\":1206:1216   */\n      0x4e487b71\n        /* \"#utility.yul\":1201:1204   */\n      0xe0\n        /* \"#utility.yul\":1197:1217   */\n      shl\n        /* \"#utility.yul\":1194:1195   */\n      0x00\n        /* \"#utility.yul\":1187:1218   */\n      mstore\n        /* \"#utility.yul\":1241:1245   */\n      0x41\n        /* \"#utility.yul\":1238:1239   */\n      0x04\n        /* \"#utility.yul\":1231:1246   */\n      mstore\n        /* \"#utility.yul\":1269:1273   */\n      0x24\n        /* \"#utility.yul\":1266:1267   */\n      0x00\n        /* \"#utility.yul\":1259:1274   */\n      revert\n        /* \"#utility.yul\":1099:1284   */\n    tag_210:\n        /* \"#utility.yul\":1300:1302   */\n      0x40\n        /* \"#utility.yul\":1293:1315   */\n      mstore\n        /* \"#utility.yul\":977:1321   */\n      swap1\n      jump\t// out\n        /* \"#utility.yul\":1326:1849   */\n    tag_193:\n        /* \"#utility.yul\":1407:1412   */\n      0x00\n        /* \"#utility.yul\":1455:1459   */\n      0x20\n        /* \"#utility.yul\":1443:1452   */\n      dup3\n        /* \"#utility.yul\":1438:1441   */\n      dup5\n        /* \"#utility.yul\":1434:1453   */\n      sub\n        /* \"#utility.yul\":1430:1460   */\n      slt\n        /* \"#utility.yul\":1427:1477   */\n      iszero\n      tag_212\n      jumpi\n        /* \"#utility.yul\":1473:1474   */\n      0x00\n        /* \"#utility.yul\":1470:1471   */\n      dup1\n        /* \"#utility.yul\":1463:1475   */\n      revert\n        /* \"#utility.yul\":1427:1477   */\n    tag_212:\n        /* \"#utility.yul\":1506:1508   */\n      0x40\n        /* \"#utility.yul\":1500:1509   */\n      mload\n        /* \"#utility.yul\":1548:1552   */\n      0x20\n        /* \"#utility.yul\":1540:1546   */\n      dup2\n        /* \"#utility.yul\":1536:1553   */\n      add\n        /* \"#utility.yul\":1619:1625   */\n      dup2\n        /* \"#utility.yul\":1607:1617   */\n      dup2\n        /* \"#utility.yul\":1604:1626   */\n      lt\n        /* \"#utility.yul\":1583:1601   */\n      0xffffffffffffffff\n        /* \"#utility.yul\":1571:1581   */\n      dup3\n        /* \"#utility.yul\":1568:1602   */\n      gt\n        /* \"#utility.yul\":1565:1627   */\n      or\n        /* \"#utility.yul\":1562:1747   */\n      iszero\n      tag_213\n      jumpi\n        /* \"#utility.yul\":1669:1679   */\n      0x4e487b71\n        /* \"#utility.yul\":1664:1667   */\n      0xe0\n        /* \"#utility.yul\":1660:1680   */\n      shl\n        /* \"#utility.yul\":1657:1658   */\n      0x00\n        /* \"#utility.yul\":1650:1681   */\n      mstore\n        /* \"#utility.yul\":1704:1708   */\n      0x41\n        /* \"#utility.yul\":1701:1702   */\n      0x04\n        /* \"#utility.yul\":1694:1709   */\n      mstore\n        /* \"#utility.yul\":1732:1736   */\n      0x24\n        /* \"#utility.yul\":1729:1730   */\n      0x00\n        /* \"#utility.yul\":1722:1737   */\n      revert\n        /* \"#utility.yul\":1562:1747   */\n    tag_213:\n        /* \"#utility.yul\":1763:1765   */\n      0x40\n        /* \"#utility.yul\":1756:1778   */\n      mstore\n        /* \"#utility.yul\":1826:1842   */\n      swap2\n      mload\n        /* \"#utility.yul\":1811:1843   */\n      dup3\n      mstore\n      pop\n        /* \"#utility.yul\":1796:1802   */\n      swap2\n        /* \"#utility.yul\":1326:1849   */\n      swap1\n      pop\n      jump\t// out\n        /* \"#utility.yul\":1854:2046   */\n    tag_194:\n        /* \"#utility.yul\":1933:1946   */\n      dup1\n      mload\n        /* \"#utility.yul\":1986:2020   */\n      0xffffffffffffffffffffffffffffffff\n        /* \"#utility.yul\":1975:2021   */\n      dup2\n      and\n        /* \"#utility.yul\":1965:2022   */\n      dup2\n      eq\n        /* \"#utility.yul\":1955:2040   */\n      tag_215\n      jumpi\n        /* \"#utility.yul\":2036:2037   */\n      0x00\n        /* \"#utility.yul\":2033:2034   */\n      dup1\n        /* \"#utility.yul\":2026:2038   */\n      revert\n        /* \"#utility.yul\":1955:2040   */\n    tag_215:\n        /* \"#utility.yul\":1854:2046   */\n      swap2\n      swap1\n      pop\n      jump\t// out\n        /* \"#utility.yul\":2051:2220   */\n    tag_195:\n        /* \"#utility.yul\":2129:2142   */\n      dup1\n      mload\n        /* \"#utility.yul\":2182:2194   */\n      0xffffffffff\n        /* \"#utility.yul\":2171:2195   */\n      dup2\n      and\n        /* \"#utility.yul\":2161:2196   */\n      dup2\n      eq\n        /* \"#utility.yul\":2151:2214   */\n      tag_215\n      jumpi\n        /* \"#utility.yul\":2210:2211   */\n      0x00\n        /* \"#utility.yul\":2207:2208   */\n      dup1\n        /* \"#utility.yul\":2200:2212   */\n      revert\n        /* \"#utility.yul\":2225:2388   */\n    tag_196:\n        /* \"#utility.yul\":2303:2316   */\n      dup1\n      mload\n        /* \"#utility.yul\":2356:2362   */\n      0xffff\n        /* \"#utility.yul\":2345:2363   */\n      dup2\n      and\n        /* \"#utility.yul\":2335:2364   */\n      dup2\n      eq\n        /* \"#utility.yul\":2325:2382   */\n      tag_215\n      jumpi\n        /* \"#utility.yul\":2378:2379   */\n      0x00\n        /* \"#utility.yul\":2375:2376   */\n      dup1\n        /* \"#utility.yul\":2368:2380   */\n      revert\n        /* \"#utility.yul\":2393:2531   */\n    tag_197:\n        /* \"#utility.yul\":2472:2485   */\n      dup1\n      mload\n        /* \"#utility.yul\":2494:2525   */\n      tag_215\n        /* \"#utility.yul\":2472:2485   */\n      dup2\n        /* \"#utility.yul\":2494:2525   */\n      tag_191\n      jump\t// in\n        /* \"#utility.yul\":2536:4181   */\n    tag_68:\n        /* \"#utility.yul\":2634:2640   */\n      0x00\n        /* \"#utility.yul\":2687:2690   */\n      0x01e0\n        /* \"#utility.yul\":2675:2684   */\n      dup3\n        /* \"#utility.yul\":2666:2673   */\n      dup5\n        /* \"#utility.yul\":2662:2685   */\n      sub\n        /* \"#utility.yul\":2658:2691   */\n      slt\n        /* \"#utility.yul\":2655:2708   */\n      iszero\n      tag_223\n      jumpi\n        /* \"#utility.yul\":2704:2705   */\n      0x00\n        /* \"#utility.yul\":2701:2702   */\n      dup1\n        /* \"#utility.yul\":2694:2706   */\n      revert\n        /* \"#utility.yul\":2655:2708   */\n    tag_223:\n        /* \"#utility.yul\":2730:2747   */\n      tag_224\n      tag_192\n      jump\t// in\n    tag_224:\n        /* \"#utility.yul\":2770:2842   */\n      tag_225\n        /* \"#utility.yul\":2834:2841   */\n      dup5\n        /* \"#utility.yul\":2823:2832   */\n      dup5\n        /* \"#utility.yul\":2770:2842   */\n      tag_193\n      jump\t// in\n    tag_225:\n        /* \"#utility.yul\":2763:2768   */\n      dup2\n        /* \"#utility.yul\":2756:2843   */\n      mstore\n        /* \"#utility.yul\":2875:2924   */\n      tag_226\n        /* \"#utility.yul\":2920:2922   */\n      0x20\n        /* \"#utility.yul\":2909:2918   */\n      dup5\n        /* \"#utility.yul\":2905:2923   */\n      add\n        /* \"#utility.yul\":2875:2924   */\n      tag_194\n      jump\t// in\n    tag_226:\n        /* \"#utility.yul\":2870:2872   */\n      0x20\n        /* \"#utility.yul\":2863:2868   */\n      dup3\n        /* \"#utility.yul\":2859:2873   */\n      add\n        /* \"#utility.yul\":2852:2925   */\n      mstore\n        /* \"#utility.yul\":2957:3006   */\n      tag_227\n        /* \"#utility.yul\":3002:3004   */\n      0x40\n        /* \"#utility.yul\":2991:3000   */\n      dup5\n        /* \"#utility.yul\":2987:3005   */\n      add\n        /* \"#utility.yul\":2957:3006   */\n      tag_194\n      jump\t// in\n    tag_227:\n        /* \"#utility.yul\":2952:2954   */\n      0x40\n        /* \"#utility.yul\":2945:2950   */\n      dup3\n        /* \"#utility.yul\":2941:2955   */\n      add\n        /* \"#utility.yul\":2934:3007   */\n      mstore\n        /* \"#utility.yul\":3039:3088   */\n      tag_228\n        /* \"#utility.yul\":3084:3086   */\n      0x60\n        /* \"#utility.yul\":3073:3082   */\n      dup5\n        /* \"#utility.yul\":3069:3087   */\n      add\n        /* \"#utility.yul\":3039:3088   */\n      tag_194\n      jump\t// in\n    tag_228:\n        /* \"#utility.yul\":3034:3036   */\n      0x60\n        /* \"#utility.yul\":3027:3032   */\n      dup3\n        /* \"#utility.yul\":3023:3037   */\n      add\n        /* \"#utility.yul\":3016:3089   */\n      mstore\n        /* \"#utility.yul\":3122:3172   */\n      tag_229\n        /* \"#utility.yul\":3167:3170   */\n      0x80\n        /* \"#utility.yul\":3156:3165   */\n      dup5\n        /* \"#utility.yul\":3152:3171   */\n      add\n        /* \"#utility.yul\":3122:3172   */\n      tag_194\n      jump\t// in\n    tag_229:\n        /* \"#utility.yul\":3116:3119   */\n      0x80\n        /* \"#utility.yul\":3109:3114   */\n      dup3\n        /* \"#utility.yul\":3105:3120   */\n      add\n        /* \"#utility.yul\":3098:3173   */\n      mstore\n        /* \"#utility.yul\":3206:3256   */\n      tag_230\n        /* \"#utility.yul\":3251:3254   */\n      0xa0\n        /* \"#utility.yul\":3240:3249   */\n      dup5\n        /* \"#utility.yul\":3236:3255   */\n      add\n        /* \"#utility.yul\":3206:3256   */\n      tag_194\n      jump\t// in\n    tag_230:\n        /* \"#utility.yul\":3200:3203   */\n      0xa0\n        /* \"#utility.yul\":3193:3198   */\n      dup3\n        /* \"#utility.yul\":3189:3204   */\n      add\n        /* \"#utility.yul\":3182:3257   */\n      mstore\n        /* \"#utility.yul\":3290:3339   */\n      tag_231\n        /* \"#utility.yul\":3334:3337   */\n      0xc0\n        /* \"#utility.yul\":3323:3332   */\n      dup5\n        /* \"#utility.yul\":3319:3338   */\n      add\n        /* \"#utility.yul\":3290:3339   */\n      tag_195\n      jump\t// in\n    tag_231:\n        /* \"#utility.yul\":3284:3287   */\n      0xc0\n        /* \"#utility.yul\":3277:3282   */\n      dup3\n        /* \"#utility.yul\":3273:3288   */\n      add\n        /* \"#utility.yul\":3266:3340   */\n      mstore\n        /* \"#utility.yul\":3373:3422   */\n      tag_232\n        /* \"#utility.yul\":3417:3420   */\n      0xe0\n        /* \"#utility.yul\":3406:3415   */\n      dup5\n        /* \"#utility.yul\":3402:3421   */\n      add\n        /* \"#utility.yul\":3373:3422   */\n      tag_196\n      jump\t// in\n    tag_232:\n        /* \"#utility.yul\":3367:3370   */\n      0xe0\n        /* \"#utility.yul\":3360:3365   */\n      dup3\n        /* \"#utility.yul\":3356:3371   */\n      add\n        /* \"#utility.yul\":3349:3423   */\n      mstore\n        /* \"#utility.yul\":3442:3445   */\n      0x0100\n        /* \"#utility.yul\":3477:3526   */\n      tag_233\n        /* \"#utility.yul\":3522:3524   */\n      dup2\n        /* \"#utility.yul\":3511:3520   */\n      dup6\n        /* \"#utility.yul\":3507:3525   */\n      add\n        /* \"#utility.yul\":3477:3526   */\n      tag_197\n      jump\t// in\n    tag_233:\n        /* \"#utility.yul\":3461:3475   */\n      swap1\n      dup3\n      add\n        /* \"#utility.yul\":3454:3527   */\n      mstore\n        /* \"#utility.yul\":3546:3549   */\n      0x0120\n        /* \"#utility.yul\":3581:3630   */\n      tag_234\n        /* \"#utility.yul\":3611:3629   */\n      dup5\n      dup3\n      add\n        /* \"#utility.yul\":3581:3630   */\n      tag_197\n      jump\t// in\n    tag_234:\n        /* \"#utility.yul\":3565:3579   */\n      swap1\n      dup3\n      add\n        /* \"#utility.yul\":3558:3631   */\n      mstore\n        /* \"#utility.yul\":3650:3653   */\n      0x0140\n        /* \"#utility.yul\":3685:3734   */\n      tag_235\n        /* \"#utility.yul\":3715:3733   */\n      dup5\n      dup3\n      add\n        /* \"#utility.yul\":3685:3734   */\n      tag_197\n      jump\t// in\n    tag_235:\n        /* \"#utility.yul\":3669:3683   */\n      swap1\n      dup3\n      add\n        /* \"#utility.yul\":3662:3735   */\n      mstore\n        /* \"#utility.yul\":3754:3757   */\n      0x0160\n        /* \"#utility.yul\":3789:3838   */\n      tag_236\n        /* \"#utility.yul\":3819:3837   */\n      dup5\n      dup3\n      add\n        /* \"#utility.yul\":3789:3838   */\n      tag_197\n      jump\t// in\n    tag_236:\n        /* \"#utility.yul\":3773:3787   */\n      swap1\n      dup3\n      add\n        /* \"#utility.yul\":3766:3839   */\n      mstore\n        /* \"#utility.yul\":3858:3861   */\n      0x0180\n        /* \"#utility.yul\":3893:3942   */\n      tag_237\n        /* \"#utility.yul\":3923:3941   */\n      dup5\n      dup3\n      add\n        /* \"#utility.yul\":3893:3942   */\n      tag_194\n      jump\t// in\n    tag_237:\n        /* \"#utility.yul\":3877:3891   */\n      swap1\n      dup3\n      add\n        /* \"#utility.yul\":3870:3943   */\n      mstore\n        /* \"#utility.yul\":3962:3965   */\n      0x01a0\n        /* \"#utility.yul\":3997:4046   */\n      tag_238\n        /* \"#utility.yul\":4027:4045   */\n      dup5\n      dup3\n      add\n        /* \"#utility.yul\":3997:4046   */\n      tag_194\n      jump\t// in\n    tag_238:\n        /* \"#utility.yul\":3981:3995   */\n      swap1\n      dup3\n      add\n        /* \"#utility.yul\":3974:4047   */\n      mstore\n        /* \"#utility.yul\":4066:4069   */\n      0x01c0\n        /* \"#utility.yul\":4101:4150   */\n      tag_239\n        /* \"#utility.yul\":4131:4149   */\n      dup5\n      dup3\n      add\n        /* \"#utility.yul\":4101:4150   */\n      tag_194\n      jump\t// in\n    tag_239:\n        /* \"#utility.yul\":4085:4099   */\n      swap1\n      dup3\n      add\n        /* \"#utility.yul\":4078:4151   */\n      mstore\n        /* \"#utility.yul\":4089:4094   */\n      swap4\n        /* \"#utility.yul\":2536:4181   */\n      swap3\n      pop\n      pop\n      pop\n      jump\t// out\n        /* \"#utility.yul\":4465:4592   */\n    tag_198:\n        /* \"#utility.yul\":4526:4536   */\n      0x4e487b71\n        /* \"#utility.yul\":4521:4524   */\n      0xe0\n        /* \"#utility.yul\":4517:4537   */\n      shl\n        /* \"#utility.yul\":4514:4515   */\n      0x00\n        /* \"#utility.yul\":4507:4538   */\n      mstore\n        /* \"#utility.yul\":4557:4561   */\n      0x11\n        /* \"#utility.yul\":4554:4555   */\n      0x04\n        /* \"#utility.yul\":4547:4562   */\n      mstore\n        /* \"#utility.yul\":4581:4585   */\n      0x24\n        /* \"#utility.yul\":4578:4579   */\n      0x00\n        /* \"#utility.yul\":4571:4586   */\n      revert\n        /* \"#utility.yul\":4597:4725   */\n    tag_78:\n        /* \"#utility.yul\":4664:4673   */\n      dup2\n      dup2\n      sub\n        /* \"#utility.yul\":4685:4696   */\n      dup2\n      dup2\n      gt\n        /* \"#utility.yul\":4682:4719   */\n      iszero\n      tag_129\n      jumpi\n        /* \"#utility.yul\":4699:4717   */\n      tag_129\n      tag_198\n      jump\t// in\n        /* \"#utility.yul\":5009:5286   */\n    tag_84:\n        /* \"#utility.yul\":5076:5082   */\n      0x00\n        /* \"#utility.yul\":5129:5131   */\n      0x20\n        /* \"#utility.yul\":5117:5126   */\n      dup3\n        /* \"#utility.yul\":5108:5115   */\n      dup5\n        /* \"#utility.yul\":5104:5127   */\n      sub\n        /* \"#utility.yul\":5100:5132   */\n      slt\n        /* \"#utility.yul\":5097:5149   */\n      iszero\n      tag_247\n      jumpi\n        /* \"#utility.yul\":5145:5146   */\n      0x00\n        /* \"#utility.yul\":5142:5143   */\n      dup1\n        /* \"#utility.yul\":5135:5147   */\n      revert\n        /* \"#utility.yul\":5097:5149   */\n    tag_247:\n        /* \"#utility.yul\":5177:5186   */\n      dup2\n        /* \"#utility.yul\":5171:5187   */\n      mload\n        /* \"#utility.yul\":5230:5235   */\n      dup1\n        /* \"#utility.yul\":5223:5236   */\n      iszero\n        /* \"#utility.yul\":5216:5237   */\n      iszero\n        /* \"#utility.yul\":5209:5214   */\n      dup2\n        /* \"#utility.yul\":5206:5238   */\n      eq\n        /* \"#utility.yul\":5196:5256   */\n      tag_183\n      jumpi\n        /* \"#utility.yul\":5252:5253   */\n      0x00\n        /* \"#utility.yul\":5249:5250   */\n      dup1\n        /* \"#utility.yul\":5242:5254   */\n      revert\n        /* \"#utility.yul\":6078:6262   */\n    tag_107:\n        /* \"#utility.yul\":6148:6154   */\n      0x00\n        /* \"#utility.yul\":6201:6203   */\n      0x20\n        /* \"#utility.yul\":6189:6198   */\n      dup3\n        /* \"#utility.yul\":6180:6187   */\n      dup5\n        /* \"#utility.yul\":6176:6199   */\n      sub\n        /* \"#utility.yul\":6172:6204   */\n      slt\n        /* \"#utility.yul\":6169:6221   */\n      iszero\n      tag_252\n      jumpi\n        /* \"#utility.yul\":6217:6218   */\n      0x00\n        /* \"#utility.yul\":6214:6215   */\n      dup1\n        /* \"#utility.yul\":6207:6219   */\n      revert\n        /* \"#utility.yul\":6169:6221   */\n    tag_252:\n      pop\n        /* \"#utility.yul\":6240:6256   */\n      mload\n      swap2\n        /* \"#utility.yul\":6078:6262   */\n      swap1\n      pop\n      jump\t// out\n        /* \"#utility.yul\":6267:6392   */\n    tag_118:\n        /* \"#utility.yul\":6332:6341   */\n      dup1\n      dup3\n      add\n        /* \"#utility.yul\":6353:6363   */\n      dup1\n      dup3\n      gt\n        /* \"#utility.yul\":6350:6386   */\n      iszero\n      tag_129\n      jumpi\n        /* \"#utility.yul\":6366:6384   */\n      tag_129\n      tag_198\n      jump\t// in\n        /* \"#utility.yul\":7171:7339   */\n    tag_143:\n        /* \"#utility.yul\":7244:7253   */\n      dup1\n      dup3\n      mul\n        /* \"#utility.yul\":7275:7284   */\n      dup2\n      iszero\n        /* \"#utility.yul\":7292:7307   */\n      dup3\n      dup3\n      div\n        /* \"#utility.yul\":7286:7308   */\n      dup5\n      eq\n        /* \"#utility.yul\":7272:7309   */\n      or\n        /* \"#utility.yul\":7262:7333   */\n      tag_129\n      jumpi\n        /* \"#utility.yul\":7313:7331   */\n      tag_129\n      tag_198\n      jump\t// in\n        /* \"#utility.yul\":8600:8727   */\n    tag_187:\n        /* \"#utility.yul\":8661:8671   */\n      0x4e487b71\n        /* \"#utility.yul\":8656:8659   */\n      0xe0\n        /* \"#utility.yul\":8652:8672   */\n      shl\n        /* \"#utility.yul\":8649:8650   */\n      0x00\n        /* \"#utility.yul\":8642:8673   */\n      mstore\n        /* \"#utility.yul\":8692:8696   */\n      0x12\n        /* \"#utility.yul\":8689:8690   */\n      0x04\n        /* \"#utility.yul\":8682:8697   */\n      mstore\n        /* \"#utility.yul\":8716:8720   */\n      0x24\n        /* \"#utility.yul\":8713:8714   */\n      0x00\n        /* \"#utility.yul\":8706:8721   */\n      revert\n\n    auxdata: 0xa2646970667358221220d5cb83798f3dbfbaf99042ccb0426c73d7389e25100b4166a474842b220840b564736f6c63430008120033\n}\n",
				"bytecode": {
					"linkReferences": {},
					"object": "60a06040526000600355600580546001600160a01b03191673f14f9596430931e177469715c591513308244e8f17905534801561003b57600080fd5b50610045336100ee565b73eb7a892bb04a8f836bdeebbf60897a7af1bf5d7f60808190526040805163026b1d5f60e01b8152905163026b1d5f916004808201926020929091908290030181865afa15801561009a573d6000803e3d6000fd5b505050506040513d601f19601f820116820180604052508101906100be919061013e565b600180546001600160a01b03929092166001600160a01b031992831681179091556002805490921617905561016e565b600080546001600160a01b038381166001600160a01b0319831681178455604051919092169283917f8be0079c531659141344cd1fd0a4f28419497f9722a3daafe3b4186f6b6457e09190a35050565b60006020828403121561015057600080fd5b81516001600160a01b038116811461016757600080fd5b9392505050565b60805161107b6101866000396000505061107b6000f3fe60806040526004361061008a5760003560e01c80638da5cb5b116100595780638da5cb5b14610143578063c0c24ddd14610161578063d414c82014610181578063f2fde38b146101b7578063fa2df414146101d757600080fd5b80632c62fa1014610096578063715018a6146100df57806382899756146100f65780638d92fdf31461012357600080fd5b3661009157005b600080fd5b3480156100a257600080fd5b506100cc6100b1366004610d69565b6001600160a01b031660009081526006602052604090205490565b6040519081526020015b60405180910390f35b3480156100eb57600080fd5b506100f46101f7565b005b34801561010257600080fd5b5061010b61020b565b6040516001600160a01b0390911681526020016100d6565b34801561012f57600080fd5b506100f461013e366004610d86565b61028b565b34801561014f57600080fd5b506000546001600160a01b031661010b565b34801561016d57600080fd5b506100f461017c366004610d69565b61039d565b34801561018d57600080fd5b506100cc61019c366004610d69565b6001600160a01b031660009081526007602052604090205490565b3480156101c357600080fd5b506100f46101d2366004610d69565b6103c7565b3480156101e357600080fd5b506100f46101f2366004610d86565b610445565b6101ff610653565b61020960006106ad565b565b6002546005546040516335ea6a7560e01b81526001600160a01b03918216600482015260009291909116906335ea6a75906024016101e060405180830381865afa15801561025d573d6000803e3d6000fd5b505050506040513d601f19601f820116820180604052508101906102819190610e7e565b6101000151905090565b600061029733836106fd565b6004805460405163a3df437b60e01b81529182018390523360248301529192506001600160a01b039091169063a3df437b90604401600060405180830381600087803b1580156102e657600080fd5b505af11580156102fa573d6000803e3d6000fd5b5050336000908152600660205260408120805485945090925061031e908490610fb7565b909155505060055460405163a9059cbb60e01b8152336004820152602481018390526001600160a01b039091169063a9059cbb906044016020604051808303816000875af1158015610374573d6000803e3d6000fd5b505050506040513d601f19601f820116820180604052508101906103989190610fca565b505050565b6103a5610653565b600480546001600160a01b0319166001600160a01b0392909216919091179055565b6103cf610653565b6001600160a01b0381166104395760405162461bcd60e51b815260206004820152602660248201527f4f776e61626c653a206e6577206f776e657220697320746865207a65726f206160448201526564647265737360d01b60648201526084015b60405180910390fd5b610442816106ad565b50565b6005546040516323b872dd60e01b8152336004820152306024820152604481018390526001600160a01b03909116906323b872dd906064016020604051808303816000875af115801561049c573d6000803e3d6000fd5b505050506040513d601f19601f820116820180604052508101906104c09190610fca565b50600480546040516321ae089560e21b81529182018390526000916001600160a01b03909116906386b8225490602401602060405180830381865afa15801561050d573d6000803e3d6000fd5b505050506040513d601f19601f820116820180604052508101906105319190610fec565b905061053d8183610fb7565b6005546004805460405163095ea7b360e01b81526001600160a01b03918216928101929092526024820185905292945091169063095ea7b3906044016020604051808303816000875af1158015610598573d6000803e3d6000fd5b505050506040513d601f19601f820116820180604052508101906105bc9190610fca565b506004805460405163f75f602960e01b81529182018490523360248301526001600160a01b03169063f75f602990604401600060405180830381600087803b15801561060757600080fd5b505af115801561061b573d6000803e3d6000fd5b5050336000908152600660205260408120805486945090925061063f908490611005565b9091555061064f9050338361097c565b5050565b6000546001600160a01b031633146102095760405162461bcd60e51b815260206004820181905260248201527f4f776e61626c653a2063616c6c6572206973206e6f7420746865206f776e65726044820152606401610430565b600080546001600160a01b038381166001600160a01b0319831681178455604051919092169283917f8be0079c531659141344cd1fd0a4f28419497f9722a3daafe3b4186f6b6457e09190a35050565b6001600160a01b0382166000908152600760205260408120546107775760405162461bcd60e51b815260206004820152602c60248201527f5573657220686173206e6f742070726f7669646564207468697320746f6b656e60448201526b20666f72206c656e64696e6760a01b6064820152608401610430565b6001600160a01b038381166000908152600760205260408082205460025460055492516335ea6a7560e01b81529285166004840152909316906335ea6a75906024016101e060405180830381865afa1580156107d7573d6000803e3d6000fd5b505050506040513d601f19601f820116820180604052508101906107fb9190610e7e565b61010001516040516370a0823160e01b81523060048201529091506000906001600160a01b038316906370a0823190602401602060405180830381865afa15801561084a573d6000803e3d6000fd5b505050506040513d601f19601f8201168201806040525081019061086e9190610fec565b9050600061089561087f8786611018565b836003546103e86108909190611018565b610c64565b905060006108a685886103e8610c64565b600254600554604051631a4ca37b60e21b81526001600160a01b0391821660048201526024810186905230604482015292935016906369328dec906064016020604051808303816000875af1158015610903573d6000803e3d6000fd5b505050506040513d601f19601f820116820180604052508101906109279190610fec565b506001600160a01b03881660009081526007602052604081208054839290610950908490610fb7565b9250508190555080600360008282546109699190610fb7565b9091555091955050505050505b92915050565b60055460015460405163095ea7b360e01b81526001600160a01b0391821660048201526024810184905291169063095ea7b3906044016020604051808303816000875af11580156109d1573d6000803e3d6000fd5b505050506040513d601f19601f820116820180604052508101906109f59190610fca565b610a4d5760405162461bcd60e51b815260206004820152602360248201527f5468697320636f6e747261637420686173206e6f7420656e6f75676820746f6b604482015262656e7360e81b6064820152608401610430565b60025460055460405163617ba03760e01b81526001600160a01b039182166004820152602481018490523060448201526000606482015291169063617ba03790608401600060405180830381600087803b158015610aaa57600080fd5b505af1158015610abe573d6000803e3d6000fd5b50505050600354600003610b18576001600160a01b03821660009081526007602052604081208054839290610af4908490611005565b925050819055508060036000828254610b0d9190611005565b9091555061064f9050565b6002546005546040516335ea6a7560e01b81526001600160a01b03918216600482015260009291909116906335ea6a75906024016101e060405180830381865afa158015610b6a573d6000803e3d6000fd5b505050506040513d601f19601f82011682018060405250810190610b8e9190610e7e565b61010001516040516370a0823160e01b81523060048201529091506000906001600160a01b038316906370a0823190602401602060405180830381865afa158015610bdd573d6000803e3d6000fd5b505050506040513d601f19601f82011682018060405250810190610c019190610fec565b90506000610c128460035484610c64565b6001600160a01b038616600090815260076020526040812080549293508392909190610c3f908490611005565b925050819055508060036000828254610c589190611005565b90915550505050505050565b6000808060001985870985870292508281108382030391505080600003610c9e57838281610c9457610c9461102f565b0492505050610d4d565b808411610ce55760405162461bcd60e51b81526020600482015260156024820152744d6174683a206d756c446976206f766572666c6f7760581b6044820152606401610430565b600084868809851960019081018716968790049682860381900495909211909303600082900391909104909201919091029190911760038402600290811880860282030280860282030280860282030280860282030280860282030280860290910302029150505b9392505050565b6001600160a01b038116811461044257600080fd5b600060208284031215610d7b57600080fd5b8135610d4d81610d54565b600060208284031215610d9857600080fd5b5035919050565b6040516101e0810167ffffffffffffffff81118282101715610dd157634e487b7160e01b600052604160045260246000fd5b60405290565b600060208284031215610de957600080fd5b6040516020810181811067ffffffffffffffff82111715610e1a57634e487b7160e01b600052604160045260246000fd5b6040529151825250919050565b80516fffffffffffffffffffffffffffffffff81168114610e4757600080fd5b919050565b805164ffffffffff81168114610e4757600080fd5b805161ffff81168114610e4757600080fd5b8051610e4781610d54565b60006101e08284031215610e9157600080fd5b610e99610d9f565b610ea38484610dd7565b8152610eb160208401610e27565b6020820152610ec260408401610e27565b6040820152610ed360608401610e27565b6060820152610ee460808401610e27565b6080820152610ef560a08401610e27565b60a0820152610f0660c08401610e4c565b60c0820152610f1760e08401610e61565b60e0820152610100610f2a818501610e73565b90820152610120610f3c848201610e73565b90820152610140610f4e848201610e73565b90820152610160610f60848201610e73565b90820152610180610f72848201610e27565b908201526101a0610f84848201610e27565b908201526101c0610f96848201610e27565b908201529392505050565b634e487b7160e01b600052601160045260246000fd5b8181038181111561097657610976610fa1565b600060208284031215610fdc57600080fd5b81518015158114610d4d57600080fd5b600060208284031215610ffe57600080fd5b5051919050565b8082018082111561097657610976610fa1565b808202811582820484141761097657610976610fa1565b634e487b7160e01b600052601260045260246000fdfea2646970667358221220d5cb83798f3dbfbaf99042ccb0426c73d7389e25100b4166a474842b220840b564736f6c63430008120033",
					"opcodes": "PUSH1 0xA0 PUSH1 0x40 MSTORE PUSH1 0x0 PUSH1 0x3 SSTORE PUSH1 0x5 DUP1 SLOAD PUSH1 0x1 PUSH1 0x1 PUSH1 0xA0 SHL SUB NOT AND PUSH20 0xF14F9596430931E177469715C591513308244E8F OR SWAP1 SSTORE CALLVALUE DUP1 ISZERO PUSH2 0x3B JUMPI PUSH1 0x0 DUP1 REVERT JUMPDEST POP PUSH2 0x45 CALLER PUSH2 0xEE JUMP JUMPDEST PUSH20 0xEB7A892BB04A8F836BDEEBBF60897A7AF1BF5D7F PUSH1 0x80 DUP2 SWAP1 MSTORE PUSH1 0x40 DUP1 MLOAD PUSH4 0x26B1D5F PUSH1 0xE0 SHL DUP2 MSTORE SWAP1 MLOAD PUSH4 0x26B1D5F SWAP2 PUSH1 0x4 DUP1 DUP3 ADD SWAP3 PUSH1 0x20 SWAP3 SWAP1 SWAP2 SWAP1 DUP3 SWAP1 SUB ADD DUP2 DUP7 GAS STATICCALL ISZERO DUP1 ISZERO PUSH2 0x9A JUMPI RETURNDATASIZE PUSH1 0x0 DUP1 RETURNDATACOPY RETURNDATASIZE PUSH1 0x0 REVERT JUMPDEST POP POP POP POP PUSH1 0x40 MLOAD RETURNDATASIZE PUSH1 0x1F NOT PUSH1 0x1F DUP3 ADD AND DUP3 ADD DUP1 PUSH1 0x40 MSTORE POP DUP2 ADD SWAP1 PUSH2 0xBE SWAP2 SWAP1 PUSH2 0x13E JUMP JUMPDEST PUSH1 0x1 DUP1 SLOAD PUSH1 0x1 PUSH1 0x1 PUSH1 0xA0 SHL SUB SWAP3 SWAP1 SWAP3 AND PUSH1 0x1 PUSH1 0x1 PUSH1 0xA0 SHL SUB NOT SWAP3 DUP4 AND DUP2 OR SWAP1 SWAP2 SSTORE PUSH1 0x2 DUP1 SLOAD SWAP1 SWAP3 AND OR SWAP1 SSTORE PUSH2 0x16E JUMP JUMPDEST PUSH1 0x0 DUP1 SLOAD PUSH1 0x1 PUSH1 0x1 PUSH1 0xA0 SHL SUB DUP4 DUP2 AND PUSH1 0x1 PUSH1 0x1 PUSH1 0xA0 SHL SUB NOT DUP4 AND DUP2 OR DUP5 SSTORE PUSH1 0x40 MLOAD SWAP2 SWAP1 SWAP3 AND SWAP3 DUP4 SWAP2 PUSH32 0x8BE0079C531659141344CD1FD0A4F28419497F9722A3DAAFE3B4186F6B6457E0 SWAP2 SWAP1 LOG3 POP POP JUMP JUMPDEST PUSH1 0x0 PUSH1 0x20 DUP3 DUP5 SUB SLT ISZERO PUSH2 0x150 JUMPI PUSH1 0x0 DUP1 REVERT JUMPDEST DUP2 MLOAD PUSH1 0x1 PUSH1 0x1 PUSH1 0xA0 SHL SUB DUP2 AND DUP2 EQ PUSH2 0x167 JUMPI PUSH1 0x0 DUP1 REVERT JUMPDEST SWAP4 SWAP3 POP POP POP JUMP JUMPDEST PUSH1 0x80 MLOAD PUSH2 0x107B PUSH2 0x186 PUSH1 0x0 CODECOPY PUSH1 0x0 POP POP PUSH2 0x107B PUSH1 0x0 RETURN INVALID PUSH1 0x80 PUSH1 0x40 MSTORE PUSH1 0x4 CALLDATASIZE LT PUSH2 0x8A JUMPI PUSH1 0x0 CALLDATALOAD PUSH1 0xE0 SHR DUP1 PUSH4 0x8DA5CB5B GT PUSH2 0x59 JUMPI DUP1 PUSH4 0x8DA5CB5B EQ PUSH2 0x143 JUMPI DUP1 PUSH4 0xC0C24DDD EQ PUSH2 0x161 JUMPI DUP1 PUSH4 0xD414C820 EQ PUSH2 0x181 JUMPI DUP1 PUSH4 0xF2FDE38B EQ PUSH2 0x1B7 JUMPI DUP1 PUSH4 0xFA2DF414 EQ PUSH2 0x1D7 JUMPI PUSH1 0x0 DUP1 REVERT JUMPDEST DUP1 PUSH4 0x2C62FA10 EQ PUSH2 0x96 JUMPI DUP1 PUSH4 0x715018A6 EQ PUSH2 0xDF JUMPI DUP1 PUSH4 0x82899756 EQ PUSH2 0xF6 JUMPI DUP1 PUSH4 0x8D92FDF3 EQ PUSH2 0x123 JUMPI PUSH1 0x0 DUP1 REVERT JUMPDEST CALLDATASIZE PUSH2 0x91 JUMPI STOP JUMPDEST PUSH1 0x0 DUP1 REVERT JUMPDEST CALLVALUE DUP1 ISZERO PUSH2 0xA2 JUMPI PUSH1 0x0 DUP1 REVERT JUMPDEST POP PUSH2 0xCC PUSH2 0xB1 CALLDATASIZE PUSH1 0x4 PUSH2 0xD69 JUMP JUMPDEST PUSH1 0x1 PUSH1 0x1 PUSH1 0xA0 SHL SUB AND PUSH1 0x0 SWAP1 DUP2 MSTORE PUSH1 0x6 PUSH1 0x20 MSTORE PUSH1 0x40 SWAP1 KECCAK256 SLOAD SWAP1 JUMP JUMPDEST PUSH1 0x40 MLOAD SWAP1 DUP2 MSTORE PUSH1 0x20 ADD JUMPDEST PUSH1 0x40 MLOAD DUP1 SWAP2 SUB SWAP1 RETURN JUMPDEST CALLVALUE DUP1 ISZERO PUSH2 0xEB JUMPI PUSH1 0x0 DUP1 REVERT JUMPDEST POP PUSH2 0xF4 PUSH2 0x1F7 JUMP JUMPDEST STOP JUMPDEST CALLVALUE DUP1 ISZERO PUSH2 0x102 JUMPI PUSH1 0x0 DUP1 REVERT JUMPDEST POP PUSH2 0x10B PUSH2 0x20B JUMP JUMPDEST PUSH1 0x40 MLOAD PUSH1 0x1 PUSH1 0x1 PUSH1 0xA0 SHL SUB SWAP1 SWAP2 AND DUP2 MSTORE PUSH1 0x20 ADD PUSH2 0xD6 JUMP JUMPDEST CALLVALUE DUP1 ISZERO PUSH2 0x12F JUMPI PUSH1 0x0 DUP1 REVERT JUMPDEST POP PUSH2 0xF4 PUSH2 0x13E CALLDATASIZE PUSH1 0x4 PUSH2 0xD86 JUMP JUMPDEST PUSH2 0x28B JUMP JUMPDEST CALLVALUE DUP1 ISZERO PUSH2 0x14F JUMPI PUSH1 0x0 DUP1 REVERT JUMPDEST POP PUSH1 0x0 SLOAD PUSH1 0x1 PUSH1 0x1 PUSH1 0xA0 SHL SUB AND PUSH2 0x10B JUMP JUMPDEST CALLVALUE DUP1 ISZERO PUSH2 0x16D JUMPI PUSH1 0x0 DUP1 REVERT JUMPDEST POP PUSH2 0xF4 PUSH2 0x17C CALLDATASIZE PUSH1 0x4 PUSH2 0xD69 JUMP JUMPDEST PUSH2 0x39D JUMP JUMPDEST CALLVALUE DUP1 ISZERO PUSH2 0x18D JUMPI PUSH1 0x0 DUP1 REVERT JUMPDEST POP PUSH2 0xCC PUSH2 0x19C CALLDATASIZE PUSH1 0x4 PUSH2 0xD69 JUMP JUMPDEST PUSH1 0x1 PUSH1 0x1 PUSH1 0xA0 SHL SUB AND PUSH1 0x0 SWAP1 DUP2 MSTORE PUSH1 0x7 PUSH1 0x20 MSTORE PUSH1 0x40 SWAP1 KECCAK256 SLOAD SWAP1 JUMP JUMPDEST CALLVALUE DUP1 ISZERO PUSH2 0x1C3 JUMPI PUSH1 0x0 DUP1 REVERT JUMPDEST POP PUSH2 0xF4 PUSH2 0x1D2 CALLDATASIZE PUSH1 0x4 PUSH2 0xD69 JUMP JUMPDEST PUSH2 0x3C7 JUMP JUMPDEST CALLVALUE DUP1 ISZERO PUSH2 0x1E3 JUMPI PUSH1 0x0 DUP1 REVERT JUMPDEST POP PUSH2 0xF4 PUSH2 0x1F2 CALLDATASIZE PUSH1 0x4 PUSH2 0xD86 JUMP JUMPDEST PUSH2 0x445 JUMP JUMPDEST PUSH2 0x1FF PUSH2 0x653 JUMP JUMPDEST PUSH2 0x209 PUSH1 0x0 PUSH2 0x6AD JUMP JUMPDEST JUMP JUMPDEST PUSH1 0x2 SLOAD PUSH1 0x5 SLOAD PUSH1 0x40 MLOAD PUSH4 0x35EA6A75 PUSH1 0xE0 SHL DUP2 MSTORE PUSH1 0x1 PUSH1 0x1 PUSH1 0xA0 SHL SUB SWAP2 DUP3 AND PUSH1 0x4 DUP3 ADD MSTORE PUSH1 0x0 SWAP3 SWAP2 SWAP1 SWAP2 AND SWAP1 PUSH4 0x35EA6A75 SWAP1 PUSH1 0x24 ADD PUSH2 0x1E0 PUSH1 0x40 MLOAD DUP1 DUP4 SUB DUP2 DUP7 GAS STATICCALL ISZERO DUP1 ISZERO PUSH2 0x25D JUMPI RETURNDATASIZE PUSH1 0x0 DUP1 RETURNDATACOPY RETURNDATASIZE PUSH1 0x0 REVERT JUMPDEST POP POP POP POP PUSH1 0x40 MLOAD RETURNDATASIZE PUSH1 0x1F NOT PUSH1 0x1F DUP3 ADD AND DUP3 ADD DUP1 PUSH1 0x40 MSTORE POP DUP2 ADD SWAP1 PUSH2 0x281 SWAP2 SWAP1 PUSH2 0xE7E JUMP JUMPDEST PUSH2 0x100 ADD MLOAD SWAP1 POP SWAP1 JUMP JUMPDEST PUSH1 0x0 PUSH2 0x297 CALLER DUP4 PUSH2 0x6FD JUMP JUMPDEST PUSH1 0x4 DUP1 SLOAD PUSH1 0x40 MLOAD PUSH4 0xA3DF437B PUSH1 0xE0 SHL DUP2 MSTORE SWAP2 DUP3 ADD DUP4 SWAP1 MSTORE CALLER PUSH1 0x24 DUP4 ADD MSTORE SWAP2 SWAP3 POP PUSH1 0x1 PUSH1 0x1 PUSH1 0xA0 SHL SUB SWAP1 SWAP2 AND SWAP1 PUSH4 0xA3DF437B SWAP1 PUSH1 0x44 ADD PUSH1 0x0 PUSH1 0x40 MLOAD DUP1 DUP4 SUB DUP2 PUSH1 0x0 DUP8 DUP1 EXTCODESIZE ISZERO DUP1 ISZERO PUSH2 0x2E6 JUMPI PUSH1 0x0 DUP1 REVERT JUMPDEST POP GAS CALL ISZERO DUP1 ISZERO PUSH2 0x2FA JUMPI RETURNDATASIZE PUSH1 0x0 DUP1 RETURNDATACOPY RETURNDATASIZE PUSH1 0x0 REVERT JUMPDEST POP POP CALLER PUSH1 0x0 SWAP1 DUP2 MSTORE PUSH1 0x6 PUSH1 0x20 MSTORE PUSH1 0x40 DUP2 KECCAK256 DUP1 SLOAD DUP6 SWAP5 POP SWAP1 SWAP3 POP PUSH2 0x31E SWAP1 DUP5 SWAP1 PUSH2 0xFB7 JUMP JUMPDEST SWAP1 SWAP2 SSTORE POP POP PUSH1 0x5 SLOAD PUSH1 0x40 MLOAD PUSH4 0xA9059CBB PUSH1 0xE0 SHL DUP2 MSTORE CALLER PUSH1 0x4 DUP3 ADD MSTORE PUSH1 0x24 DUP2 ADD DUP4 SWAP1 MSTORE PUSH1 0x1 PUSH1 0x1 PUSH1 0xA0 SHL SUB SWAP1 SWAP2 AND SWAP1 PUSH4 0xA9059CBB SWAP1 PUSH1 0x44 ADD PUSH1 0x20 PUSH1 0x40 MLOAD DUP1 DUP4 SUB DUP2 PUSH1 0x0 DUP8 GAS CALL ISZERO DUP1 ISZERO PUSH2 0x374 JUMPI RETURNDATASIZE PUSH1 0x0 DUP1 RETURNDATACOPY RETURNDATASIZE PUSH1 0x0 REVERT JUMPDEST POP POP POP POP PUSH1 0x40 MLOAD RETURNDATASIZE PUSH1 0x1F NOT PUSH1 0x1F DUP3 ADD AND DUP3 ADD DUP1 PUSH1 0x40 MSTORE POP DUP2 ADD SWAP1 PUSH2 0x398 SWAP2 SWAP1 PUSH2 0xFCA JUMP JUMPDEST POP POP POP JUMP JUMPDEST PUSH2 0x3A5 PUSH2 0x653 JUMP JUMPDEST PUSH1 0x4 DUP1 SLOAD PUSH1 0x1 PUSH1 0x1 PUSH1 0xA0 SHL SUB NOT AND PUSH1 0x1 PUSH1 0x1 PUSH1 0xA0 SHL SUB SWAP3 SWAP1 SWAP3 AND SWAP2 SWAP1 SWAP2 OR SWAP1 SSTORE JUMP JUMPDEST PUSH2 0x3CF PUSH2 0x653 JUMP JUMPDEST PUSH1 0x1 PUSH1 0x1 PUSH1 0xA0 SHL SUB DUP2 AND PUSH2 0x439 JUMPI PUSH1 0x40 MLOAD PUSH3 0x461BCD PUSH1 0xE5 SHL DUP2 MSTORE PUSH1 0x20 PUSH1 0x4 DUP3 ADD MSTORE PUSH1 0x26 PUSH1 0x24 DUP3 ADD MSTORE PUSH32 0x4F776E61626C653A206E6577206F776E657220697320746865207A65726F2061 PUSH1 0x44 DUP3 ADD MSTORE PUSH6 0x646472657373 PUSH1 0xD0 SHL PUSH1 0x64 DUP3 ADD MSTORE PUSH1 0x84 ADD JUMPDEST PUSH1 0x40 MLOAD DUP1 SWAP2 SUB SWAP1 REVERT JUMPDEST PUSH2 0x442 DUP2 PUSH2 0x6AD JUMP JUMPDEST POP JUMP JUMPDEST PUSH1 0x5 SLOAD PUSH1 0x40 MLOAD PUSH4 0x23B872DD PUSH1 0xE0 SHL DUP2 MSTORE CALLER PUSH1 0x4 DUP3 ADD MSTORE ADDRESS PUSH1 0x24 DUP3 ADD MSTORE PUSH1 0x44 DUP2 ADD DUP4 SWAP1 MSTORE PUSH1 0x1 PUSH1 0x1 PUSH1 0xA0 SHL SUB SWAP1 SWAP2 AND SWAP1 PUSH4 0x23B872DD SWAP1 PUSH1 0x64 ADD PUSH1 0x20 PUSH1 0x40 MLOAD DUP1 DUP4 SUB DUP2 PUSH1 0x0 DUP8 GAS CALL ISZERO DUP1 ISZERO PUSH2 0x49C JUMPI RETURNDATASIZE PUSH1 0x0 DUP1 RETURNDATACOPY RETURNDATASIZE PUSH1 0x0 REVERT JUMPDEST POP POP POP POP PUSH1 0x40 MLOAD RETURNDATASIZE PUSH1 0x1F NOT PUSH1 0x1F DUP3 ADD AND DUP3 ADD DUP1 PUSH1 0x40 MSTORE POP DUP2 ADD SWAP1 PUSH2 0x4C0 SWAP2 SWAP1 PUSH2 0xFCA JUMP JUMPDEST POP PUSH1 0x4 DUP1 SLOAD PUSH1 0x40 MLOAD PUSH4 0x21AE0895 PUSH1 0xE2 SHL DUP2 MSTORE SWAP2 DUP3 ADD DUP4 SWAP1 MSTORE PUSH1 0x0 SWAP2 PUSH1 0x1 PUSH1 0x1 PUSH1 0xA0 SHL SUB SWAP1 SWAP2 AND SWAP1 PUSH4 0x86B82254 SWAP1 PUSH1 0x24 ADD PUSH1 0x20 PUSH1 0x40 MLOAD DUP1 DUP4 SUB DUP2 DUP7 GAS STATICCALL ISZERO DUP1 ISZERO PUSH2 0x50D JUMPI RETURNDATASIZE PUSH1 0x0 DUP1 RETURNDATACOPY RETURNDATASIZE PUSH1 0x0 REVERT JUMPDEST POP POP POP POP PUSH1 0x40 MLOAD RETURNDATASIZE PUSH1 0x1F NOT PUSH1 0x1F DUP3 ADD AND DUP3 ADD DUP1 PUSH1 0x40 MSTORE POP DUP2 ADD SWAP1 PUSH2 0x531 SWAP2 SWAP1 PUSH2 0xFEC JUMP JUMPDEST SWAP1 POP PUSH2 0x53D DUP2 DUP4 PUSH2 0xFB7 JUMP JUMPDEST PUSH1 0x5 SLOAD PUSH1 0x4 DUP1 SLOAD PUSH1 0x40 MLOAD PUSH4 0x95EA7B3 PUSH1 0xE0 SHL DUP2 MSTORE PUSH1 0x1 PUSH1 0x1 PUSH1 0xA0 SHL SUB SWAP2 DUP3 AND SWAP3 DUP2 ADD SWAP3 SWAP1 SWAP3 MSTORE PUSH1 0x24 DUP3 ADD DUP6 SWAP1 MSTORE SWAP3 SWAP5 POP SWAP2 AND SWAP1 PUSH4 0x95EA7B3 SWAP1 PUSH1 0x44 ADD PUSH1 0x20 PUSH1 0x40 MLOAD DUP1 DUP4 SUB DUP2 PUSH1 0x0 DUP8 GAS CALL ISZERO DUP1 ISZERO PUSH2 0x598 JUMPI RETURNDATASIZE PUSH1 0x0 DUP1 RETURNDATACOPY RETURNDATASIZE PUSH1 0x0 REVERT JUMPDEST POP POP POP POP PUSH1 0x40 MLOAD RETURNDATASIZE PUSH1 0x1F NOT PUSH1 0x1F DUP3 ADD AND DUP3 ADD DUP1 PUSH1 0x40 MSTORE POP DUP2 ADD SWAP1 PUSH2 0x5BC SWAP2 SWAP1 PUSH2 0xFCA JUMP JUMPDEST POP PUSH1 0x4 DUP1 SLOAD PUSH1 0x40 MLOAD PUSH4 0xF75F6029 PUSH1 0xE0 SHL DUP2 MSTORE SWAP2 DUP3 ADD DUP5 SWAP1 MSTORE CALLER PUSH1 0x24 DUP4 ADD MSTORE PUSH1 0x1 PUSH1 0x1 PUSH1 0xA0 SHL SUB AND SWAP1 PUSH4 0xF75F6029 SWAP1 PUSH1 0x44 ADD PUSH1 0x0 PUSH1 0x40 MLOAD DUP1 DUP4 SUB DUP2 PUSH1 0x0 DUP8 DUP1 EXTCODESIZE ISZERO DUP1 ISZERO PUSH2 0x607 JUMPI PUSH1 0x0 DUP1 REVERT JUMPDEST POP GAS CALL ISZERO DUP1 ISZERO PUSH2 0x61B JUMPI RETURNDATASIZE PUSH1 0x0 DUP1 RETURNDATACOPY RETURNDATASIZE PUSH1 0x0 REVERT JUMPDEST POP POP CALLER PUSH1 0x0 SWAP1 DUP2 MSTORE PUSH1 0x6 PUSH1 0x20 MSTORE PUSH1 0x40 DUP2 KECCAK256 DUP1 SLOAD DUP7 SWAP5 POP SWAP1 SWAP3 POP PUSH2 0x63F SWAP1 DUP5 SWAP1 PUSH2 0x1005 JUMP JUMPDEST SWAP1 SWAP2 SSTORE POP PUSH2 0x64F SWAP1 POP CALLER DUP4 PUSH2 0x97C JUMP JUMPDEST POP POP JUMP JUMPDEST PUSH1 0x0 SLOAD PUSH1 0x1 PUSH1 0x1 PUSH1 0xA0 SHL SUB AND CALLER EQ PUSH2 0x209 JUMPI PUSH1 0x40 MLOAD PUSH3 0x461BCD PUSH1 0xE5 SHL DUP2 MSTORE PUSH1 0x20 PUSH1 0x4 DUP3 ADD DUP2 SWAP1 MSTORE PUSH1 0x24 DUP3 ADD MSTORE PUSH32 0x4F776E61626C653A2063616C6C6572206973206E6F7420746865206F776E6572 PUSH1 0x44 DUP3 ADD MSTORE PUSH1 0x64 ADD PUSH2 0x430 JUMP JUMPDEST PUSH1 0x0 DUP1 SLOAD PUSH1 0x1 PUSH1 0x1 PUSH1 0xA0 SHL SUB DUP4 DUP2 AND PUSH1 0x1 PUSH1 0x1 PUSH1 0xA0 SHL SUB NOT DUP4 AND DUP2 OR DUP5 SSTORE PUSH1 0x40 MLOAD SWAP2 SWAP1 SWAP3 AND SWAP3 DUP4 SWAP2 PUSH32 0x8BE0079C531659141344CD1FD0A4F28419497F9722A3DAAFE3B4186F6B6457E0 SWAP2 SWAP1 LOG3 POP POP JUMP JUMPDEST PUSH1 0x1 PUSH1 0x1 PUSH1 0xA0 SHL SUB DUP3 AND PUSH1 0x0 SWAP1 DUP2 MSTORE PUSH1 0x7 PUSH1 0x20 MSTORE PUSH1 0x40 DUP2 KECCAK256 SLOAD PUSH2 0x777 JUMPI PUSH1 0x40 MLOAD PUSH3 0x461BCD PUSH1 0xE5 SHL DUP2 MSTORE PUSH1 0x20 PUSH1 0x4 DUP3 ADD MSTORE PUSH1 0x2C PUSH1 0x24 DUP3 ADD MSTORE PUSH32 0x5573657220686173206E6F742070726F7669646564207468697320746F6B656E PUSH1 0x44 DUP3 ADD MSTORE PUSH12 0x20666F72206C656E64696E67 PUSH1 0xA0 SHL PUSH1 0x64 DUP3 ADD MSTORE PUSH1 0x84 ADD PUSH2 0x430 JUMP JUMPDEST PUSH1 0x1 PUSH1 0x1 PUSH1 0xA0 SHL SUB DUP4 DUP2 AND PUSH1 0x0 SWAP1 DUP2 MSTORE PUSH1 0x7 PUSH1 0x20 MSTORE PUSH1 0x40 DUP1 DUP3 KECCAK256 SLOAD PUSH1 0x2 SLOAD PUSH1 0x5 SLOAD SWAP3 MLOAD PUSH4 0x35EA6A75 PUSH1 0xE0 SHL DUP2 MSTORE SWAP3 DUP6 AND PUSH1 0x4 DUP5 ADD MSTORE SWAP1 SWAP4 AND SWAP1 PUSH4 0x35EA6A75 SWAP1 PUSH1 0x24 ADD PUSH2 0x1E0 PUSH1 0x40 MLOAD DUP1 DUP4 SUB DUP2 DUP7 GAS STATICCALL ISZERO DUP1 ISZERO PUSH2 0x7D7 JUMPI RETURNDATASIZE PUSH1 0x0 DUP1 RETURNDATACOPY RETURNDATASIZE PUSH1 0x0 REVERT JUMPDEST POP POP POP POP PUSH1 0x40 MLOAD RETURNDATASIZE PUSH1 0x1F NOT PUSH1 0x1F DUP3 ADD AND DUP3 ADD DUP1 PUSH1 0x40 MSTORE POP DUP2 ADD SWAP1 PUSH2 0x7FB SWAP2 SWAP1 PUSH2 0xE7E JUMP JUMPDEST PUSH2 0x100 ADD MLOAD PUSH1 0x40 MLOAD PUSH4 0x70A08231 PUSH1 0xE0 SHL DUP2 MSTORE ADDRESS PUSH1 0x4 DUP3 ADD MSTORE SWAP1 SWAP2 POP PUSH1 0x0 SWAP1 PUSH1 0x1 PUSH1 0x1 PUSH1 0xA0 SHL SUB DUP4 AND SWAP1 PUSH4 0x70A08231 SWAP1 PUSH1 0x24 ADD PUSH1 0x20 PUSH1 0x40 MLOAD DUP1 DUP4 SUB DUP2 DUP7 GAS STATICCALL ISZERO DUP1 ISZERO PUSH2 0x84A JUMPI RETURNDATASIZE PUSH1 0x0 DUP1 RETURNDATACOPY RETURNDATASIZE PUSH1 0x0 REVERT JUMPDEST POP POP POP POP PUSH1 0x40 MLOAD RETURNDATASIZE PUSH1 0x1F NOT PUSH1 0x1F DUP3 ADD AND DUP3 ADD DUP1 PUSH1 0x40 MSTORE POP DUP2 ADD SWAP1 PUSH2 0x86E SWAP2 SWAP1 PUSH2 0xFEC JUMP JUMPDEST SWAP1 POP PUSH1 0x0 PUSH2 0x895 PUSH2 0x87F DUP8 DUP7 PUSH2 0x1018 JUMP JUMPDEST DUP4 PUSH1 0x3 SLOAD PUSH2 0x3E8 PUSH2 0x890 SWAP2 SWAP1 PUSH2 0x1018 JUMP JUMPDEST PUSH2 0xC64 JUMP JUMPDEST SWAP1 POP PUSH1 0x0 PUSH2 0x8A6 DUP6 DUP9 PUSH2 0x3E8 PUSH2 0xC64 JUMP JUMPDEST PUSH1 0x2 SLOAD PUSH1 0x5 SLOAD PUSH1 0x40 MLOAD PUSH4 0x1A4CA37B PUSH1 0xE2 SHL DUP2 MSTORE PUSH1 0x1 PUSH1 0x1 PUSH1 0xA0 SHL SUB SWAP2 DUP3 AND PUSH1 0x4 DUP3 ADD MSTORE PUSH1 0x24 DUP2 ADD DUP7 SWAP1 MSTORE ADDRESS PUSH1 0x44 DUP3 ADD MSTORE SWAP3 SWAP4 POP AND SWAP1 PUSH4 0x69328DEC SWAP1 PUSH1 0x64 ADD PUSH1 0x20 PUSH1 0x40 MLOAD DUP1 DUP4 SUB DUP2 PUSH1 0x0 DUP8 GAS CALL ISZERO DUP1 ISZERO PUSH2 0x903 JUMPI RETURNDATASIZE PUSH1 0x0 DUP1 RETURNDATACOPY RETURNDATASIZE PUSH1 0x0 REVERT JUMPDEST POP POP POP POP PUSH1 0x40 MLOAD RETURNDATASIZE PUSH1 0x1F NOT PUSH1 0x1F DUP3 ADD AND DUP3 ADD DUP1 PUSH1 0x40 MSTORE POP DUP2 ADD SWAP1 PUSH2 0x927 SWAP2 SWAP1 PUSH2 0xFEC JUMP JUMPDEST POP PUSH1 0x1 PUSH1 0x1 PUSH1 0xA0 SHL SUB DUP9 AND PUSH1 0x0 SWAP1 DUP2 MSTORE PUSH1 0x7 PUSH1 0x20 MSTORE PUSH1 0x40 DUP2 KECCAK256 DUP1 SLOAD DUP4 SWAP3 SWAP1 PUSH2 0x950 SWAP1 DUP5 SWAP1 PUSH2 0xFB7 JUMP JUMPDEST SWAP3 POP POP DUP2 SWAP1 SSTORE POP DUP1 PUSH1 0x3 PUSH1 0x0 DUP3 DUP3 SLOAD PUSH2 0x969 SWAP2 SWAP1 PUSH2 0xFB7 JUMP JUMPDEST SWAP1 SWAP2 SSTORE POP SWAP2 SWAP6 POP POP POP POP POP POP JUMPDEST SWAP3 SWAP2 POP POP JUMP JUMPDEST PUSH1 0x5 SLOAD PUSH1 0x1 SLOAD PUSH1 0x40 MLOAD PUSH4 0x95EA7B3 PUSH1 0xE0 SHL DUP2 MSTORE PUSH1 0x1 PUSH1 0x1 PUSH1 0xA0 SHL SUB SWAP2 DUP3 AND PUSH1 0x4 DUP3 ADD MSTORE PUSH1 0x24 DUP2 ADD DUP5 SWAP1 MSTORE SWAP2 AND SWAP1 PUSH4 0x95EA7B3 SWAP1 PUSH1 0x44 ADD PUSH1 0x20 PUSH1 0x40 MLOAD DUP1 DUP4 SUB DUP2 PUSH1 0x0 DUP8 GAS CALL ISZERO DUP1 ISZERO PUSH2 0x9D1 JUMPI RETURNDATASIZE PUSH1 0x0 DUP1 RETURNDATACOPY RETURNDATASIZE PUSH1 0x0 REVERT JUMPDEST POP POP POP POP PUSH1 0x40 MLOAD RETURNDATASIZE PUSH1 0x1F NOT PUSH1 0x1F DUP3 ADD AND DUP3 ADD DUP1 PUSH1 0x40 MSTORE POP DUP2 ADD SWAP1 PUSH2 0x9F5 SWAP2 SWAP1 PUSH2 0xFCA JUMP JUMPDEST PUSH2 0xA4D JUMPI PUSH1 0x40 MLOAD PUSH3 0x461BCD PUSH1 0xE5 SHL DUP2 MSTORE PUSH1 0x20 PUSH1 0x4 DUP3 ADD MSTORE PUSH1 0x23 PUSH1 0x24 DUP3 ADD MSTORE PUSH32 0x5468697320636F6E747261637420686173206E6F7420656E6F75676820746F6B PUSH1 0x44 DUP3 ADD MSTORE PUSH3 0x656E73 PUSH1 0xE8 SHL PUSH1 0x64 DUP3 ADD MSTORE PUSH1 0x84 ADD PUSH2 0x430 JUMP JUMPDEST PUSH1 0x2 SLOAD PUSH1 0x5 SLOAD PUSH1 0x40 MLOAD PUSH4 0x617BA037 PUSH1 0xE0 SHL DUP2 MSTORE PUSH1 0x1 PUSH1 0x1 PUSH1 0xA0 SHL SUB SWAP2 DUP3 AND PUSH1 0x4 DUP3 ADD MSTORE PUSH1 0x24 DUP2 ADD DUP5 SWAP1 MSTORE ADDRESS PUSH1 0x44 DUP3 ADD MSTORE PUSH1 0x0 PUSH1 0x64 DUP3 ADD MSTORE SWAP2 AND SWAP1 PUSH4 0x617BA037 SWAP1 PUSH1 0x84 ADD PUSH1 0x0 PUSH1 0x40 MLOAD DUP1 DUP4 SUB DUP2 PUSH1 0x0 DUP8 DUP1 EXTCODESIZE ISZERO DUP1 ISZERO PUSH2 0xAAA JUMPI PUSH1 0x0 DUP1 REVERT JUMPDEST POP GAS CALL ISZERO DUP1 ISZERO PUSH2 0xABE JUMPI RETURNDATASIZE PUSH1 0x0 DUP1 RETURNDATACOPY RETURNDATASIZE PUSH1 0x0 REVERT JUMPDEST POP POP POP POP PUSH1 0x3 SLOAD PUSH1 0x0 SUB PUSH2 0xB18 JUMPI PUSH1 0x1 PUSH1 0x1 PUSH1 0xA0 SHL SUB DUP3 AND PUSH1 0x0 SWAP1 DUP2 MSTORE PUSH1 0x7 PUSH1 0x20 MSTORE PUSH1 0x40 DUP2 KECCAK256 DUP1 SLOAD DUP4 SWAP3 SWAP1 PUSH2 0xAF4 SWAP1 DUP5 SWAP1 PUSH2 0x1005 JUMP JUMPDEST SWAP3 POP POP DUP2 SWAP1 SSTORE POP DUP1 PUSH1 0x3 PUSH1 0x0 DUP3 DUP3 SLOAD PUSH2 0xB0D SWAP2 SWAP1 PUSH2 0x1005 JUMP JUMPDEST SWAP1 SWAP2 SSTORE POP PUSH2 0x64F SWAP1 POP JUMP JUMPDEST PUSH1 0x2 SLOAD PUSH1 0x5 SLOAD PUSH1 0x40 MLOAD PUSH4 0x35EA6A75 PUSH1 0xE0 SHL DUP2 MSTORE PUSH1 0x1 PUSH1 0x1 PUSH1 0xA0 SHL SUB SWAP2 DUP3 AND PUSH1 0x4 DUP3 ADD MSTORE PUSH1 0x0 SWAP3 SWAP2 SWAP1 SWAP2 AND SWAP1 PUSH4 0x35EA6A75 SWAP1 PUSH1 0x24 ADD PUSH2 0x1E0 PUSH1 0x40 MLOAD DUP1 DUP4 SUB DUP2 DUP7 GAS STATICCALL ISZERO DUP1 ISZERO PUSH2 0xB6A JUMPI RETURNDATASIZE PUSH1 0x0 DUP1 RETURNDATACOPY RETURNDATASIZE PUSH1 0x0 REVERT JUMPDEST POP POP POP POP PUSH1 0x40 MLOAD RETURNDATASIZE PUSH1 0x1F NOT PUSH1 0x1F DUP3 ADD AND DUP3 ADD DUP1 PUSH1 0x40 MSTORE POP DUP2 ADD SWAP1 PUSH2 0xB8E SWAP2 SWAP1 PUSH2 0xE7E JUMP JUMPDEST PUSH2 0x100 ADD MLOAD PUSH1 0x40 MLOAD PUSH4 0x70A08231 PUSH1 0xE0 SHL DUP2 MSTORE ADDRESS PUSH1 0x4 DUP3 ADD MSTORE SWAP1 SWAP2 POP PUSH1 0x0 SWAP1 PUSH1 0x1 PUSH1 0x1 PUSH1 0xA0 SHL SUB DUP4 AND SWAP1 PUSH4 0x70A08231 SWAP1 PUSH1 0x24 ADD PUSH1 0x20 PUSH1 0x40 MLOAD DUP1 DUP4 SUB DUP2 DUP7 GAS STATICCALL ISZERO DUP1 ISZERO PUSH2 0xBDD JUMPI RETURNDATASIZE PUSH1 0x0 DUP1 RETURNDATACOPY RETURNDATASIZE PUSH1 0x0 REVERT JUMPDEST POP POP POP POP PUSH1 0x40 MLOAD RETURNDATASIZE PUSH1 0x1F NOT PUSH1 0x1F DUP3 ADD AND DUP3 ADD DUP1 PUSH1 0x40 MSTORE POP DUP2 ADD SWAP1 PUSH2 0xC01 SWAP2 SWAP1 PUSH2 0xFEC JUMP JUMPDEST SWAP1 POP PUSH1 0x0 PUSH2 0xC12 DUP5 PUSH1 0x3 SLOAD DUP5 PUSH2 0xC64 JUMP JUMPDEST PUSH1 0x1 PUSH1 0x1 PUSH1 0xA0 SHL SUB DUP7 AND PUSH1 0x0 SWAP1 DUP2 MSTORE PUSH1 0x7 PUSH1 0x20 MSTORE PUSH1 0x40 DUP2 KECCAK256 DUP1 SLOAD SWAP3 SWAP4 POP DUP4 SWAP3 SWAP1 SWAP2 SWAP1 PUSH2 0xC3F SWAP1 DUP5 SWAP1 PUSH2 0x1005 JUMP JUMPDEST SWAP3 POP POP DUP2 SWAP1 SSTORE POP DUP1 PUSH1 0x3 PUSH1 0x0 DUP3 DUP3 SLOAD PUSH2 0xC58 SWAP2 SWAP1 PUSH2 0x1005 JUMP JUMPDEST SWAP1 SWAP2 SSTORE POP POP POP POP POP POP POP JUMP JUMPDEST PUSH1 0x0 DUP1 DUP1 PUSH1 0x0 NOT DUP6 DUP8 MULMOD DUP6 DUP8 MUL SWAP3 POP DUP3 DUP2 LT DUP4 DUP3 SUB SUB SWAP2 POP POP DUP1 PUSH1 0x0 SUB PUSH2 0xC9E JUMPI DUP4 DUP3 DUP2 PUSH2 0xC94 JUMPI PUSH2 0xC94 PUSH2 0x102F JUMP JUMPDEST DIV SWAP3 POP POP POP PUSH2 0xD4D JUMP JUMPDEST DUP1 DUP5 GT PUSH2 0xCE5 JUMPI PUSH1 0x40 MLOAD PUSH3 0x461BCD PUSH1 0xE5 SHL DUP2 MSTORE PUSH1 0x20 PUSH1 0x4 DUP3 ADD MSTORE PUSH1 0x15 PUSH1 0x24 DUP3 ADD MSTORE PUSH21 0x4D6174683A206D756C446976206F766572666C6F77 PUSH1 0x58 SHL PUSH1 0x44 DUP3 ADD MSTORE PUSH1 0x64 ADD PUSH2 0x430 JUMP JUMPDEST PUSH1 0x0 DUP5 DUP7 DUP9 MULMOD DUP6 NOT PUSH1 0x1 SWAP1 DUP2 ADD DUP8 AND SWAP7 DUP8 SWAP1 DIV SWAP7 DUP3 DUP7 SUB DUP2 SWAP1 DIV SWAP6 SWAP1 SWAP3 GT SWAP1 SWAP4 SUB PUSH1 0x0 DUP3 SWAP1 SUB SWAP2 SWAP1 SWAP2 DIV SWAP1 SWAP3 ADD SWAP2 SWAP1 SWAP2 MUL SWAP2 SWAP1 SWAP2 OR PUSH1 0x3 DUP5 MUL PUSH1 0x2 SWAP1 DUP2 XOR DUP1 DUP7 MUL DUP3 SUB MUL DUP1 DUP7 MUL DUP3 SUB MUL DUP1 DUP7 MUL DUP3 SUB MUL DUP1 DUP7 MUL DUP3 SUB MUL DUP1 DUP7 MUL DUP3 SUB MUL DUP1 DUP7 MUL SWAP1 SWAP2 SUB MUL MUL SWAP2 POP POP JUMPDEST SWAP4 SWAP3 POP POP POP JUMP JUMPDEST PUSH1 0x1 PUSH1 0x1 PUSH1 0xA0 SHL SUB DUP2 AND DUP2 EQ PUSH2 0x442 JUMPI PUSH1 0x0 DUP1 REVERT JUMPDEST PUSH1 0x0 PUSH1 0x20 DUP3 DUP5 SUB SLT ISZERO PUSH2 0xD7B JUMPI PUSH1 0x0 DUP1 REVERT JUMPDEST DUP2 CALLDATALOAD PUSH2 0xD4D DUP2 PUSH2 0xD54 JUMP JUMPDEST PUSH1 0x0 PUSH1 0x20 DUP3 DUP5 SUB SLT ISZERO PUSH2 0xD98 JUMPI PUSH1 0x0 DUP1 REVERT JUMPDEST POP CALLDATALOAD SWAP2 SWAP1 POP JUMP JUMPDEST PUSH1 0x40 MLOAD PUSH2 0x1E0 DUP2 ADD PUSH8 0xFFFFFFFFFFFFFFFF DUP2 GT DUP3 DUP3 LT OR ISZERO PUSH2 0xDD1 JUMPI PUSH4 0x4E487B71 PUSH1 0xE0 SHL PUSH1 0x0 MSTORE PUSH1 0x41 PUSH1 0x4 MSTORE PUSH1 0x24 PUSH1 0x0 REVERT JUMPDEST PUSH1 0x40 MSTORE SWAP1 JUMP JUMPDEST PUSH1 0x0 PUSH1 0x20 DUP3 DUP5 SUB SLT ISZERO PUSH2 0xDE9 JUMPI PUSH1 0x0 DUP1 REVERT JUMPDEST PUSH1 0x40 MLOAD PUSH1 0x20 DUP2 ADD DUP2 DUP2 LT PUSH8 0xFFFFFFFFFFFFFFFF DUP3 GT OR ISZERO PUSH2 0xE1A JUMPI PUSH4 0x4E487B71 PUSH1 0xE0 SHL PUSH1 0x0 MSTORE PUSH1 0x41 PUSH1 0x4 MSTORE PUSH1 0x24 PUSH1 0x0 REVERT JUMPDEST PUSH1 0x40 MSTORE SWAP2 MLOAD DUP3 MSTORE POP SWAP2 SWAP1 POP JUMP JUMPDEST DUP1 MLOAD PUSH16 0xFFFFFFFFFFFFFFFFFFFFFFFFFFFFFFFF DUP2 AND DUP2 EQ PUSH2 0xE47 JUMPI PUSH1 0x0 DUP1 REVERT JUMPDEST SWAP2 SWAP1 POP JUMP JUMPDEST DUP1 MLOAD PUSH5 0xFFFFFFFFFF DUP2 AND DUP2 EQ PUSH2 0xE47 JUMPI PUSH1 0x0 DUP1 REVERT JUMPDEST DUP1 MLOAD PUSH2 0xFFFF DUP2 AND DUP2 EQ PUSH2 0xE47 JUMPI PUSH1 0x0 DUP1 REVERT JUMPDEST DUP1 MLOAD PUSH2 0xE47 DUP2 PUSH2 0xD54 JUMP JUMPDEST PUSH1 0x0 PUSH2 0x1E0 DUP3 DUP5 SUB SLT ISZERO PUSH2 0xE91 JUMPI PUSH1 0x0 DUP1 REVERT JUMPDEST PUSH2 0xE99 PUSH2 0xD9F JUMP JUMPDEST PUSH2 0xEA3 DUP5 DUP5 PUSH2 0xDD7 JUMP JUMPDEST DUP2 MSTORE PUSH2 0xEB1 PUSH1 0x20 DUP5 ADD PUSH2 0xE27 JUMP JUMPDEST PUSH1 0x20 DUP3 ADD MSTORE PUSH2 0xEC2 PUSH1 0x40 DUP5 ADD PUSH2 0xE27 JUMP JUMPDEST PUSH1 0x40 DUP3 ADD MSTORE PUSH2 0xED3 PUSH1 0x60 DUP5 ADD PUSH2 0xE27 JUMP JUMPDEST PUSH1 0x60 DUP3 ADD MSTORE PUSH2 0xEE4 PUSH1 0x80 DUP5 ADD PUSH2 0xE27 JUMP JUMPDEST PUSH1 0x80 DUP3 ADD MSTORE PUSH2 0xEF5 PUSH1 0xA0 DUP5 ADD PUSH2 0xE27 JUMP JUMPDEST PUSH1 0xA0 DUP3 ADD MSTORE PUSH2 0xF06 PUSH1 0xC0 DUP5 ADD PUSH2 0xE4C JUMP JUMPDEST PUSH1 0xC0 DUP3 ADD MSTORE PUSH2 0xF17 PUSH1 0xE0 DUP5 ADD PUSH2 0xE61 JUMP JUMPDEST PUSH1 0xE0 DUP3 ADD MSTORE PUSH2 0x100 PUSH2 0xF2A DUP2 DUP6 ADD PUSH2 0xE73 JUMP JUMPDEST SWAP1 DUP3 ADD MSTORE PUSH2 0x120 PUSH2 0xF3C DUP5 DUP3 ADD PUSH2 0xE73 JUMP JUMPDEST SWAP1 DUP3 ADD MSTORE PUSH2 0x140 PUSH2 0xF4E DUP5 DUP3 ADD PUSH2 0xE73 JUMP JUMPDEST SWAP1 DUP3 ADD MSTORE PUSH2 0x160 PUSH2 0xF60 DUP5 DUP3 ADD PUSH2 0xE73 JUMP JUMPDEST SWAP1 DUP3 ADD MSTORE PUSH2 0x180 PUSH2 0xF72 DUP5 DUP3 ADD PUSH2 0xE27 JUMP JUMPDEST SWAP1 DUP3 ADD MSTORE PUSH2 0x1A0 PUSH2 0xF84 DUP5 DUP3 ADD PUSH2 0xE27 JUMP JUMPDEST SWAP1 DUP3 ADD MSTORE PUSH2 0x1C0 PUSH2 0xF96 DUP5 DUP3 ADD PUSH2 0xE27 JUMP JUMPDEST SWAP1 DUP3 ADD MSTORE SWAP4 SWAP3 POP POP POP JUMP JUMPDEST PUSH4 0x4E487B71 PUSH1 0xE0 SHL PUSH1 0x0 MSTORE PUSH1 0x11 PUSH1 0x4 MSTORE PUSH1 0x24 PUSH1 0x0 REVERT JUMPDEST DUP2 DUP2 SUB DUP2 DUP2 GT ISZERO PUSH2 0x976 JUMPI PUSH2 0x976 PUSH2 0xFA1 JUMP JUMPDEST PUSH1 0x0 PUSH1 0x20 DUP3 DUP5 SUB SLT ISZERO PUSH2 0xFDC JUMPI PUSH1 0x0 DUP1 REVERT JUMPDEST DUP2 MLOAD DUP1 ISZERO ISZERO DUP2 EQ PUSH2 0xD4D JUMPI PUSH1 0x0 DUP1 REVERT JUMPDEST PUSH1 0x0 PUSH1 0x20 DUP3 DUP5 SUB SLT ISZERO PUSH2 0xFFE JUMPI PUSH1 0x0 DUP1 REVERT JUMPDEST POP MLOAD SWAP2 SWAP1 POP JUMP JUMPDEST DUP1 DUP3 ADD DUP1 DUP3 GT ISZERO PUSH2 0x976 JUMPI PUSH2 0x976 PUSH2 0xFA1 JUMP JUMPDEST DUP1 DUP3 MUL DUP2 ISZERO DUP3 DUP3 DIV DUP5 EQ OR PUSH2 0x976 JUMPI PUSH2 0x976 PUSH2 0xFA1 JUMP JUMPDEST PUSH4 0x4E487B71 PUSH1 0xE0 SHL PUSH1 0x0 MSTORE PUSH1 0x12 PUSH1 0x4 MSTORE PUSH1 0x24 PUSH1 0x0 REVERT INVALID LOG2 PUSH5 0x6970667358 0x22 SLT KECCAK256 0xD5 0xCB DUP4 PUSH26 0x8F3DBFBAF99042CCB0426C73D7389E25100B4166A474842B2208 BLOCKHASH 0xB5 PUSH5 0x736F6C6343 STOP ADDMOD SLT STOP CALLER "
				},
				"gasEstimates": {
					"creation": {
						"codeDepositCost": "843800",
						"executionCost": "infinite",
						"totalCost": "infinite"
					},
					"external": {
						"assetsOf(address)": "2521",
						"changeAddressClaimContract(address)": "26751",
						"depositAsset(uint256)": "infinite",
						"getATokenAddress()": "infinite",
						"owner()": "2331",
						"renounceOwnership()": "infinite",
						"sharesLoansOf(address)": "2564",
						"transferOwnership(address)": "infinite",
						"withdrawAsset(uint256)": "infinite"
					},
					"internal": {
						"supplyLendToken(address,uint256)": "infinite",
						"withdrawLendToken(address,uint256)": "infinite"
					}
				},
				"methodIdentifiers": {
					"assetsOf(address)": "2c62fa10",
					"changeAddressClaimContract(address)": "c0c24ddd",
					"depositAsset(uint256)": "fa2df414",
					"getATokenAddress()": "82899756",
					"owner()": "8da5cb5b",
					"renounceOwnership()": "715018a6",
					"sharesLoansOf(address)": "d414c820",
					"transferOwnership(address)": "f2fde38b",
					"withdrawAsset(uint256)": "8d92fdf3"
				}
			},
			"storageLayout": {
				"storage": [
					{
						"astId": 1207,
						"contract": "contracts/insurance.sol:insurance",
						"label": "_owner",
						"offset": 0,
						"slot": "0",
						"type": "t_address"
					},
					{
						"astId": 2628,
						"contract": "contracts/insurance.sol:insurance",
						"label": "aaveAddress",
						"offset": 0,
						"slot": "1",
						"type": "t_address"
					},
					{
						"astId": 2631,
						"contract": "contracts/insurance.sol:insurance",
						"label": "poolAave",
						"offset": 0,
						"slot": "2",
						"type": "t_contract(IPool)638"
					},
					{
						"astId": 2637,
						"contract": "contracts/insurance.sol:insurance",
						"label": "totalSharesLoansPerAsset",
						"offset": 0,
						"slot": "3",
						"type": "t_uint256"
					},
					{
						"astId": 2639,
						"contract": "contracts/insurance.sol:insurance",
						"label": "_addressClaimContract",
						"offset": 0,
						"slot": "4",
						"type": "t_address"
					},
					{
						"astId": 2642,
						"contract": "contracts/insurance.sol:insurance",
						"label": "_USDC",
						"offset": 0,
						"slot": "5",
						"type": "t_address"
					},
					{
						"astId": 2646,
						"contract": "contracts/insurance.sol:insurance",
						"label": "assets",
						"offset": 0,
						"slot": "6",
						"type": "t_mapping(t_address,t_uint256)"
					},
					{
						"astId": 2650,
						"contract": "contracts/insurance.sol:insurance",
						"label": "sharesLoans",
						"offset": 0,
						"slot": "7",
						"type": "t_mapping(t_address,t_uint256)"
					}
				],
				"types": {
					"t_address": {
						"encoding": "inplace",
						"label": "address",
						"numberOfBytes": "20"
					},
					"t_contract(IPool)638": {
						"encoding": "inplace",
						"label": "contract IPool",
						"numberOfBytes": "20"
					},
					"t_mapping(t_address,t_uint256)": {
						"encoding": "mapping",
						"key": "t_address",
						"label": "mapping(address => uint256)",
						"numberOfBytes": "32",
						"value": "t_uint256"
					},
					"t_uint256": {
						"encoding": "inplace",
						"label": "uint256",
						"numberOfBytes": "32"
					}
				}
			},
			"userdoc": {
				"kind": "user",
				"methods": {},
				"version": 1
			}
		}
	}
}