{
	"contracts/claims.sol": {
		"claims": {
			"abi": [
				{
					"inputs": [],
					"stateMutability": "nonpayable",
					"type": "constructor"
				},
				{
					"anonymous": false,
					"inputs": [
						{
							"indexed": true,
							"internalType": "address",
							"name": "previousOwner",
							"type": "address"
						},
						{
							"indexed": true,
							"internalType": "address",
							"name": "newOwner",
							"type": "address"
						}
					],
					"name": "OwnershipTransferred",
					"type": "event"
				},
				{
					"inputs": [
						{
							"internalType": "uint256",
							"name": "amount",
							"type": "uint256"
						},
						{
							"internalType": "address",
							"name": "account",
							"type": "address"
						}
					],
					"name": "addCoverage",
					"outputs": [],
					"stateMutability": "nonpayable",
					"type": "function"
				},
				{
					"inputs": [
						{
							"internalType": "address",
							"name": "newAddress",
							"type": "address"
						}
					],
					"name": "changeAddressInsuranceContract",
					"outputs": [],
					"stateMutability": "nonpayable",
					"type": "function"
				},
				{
					"inputs": [
						{
							"internalType": "uint256",
							"name": "newAlpha",
							"type": "uint256"
						},
						{
							"internalType": "uint256",
							"name": "newBeta",
							"type": "uint256"
						},
						{
							"internalType": "uint256",
							"name": "newTh",
							"type": "uint256"
						}
					],
					"name": "changeParameters",
					"outputs": [],
					"stateMutability": "nonpayable",
					"type": "function"
				},
				{
					"inputs": [
						{
							"internalType": "uint256",
							"name": "protocolFluctuation",
							"type": "uint256"
						}
					],
					"name": "checkPayment",
					"outputs": [
						{
							"internalType": "bool",
							"name": "",
							"type": "bool"
						}
					],
					"stateMutability": "view",
					"type": "function"
				},
				{
					"inputs": [
						{
							"internalType": "uint256",
							"name": "protocolFluctuation",
							"type": "uint256"
						}
					],
					"name": "claimPayment",
					"outputs": [],
					"stateMutability": "nonpayable",
					"type": "function"
				},
				{
					"inputs": [
						{
							"internalType": "uint256",
							"name": "quantity",
							"type": "uint256"
						}
					],
					"name": "computePremium",
					"outputs": [
						{
							"internalType": "uint256",
							"name": "",
							"type": "uint256"
						}
					],
					"stateMutability": "view",
					"type": "function"
				},
				{
					"inputs": [
						{
							"internalType": "address",
							"name": "",
							"type": "address"
						}
					],
					"name": "ensured",
					"outputs": [
						{
							"internalType": "bool",
							"name": "",
							"type": "bool"
						}
					],
					"stateMutability": "view",
					"type": "function"
				},
				{
					"inputs": [],
					"name": "owner",
					"outputs": [
						{
							"internalType": "address",
							"name": "",
							"type": "address"
						}
					],
					"stateMutability": "view",
					"type": "function"
				},
				{
					"inputs": [
						{
							"internalType": "address",
							"name": "",
							"type": "address"
						}
					],
					"name": "redeemAmount",
					"outputs": [
						{
							"internalType": "uint256",
							"name": "",
							"type": "uint256"
						}
					],
					"stateMutability": "view",
					"type": "function"
				},
				{
					"inputs": [
						{
							"internalType": "uint256",
							"name": "amount",
							"type": "uint256"
						},
						{
							"internalType": "address",
							"name": "account",
							"type": "address"
						}
					],
					"name": "reduceCoverage",
					"outputs": [],
					"stateMutability": "nonpayable",
					"type": "function"
				},
				{
					"inputs": [],
					"name": "renounceOwnership",
					"outputs": [],
					"stateMutability": "nonpayable",
					"type": "function"
				},
				{
					"inputs": [
						{
							"internalType": "address",
							"name": "newOwner",
							"type": "address"
						}
					],
					"name": "transferOwnership",
					"outputs": [],
					"stateMutability": "nonpayable",
					"type": "function"
				}
			],
			"devdoc": {
				"kind": "dev",
				"methods": {
					"owner()": {
						"details": "Returns the address of the current owner."
					},
					"renounceOwnership()": {
						"details": "Leaves the contract without owner. It will not be possible to call `onlyOwner` functions. Can only be called by the current owner. NOTE: Renouncing ownership will leave the contract without an owner, thereby disabling any functionality that is only available to the owner."
					},
					"transferOwnership(address)": {
						"details": "Transfers ownership of the contract to a new account (`newOwner`). Can only be called by the current owner."
					}
				},
				"version": 1
			},
			"evm": {
				"assembly": "    /* \"contracts/claims.sol\":367:3102  contract claims is Ownable {... */\n  mstore(0x40, 0x80)\n    /* \"contracts/claims.sol\":439:497  address _USDC = 0xF14f9596430931E177469715c591513308244e8F */\n  0x02\n  dup1\n  sload\n  not(sub(shl(0xa0, 0x01), 0x01))\n  and\n    /* \"contracts/claims.sol\":455:497  0xF14f9596430931E177469715c591513308244e8F */\n  0xf14f9596430931e177469715c591513308244e8f\n    /* \"contracts/claims.sol\":439:497  address _USDC = 0xF14f9596430931E177469715c591513308244e8F */\n  or\n  dup2\n  sstore\n    /* \"contracts/claims.sol\":749:752  100 */\n  0x64\n    /* \"contracts/claims.sol\":733:752  uint256 alpha = 100 */\n  0x03\n  sstore\n    /* \"contracts/claims.sol\":773:776  800 */\n  0x0320\n    /* \"contracts/claims.sol\":758:776  uint256 beta = 800 */\n  0x04\n  sstore\n    /* \"contracts/claims.sol\":795:798  700 */\n  0x02bc\n    /* \"contracts/claims.sol\":782:798  uint256 th = 700 */\n  0x05\n  sstore\n    /* \"contracts/claims.sol\":804:825  uint256 profit100 = 2 */\n  0x06\n  sstore\n    /* \"contracts/claims.sol\":931:947  constructor() {} */\n  callvalue\n  dup1\n  iszero\n  tag_1\n  jumpi\n  0x00\n  dup1\n  revert\ntag_1:\n  pop\n    /* \"@openzeppelin/contracts/access/Ownable.sol\":936:968  _transferOwnership(_msgSender()) */\n  tag_5\n    /* \"@openzeppelin/contracts/utils/Context.sol\":719:729  msg.sender */\n  caller\n    /* \"@openzeppelin/contracts/access/Ownable.sol\":936:954  _transferOwnership */\n  tag_8\n    /* \"@openzeppelin/contracts/access/Ownable.sol\":936:968  _transferOwnership(_msgSender()) */\n  jump\t// in\ntag_5:\n    /* \"contracts/claims.sol\":367:3102  contract claims is Ownable {... */\n  jump(tag_10)\n    /* \"@openzeppelin/contracts/access/Ownable.sol\":2426:2613  function _transferOwnership(address newOwner) internal virtual {... */\ntag_8:\n    /* \"@openzeppelin/contracts/access/Ownable.sol\":2499:2515  address oldOwner */\n  0x00\n    /* \"@openzeppelin/contracts/access/Ownable.sol\":2518:2524  _owner */\n  dup1\n  sload\n  sub(shl(0xa0, 0x01), 0x01)\n    /* \"@openzeppelin/contracts/access/Ownable.sol\":2534:2551  _owner = newOwner */\n  dup4\n  dup2\n  and\n  not(sub(shl(0xa0, 0x01), 0x01))\n  dup4\n  and\n  dup2\n  or\n  dup5\n  sstore\n    /* \"@openzeppelin/contracts/access/Ownable.sol\":2566:2606  OwnershipTransferred(oldOwner, newOwner) */\n  mload(0x40)\n    /* \"@openzeppelin/contracts/access/Ownable.sol\":2518:2524  _owner */\n  swap2\n  swap1\n  swap3\n  and\n  swap3\n  dup4\n  swap2\n    /* \"@openzeppelin/contracts/access/Ownable.sol\":2566:2606  OwnershipTransferred(oldOwner, newOwner) */\n  0x8be0079c531659141344cd1fd0a4f28419497f9722a3daafe3b4186f6b6457e0\n  swap2\n    /* \"@openzeppelin/contracts/access/Ownable.sol\":2499:2515  address oldOwner */\n  swap1\n    /* \"@openzeppelin/contracts/access/Ownable.sol\":2566:2606  OwnershipTransferred(oldOwner, newOwner) */\n  log3\n    /* \"@openzeppelin/contracts/access/Ownable.sol\":2489:2613  {... */\n  pop\n    /* \"@openzeppelin/contracts/access/Ownable.sol\":2426:2613  function _transferOwnership(address newOwner) internal virtual {... */\n  pop\n  jump\t// out\n    /* \"contracts/claims.sol\":367:3102  contract claims is Ownable {... */\ntag_10:\n  dataSize(sub_0)\n  dup1\n  dataOffset(sub_0)\n  0x00\n  codecopy\n  0x00\n  return\nstop\n\nsub_0: assembly {\n        /* \"contracts/claims.sol\":367:3102  contract claims is Ownable {... */\n      mstore(0x40, 0x80)\n      callvalue\n      dup1\n      iszero\n      tag_1\n      jumpi\n      0x00\n      dup1\n      revert\n    tag_1:\n      pop\n      jumpi(tag_2, lt(calldatasize, 0x04))\n      shr(0xe0, calldataload(0x00))\n      dup1\n      0xae04adfb\n      gt\n      tag_15\n      jumpi\n      dup1\n      0xae04adfb\n      eq\n      tag_9\n      jumpi\n      dup1\n      0xc63fdcc7\n      eq\n      tag_10\n      jumpi\n      dup1\n      0xcbf3ff67\n      eq\n      tag_11\n      jumpi\n      dup1\n      0xf2fde38b\n      eq\n      tag_12\n      jumpi\n      dup1\n      0xf75f6029\n      eq\n      tag_13\n      jumpi\n      dup1\n      0xfc8ad37c\n      eq\n      tag_14\n      jumpi\n      0x00\n      dup1\n      revert\n    tag_15:\n      dup1\n      0x715018a6\n      eq\n      tag_3\n      jumpi\n      dup1\n      0x71ad25ba\n      eq\n      tag_4\n      jumpi\n      dup1\n      0x805f79a8\n      eq\n      tag_5\n      jumpi\n      dup1\n      0x86b82254\n      eq\n      tag_6\n      jumpi\n      dup1\n      0x8da5cb5b\n      eq\n      tag_7\n      jumpi\n      dup1\n      0xa3df437b\n      eq\n      tag_8\n      jumpi\n    tag_2:\n      0x00\n      dup1\n      revert\n        /* \"@openzeppelin/contracts/access/Ownable.sol\":1824:1925  function renounceOwnership() public virtual onlyOwner {... */\n    tag_3:\n      tag_16\n      tag_17\n      jump\t// in\n    tag_16:\n      stop\n        /* \"contracts/claims.sol\":832:871  mapping(address => bool) public ensured */\n    tag_4:\n      tag_18\n      tag_19\n      calldatasize\n      0x04\n      tag_20\n      jump\t// in\n    tag_19:\n      mstore(0x20, 0x07)\n      0x00\n      swap1\n      dup2\n      mstore\n      0x40\n      swap1\n      keccak256\n      sload\n      0xff\n      and\n      dup2\n      jump\n    tag_18:\n      mload(0x40)\n        /* \"#utility.yul\":548:562   */\n      swap1\n      iszero\n        /* \"#utility.yul\":541:563   */\n      iszero\n        /* \"#utility.yul\":523:564   */\n      dup2\n      mstore\n        /* \"#utility.yul\":511:513   */\n      0x20\n        /* \"#utility.yul\":496:514   */\n      add\n        /* \"contracts/claims.sol\":832:871  mapping(address => bool) public ensured */\n    tag_22:\n      mload(0x40)\n      dup1\n      swap2\n      sub\n      swap1\n      return\n        /* \"contracts/claims.sol\":877:924  mapping(address => uint256) public redeemAmount */\n    tag_5:\n      tag_24\n      tag_25\n      calldatasize\n      0x04\n      tag_20\n      jump\t// in\n    tag_25:\n      mstore(0x20, 0x08)\n      0x00\n      swap1\n      dup2\n      mstore\n      0x40\n      swap1\n      keccak256\n      sload\n      dup2\n      jump\n    tag_24:\n      mload(0x40)\n        /* \"#utility.yul\":721:746   */\n      swap1\n      dup2\n      mstore\n        /* \"#utility.yul\":709:711   */\n      0x20\n        /* \"#utility.yul\":694:712   */\n      add\n        /* \"contracts/claims.sol\":877:924  mapping(address => uint256) public redeemAmount */\n      tag_22\n        /* \"#utility.yul\":575:752   */\n      jump\n        /* \"contracts/claims.sol\":953:1170  function computePremium(uint256 quantity) public view returns (uint256) {... */\n    tag_6:\n      tag_24\n      tag_30\n      calldatasize\n      0x04\n      tag_31\n      jump\t// in\n    tag_30:\n      tag_32\n      jump\t// in\n        /* \"@openzeppelin/contracts/access/Ownable.sol\":1201:1286  function owner() public view virtual returns (address) {... */\n    tag_7:\n        /* \"@openzeppelin/contracts/access/Ownable.sol\":1247:1254  address */\n      0x00\n        /* \"@openzeppelin/contracts/access/Ownable.sol\":1273:1279  _owner */\n      sload\n        /* \"@openzeppelin/contracts/access/Ownable.sol\":1201:1286  function owner() public view virtual returns (address) {... */\n      mload(0x40)\n      sub(shl(0xa0, 0x01), 0x01)\n        /* \"@openzeppelin/contracts/access/Ownable.sol\":1273:1279  _owner */\n      swap1\n      swap2\n      and\n        /* \"#utility.yul\":1088:1139   */\n      dup2\n      mstore\n        /* \"#utility.yul\":1076:1078   */\n      0x20\n        /* \"#utility.yul\":1061:1079   */\n      add\n        /* \"@openzeppelin/contracts/access/Ownable.sol\":1201:1286  function owner() public view virtual returns (address) {... */\n      tag_22\n        /* \"#utility.yul\":942:1145   */\n      jump\n        /* \"contracts/claims.sol\":1496:1701  function reduceCoverage( uint256 amount, address account ) external onlyInsurance {... */\n    tag_8:\n      tag_16\n      tag_39\n      calldatasize\n      0x04\n      tag_40\n      jump\t// in\n    tag_39:\n      tag_41\n      jump\t// in\n        /* \"contracts/claims.sol\":2842:2974  function changeAddressInsuranceContract(address newAddress) public onlyOwner {... */\n    tag_9:\n      tag_16\n      tag_43\n      calldatasize\n      0x04\n      tag_20\n      jump\t// in\n    tag_43:\n      tag_44\n      jump\t// in\n        /* \"contracts/claims.sol\":1804:2319  function claimPayment(uint256 protocolFluctuation) public {... */\n    tag_10:\n      tag_16\n      tag_46\n      calldatasize\n      0x04\n      tag_31\n      jump\t// in\n    tag_46:\n      tag_47\n      jump\t// in\n        /* \"contracts/claims.sol\":2423:2549  function checkPayment(uint256 protocolFluctuation) public view returns (bool) {... */\n    tag_11:\n      tag_18\n      tag_49\n      calldatasize\n      0x04\n      tag_31\n      jump\t// in\n    tag_49:\n        /* \"contracts/claims.sol\":2540:2542  th */\n      sload(0x05)\n      lt\n        /* \"contracts/claims.sol\":2518:2542  protocolFluctuation > th */\n      swap1\n        /* \"contracts/claims.sol\":2423:2549  function checkPayment(uint256 protocolFluctuation) public view returns (bool) {... */\n      jump\n        /* \"@openzeppelin/contracts/access/Ownable.sol\":2074:2272  function transferOwnership(address newOwner) public virtual onlyOwner {... */\n    tag_12:\n      tag_16\n      tag_53\n      calldatasize\n      0x04\n      tag_20\n      jump\t// in\n    tag_53:\n      tag_54\n      jump\t// in\n        /* \"contracts/claims.sol\":1176:1490  function addCoverage( uint256 amount, address account ) external onlyInsurance {... */\n    tag_13:\n      tag_16\n      tag_56\n      calldatasize\n      0x04\n      tag_40\n      jump\t// in\n    tag_56:\n      tag_57\n      jump\t// in\n        /* \"contracts/claims.sol\":2555:2786  function changeParameters(uint256 newAlpha, uint256 newBeta, uint256 newTh) public onlyOwner {... */\n    tag_14:\n      tag_16\n      tag_59\n      calldatasize\n      0x04\n      tag_60\n      jump\t// in\n    tag_59:\n      tag_61\n      jump\t// in\n        /* \"@openzeppelin/contracts/access/Ownable.sol\":1824:1925  function renounceOwnership() public virtual onlyOwner {... */\n    tag_17:\n        /* \"@openzeppelin/contracts/access/Ownable.sol\":1094:1107  _checkOwner() */\n      tag_63\n        /* \"@openzeppelin/contracts/access/Ownable.sol\":1094:1105  _checkOwner */\n      tag_64\n        /* \"@openzeppelin/contracts/access/Ownable.sol\":1094:1107  _checkOwner() */\n      jump\t// in\n    tag_63:\n        /* \"@openzeppelin/contracts/access/Ownable.sol\":1888:1918  _transferOwnership(address(0)) */\n      tag_66\n        /* \"@openzeppelin/contracts/access/Ownable.sol\":1915:1916  0 */\n      0x00\n        /* \"@openzeppelin/contracts/access/Ownable.sol\":1888:1906  _transferOwnership */\n      tag_67\n        /* \"@openzeppelin/contracts/access/Ownable.sol\":1888:1918  _transferOwnership(address(0)) */\n      jump\t// in\n    tag_66:\n        /* \"@openzeppelin/contracts/access/Ownable.sol\":1824:1925  function renounceOwnership() public virtual onlyOwner {... */\n      jump\t// out\n        /* \"contracts/claims.sol\":953:1170  function computePremium(uint256 quantity) public view returns (uint256) {... */\n    tag_32:\n        /* \"contracts/claims.sol\":1016:1023  uint256 */\n      0x00\n        /* \"contracts/claims.sol\":1035:1055  uint256 expectedLoss */\n      dup1\n        /* \"contracts/claims.sol\":1058:1102  Math.mulDiv( alpha, quantity, alpha + beta ) */\n      tag_69\n        /* \"contracts/claims.sol\":1071:1076  alpha */\n      sload(0x03)\n        /* \"contracts/claims.sol\":1078:1086  quantity */\n      dup5\n        /* \"contracts/claims.sol\":1096:1100  beta */\n      sload(0x04)\n        /* \"contracts/claims.sol\":1088:1093  alpha */\n      sload(0x03)\n        /* \"contracts/claims.sol\":1088:1100  alpha + beta */\n      tag_70\n      swap2\n      swap1\n      tag_71\n      jump\t// in\n    tag_70:\n        /* \"contracts/claims.sol\":1058:1069  Math.mulDiv */\n      tag_72\n        /* \"contracts/claims.sol\":1058:1102  Math.mulDiv( alpha, quantity, alpha + beta ) */\n      jump\t// in\n    tag_69:\n        /* \"contracts/claims.sol\":1035:1102  uint256 expectedLoss = Math.mulDiv( alpha, quantity, alpha + beta ) */\n      swap1\n      pop\n        /* \"contracts/claims.sol\":1160:1163  100 */\n      0x64\n        /* \"contracts/claims.sol\":1144:1153  profit100 */\n      sload(0x06)\n        /* \"contracts/claims.sol\":1138:1141  100 */\n      0x64\n        /* \"contracts/claims.sol\":1138:1153  100 + profit100 */\n      tag_73\n      swap2\n      swap1\n      tag_71\n      jump\t// in\n    tag_73:\n        /* \"contracts/claims.sol\":1121:1155  expectedLoss * ( 100 + profit100 ) */\n      tag_74\n      swap1\n        /* \"contracts/claims.sol\":1121:1133  expectedLoss */\n      dup4\n        /* \"contracts/claims.sol\":1121:1155  expectedLoss * ( 100 + profit100 ) */\n      tag_75\n      jump\t// in\n    tag_74:\n        /* \"contracts/claims.sol\":1119:1163  ( expectedLoss * ( 100 + profit100 ) ) / 100 */\n      tag_76\n      swap2\n      swap1\n      tag_77\n      jump\t// in\n    tag_76:\n        /* \"contracts/claims.sol\":1112:1163  return ( expectedLoss * ( 100 + profit100 ) ) / 100 */\n      swap4\n        /* \"contracts/claims.sol\":953:1170  function computePremium(uint256 quantity) public view returns (uint256) {... */\n      swap3\n      pop\n      pop\n      pop\n      jump\t// out\n        /* \"contracts/claims.sol\":1496:1701  function reduceCoverage( uint256 amount, address account ) external onlyInsurance {... */\n    tag_41:\n        /* \"contracts/claims.sol\":3036:3061  _addressInsuranceContract */\n      and(sub(shl(0xa0, 0x01), 0x01), sload(0x01))\n        /* \"contracts/claims.sol\":3022:3032  msg.sender */\n      caller\n        /* \"contracts/claims.sol\":3022:3061  msg.sender == _addressInsuranceContract */\n      eq\n        /* \"contracts/claims.sol\":3013:3081  require( msg.sender == _addressInsuranceContract, \"Not authorized\" ) */\n      tag_80\n      jumpi\n      mload(0x40)\n      shl(0xe5, 0x461bcd)\n      dup2\n      mstore\n        /* \"#utility.yul\":2721:2723   */\n      0x20\n        /* \"contracts/claims.sol\":3013:3081  require( msg.sender == _addressInsuranceContract, \"Not authorized\" ) */\n      0x04\n      dup3\n      add\n        /* \"#utility.yul\":2703:2724   */\n      mstore\n        /* \"#utility.yul\":2760:2762   */\n      0x0e\n        /* \"#utility.yul\":2740:2758   */\n      0x24\n      dup3\n      add\n        /* \"#utility.yul\":2733:2763   */\n      mstore\n      shl(0x92, 0x139bdd08185d5d1a1bdc9a5e9959)\n        /* \"#utility.yul\":2779:2797   */\n      0x44\n      dup3\n      add\n        /* \"#utility.yul\":2772:2816   */\n      mstore\n        /* \"#utility.yul\":2833:2851   */\n      0x64\n      add\n        /* \"contracts/claims.sol\":3013:3081  require( msg.sender == _addressInsuranceContract, \"Not authorized\" ) */\n    tag_81:\n      mload(0x40)\n      dup1\n      swap2\n      sub\n      swap1\n      revert\n    tag_80:\n      sub(shl(0xa0, 0x01), 0x01)\n        /* \"contracts/claims.sol\":1588:1609  redeemAmount[account] */\n      dup2\n      and\n      0x00\n      swap1\n      dup2\n      mstore\n        /* \"contracts/claims.sol\":1588:1600  redeemAmount */\n      0x08\n        /* \"contracts/claims.sol\":1588:1609  redeemAmount[account] */\n      0x20\n      mstore\n      0x40\n      dup2\n      keccak256\n        /* \"contracts/claims.sol\":1588:1619  redeemAmount[account] -= amount */\n      dup1\n      sload\n        /* \"contracts/claims.sol\":1613:1619  amount */\n      dup5\n      swap3\n        /* \"contracts/claims.sol\":1588:1609  redeemAmount[account] */\n      swap1\n        /* \"contracts/claims.sol\":1588:1619  redeemAmount[account] -= amount */\n      tag_84\n      swap1\n        /* \"contracts/claims.sol\":1613:1619  amount */\n      dup5\n      swap1\n        /* \"contracts/claims.sol\":1588:1619  redeemAmount[account] -= amount */\n      tag_85\n      jump\t// in\n    tag_84:\n      swap1\n      swap2\n      sstore\n      pop\n      pop\n        /* \"contracts/claims.sol\":1643:1644  0 */\n      0x00\n        /* \"contracts/claims.sol\":1633:1644  amount == 0 */\n      dup3\n      swap1\n      sub\n        /* \"contracts/claims.sol\":1629:1695  if (amount == 0) {... */\n      tag_86\n      jumpi\n      sub(shl(0xa0, 0x01), 0x01)\n        /* \"contracts/claims.sol\":1660:1676  ensured[account] */\n      dup2\n      and\n        /* \"contracts/claims.sol\":1679:1684  false */\n      0x00\n        /* \"contracts/claims.sol\":1660:1676  ensured[account] */\n      swap1\n      dup2\n      mstore\n        /* \"contracts/claims.sol\":1660:1667  ensured */\n      0x07\n        /* \"contracts/claims.sol\":1660:1676  ensured[account] */\n      0x20\n      mstore\n      0x40\n      swap1\n      keccak256\n        /* \"contracts/claims.sol\":1660:1684  ensured[account] = false */\n      dup1\n      sload\n      not(0xff)\n      and\n      swap1\n      sstore\n        /* \"contracts/claims.sol\":1629:1695  if (amount == 0) {... */\n    tag_86:\n        /* \"contracts/claims.sol\":1496:1701  function reduceCoverage( uint256 amount, address account ) external onlyInsurance {... */\n      pop\n      pop\n      jump\t// out\n        /* \"contracts/claims.sol\":2842:2974  function changeAddressInsuranceContract(address newAddress) public onlyOwner {... */\n    tag_44:\n        /* \"@openzeppelin/contracts/access/Ownable.sol\":1094:1107  _checkOwner() */\n      tag_88\n        /* \"@openzeppelin/contracts/access/Ownable.sol\":1094:1105  _checkOwner */\n      tag_64\n        /* \"@openzeppelin/contracts/access/Ownable.sol\":1094:1107  _checkOwner() */\n      jump\t// in\n    tag_88:\n        /* \"contracts/claims.sol\":2929:2954  _addressInsuranceContract */\n      0x01\n        /* \"contracts/claims.sol\":2929:2967  _addressInsuranceContract = newAddress */\n      dup1\n      sload\n      not(sub(shl(0xa0, 0x01), 0x01))\n      and\n      sub(shl(0xa0, 0x01), 0x01)\n      swap3\n      swap1\n      swap3\n      and\n      swap2\n      swap1\n      swap2\n      or\n      swap1\n      sstore\n        /* \"contracts/claims.sol\":2842:2974  function changeAddressInsuranceContract(address newAddress) public onlyOwner {... */\n      jump\t// out\n        /* \"contracts/claims.sol\":1804:2319  function claimPayment(uint256 protocolFluctuation) public {... */\n    tag_47:\n        /* \"contracts/claims.sol\":1889:1899  msg.sender */\n      caller\n        /* \"contracts/claims.sol\":1881:1900  ensured[msg.sender] */\n      0x00\n      swap1\n      dup2\n      mstore\n        /* \"contracts/claims.sol\":1881:1888  ensured */\n      0x07\n        /* \"contracts/claims.sol\":1881:1900  ensured[msg.sender] */\n      0x20\n      mstore\n      0x40\n      swap1\n      keccak256\n      sload\n      0xff\n      and\n        /* \"contracts/claims.sol\":1872:1922  require( ensured[msg.sender], \"User not ensured\" ) */\n      tag_91\n      jumpi\n      mload(0x40)\n      shl(0xe5, 0x461bcd)\n      dup2\n      mstore\n        /* \"#utility.yul\":3197:3199   */\n      0x20\n        /* \"contracts/claims.sol\":1872:1922  require( ensured[msg.sender], \"User not ensured\" ) */\n      0x04\n      dup3\n      add\n        /* \"#utility.yul\":3179:3200   */\n      mstore\n        /* \"#utility.yul\":3236:3238   */\n      0x10\n        /* \"#utility.yul\":3216:3234   */\n      0x24\n      dup3\n      add\n        /* \"#utility.yul\":3209:3239   */\n      mstore\n      shl(0x82, 0x155cd95c881b9bdd08195b9cdd5c9959)\n        /* \"#utility.yul\":3255:3273   */\n      0x44\n      dup3\n      add\n        /* \"#utility.yul\":3248:3294   */\n      mstore\n        /* \"#utility.yul\":3311:3329   */\n      0x64\n      add\n        /* \"contracts/claims.sol\":1872:1922  require( ensured[msg.sender], \"User not ensured\" ) */\n      tag_81\n        /* \"#utility.yul\":2995:3335   */\n      jump\n        /* \"contracts/claims.sol\":1872:1922  require( ensured[msg.sender], \"User not ensured\" ) */\n    tag_91:\n        /* \"contracts/claims.sol\":1963:1965  th */\n      sload(0x05)\n        /* \"contracts/claims.sol\":1941:1960  protocolFluctuation */\n      dup2\n        /* \"contracts/claims.sol\":1941:1965  protocolFluctuation > th */\n      gt\n        /* \"contracts/claims.sol\":1932:1992  require( protocolFluctuation > th, \"No reason for payment\" ) */\n      tag_94\n      jumpi\n      mload(0x40)\n      shl(0xe5, 0x461bcd)\n      dup2\n      mstore\n        /* \"#utility.yul\":3542:3544   */\n      0x20\n        /* \"contracts/claims.sol\":1932:1992  require( protocolFluctuation > th, \"No reason for payment\" ) */\n      0x04\n      dup3\n      add\n        /* \"#utility.yul\":3524:3545   */\n      mstore\n        /* \"#utility.yul\":3581:3583   */\n      0x15\n        /* \"#utility.yul\":3561:3579   */\n      0x24\n      dup3\n      add\n        /* \"#utility.yul\":3554:3584   */\n      mstore\n      shl(0x5a, 0x139bc81c99585cdbdb88199bdc881c185e5b595b9d)\n        /* \"#utility.yul\":3600:3618   */\n      0x44\n      dup3\n      add\n        /* \"#utility.yul\":3593:3644   */\n      mstore\n        /* \"#utility.yul\":3661:3679   */\n      0x64\n      add\n        /* \"contracts/claims.sol\":1932:1992  require( protocolFluctuation > th, \"No reason for payment\" ) */\n      tag_81\n        /* \"#utility.yul\":3340:3685   */\n      jump\n        /* \"contracts/claims.sol\":1932:1992  require( protocolFluctuation > th, \"No reason for payment\" ) */\n    tag_94:\n        /* \"contracts/claims.sol\":2032:2042  msg.sender */\n      caller\n        /* \"contracts/claims.sol\":2002:2016  uint256 amount */\n      0x00\n        /* \"contracts/claims.sol\":2019:2043  redeemAmount[msg.sender] */\n      swap1\n      dup2\n      mstore\n        /* \"contracts/claims.sol\":2019:2031  redeemAmount */\n      0x08\n        /* \"contracts/claims.sol\":2019:2043  redeemAmount[msg.sender] */\n      0x20\n      mstore\n      0x40\n      swap1\n      dup2\n      swap1\n      keccak256\n      sload\n        /* \"contracts/claims.sol\":2074:2079  _USDC */\n      sload(0x02)\n        /* \"contracts/claims.sol\":2067:2107  IERC20(_USDC).balanceOf( address(this) ) */\n      swap2\n      mload\n      shl(0xe0, 0x70a08231)\n      dup2\n      mstore\n        /* \"contracts/claims.sol\":2100:2104  this */\n      address\n        /* \"contracts/claims.sol\":2067:2107  IERC20(_USDC).balanceOf( address(this) ) */\n      0x04\n      dup3\n      add\n        /* \"#utility.yul\":1088:1139   */\n      mstore\n        /* \"contracts/claims.sol\":2019:2043  redeemAmount[msg.sender] */\n      swap1\n      swap2\n      sub(shl(0xa0, 0x01), 0x01)\n        /* \"contracts/claims.sol\":2074:2079  _USDC */\n      and\n      swap1\n        /* \"contracts/claims.sol\":2067:2090  IERC20(_USDC).balanceOf */\n      0x70a08231\n      swap1\n        /* \"#utility.yul\":1061:1079   */\n      0x24\n      add\n        /* \"contracts/claims.sol\":2067:2107  IERC20(_USDC).balanceOf( address(this) ) */\n      0x20\n      mload(0x40)\n      dup1\n      dup4\n      sub\n      dup2\n      dup7\n      gas\n      staticcall\n      iszero\n      dup1\n      iszero\n      tag_99\n      jumpi\n      returndatasize\n      0x00\n      dup1\n      returndatacopy\n      revert(0x00, returndatasize)\n    tag_99:\n      pop\n      pop\n      pop\n      pop\n      mload(0x40)\n      returndatasize\n      not(0x1f)\n      0x1f\n      dup3\n      add\n      and\n      dup3\n      add\n      dup1\n      0x40\n      mstore\n      pop\n      dup2\n      add\n      swap1\n      tag_100\n      swap2\n      swap1\n      tag_101\n      jump\t// in\n    tag_100:\n        /* \"contracts/claims.sol\":2058:2064  amount */\n      dup2\n        /* \"contracts/claims.sol\":2058:2107  amount > IERC20(_USDC).balanceOf( address(this) ) */\n      gt\n        /* \"contracts/claims.sol\":2053:2184  if ( amount > IERC20(_USDC).balanceOf( address(this) ) ) {... */\n      iszero\n      tag_102\n      jumpi\n        /* \"contracts/claims.sol\":2140:2145  _USDC */\n      sload(0x02)\n        /* \"contracts/claims.sol\":2133:2173  IERC20(_USDC).balanceOf( address(this) ) */\n      mload(0x40)\n      shl(0xe0, 0x70a08231)\n      dup2\n      mstore\n        /* \"contracts/claims.sol\":2166:2170  this */\n      address\n        /* \"contracts/claims.sol\":2133:2173  IERC20(_USDC).balanceOf( address(this) ) */\n      0x04\n      dup3\n      add\n        /* \"#utility.yul\":1088:1139   */\n      mstore\n      sub(shl(0xa0, 0x01), 0x01)\n        /* \"contracts/claims.sol\":2140:2145  _USDC */\n      swap1\n      swap2\n      and\n      swap1\n        /* \"contracts/claims.sol\":2133:2156  IERC20(_USDC).balanceOf */\n      0x70a08231\n      swap1\n        /* \"#utility.yul\":1061:1079   */\n      0x24\n      add\n        /* \"contracts/claims.sol\":2133:2173  IERC20(_USDC).balanceOf( address(this) ) */\n      0x20\n      mload(0x40)\n      dup1\n      dup4\n      sub\n      dup2\n      dup7\n      gas\n      staticcall\n      iszero\n      dup1\n      iszero\n      tag_105\n      jumpi\n      returndatasize\n      0x00\n      dup1\n      returndatacopy\n      revert(0x00, returndatasize)\n    tag_105:\n      pop\n      pop\n      pop\n      pop\n      mload(0x40)\n      returndatasize\n      not(0x1f)\n      0x1f\n      dup3\n      add\n      and\n      dup3\n      add\n      dup1\n      0x40\n      mstore\n      pop\n      dup2\n      add\n      swap1\n      tag_106\n      swap2\n      swap1\n      tag_101\n      jump\t// in\n    tag_106:\n        /* \"contracts/claims.sol\":2124:2173  amount = IERC20(_USDC).balanceOf( address(this) ) */\n      swap1\n      pop\n        /* \"contracts/claims.sol\":2053:2184  if ( amount > IERC20(_USDC).balanceOf( address(this) ) ) {... */\n    tag_102:\n        /* \"contracts/claims.sol\":2201:2211  msg.sender */\n      caller\n        /* \"contracts/claims.sol\":2215:2220  false */\n      0x00\n        /* \"contracts/claims.sol\":2193:2212  ensured[msg.sender] */\n      dup2\n      dup2\n      mstore\n        /* \"contracts/claims.sol\":2193:2200  ensured */\n      0x07\n        /* \"contracts/claims.sol\":2193:2212  ensured[msg.sender] */\n      0x20\n      swap1\n      dup2\n      mstore\n      0x40\n      dup1\n      dup4\n      keccak256\n        /* \"contracts/claims.sol\":2193:2220  ensured[msg.sender] = false */\n      dup1\n      sload\n      not(0xff)\n      and\n      swap1\n      sstore\n        /* \"contracts/claims.sol\":2230:2242  redeemAmount */\n      0x08\n        /* \"contracts/claims.sol\":2230:2254  redeemAmount[msg.sender] */\n      swap1\n      swap2\n      mstore\n      dup1\n      dup3\n      keccak256\n        /* \"contracts/claims.sol\":2230:2258  redeemAmount[msg.sender] = 0 */\n      swap2\n      swap1\n      swap2\n      sstore\n        /* \"contracts/claims.sol\":2275:2280  _USDC */\n      sload(0x02)\n        /* \"contracts/claims.sol\":2268:2312  IERC20(_USDC).transfer( msg.sender, amount ) */\n      swap1\n      mload\n      shl(0xe0, 0xa9059cbb)\n      dup2\n      mstore\n      0x04\n      dup2\n      add\n        /* \"#utility.yul\":4053:4104   */\n      swap3\n      swap1\n      swap3\n      mstore\n        /* \"#utility.yul\":4120:4138   */\n      0x24\n      dup3\n      add\n        /* \"#utility.yul\":4113:4147   */\n      dup4\n      swap1\n      mstore\n      sub(shl(0xa0, 0x01), 0x01)\n        /* \"contracts/claims.sol\":2275:2280  _USDC */\n      and\n      swap1\n        /* \"contracts/claims.sol\":2268:2290  IERC20(_USDC).transfer */\n      0xa9059cbb\n      swap1\n        /* \"#utility.yul\":4026:4044   */\n      0x44\n      add\n        /* \"contracts/claims.sol\":2268:2312  IERC20(_USDC).transfer( msg.sender, amount ) */\n      0x20\n      mload(0x40)\n      dup1\n      dup4\n      sub\n      dup2\n      0x00\n      dup8\n      gas\n      call\n      iszero\n      dup1\n      iszero\n      tag_110\n      jumpi\n      returndatasize\n      0x00\n      dup1\n      returndatacopy\n      revert(0x00, returndatasize)\n    tag_110:\n      pop\n      pop\n      pop\n      pop\n      mload(0x40)\n      returndatasize\n      not(0x1f)\n      0x1f\n      dup3\n      add\n      and\n      dup3\n      add\n      dup1\n      0x40\n      mstore\n      pop\n      dup2\n      add\n      swap1\n      tag_111\n      swap2\n      swap1\n      tag_112\n      jump\t// in\n    tag_111:\n      pop\n        /* \"contracts/claims.sol\":1862:2319  {... */\n      pop\n        /* \"contracts/claims.sol\":1804:2319  function claimPayment(uint256 protocolFluctuation) public {... */\n      pop\n      jump\t// out\n        /* \"@openzeppelin/contracts/access/Ownable.sol\":2074:2272  function transferOwnership(address newOwner) public virtual onlyOwner {... */\n    tag_54:\n        /* \"@openzeppelin/contracts/access/Ownable.sol\":1094:1107  _checkOwner() */\n      tag_115\n        /* \"@openzeppelin/contracts/access/Ownable.sol\":1094:1105  _checkOwner */\n      tag_64\n        /* \"@openzeppelin/contracts/access/Ownable.sol\":1094:1107  _checkOwner() */\n      jump\t// in\n    tag_115:\n      sub(shl(0xa0, 0x01), 0x01)\n        /* \"@openzeppelin/contracts/access/Ownable.sol\":2162:2184  newOwner != address(0) */\n      dup2\n      and\n        /* \"@openzeppelin/contracts/access/Ownable.sol\":2154:2227  require(newOwner != address(0), \"Ownable: new owner is the zero address\") */\n      tag_117\n      jumpi\n      mload(0x40)\n      shl(0xe5, 0x461bcd)\n      dup2\n      mstore\n        /* \"#utility.yul\":4642:4644   */\n      0x20\n        /* \"@openzeppelin/contracts/access/Ownable.sol\":2154:2227  require(newOwner != address(0), \"Ownable: new owner is the zero address\") */\n      0x04\n      dup3\n      add\n        /* \"#utility.yul\":4624:4645   */\n      mstore\n        /* \"#utility.yul\":4681:4683   */\n      0x26\n        /* \"#utility.yul\":4661:4679   */\n      0x24\n      dup3\n      add\n        /* \"#utility.yul\":4654:4684   */\n      mstore\n        /* \"#utility.yul\":4720:4754   */\n      0x4f776e61626c653a206e6577206f776e657220697320746865207a65726f2061\n        /* \"#utility.yul\":4700:4718   */\n      0x44\n      dup3\n      add\n        /* \"#utility.yul\":4693:4755   */\n      mstore\n      shl(0xd0, 0x646472657373)\n        /* \"#utility.yul\":4771:4789   */\n      0x64\n      dup3\n      add\n        /* \"#utility.yul\":4764:4800   */\n      mstore\n        /* \"#utility.yul\":4817:4836   */\n      0x84\n      add\n        /* \"@openzeppelin/contracts/access/Ownable.sol\":2154:2227  require(newOwner != address(0), \"Ownable: new owner is the zero address\") */\n      tag_81\n        /* \"#utility.yul\":4440:4842   */\n      jump\n        /* \"@openzeppelin/contracts/access/Ownable.sol\":2154:2227  require(newOwner != address(0), \"Ownable: new owner is the zero address\") */\n    tag_117:\n        /* \"@openzeppelin/contracts/access/Ownable.sol\":2237:2265  _transferOwnership(newOwner) */\n      tag_120\n        /* \"@openzeppelin/contracts/access/Ownable.sol\":2256:2264  newOwner */\n      dup2\n        /* \"@openzeppelin/contracts/access/Ownable.sol\":2237:2255  _transferOwnership */\n      tag_67\n        /* \"@openzeppelin/contracts/access/Ownable.sol\":2237:2265  _transferOwnership(newOwner) */\n      jump\t// in\n    tag_120:\n        /* \"@openzeppelin/contracts/access/Ownable.sol\":2074:2272  function transferOwnership(address newOwner) public virtual onlyOwner {... */\n      pop\n      jump\t// out\n        /* \"contracts/claims.sol\":1176:1490  function addCoverage( uint256 amount, address account ) external onlyInsurance {... */\n    tag_57:\n        /* \"contracts/claims.sol\":3036:3061  _addressInsuranceContract */\n      and(sub(shl(0xa0, 0x01), 0x01), sload(0x01))\n        /* \"contracts/claims.sol\":3022:3032  msg.sender */\n      caller\n        /* \"contracts/claims.sol\":3022:3061  msg.sender == _addressInsuranceContract */\n      eq\n        /* \"contracts/claims.sol\":3013:3081  require( msg.sender == _addressInsuranceContract, \"Not authorized\" ) */\n      tag_122\n      jumpi\n      mload(0x40)\n      shl(0xe5, 0x461bcd)\n      dup2\n      mstore\n        /* \"#utility.yul\":2721:2723   */\n      0x20\n        /* \"contracts/claims.sol\":3013:3081  require( msg.sender == _addressInsuranceContract, \"Not authorized\" ) */\n      0x04\n      dup3\n      add\n        /* \"#utility.yul\":2703:2724   */\n      mstore\n        /* \"#utility.yul\":2760:2762   */\n      0x0e\n        /* \"#utility.yul\":2740:2758   */\n      0x24\n      dup3\n      add\n        /* \"#utility.yul\":2733:2763   */\n      mstore\n      shl(0x92, 0x139bdd08185d5d1a1bdc9a5e9959)\n        /* \"#utility.yul\":2779:2797   */\n      0x44\n      dup3\n      add\n        /* \"#utility.yul\":2772:2816   */\n      mstore\n        /* \"#utility.yul\":2833:2851   */\n      0x64\n      add\n        /* \"contracts/claims.sol\":3013:3081  require( msg.sender == _addressInsuranceContract, \"Not authorized\" ) */\n      tag_81\n        /* \"#utility.yul\":2519:2857   */\n      jump\n        /* \"contracts/claims.sol\":3013:3081  require( msg.sender == _addressInsuranceContract, \"Not authorized\" ) */\n    tag_122:\n        /* \"contracts/claims.sol\":1265:1287  uint256 requiredAmount */\n      0x00\n        /* \"contracts/claims.sol\":1290:1314  computePremium( amount ) */\n      tag_125\n        /* \"contracts/claims.sol\":1306:1312  amount */\n      dup4\n        /* \"contracts/claims.sol\":1290:1304  computePremium */\n      tag_32\n        /* \"contracts/claims.sol\":1290:1314  computePremium( amount ) */\n      jump\t// in\n    tag_125:\n        /* \"contracts/claims.sol\":1331:1336  _USDC */\n      sload(0x02)\n      0x01\n        /* \"contracts/claims.sol\":1351:1376  _addressInsuranceContract */\n      sload\n        /* \"contracts/claims.sol\":1324:1409  IERC20(_USDC).transferFrom(_addressInsuranceContract, address(this), requiredAmount ) */\n      mload(0x40)\n      shl(0xe0, 0x23b872dd)\n      dup2\n      mstore\n      sub(shl(0xa0, 0x01), 0x01)\n        /* \"contracts/claims.sol\":1351:1376  _addressInsuranceContract */\n      swap2\n      dup3\n      and\n        /* \"contracts/claims.sol\":1324:1409  IERC20(_USDC).transferFrom(_addressInsuranceContract, address(this), requiredAmount ) */\n      0x04\n      dup3\n      add\n        /* \"#utility.yul\":5087:5121   */\n      mstore\n        /* \"contracts/claims.sol\":1386:1390  this */\n      address\n        /* \"#utility.yul\":5137:5155   */\n      0x24\n      dup3\n      add\n        /* \"#utility.yul\":5130:5173   */\n      mstore\n        /* \"#utility.yul\":5189:5207   */\n      0x44\n      dup2\n      add\n        /* \"#utility.yul\":5182:5216   */\n      dup5\n      swap1\n      mstore\n        /* \"contracts/claims.sol\":1265:1314  uint256 requiredAmount = computePremium( amount ) */\n      swap3\n      swap4\n      pop\n        /* \"contracts/claims.sol\":1331:1336  _USDC */\n      and\n      swap1\n        /* \"contracts/claims.sol\":1324:1350  IERC20(_USDC).transferFrom */\n      0x23b872dd\n      swap1\n        /* \"#utility.yul\":5022:5040   */\n      0x64\n      add\n        /* \"contracts/claims.sol\":1324:1409  IERC20(_USDC).transferFrom(_addressInsuranceContract, address(this), requiredAmount ) */\n      0x20\n      mload(0x40)\n      dup1\n      dup4\n      sub\n      dup2\n      0x00\n      dup8\n      gas\n      call\n      iszero\n      dup1\n      iszero\n      tag_129\n      jumpi\n      returndatasize\n      0x00\n      dup1\n      returndatacopy\n      revert(0x00, returndatasize)\n    tag_129:\n      pop\n      pop\n      pop\n      pop\n      mload(0x40)\n      returndatasize\n      not(0x1f)\n      0x1f\n      dup3\n      add\n      and\n      dup3\n      add\n      dup1\n      0x40\n      mstore\n      pop\n      dup2\n      add\n      swap1\n      tag_130\n      swap2\n      swap1\n      tag_112\n      jump\t// in\n    tag_130:\n      pop\n      sub(shl(0xa0, 0x01), 0x01)\n        /* \"contracts/claims.sol\":1419:1435  ensured[account] */\n      dup3\n      and\n      0x00\n      swap1\n      dup2\n      mstore\n        /* \"contracts/claims.sol\":1419:1426  ensured */\n      0x07\n        /* \"contracts/claims.sol\":1419:1435  ensured[account] */\n      0x20\n      swap1\n      dup2\n      mstore\n      0x40\n      dup1\n      dup4\n      keccak256\n        /* \"contracts/claims.sol\":1419:1442  ensured[account] = true */\n      dup1\n      sload\n      not(0xff)\n      and\n        /* \"contracts/claims.sol\":1438:1442  true */\n      0x01\n        /* \"contracts/claims.sol\":1419:1442  ensured[account] = true */\n      or\n      swap1\n      sstore\n        /* \"contracts/claims.sol\":1452:1464  redeemAmount */\n      0x08\n        /* \"contracts/claims.sol\":1452:1473  redeemAmount[account] */\n      swap1\n      swap2\n      mstore\n      dup2\n      keccak256\n        /* \"contracts/claims.sol\":1452:1483  redeemAmount[account] += amount */\n      dup1\n      sload\n        /* \"contracts/claims.sol\":1477:1483  amount */\n      dup6\n      swap3\n        /* \"contracts/claims.sol\":1419:1435  ensured[account] */\n      swap1\n        /* \"contracts/claims.sol\":1452:1483  redeemAmount[account] += amount */\n      tag_131\n      swap1\n        /* \"contracts/claims.sol\":1477:1483  amount */\n      dup5\n      swap1\n        /* \"contracts/claims.sol\":1452:1483  redeemAmount[account] += amount */\n      tag_71\n      jump\t// in\n    tag_131:\n      swap1\n      swap2\n      sstore\n      pop\n      pop\n      pop\n      pop\n      pop\n        /* \"contracts/claims.sol\":1176:1490  function addCoverage( uint256 amount, address account ) external onlyInsurance {... */\n      jump\t// out\n        /* \"contracts/claims.sol\":2555:2786  function changeParameters(uint256 newAlpha, uint256 newBeta, uint256 newTh) public onlyOwner {... */\n    tag_61:\n        /* \"@openzeppelin/contracts/access/Ownable.sol\":1094:1107  _checkOwner() */\n      tag_133\n        /* \"@openzeppelin/contracts/access/Ownable.sol\":1094:1105  _checkOwner */\n      tag_64\n        /* \"@openzeppelin/contracts/access/Ownable.sol\":1094:1107  _checkOwner() */\n      jump\t// in\n    tag_133:\n        /* \"contracts/claims.sol\":2678:2679  0 */\n      0x00\n        /* \"contracts/claims.sol\":2667:2675  newAlpha */\n      dup4\n        /* \"contracts/claims.sol\":2667:2679  newAlpha > 0 */\n      gt\n        /* \"contracts/claims.sol\":2667:2694  newAlpha > 0 && newBeta > 0 */\n      dup1\n      iszero\n      tag_135\n      jumpi\n      pop\n        /* \"contracts/claims.sol\":2693:2694  0 */\n      0x00\n        /* \"contracts/claims.sol\":2683:2690  newBeta */\n      dup3\n        /* \"contracts/claims.sol\":2683:2694  newBeta > 0 */\n      gt\n        /* \"contracts/claims.sol\":2667:2694  newAlpha > 0 && newBeta > 0 */\n    tag_135:\n        /* \"contracts/claims.sol\":2667:2707  newAlpha > 0 && newBeta > 0 && newTh > 0 */\n      dup1\n      iszero\n      tag_136\n      jumpi\n      pop\n        /* \"contracts/claims.sol\":2706:2707  0 */\n      0x00\n        /* \"contracts/claims.sol\":2698:2703  newTh */\n      dup2\n        /* \"contracts/claims.sol\":2698:2707  newTh > 0 */\n      gt\n        /* \"contracts/claims.sol\":2667:2707  newAlpha > 0 && newBeta > 0 && newTh > 0 */\n    tag_136:\n        /* \"contracts/claims.sol\":2658:2709  require( newAlpha > 0 && newBeta > 0 && newTh > 0 ) */\n      tag_137\n      jumpi\n      0x00\n      dup1\n      revert\n    tag_137:\n        /* \"contracts/claims.sol\":2719:2724  alpha */\n      0x03\n        /* \"contracts/claims.sol\":2719:2735  alpha = newAlpha */\n      swap3\n      swap1\n      swap3\n      sstore\n        /* \"contracts/claims.sol\":2745:2749  beta */\n      0x04\n        /* \"contracts/claims.sol\":2745:2759  beta = newBeta */\n      sstore\n        /* \"contracts/claims.sol\":2769:2771  th */\n      0x05\n        /* \"contracts/claims.sol\":2769:2779  th = newTh */\n      sstore\n        /* \"contracts/claims.sol\":2555:2786  function changeParameters(uint256 newAlpha, uint256 newBeta, uint256 newTh) public onlyOwner {... */\n      jump\t// out\n        /* \"@openzeppelin/contracts/access/Ownable.sol\":1359:1489  function _checkOwner() internal view virtual {... */\n    tag_64:\n        /* \"@openzeppelin/contracts/access/Ownable.sol\":1247:1254  address */\n      0x00\n        /* \"@openzeppelin/contracts/access/Ownable.sol\":1273:1279  _owner */\n      sload\n      sub(shl(0xa0, 0x01), 0x01)\n      and\n        /* \"@openzeppelin/contracts/utils/Context.sol\":719:729  msg.sender */\n      caller\n        /* \"@openzeppelin/contracts/access/Ownable.sol\":1422:1445  owner() == _msgSender() */\n      eq\n        /* \"@openzeppelin/contracts/access/Ownable.sol\":1414:1482  require(owner() == _msgSender(), \"Ownable: caller is not the owner\") */\n      tag_66\n      jumpi\n      mload(0x40)\n      shl(0xe5, 0x461bcd)\n      dup2\n      mstore\n        /* \"#utility.yul\":5429:5431   */\n      0x20\n        /* \"@openzeppelin/contracts/access/Ownable.sol\":1414:1482  require(owner() == _msgSender(), \"Ownable: caller is not the owner\") */\n      0x04\n      dup3\n      add\n        /* \"#utility.yul\":5411:5432   */\n      dup2\n      swap1\n      mstore\n        /* \"#utility.yul\":5448:5466   */\n      0x24\n      dup3\n      add\n        /* \"#utility.yul\":5441:5471   */\n      mstore\n        /* \"#utility.yul\":5507:5541   */\n      0x4f776e61626c653a2063616c6c6572206973206e6f7420746865206f776e6572\n        /* \"#utility.yul\":5487:5505   */\n      0x44\n      dup3\n      add\n        /* \"#utility.yul\":5480:5542   */\n      mstore\n        /* \"#utility.yul\":5559:5577   */\n      0x64\n      add\n        /* \"@openzeppelin/contracts/access/Ownable.sol\":1414:1482  require(owner() == _msgSender(), \"Ownable: caller is not the owner\") */\n      tag_81\n        /* \"#utility.yul\":5227:5583   */\n      jump\n        /* \"@openzeppelin/contracts/access/Ownable.sol\":2426:2613  function _transferOwnership(address newOwner) internal virtual {... */\n    tag_67:\n        /* \"@openzeppelin/contracts/access/Ownable.sol\":2499:2515  address oldOwner */\n      0x00\n        /* \"@openzeppelin/contracts/access/Ownable.sol\":2518:2524  _owner */\n      dup1\n      sload\n      sub(shl(0xa0, 0x01), 0x01)\n        /* \"@openzeppelin/contracts/access/Ownable.sol\":2534:2551  _owner = newOwner */\n      dup4\n      dup2\n      and\n      not(sub(shl(0xa0, 0x01), 0x01))\n      dup4\n      and\n      dup2\n      or\n      dup5\n      sstore\n        /* \"@openzeppelin/contracts/access/Ownable.sol\":2566:2606  OwnershipTransferred(oldOwner, newOwner) */\n      mload(0x40)\n        /* \"@openzeppelin/contracts/access/Ownable.sol\":2518:2524  _owner */\n      swap2\n      swap1\n      swap3\n      and\n      swap3\n      dup4\n      swap2\n        /* \"@openzeppelin/contracts/access/Ownable.sol\":2566:2606  OwnershipTransferred(oldOwner, newOwner) */\n      0x8be0079c531659141344cd1fd0a4f28419497f9722a3daafe3b4186f6b6457e0\n      swap2\n        /* \"@openzeppelin/contracts/access/Ownable.sol\":2499:2515  address oldOwner */\n      swap1\n        /* \"@openzeppelin/contracts/access/Ownable.sol\":2566:2606  OwnershipTransferred(oldOwner, newOwner) */\n      log3\n        /* \"@openzeppelin/contracts/access/Ownable.sol\":2489:2613  {... */\n      pop\n        /* \"@openzeppelin/contracts/access/Ownable.sol\":2426:2613  function _transferOwnership(address newOwner) internal virtual {... */\n      pop\n      jump\t// out\n        /* \"@openzeppelin/contracts/utils/math/Math.sol\":1667:5880  function mulDiv(uint256 x, uint256 y, uint256 denominator) internal pure returns (uint256 result) {... */\n    tag_72:\n        /* \"@openzeppelin/contracts/utils/math/Math.sol\":1749:1763  uint256 result */\n      0x00\n      dup1\n      dup1\n      not(0x00)\n        /* \"@openzeppelin/contracts/utils/math/Math.sol\":2286:2287  y */\n      dup6\n        /* \"@openzeppelin/contracts/utils/math/Math.sol\":2283:2284  x */\n      dup8\n        /* \"@openzeppelin/contracts/utils/math/Math.sol\":2276:2296  mulmod(x, y, not(0)) */\n      mulmod\n        /* \"@openzeppelin/contracts/utils/math/Math.sol\":2329:2330  y */\n      dup6\n        /* \"@openzeppelin/contracts/utils/math/Math.sol\":2326:2327  x */\n      dup8\n        /* \"@openzeppelin/contracts/utils/math/Math.sol\":2322:2331  mul(x, y) */\n      mul\n        /* \"@openzeppelin/contracts/utils/math/Math.sol\":2313:2331  prod0 := mul(x, y) */\n      swap3\n      pop\n        /* \"@openzeppelin/contracts/utils/math/Math.sol\":2384:2389  prod0 */\n      dup3\n        /* \"@openzeppelin/contracts/utils/math/Math.sol\":2380:2382  mm */\n      dup2\n        /* \"@openzeppelin/contracts/utils/math/Math.sol\":2377:2390  lt(mm, prod0) */\n      lt\n        /* \"@openzeppelin/contracts/utils/math/Math.sol\":2369:2374  prod0 */\n      dup4\n        /* \"@openzeppelin/contracts/utils/math/Math.sol\":2365:2367  mm */\n      dup3\n        /* \"@openzeppelin/contracts/utils/math/Math.sol\":2361:2375  sub(mm, prod0) */\n      sub\n        /* \"@openzeppelin/contracts/utils/math/Math.sol\":2357:2391  sub(sub(mm, prod0), lt(mm, prod0)) */\n      sub\n        /* \"@openzeppelin/contracts/utils/math/Math.sol\":2348:2391  prod1 := sub(sub(mm, prod0), lt(mm, prod0)) */\n      swap2\n      pop\n      pop\n        /* \"@openzeppelin/contracts/utils/math/Math.sol\":2486:2491  prod1 */\n      dup1\n        /* \"@openzeppelin/contracts/utils/math/Math.sol\":2495:2496  0 */\n      0x00\n        /* \"@openzeppelin/contracts/utils/math/Math.sol\":2486:2496  prod1 == 0 */\n      sub\n        /* \"@openzeppelin/contracts/utils/math/Math.sol\":2482:2850  if (prod1 == 0) {... */\n      tag_147\n      jumpi\n        /* \"@openzeppelin/contracts/utils/math/Math.sol\":2824:2835  denominator */\n      dup4\n        /* \"@openzeppelin/contracts/utils/math/Math.sol\":2816:2821  prod0 */\n      dup3\n        /* \"@openzeppelin/contracts/utils/math/Math.sol\":2816:2835  prod0 / denominator */\n      dup2\n      tag_149\n      jumpi\n      tag_149\n      tag_150\n      jump\t// in\n    tag_149:\n      div\n        /* \"@openzeppelin/contracts/utils/math/Math.sol\":2809:2835  return prod0 / denominator */\n      swap3\n      pop\n      pop\n      pop\n      jump(tag_76)\n        /* \"@openzeppelin/contracts/utils/math/Math.sol\":2482:2850  if (prod1 == 0) {... */\n    tag_147:\n        /* \"@openzeppelin/contracts/utils/math/Math.sol\":2974:2979  prod1 */\n      dup1\n        /* \"@openzeppelin/contracts/utils/math/Math.sol\":2960:2971  denominator */\n      dup5\n        /* \"@openzeppelin/contracts/utils/math/Math.sol\":2960:2979  denominator > prod1 */\n      gt\n        /* \"@openzeppelin/contracts/utils/math/Math.sol\":2952:3005  require(denominator > prod1, \"Math: mulDiv overflow\") */\n      tag_151\n      jumpi\n      mload(0x40)\n      shl(0xe5, 0x461bcd)\n      dup2\n      mstore\n        /* \"#utility.yul\":5790:5792   */\n      0x20\n        /* \"@openzeppelin/contracts/utils/math/Math.sol\":2952:3005  require(denominator > prod1, \"Math: mulDiv overflow\") */\n      0x04\n      dup3\n      add\n        /* \"#utility.yul\":5772:5793   */\n      mstore\n        /* \"#utility.yul\":5829:5831   */\n      0x15\n        /* \"#utility.yul\":5809:5827   */\n      0x24\n      dup3\n      add\n        /* \"#utility.yul\":5802:5832   */\n      mstore\n      shl(0x58, 0x4d6174683a206d756c446976206f766572666c6f77)\n        /* \"#utility.yul\":5848:5866   */\n      0x44\n      dup3\n      add\n        /* \"#utility.yul\":5841:5892   */\n      mstore\n        /* \"#utility.yul\":5909:5927   */\n      0x64\n      add\n        /* \"@openzeppelin/contracts/utils/math/Math.sol\":2952:3005  require(denominator > prod1, \"Math: mulDiv overflow\") */\n      tag_81\n        /* \"#utility.yul\":5588:5933   */\n      jump\n        /* \"@openzeppelin/contracts/utils/math/Math.sol\":2952:3005  require(denominator > prod1, \"Math: mulDiv overflow\") */\n    tag_151:\n        /* \"@openzeppelin/contracts/utils/math/Math.sol\":3261:3278  uint256 remainder */\n      0x00\n        /* \"@openzeppelin/contracts/utils/math/Math.sol\":3396:3407  denominator */\n      dup5\n        /* \"@openzeppelin/contracts/utils/math/Math.sol\":3393:3394  y */\n      dup7\n        /* \"@openzeppelin/contracts/utils/math/Math.sol\":3390:3391  x */\n      dup9\n        /* \"@openzeppelin/contracts/utils/math/Math.sol\":3383:3408  mulmod(x, y, denominator) */\n      mulmod\n        /* \"@openzeppelin/contracts/utils/math/Math.sol\":4774:4775  2 */\n      0x02\n        /* \"@openzeppelin/contracts/utils/math/Math.sol\":4755:4756  3 */\n      0x03\n        /* \"@openzeppelin/contracts/utils/math/Math.sol\":3944:3945  1 */\n      0x01\n        /* \"@openzeppelin/contracts/utils/math/Math.sol\":3929:3941  ~denominator */\n      dup9\n      not\n        /* \"@openzeppelin/contracts/utils/math/Math.sol\":3929:3945  ~denominator + 1 */\n      dup2\n      add\n        /* \"@openzeppelin/contracts/utils/math/Math.sol\":3914:3946  denominator & (~denominator + 1) */\n      dup10\n      and\n        /* \"@openzeppelin/contracts/utils/math/Math.sol\":4049:4071  div(denominator, twos) */\n      swap9\n      dup10\n      swap1\n      div\n        /* \"@openzeppelin/contracts/utils/math/Math.sol\":4755:4770  3 * denominator */\n      swap2\n      dup3\n      mul\n        /* \"@openzeppelin/contracts/utils/math/Math.sol\":4754:4775  (3 * denominator) ^ 2 */\n      dup4\n      xor\n        /* \"@openzeppelin/contracts/utils/math/Math.sol\":5007:5028  denominator * inverse */\n      dup1\n      dup4\n      mul\n        /* \"@openzeppelin/contracts/utils/math/Math.sol\":5003:5028  2 - denominator * inverse */\n      dup5\n      sub\n        /* \"@openzeppelin/contracts/utils/math/Math.sol\":4992:5028  inverse *= 2 - denominator * inverse */\n      mul\n        /* \"@openzeppelin/contracts/utils/math/Math.sol\":5076:5097  denominator * inverse */\n      dup1\n      dup4\n      mul\n        /* \"@openzeppelin/contracts/utils/math/Math.sol\":5072:5097  2 - denominator * inverse */\n      dup5\n      sub\n        /* \"@openzeppelin/contracts/utils/math/Math.sol\":5061:5097  inverse *= 2 - denominator * inverse */\n      mul\n        /* \"@openzeppelin/contracts/utils/math/Math.sol\":5146:5167  denominator * inverse */\n      dup1\n      dup4\n      mul\n        /* \"@openzeppelin/contracts/utils/math/Math.sol\":5142:5167  2 - denominator * inverse */\n      dup5\n      sub\n        /* \"@openzeppelin/contracts/utils/math/Math.sol\":5131:5167  inverse *= 2 - denominator * inverse */\n      mul\n        /* \"@openzeppelin/contracts/utils/math/Math.sol\":5216:5237  denominator * inverse */\n      dup1\n      dup4\n      mul\n        /* \"@openzeppelin/contracts/utils/math/Math.sol\":5212:5237  2 - denominator * inverse */\n      dup5\n      sub\n        /* \"@openzeppelin/contracts/utils/math/Math.sol\":5201:5237  inverse *= 2 - denominator * inverse */\n      mul\n        /* \"@openzeppelin/contracts/utils/math/Math.sol\":5286:5307  denominator * inverse */\n      dup1\n      dup4\n      mul\n        /* \"@openzeppelin/contracts/utils/math/Math.sol\":5282:5307  2 - denominator * inverse */\n      dup5\n      sub\n        /* \"@openzeppelin/contracts/utils/math/Math.sol\":5271:5307  inverse *= 2 - denominator * inverse */\n      mul\n        /* \"@openzeppelin/contracts/utils/math/Math.sol\":5357:5378  denominator * inverse */\n      swap2\n      dup3\n      mul\n        /* \"@openzeppelin/contracts/utils/math/Math.sol\":5353:5378  2 - denominator * inverse */\n      swap1\n      swap3\n      sub\n        /* \"@openzeppelin/contracts/utils/math/Math.sol\":5342:5378  inverse *= 2 - denominator * inverse */\n      mul\n        /* \"@openzeppelin/contracts/utils/math/Math.sol\":3899:3911  uint256 twos */\n      0x00\n        /* \"@openzeppelin/contracts/utils/math/Math.sol\":4294:4306  sub(0, twos) */\n      dup9\n      swap1\n      sub\n        /* \"@openzeppelin/contracts/utils/math/Math.sol\":4290:4313  div(sub(0, twos), twos) */\n      dup9\n      swap1\n      div\n        /* \"@openzeppelin/contracts/utils/math/Math.sol\":4286:4317  add(div(sub(0, twos), twos), 1) */\n      swap1\n      swap2\n      add\n        /* \"@openzeppelin/contracts/utils/math/Math.sol\":3510:3530  gt(remainder, prod0) */\n      dup6\n      dup4\n      gt\n        /* \"@openzeppelin/contracts/utils/math/Math.sol\":3499:3531  sub(prod1, gt(remainder, prod0)) */\n      swap1\n      swap5\n      sub\n        /* \"@openzeppelin/contracts/utils/math/Math.sol\":4406:4418  prod1 * twos */\n      swap4\n      swap1\n      swap4\n      mul\n        /* \"@openzeppelin/contracts/utils/math/Math.sol\":3557:3578  sub(prod0, remainder) */\n      swap4\n      sub\n        /* \"@openzeppelin/contracts/utils/math/Math.sol\":4147:4163  div(prod0, twos) */\n      swap5\n      swap1\n      swap5\n      div\n        /* \"@openzeppelin/contracts/utils/math/Math.sol\":4397:4418  prod0 |= prod1 * twos */\n      swap2\n      swap1\n      swap2\n      or\n        /* \"@openzeppelin/contracts/utils/math/Math.sol\":5821:5836  prod0 * inverse */\n      mul\n      swap5\n        /* \"@openzeppelin/contracts/utils/math/Math.sol\":1667:5880  function mulDiv(uint256 x, uint256 y, uint256 denominator) internal pure returns (uint256 result) {... */\n      swap4\n      pop\n      pop\n      pop\n      pop\n      jump\t// out\n        /* \"#utility.yul\":14:187   */\n    tag_155:\n        /* \"#utility.yul\":82:102   */\n      dup1\n      calldataload\n      sub(shl(0xa0, 0x01), 0x01)\n        /* \"#utility.yul\":131:162   */\n      dup2\n      and\n        /* \"#utility.yul\":121:163   */\n      dup2\n      eq\n        /* \"#utility.yul\":111:181   */\n      tag_159\n      jumpi\n        /* \"#utility.yul\":177:178   */\n      0x00\n        /* \"#utility.yul\":174:175   */\n      dup1\n        /* \"#utility.yul\":167:179   */\n      revert\n        /* \"#utility.yul\":111:181   */\n    tag_159:\n        /* \"#utility.yul\":14:187   */\n      swap2\n      swap1\n      pop\n      jump\t// out\n        /* \"#utility.yul\":192:378   */\n    tag_20:\n        /* \"#utility.yul\":251:257   */\n      0x00\n        /* \"#utility.yul\":304:306   */\n      0x20\n        /* \"#utility.yul\":292:301   */\n      dup3\n        /* \"#utility.yul\":283:290   */\n      dup5\n        /* \"#utility.yul\":279:302   */\n      sub\n        /* \"#utility.yul\":275:307   */\n      slt\n        /* \"#utility.yul\":272:324   */\n      iszero\n      tag_161\n      jumpi\n        /* \"#utility.yul\":320:321   */\n      0x00\n        /* \"#utility.yul\":317:318   */\n      dup1\n        /* \"#utility.yul\":310:322   */\n      revert\n        /* \"#utility.yul\":272:324   */\n    tag_161:\n        /* \"#utility.yul\":343:372   */\n      tag_76\n        /* \"#utility.yul\":362:371   */\n      dup3\n        /* \"#utility.yul\":343:372   */\n      tag_155\n      jump\t// in\n        /* \"#utility.yul\":757:937   */\n    tag_31:\n        /* \"#utility.yul\":816:822   */\n      0x00\n        /* \"#utility.yul\":869:871   */\n      0x20\n        /* \"#utility.yul\":857:866   */\n      dup3\n        /* \"#utility.yul\":848:855   */\n      dup5\n        /* \"#utility.yul\":844:867   */\n      sub\n        /* \"#utility.yul\":840:872   */\n      slt\n        /* \"#utility.yul\":837:889   */\n      iszero\n      tag_166\n      jumpi\n        /* \"#utility.yul\":885:886   */\n      0x00\n        /* \"#utility.yul\":882:883   */\n      dup1\n        /* \"#utility.yul\":875:887   */\n      revert\n        /* \"#utility.yul\":837:889   */\n    tag_166:\n      pop\n        /* \"#utility.yul\":908:931   */\n      calldataload\n      swap2\n        /* \"#utility.yul\":757:937   */\n      swap1\n      pop\n      jump\t// out\n        /* \"#utility.yul\":1150:1404   */\n    tag_40:\n        /* \"#utility.yul\":1218:1224   */\n      0x00\n        /* \"#utility.yul\":1226:1232   */\n      dup1\n        /* \"#utility.yul\":1279:1281   */\n      0x40\n        /* \"#utility.yul\":1267:1276   */\n      dup4\n        /* \"#utility.yul\":1258:1265   */\n      dup6\n        /* \"#utility.yul\":1254:1277   */\n      sub\n        /* \"#utility.yul\":1250:1282   */\n      slt\n        /* \"#utility.yul\":1247:1299   */\n      iszero\n      tag_169\n      jumpi\n        /* \"#utility.yul\":1295:1296   */\n      0x00\n        /* \"#utility.yul\":1292:1293   */\n      dup1\n        /* \"#utility.yul\":1285:1297   */\n      revert\n        /* \"#utility.yul\":1247:1299   */\n    tag_169:\n        /* \"#utility.yul\":1331:1340   */\n      dup3\n        /* \"#utility.yul\":1318:1341   */\n      calldataload\n        /* \"#utility.yul\":1308:1341   */\n      swap2\n      pop\n        /* \"#utility.yul\":1360:1398   */\n      tag_170\n        /* \"#utility.yul\":1394:1396   */\n      0x20\n        /* \"#utility.yul\":1383:1392   */\n      dup5\n        /* \"#utility.yul\":1379:1397   */\n      add\n        /* \"#utility.yul\":1360:1398   */\n      tag_155\n      jump\t// in\n    tag_170:\n        /* \"#utility.yul\":1350:1398   */\n      swap1\n      pop\n        /* \"#utility.yul\":1150:1404   */\n      swap3\n      pop\n      swap3\n      swap1\n      pop\n      jump\t// out\n        /* \"#utility.yul\":1409:1725   */\n    tag_60:\n        /* \"#utility.yul\":1486:1492   */\n      0x00\n        /* \"#utility.yul\":1494:1500   */\n      dup1\n        /* \"#utility.yul\":1502:1508   */\n      0x00\n        /* \"#utility.yul\":1555:1557   */\n      0x60\n        /* \"#utility.yul\":1543:1552   */\n      dup5\n        /* \"#utility.yul\":1534:1541   */\n      dup7\n        /* \"#utility.yul\":1530:1553   */\n      sub\n        /* \"#utility.yul\":1526:1558   */\n      slt\n        /* \"#utility.yul\":1523:1575   */\n      iszero\n      tag_172\n      jumpi\n        /* \"#utility.yul\":1571:1572   */\n      0x00\n        /* \"#utility.yul\":1568:1569   */\n      dup1\n        /* \"#utility.yul\":1561:1573   */\n      revert\n        /* \"#utility.yul\":1523:1575   */\n    tag_172:\n      pop\n      pop\n        /* \"#utility.yul\":1594:1617   */\n      dup2\n      calldataload\n      swap4\n        /* \"#utility.yul\":1664:1666   */\n      0x20\n        /* \"#utility.yul\":1649:1667   */\n      dup4\n      add\n        /* \"#utility.yul\":1636:1668   */\n      calldataload\n      swap4\n      pop\n        /* \"#utility.yul\":1715:1717   */\n      0x40\n        /* \"#utility.yul\":1700:1718   */\n      swap1\n      swap3\n      add\n        /* \"#utility.yul\":1687:1719   */\n      calldataload\n      swap2\n        /* \"#utility.yul\":1409:1725   */\n      swap1\n      pop\n      jump\t// out\n        /* \"#utility.yul\":1730:1857   */\n    tag_156:\n        /* \"#utility.yul\":1791:1801   */\n      0x4e487b71\n        /* \"#utility.yul\":1786:1789   */\n      0xe0\n        /* \"#utility.yul\":1782:1802   */\n      shl\n        /* \"#utility.yul\":1779:1780   */\n      0x00\n        /* \"#utility.yul\":1772:1803   */\n      mstore\n        /* \"#utility.yul\":1822:1826   */\n      0x11\n        /* \"#utility.yul\":1819:1820   */\n      0x04\n        /* \"#utility.yul\":1812:1827   */\n      mstore\n        /* \"#utility.yul\":1846:1850   */\n      0x24\n        /* \"#utility.yul\":1843:1844   */\n      0x00\n        /* \"#utility.yul\":1836:1851   */\n      revert\n        /* \"#utility.yul\":1862:1987   */\n    tag_71:\n        /* \"#utility.yul\":1927:1936   */\n      dup1\n      dup3\n      add\n        /* \"#utility.yul\":1948:1958   */\n      dup1\n      dup3\n      gt\n        /* \"#utility.yul\":1945:1981   */\n      iszero\n      tag_176\n      jumpi\n        /* \"#utility.yul\":1961:1979   */\n      tag_176\n      tag_156\n      jump\t// in\n    tag_176:\n        /* \"#utility.yul\":1862:1987   */\n      swap3\n      swap2\n      pop\n      pop\n      jump\t// out\n        /* \"#utility.yul\":1992:2160   */\n    tag_75:\n        /* \"#utility.yul\":2065:2074   */\n      dup1\n      dup3\n      mul\n        /* \"#utility.yul\":2096:2105   */\n      dup2\n      iszero\n        /* \"#utility.yul\":2113:2128   */\n      dup3\n      dup3\n      div\n        /* \"#utility.yul\":2107:2129   */\n      dup5\n      eq\n        /* \"#utility.yul\":2093:2130   */\n      or\n        /* \"#utility.yul\":2083:2154   */\n      tag_176\n      jumpi\n        /* \"#utility.yul\":2134:2152   */\n      tag_176\n      tag_156\n      jump\t// in\n        /* \"#utility.yul\":2165:2292   */\n    tag_150:\n        /* \"#utility.yul\":2226:2236   */\n      0x4e487b71\n        /* \"#utility.yul\":2221:2224   */\n      0xe0\n        /* \"#utility.yul\":2217:2237   */\n      shl\n        /* \"#utility.yul\":2214:2215   */\n      0x00\n        /* \"#utility.yul\":2207:2238   */\n      mstore\n        /* \"#utility.yul\":2257:2261   */\n      0x12\n        /* \"#utility.yul\":2254:2255   */\n      0x04\n        /* \"#utility.yul\":2247:2262   */\n      mstore\n        /* \"#utility.yul\":2281:2285   */\n      0x24\n        /* \"#utility.yul\":2278:2279   */\n      0x00\n        /* \"#utility.yul\":2271:2286   */\n      revert\n        /* \"#utility.yul\":2297:2514   */\n    tag_77:\n        /* \"#utility.yul\":2337:2338   */\n      0x00\n        /* \"#utility.yul\":2363:2364   */\n      dup3\n        /* \"#utility.yul\":2353:2485   */\n      tag_182\n      jumpi\n        /* \"#utility.yul\":2407:2417   */\n      0x4e487b71\n        /* \"#utility.yul\":2402:2405   */\n      0xe0\n        /* \"#utility.yul\":2398:2418   */\n      shl\n        /* \"#utility.yul\":2395:2396   */\n      0x00\n        /* \"#utility.yul\":2388:2419   */\n      mstore\n        /* \"#utility.yul\":2442:2446   */\n      0x12\n        /* \"#utility.yul\":2439:2440   */\n      0x04\n        /* \"#utility.yul\":2432:2447   */\n      mstore\n        /* \"#utility.yul\":2470:2474   */\n      0x24\n        /* \"#utility.yul\":2467:2468   */\n      0x00\n        /* \"#utility.yul\":2460:2475   */\n      revert\n        /* \"#utility.yul\":2353:2485   */\n    tag_182:\n      pop\n        /* \"#utility.yul\":2499:2508   */\n      div\n      swap1\n        /* \"#utility.yul\":2297:2514   */\n      jump\t// out\n        /* \"#utility.yul\":2862:2990   */\n    tag_85:\n        /* \"#utility.yul\":2929:2938   */\n      dup2\n      dup2\n      sub\n        /* \"#utility.yul\":2950:2961   */\n      dup2\n      dup2\n      gt\n        /* \"#utility.yul\":2947:2984   */\n      iszero\n      tag_176\n      jumpi\n        /* \"#utility.yul\":2964:2982   */\n      tag_176\n      tag_156\n      jump\t// in\n        /* \"#utility.yul\":3690:3874   */\n    tag_101:\n        /* \"#utility.yul\":3760:3766   */\n      0x00\n        /* \"#utility.yul\":3813:3815   */\n      0x20\n        /* \"#utility.yul\":3801:3810   */\n      dup3\n        /* \"#utility.yul\":3792:3799   */\n      dup5\n        /* \"#utility.yul\":3788:3811   */\n      sub\n        /* \"#utility.yul\":3784:3816   */\n      slt\n        /* \"#utility.yul\":3781:3833   */\n      iszero\n      tag_190\n      jumpi\n        /* \"#utility.yul\":3829:3830   */\n      0x00\n        /* \"#utility.yul\":3826:3827   */\n      dup1\n        /* \"#utility.yul\":3819:3831   */\n      revert\n        /* \"#utility.yul\":3781:3833   */\n    tag_190:\n      pop\n        /* \"#utility.yul\":3852:3868   */\n      mload\n      swap2\n        /* \"#utility.yul\":3690:3874   */\n      swap1\n      pop\n      jump\t// out\n        /* \"#utility.yul\":4158:4435   */\n    tag_112:\n        /* \"#utility.yul\":4225:4231   */\n      0x00\n        /* \"#utility.yul\":4278:4280   */\n      0x20\n        /* \"#utility.yul\":4266:4275   */\n      dup3\n        /* \"#utility.yul\":4257:4264   */\n      dup5\n        /* \"#utility.yul\":4253:4276   */\n      sub\n        /* \"#utility.yul\":4249:4281   */\n      slt\n        /* \"#utility.yul\":4246:4298   */\n      iszero\n      tag_193\n      jumpi\n        /* \"#utility.yul\":4294:4295   */\n      0x00\n        /* \"#utility.yul\":4291:4292   */\n      dup1\n        /* \"#utility.yul\":4284:4296   */\n      revert\n        /* \"#utility.yul\":4246:4298   */\n    tag_193:\n        /* \"#utility.yul\":4326:4335   */\n      dup2\n        /* \"#utility.yul\":4320:4336   */\n      mload\n        /* \"#utility.yul\":4379:4384   */\n      dup1\n        /* \"#utility.yul\":4372:4385   */\n      iszero\n        /* \"#utility.yul\":4365:4386   */\n      iszero\n        /* \"#utility.yul\":4358:4363   */\n      dup2\n        /* \"#utility.yul\":4355:4387   */\n      eq\n        /* \"#utility.yul\":4345:4405   */\n      tag_76\n      jumpi\n        /* \"#utility.yul\":4401:4402   */\n      0x00\n        /* \"#utility.yul\":4398:4399   */\n      dup1\n        /* \"#utility.yul\":4391:4403   */\n      revert\n\n    auxdata: 0xa2646970667358221220b68bdd9f28007a8912a6b27629d5eb55edf97f6016e80dadce65c9969bc3aca464736f6c63430008120033\n}\n",
				"bytecode": {
					"linkReferences": {},
					"object": "6080604052600280546001600160a01b03191673f14f9596430931e177469715c591513308244e8f17815560646003556103206004556102bc60055560065534801561004a57600080fd5b5061005433610059565b6100a9565b600080546001600160a01b038381166001600160a01b0319831681178455604051919092169283917f8be0079c531659141344cd1fd0a4f28419497f9722a3daafe3b4186f6b6457e09190a35050565b610a51806100b86000396000f3fe608060405234801561001057600080fd5b50600436106100b45760003560e01c8063ae04adfb11610071578063ae04adfb1461016a578063c63fdcc71461017d578063cbf3ff6714610190578063f2fde38b146101a5578063f75f6029146101b8578063fc8ad37c146101cb57600080fd5b8063715018a6146100b957806371ad25ba146100c3578063805f79a8146100fb57806386b82254146101295780638da5cb5b1461013c578063a3df437b14610157575b600080fd5b6100c16101de565b005b6100e66100d13660046108c3565b60076020526000908152604090205460ff1681565b60405190151581526020015b60405180910390f35b61011b6101093660046108c3565b60086020526000908152604090205481565b6040519081526020016100f2565b61011b6101373660046108de565b6101f2565b6000546040516001600160a01b0390911681526020016100f2565b6100c16101653660046108f7565b61023f565b6100c16101783660046108c3565b6102ea565b6100c161018b3660046108de565b610314565b6100e661019e3660046108de565b6005541090565b6100c16101b33660046108c3565b610541565b6100c16101c63660046108f7565b6105ba565b6100c16101d9366004610923565b6106d9565b6101e6610714565b6101f0600061076e565b565b6000806102116003548460045460035461020c9190610965565b6107be565b9050606460065460646102249190610965565b61022e908361097e565b61023891906109ab565b9392505050565b6001546001600160a01b0316331461028f5760405162461bcd60e51b815260206004820152600e60248201526d139bdd08185d5d1a1bdc9a5e995960921b60448201526064015b60405180910390fd5b6001600160a01b038116600090815260086020526040812080548492906102b79084906109cd565b909155505060008290036102e6576001600160a01b0381166000908152600760205260409020805460ff191690555b5050565b6102f2610714565b600180546001600160a01b0319166001600160a01b0392909216919091179055565b3360009081526007602052604090205460ff166103665760405162461bcd60e51b815260206004820152601060248201526f155cd95c881b9bdd08195b9cdd5c995960821b6044820152606401610286565b60055481116103af5760405162461bcd60e51b8152602060048201526015602482015274139bc81c99585cdbdb88199bdc881c185e5b595b9d605a1b6044820152606401610286565b33600090815260086020526040908190205460025491516370a0823160e01b815230600482015290916001600160a01b0316906370a0823190602401602060405180830381865afa158015610408573d6000803e3d6000fd5b505050506040513d601f19601f8201168201806040525081019061042c91906109e0565b8111156104a2576002546040516370a0823160e01b81523060048201526001600160a01b03909116906370a0823190602401602060405180830381865afa15801561047b573d6000803e3d6000fd5b505050506040513d601f19601f8201168201806040525081019061049f91906109e0565b90505b336000818152600760209081526040808320805460ff19169055600890915280822091909155600254905163a9059cbb60e01b81526004810192909252602482018390526001600160a01b03169063a9059cbb906044016020604051808303816000875af1158015610518573d6000803e3d6000fd5b505050506040513d601f19601f8201168201806040525081019061053c91906109f9565b505050565b610549610714565b6001600160a01b0381166105ae5760405162461bcd60e51b815260206004820152602660248201527f4f776e61626c653a206e6577206f776e657220697320746865207a65726f206160448201526564647265737360d01b6064820152608401610286565b6105b78161076e565b50565b6001546001600160a01b031633146106055760405162461bcd60e51b815260206004820152600e60248201526d139bdd08185d5d1a1bdc9a5e995960921b6044820152606401610286565b6000610610836101f2565b6002546001546040516323b872dd60e01b81526001600160a01b0391821660048201523060248201526044810184905292935016906323b872dd906064016020604051808303816000875af115801561066d573d6000803e3d6000fd5b505050506040513d601f19601f8201168201806040525081019061069191906109f9565b506001600160a01b0382166000908152600760209081526040808320805460ff191660011790556008909152812080548592906106cf908490610965565b9091555050505050565b6106e1610714565b6000831180156106f15750600082115b80156106fd5750600081115b61070657600080fd5b600392909255600455600555565b6000546001600160a01b031633146101f05760405162461bcd60e51b815260206004820181905260248201527f4f776e61626c653a2063616c6c6572206973206e6f7420746865206f776e65726044820152606401610286565b600080546001600160a01b038381166001600160a01b0319831681178455604051919092169283917f8be0079c531659141344cd1fd0a4f28419497f9722a3daafe3b4186f6b6457e09190a35050565b60008080600019858709858702925082811083820303915050806000036107f8578382816107ee576107ee610995565b0492505050610238565b80841161083f5760405162461bcd60e51b81526020600482015260156024820152744d6174683a206d756c446976206f766572666c6f7760581b6044820152606401610286565b600084868809600260036001881981018916988990049182028318808302840302808302840302808302840302808302840302808302840302918202909203026000889003889004909101858311909403939093029303949094049190911702949350505050565b80356001600160a01b03811681146108be57600080fd5b919050565b6000602082840312156108d557600080fd5b610238826108a7565b6000602082840312156108f057600080fd5b5035919050565b6000806040838503121561090a57600080fd5b8235915061091a602084016108a7565b90509250929050565b60008060006060848603121561093857600080fd5b505081359360208301359350604090920135919050565b634e487b7160e01b600052601160045260246000fd5b808201808211156109785761097861094f565b92915050565b80820281158282048414176109785761097861094f565b634e487b7160e01b600052601260045260246000fd5b6000826109c857634e487b7160e01b600052601260045260246000fd5b500490565b818103818111156109785761097861094f565b6000602082840312156109f257600080fd5b5051919050565b600060208284031215610a0b57600080fd5b8151801515811461023857600080fdfea2646970667358221220b68bdd9f28007a8912a6b27629d5eb55edf97f6016e80dadce65c9969bc3aca464736f6c63430008120033",
					"opcodes": "PUSH1 0x80 PUSH1 0x40 MSTORE PUSH1 0x2 DUP1 SLOAD PUSH1 0x1 PUSH1 0x1 PUSH1 0xA0 SHL SUB NOT AND PUSH20 0xF14F9596430931E177469715C591513308244E8F OR DUP2 SSTORE PUSH1 0x64 PUSH1 0x3 SSTORE PUSH2 0x320 PUSH1 0x4 SSTORE PUSH2 0x2BC PUSH1 0x5 SSTORE PUSH1 0x6 SSTORE CALLVALUE DUP1 ISZERO PUSH2 0x4A JUMPI PUSH1 0x0 DUP1 REVERT JUMPDEST POP PUSH2 0x54 CALLER PUSH2 0x59 JUMP JUMPDEST PUSH2 0xA9 JUMP JUMPDEST PUSH1 0x0 DUP1 SLOAD PUSH1 0x1 PUSH1 0x1 PUSH1 0xA0 SHL SUB DUP4 DUP2 AND PUSH1 0x1 PUSH1 0x1 PUSH1 0xA0 SHL SUB NOT DUP4 AND DUP2 OR DUP5 SSTORE PUSH1 0x40 MLOAD SWAP2 SWAP1 SWAP3 AND SWAP3 DUP4 SWAP2 PUSH32 0x8BE0079C531659141344CD1FD0A4F28419497F9722A3DAAFE3B4186F6B6457E0 SWAP2 SWAP1 LOG3 POP POP JUMP JUMPDEST PUSH2 0xA51 DUP1 PUSH2 0xB8 PUSH1 0x0 CODECOPY PUSH1 0x0 RETURN INVALID PUSH1 0x80 PUSH1 0x40 MSTORE CALLVALUE DUP1 ISZERO PUSH2 0x10 JUMPI PUSH1 0x0 DUP1 REVERT JUMPDEST POP PUSH1 0x4 CALLDATASIZE LT PUSH2 0xB4 JUMPI PUSH1 0x0 CALLDATALOAD PUSH1 0xE0 SHR DUP1 PUSH4 0xAE04ADFB GT PUSH2 0x71 JUMPI DUP1 PUSH4 0xAE04ADFB EQ PUSH2 0x16A JUMPI DUP1 PUSH4 0xC63FDCC7 EQ PUSH2 0x17D JUMPI DUP1 PUSH4 0xCBF3FF67 EQ PUSH2 0x190 JUMPI DUP1 PUSH4 0xF2FDE38B EQ PUSH2 0x1A5 JUMPI DUP1 PUSH4 0xF75F6029 EQ PUSH2 0x1B8 JUMPI DUP1 PUSH4 0xFC8AD37C EQ PUSH2 0x1CB JUMPI PUSH1 0x0 DUP1 REVERT JUMPDEST DUP1 PUSH4 0x715018A6 EQ PUSH2 0xB9 JUMPI DUP1 PUSH4 0x71AD25BA EQ PUSH2 0xC3 JUMPI DUP1 PUSH4 0x805F79A8 EQ PUSH2 0xFB JUMPI DUP1 PUSH4 0x86B82254 EQ PUSH2 0x129 JUMPI DUP1 PUSH4 0x8DA5CB5B EQ PUSH2 0x13C JUMPI DUP1 PUSH4 0xA3DF437B EQ PUSH2 0x157 JUMPI JUMPDEST PUSH1 0x0 DUP1 REVERT JUMPDEST PUSH2 0xC1 PUSH2 0x1DE JUMP JUMPDEST STOP JUMPDEST PUSH2 0xE6 PUSH2 0xD1 CALLDATASIZE PUSH1 0x4 PUSH2 0x8C3 JUMP JUMPDEST PUSH1 0x7 PUSH1 0x20 MSTORE PUSH1 0x0 SWAP1 DUP2 MSTORE PUSH1 0x40 SWAP1 KECCAK256 SLOAD PUSH1 0xFF AND DUP2 JUMP JUMPDEST PUSH1 0x40 MLOAD SWAP1 ISZERO ISZERO DUP2 MSTORE PUSH1 0x20 ADD JUMPDEST PUSH1 0x40 MLOAD DUP1 SWAP2 SUB SWAP1 RETURN JUMPDEST PUSH2 0x11B PUSH2 0x109 CALLDATASIZE PUSH1 0x4 PUSH2 0x8C3 JUMP JUMPDEST PUSH1 0x8 PUSH1 0x20 MSTORE PUSH1 0x0 SWAP1 DUP2 MSTORE PUSH1 0x40 SWAP1 KECCAK256 SLOAD DUP2 JUMP JUMPDEST PUSH1 0x40 MLOAD SWAP1 DUP2 MSTORE PUSH1 0x20 ADD PUSH2 0xF2 JUMP JUMPDEST PUSH2 0x11B PUSH2 0x137 CALLDATASIZE PUSH1 0x4 PUSH2 0x8DE JUMP JUMPDEST PUSH2 0x1F2 JUMP JUMPDEST PUSH1 0x0 SLOAD PUSH1 0x40 MLOAD PUSH1 0x1 PUSH1 0x1 PUSH1 0xA0 SHL SUB SWAP1 SWAP2 AND DUP2 MSTORE PUSH1 0x20 ADD PUSH2 0xF2 JUMP JUMPDEST PUSH2 0xC1 PUSH2 0x165 CALLDATASIZE PUSH1 0x4 PUSH2 0x8F7 JUMP JUMPDEST PUSH2 0x23F JUMP JUMPDEST PUSH2 0xC1 PUSH2 0x178 CALLDATASIZE PUSH1 0x4 PUSH2 0x8C3 JUMP JUMPDEST PUSH2 0x2EA JUMP JUMPDEST PUSH2 0xC1 PUSH2 0x18B CALLDATASIZE PUSH1 0x4 PUSH2 0x8DE JUMP JUMPDEST PUSH2 0x314 JUMP JUMPDEST PUSH2 0xE6 PUSH2 0x19E CALLDATASIZE PUSH1 0x4 PUSH2 0x8DE JUMP JUMPDEST PUSH1 0x5 SLOAD LT SWAP1 JUMP JUMPDEST PUSH2 0xC1 PUSH2 0x1B3 CALLDATASIZE PUSH1 0x4 PUSH2 0x8C3 JUMP JUMPDEST PUSH2 0x541 JUMP JUMPDEST PUSH2 0xC1 PUSH2 0x1C6 CALLDATASIZE PUSH1 0x4 PUSH2 0x8F7 JUMP JUMPDEST PUSH2 0x5BA JUMP JUMPDEST PUSH2 0xC1 PUSH2 0x1D9 CALLDATASIZE PUSH1 0x4 PUSH2 0x923 JUMP JUMPDEST PUSH2 0x6D9 JUMP JUMPDEST PUSH2 0x1E6 PUSH2 0x714 JUMP JUMPDEST PUSH2 0x1F0 PUSH1 0x0 PUSH2 0x76E JUMP JUMPDEST JUMP JUMPDEST PUSH1 0x0 DUP1 PUSH2 0x211 PUSH1 0x3 SLOAD DUP5 PUSH1 0x4 SLOAD PUSH1 0x3 SLOAD PUSH2 0x20C SWAP2 SWAP1 PUSH2 0x965 JUMP JUMPDEST PUSH2 0x7BE JUMP JUMPDEST SWAP1 POP PUSH1 0x64 PUSH1 0x6 SLOAD PUSH1 0x64 PUSH2 0x224 SWAP2 SWAP1 PUSH2 0x965 JUMP JUMPDEST PUSH2 0x22E SWAP1 DUP4 PUSH2 0x97E JUMP JUMPDEST PUSH2 0x238 SWAP2 SWAP1 PUSH2 0x9AB JUMP JUMPDEST SWAP4 SWAP3 POP POP POP JUMP JUMPDEST PUSH1 0x1 SLOAD PUSH1 0x1 PUSH1 0x1 PUSH1 0xA0 SHL SUB AND CALLER EQ PUSH2 0x28F JUMPI PUSH1 0x40 MLOAD PUSH3 0x461BCD PUSH1 0xE5 SHL DUP2 MSTORE PUSH1 0x20 PUSH1 0x4 DUP3 ADD MSTORE PUSH1 0xE PUSH1 0x24 DUP3 ADD MSTORE PUSH14 0x139BDD08185D5D1A1BDC9A5E9959 PUSH1 0x92 SHL PUSH1 0x44 DUP3 ADD MSTORE PUSH1 0x64 ADD JUMPDEST PUSH1 0x40 MLOAD DUP1 SWAP2 SUB SWAP1 REVERT JUMPDEST PUSH1 0x1 PUSH1 0x1 PUSH1 0xA0 SHL SUB DUP2 AND PUSH1 0x0 SWAP1 DUP2 MSTORE PUSH1 0x8 PUSH1 0x20 MSTORE PUSH1 0x40 DUP2 KECCAK256 DUP1 SLOAD DUP5 SWAP3 SWAP1 PUSH2 0x2B7 SWAP1 DUP5 SWAP1 PUSH2 0x9CD JUMP JUMPDEST SWAP1 SWAP2 SSTORE POP POP PUSH1 0x0 DUP3 SWAP1 SUB PUSH2 0x2E6 JUMPI PUSH1 0x1 PUSH1 0x1 PUSH1 0xA0 SHL SUB DUP2 AND PUSH1 0x0 SWAP1 DUP2 MSTORE PUSH1 0x7 PUSH1 0x20 MSTORE PUSH1 0x40 SWAP1 KECCAK256 DUP1 SLOAD PUSH1 0xFF NOT AND SWAP1 SSTORE JUMPDEST POP POP JUMP JUMPDEST PUSH2 0x2F2 PUSH2 0x714 JUMP JUMPDEST PUSH1 0x1 DUP1 SLOAD PUSH1 0x1 PUSH1 0x1 PUSH1 0xA0 SHL SUB NOT AND PUSH1 0x1 PUSH1 0x1 PUSH1 0xA0 SHL SUB SWAP3 SWAP1 SWAP3 AND SWAP2 SWAP1 SWAP2 OR SWAP1 SSTORE JUMP JUMPDEST CALLER PUSH1 0x0 SWAP1 DUP2 MSTORE PUSH1 0x7 PUSH1 0x20 MSTORE PUSH1 0x40 SWAP1 KECCAK256 SLOAD PUSH1 0xFF AND PUSH2 0x366 JUMPI PUSH1 0x40 MLOAD PUSH3 0x461BCD PUSH1 0xE5 SHL DUP2 MSTORE PUSH1 0x20 PUSH1 0x4 DUP3 ADD MSTORE PUSH1 0x10 PUSH1 0x24 DUP3 ADD MSTORE PUSH16 0x155CD95C881B9BDD08195B9CDD5C9959 PUSH1 0x82 SHL PUSH1 0x44 DUP3 ADD MSTORE PUSH1 0x64 ADD PUSH2 0x286 JUMP JUMPDEST PUSH1 0x5 SLOAD DUP2 GT PUSH2 0x3AF JUMPI PUSH1 0x40 MLOAD PUSH3 0x461BCD PUSH1 0xE5 SHL DUP2 MSTORE PUSH1 0x20 PUSH1 0x4 DUP3 ADD MSTORE PUSH1 0x15 PUSH1 0x24 DUP3 ADD MSTORE PUSH21 0x139BC81C99585CDBDB88199BDC881C185E5B595B9D PUSH1 0x5A SHL PUSH1 0x44 DUP3 ADD MSTORE PUSH1 0x64 ADD PUSH2 0x286 JUMP JUMPDEST CALLER PUSH1 0x0 SWAP1 DUP2 MSTORE PUSH1 0x8 PUSH1 0x20 MSTORE PUSH1 0x40 SWAP1 DUP2 SWAP1 KECCAK256 SLOAD PUSH1 0x2 SLOAD SWAP2 MLOAD PUSH4 0x70A08231 PUSH1 0xE0 SHL DUP2 MSTORE ADDRESS PUSH1 0x4 DUP3 ADD MSTORE SWAP1 SWAP2 PUSH1 0x1 PUSH1 0x1 PUSH1 0xA0 SHL SUB AND SWAP1 PUSH4 0x70A08231 SWAP1 PUSH1 0x24 ADD PUSH1 0x20 PUSH1 0x40 MLOAD DUP1 DUP4 SUB DUP2 DUP7 GAS STATICCALL ISZERO DUP1 ISZERO PUSH2 0x408 JUMPI RETURNDATASIZE PUSH1 0x0 DUP1 RETURNDATACOPY RETURNDATASIZE PUSH1 0x0 REVERT JUMPDEST POP POP POP POP PUSH1 0x40 MLOAD RETURNDATASIZE PUSH1 0x1F NOT PUSH1 0x1F DUP3 ADD AND DUP3 ADD DUP1 PUSH1 0x40 MSTORE POP DUP2 ADD SWAP1 PUSH2 0x42C SWAP2 SWAP1 PUSH2 0x9E0 JUMP JUMPDEST DUP2 GT ISZERO PUSH2 0x4A2 JUMPI PUSH1 0x2 SLOAD PUSH1 0x40 MLOAD PUSH4 0x70A08231 PUSH1 0xE0 SHL DUP2 MSTORE ADDRESS PUSH1 0x4 DUP3 ADD MSTORE PUSH1 0x1 PUSH1 0x1 PUSH1 0xA0 SHL SUB SWAP1 SWAP2 AND SWAP1 PUSH4 0x70A08231 SWAP1 PUSH1 0x24 ADD PUSH1 0x20 PUSH1 0x40 MLOAD DUP1 DUP4 SUB DUP2 DUP7 GAS STATICCALL ISZERO DUP1 ISZERO PUSH2 0x47B JUMPI RETURNDATASIZE PUSH1 0x0 DUP1 RETURNDATACOPY RETURNDATASIZE PUSH1 0x0 REVERT JUMPDEST POP POP POP POP PUSH1 0x40 MLOAD RETURNDATASIZE PUSH1 0x1F NOT PUSH1 0x1F DUP3 ADD AND DUP3 ADD DUP1 PUSH1 0x40 MSTORE POP DUP2 ADD SWAP1 PUSH2 0x49F SWAP2 SWAP1 PUSH2 0x9E0 JUMP JUMPDEST SWAP1 POP JUMPDEST CALLER PUSH1 0x0 DUP2 DUP2 MSTORE PUSH1 0x7 PUSH1 0x20 SWAP1 DUP2 MSTORE PUSH1 0x40 DUP1 DUP4 KECCAK256 DUP1 SLOAD PUSH1 0xFF NOT AND SWAP1 SSTORE PUSH1 0x8 SWAP1 SWAP2 MSTORE DUP1 DUP3 KECCAK256 SWAP2 SWAP1 SWAP2 SSTORE PUSH1 0x2 SLOAD SWAP1 MLOAD PUSH4 0xA9059CBB PUSH1 0xE0 SHL DUP2 MSTORE PUSH1 0x4 DUP2 ADD SWAP3 SWAP1 SWAP3 MSTORE PUSH1 0x24 DUP3 ADD DUP4 SWAP1 MSTORE PUSH1 0x1 PUSH1 0x1 PUSH1 0xA0 SHL SUB AND SWAP1 PUSH4 0xA9059CBB SWAP1 PUSH1 0x44 ADD PUSH1 0x20 PUSH1 0x40 MLOAD DUP1 DUP4 SUB DUP2 PUSH1 0x0 DUP8 GAS CALL ISZERO DUP1 ISZERO PUSH2 0x518 JUMPI RETURNDATASIZE PUSH1 0x0 DUP1 RETURNDATACOPY RETURNDATASIZE PUSH1 0x0 REVERT JUMPDEST POP POP POP POP PUSH1 0x40 MLOAD RETURNDATASIZE PUSH1 0x1F NOT PUSH1 0x1F DUP3 ADD AND DUP3 ADD DUP1 PUSH1 0x40 MSTORE POP DUP2 ADD SWAP1 PUSH2 0x53C SWAP2 SWAP1 PUSH2 0x9F9 JUMP JUMPDEST POP POP POP JUMP JUMPDEST PUSH2 0x549 PUSH2 0x714 JUMP JUMPDEST PUSH1 0x1 PUSH1 0x1 PUSH1 0xA0 SHL SUB DUP2 AND PUSH2 0x5AE JUMPI PUSH1 0x40 MLOAD PUSH3 0x461BCD PUSH1 0xE5 SHL DUP2 MSTORE PUSH1 0x20 PUSH1 0x4 DUP3 ADD MSTORE PUSH1 0x26 PUSH1 0x24 DUP3 ADD MSTORE PUSH32 0x4F776E61626C653A206E6577206F776E657220697320746865207A65726F2061 PUSH1 0x44 DUP3 ADD MSTORE PUSH6 0x646472657373 PUSH1 0xD0 SHL PUSH1 0x64 DUP3 ADD MSTORE PUSH1 0x84 ADD PUSH2 0x286 JUMP JUMPDEST PUSH2 0x5B7 DUP2 PUSH2 0x76E JUMP JUMPDEST POP JUMP JUMPDEST PUSH1 0x1 SLOAD PUSH1 0x1 PUSH1 0x1 PUSH1 0xA0 SHL SUB AND CALLER EQ PUSH2 0x605 JUMPI PUSH1 0x40 MLOAD PUSH3 0x461BCD PUSH1 0xE5 SHL DUP2 MSTORE PUSH1 0x20 PUSH1 0x4 DUP3 ADD MSTORE PUSH1 0xE PUSH1 0x24 DUP3 ADD MSTORE PUSH14 0x139BDD08185D5D1A1BDC9A5E9959 PUSH1 0x92 SHL PUSH1 0x44 DUP3 ADD MSTORE PUSH1 0x64 ADD PUSH2 0x286 JUMP JUMPDEST PUSH1 0x0 PUSH2 0x610 DUP4 PUSH2 0x1F2 JUMP JUMPDEST PUSH1 0x2 SLOAD PUSH1 0x1 SLOAD PUSH1 0x40 MLOAD PUSH4 0x23B872DD PUSH1 0xE0 SHL DUP2 MSTORE PUSH1 0x1 PUSH1 0x1 PUSH1 0xA0 SHL SUB SWAP2 DUP3 AND PUSH1 0x4 DUP3 ADD MSTORE ADDRESS PUSH1 0x24 DUP3 ADD MSTORE PUSH1 0x44 DUP2 ADD DUP5 SWAP1 MSTORE SWAP3 SWAP4 POP AND SWAP1 PUSH4 0x23B872DD SWAP1 PUSH1 0x64 ADD PUSH1 0x20 PUSH1 0x40 MLOAD DUP1 DUP4 SUB DUP2 PUSH1 0x0 DUP8 GAS CALL ISZERO DUP1 ISZERO PUSH2 0x66D JUMPI RETURNDATASIZE PUSH1 0x0 DUP1 RETURNDATACOPY RETURNDATASIZE PUSH1 0x0 REVERT JUMPDEST POP POP POP POP PUSH1 0x40 MLOAD RETURNDATASIZE PUSH1 0x1F NOT PUSH1 0x1F DUP3 ADD AND DUP3 ADD DUP1 PUSH1 0x40 MSTORE POP DUP2 ADD SWAP1 PUSH2 0x691 SWAP2 SWAP1 PUSH2 0x9F9 JUMP JUMPDEST POP PUSH1 0x1 PUSH1 0x1 PUSH1 0xA0 SHL SUB DUP3 AND PUSH1 0x0 SWAP1 DUP2 MSTORE PUSH1 0x7 PUSH1 0x20 SWAP1 DUP2 MSTORE PUSH1 0x40 DUP1 DUP4 KECCAK256 DUP1 SLOAD PUSH1 0xFF NOT AND PUSH1 0x1 OR SWAP1 SSTORE PUSH1 0x8 SWAP1 SWAP2 MSTORE DUP2 KECCAK256 DUP1 SLOAD DUP6 SWAP3 SWAP1 PUSH2 0x6CF SWAP1 DUP5 SWAP1 PUSH2 0x965 JUMP JUMPDEST SWAP1 SWAP2 SSTORE POP POP POP POP POP JUMP JUMPDEST PUSH2 0x6E1 PUSH2 0x714 JUMP JUMPDEST PUSH1 0x0 DUP4 GT DUP1 ISZERO PUSH2 0x6F1 JUMPI POP PUSH1 0x0 DUP3 GT JUMPDEST DUP1 ISZERO PUSH2 0x6FD JUMPI POP PUSH1 0x0 DUP2 GT JUMPDEST PUSH2 0x706 JUMPI PUSH1 0x0 DUP1 REVERT JUMPDEST PUSH1 0x3 SWAP3 SWAP1 SWAP3 SSTORE PUSH1 0x4 SSTORE PUSH1 0x5 SSTORE JUMP JUMPDEST PUSH1 0x0 SLOAD PUSH1 0x1 PUSH1 0x1 PUSH1 0xA0 SHL SUB AND CALLER EQ PUSH2 0x1F0 JUMPI PUSH1 0x40 MLOAD PUSH3 0x461BCD PUSH1 0xE5 SHL DUP2 MSTORE PUSH1 0x20 PUSH1 0x4 DUP3 ADD DUP2 SWAP1 MSTORE PUSH1 0x24 DUP3 ADD MSTORE PUSH32 0x4F776E61626C653A2063616C6C6572206973206E6F7420746865206F776E6572 PUSH1 0x44 DUP3 ADD MSTORE PUSH1 0x64 ADD PUSH2 0x286 JUMP JUMPDEST PUSH1 0x0 DUP1 SLOAD PUSH1 0x1 PUSH1 0x1 PUSH1 0xA0 SHL SUB DUP4 DUP2 AND PUSH1 0x1 PUSH1 0x1 PUSH1 0xA0 SHL SUB NOT DUP4 AND DUP2 OR DUP5 SSTORE PUSH1 0x40 MLOAD SWAP2 SWAP1 SWAP3 AND SWAP3 DUP4 SWAP2 PUSH32 0x8BE0079C531659141344CD1FD0A4F28419497F9722A3DAAFE3B4186F6B6457E0 SWAP2 SWAP1 LOG3 POP POP JUMP JUMPDEST PUSH1 0x0 DUP1 DUP1 PUSH1 0x0 NOT DUP6 DUP8 MULMOD DUP6 DUP8 MUL SWAP3 POP DUP3 DUP2 LT DUP4 DUP3 SUB SUB SWAP2 POP POP DUP1 PUSH1 0x0 SUB PUSH2 0x7F8 JUMPI DUP4 DUP3 DUP2 PUSH2 0x7EE JUMPI PUSH2 0x7EE PUSH2 0x995 JUMP JUMPDEST DIV SWAP3 POP POP POP PUSH2 0x238 JUMP JUMPDEST DUP1 DUP5 GT PUSH2 0x83F JUMPI PUSH1 0x40 MLOAD PUSH3 0x461BCD PUSH1 0xE5 SHL DUP2 MSTORE PUSH1 0x20 PUSH1 0x4 DUP3 ADD MSTORE PUSH1 0x15 PUSH1 0x24 DUP3 ADD MSTORE PUSH21 0x4D6174683A206D756C446976206F766572666C6F77 PUSH1 0x58 SHL PUSH1 0x44 DUP3 ADD MSTORE PUSH1 0x64 ADD PUSH2 0x286 JUMP JUMPDEST PUSH1 0x0 DUP5 DUP7 DUP9 MULMOD PUSH1 0x2 PUSH1 0x3 PUSH1 0x1 DUP9 NOT DUP2 ADD DUP10 AND SWAP9 DUP10 SWAP1 DIV SWAP2 DUP3 MUL DUP4 XOR DUP1 DUP4 MUL DUP5 SUB MUL DUP1 DUP4 MUL DUP5 SUB MUL DUP1 DUP4 MUL DUP5 SUB MUL DUP1 DUP4 MUL DUP5 SUB MUL DUP1 DUP4 MUL DUP5 SUB MUL SWAP2 DUP3 MUL SWAP1 SWAP3 SUB MUL PUSH1 0x0 DUP9 SWAP1 SUB DUP9 SWAP1 DIV SWAP1 SWAP2 ADD DUP6 DUP4 GT SWAP1 SWAP5 SUB SWAP4 SWAP1 SWAP4 MUL SWAP4 SUB SWAP5 SWAP1 SWAP5 DIV SWAP2 SWAP1 SWAP2 OR MUL SWAP5 SWAP4 POP POP POP POP JUMP JUMPDEST DUP1 CALLDATALOAD PUSH1 0x1 PUSH1 0x1 PUSH1 0xA0 SHL SUB DUP2 AND DUP2 EQ PUSH2 0x8BE JUMPI PUSH1 0x0 DUP1 REVERT JUMPDEST SWAP2 SWAP1 POP JUMP JUMPDEST PUSH1 0x0 PUSH1 0x20 DUP3 DUP5 SUB SLT ISZERO PUSH2 0x8D5 JUMPI PUSH1 0x0 DUP1 REVERT JUMPDEST PUSH2 0x238 DUP3 PUSH2 0x8A7 JUMP JUMPDEST PUSH1 0x0 PUSH1 0x20 DUP3 DUP5 SUB SLT ISZERO PUSH2 0x8F0 JUMPI PUSH1 0x0 DUP1 REVERT JUMPDEST POP CALLDATALOAD SWAP2 SWAP1 POP JUMP JUMPDEST PUSH1 0x0 DUP1 PUSH1 0x40 DUP4 DUP6 SUB SLT ISZERO PUSH2 0x90A JUMPI PUSH1 0x0 DUP1 REVERT JUMPDEST DUP3 CALLDATALOAD SWAP2 POP PUSH2 0x91A PUSH1 0x20 DUP5 ADD PUSH2 0x8A7 JUMP JUMPDEST SWAP1 POP SWAP3 POP SWAP3 SWAP1 POP JUMP JUMPDEST PUSH1 0x0 DUP1 PUSH1 0x0 PUSH1 0x60 DUP5 DUP7 SUB SLT ISZERO PUSH2 0x938 JUMPI PUSH1 0x0 DUP1 REVERT JUMPDEST POP POP DUP2 CALLDATALOAD SWAP4 PUSH1 0x20 DUP4 ADD CALLDATALOAD SWAP4 POP PUSH1 0x40 SWAP1 SWAP3 ADD CALLDATALOAD SWAP2 SWAP1 POP JUMP JUMPDEST PUSH4 0x4E487B71 PUSH1 0xE0 SHL PUSH1 0x0 MSTORE PUSH1 0x11 PUSH1 0x4 MSTORE PUSH1 0x24 PUSH1 0x0 REVERT JUMPDEST DUP1 DUP3 ADD DUP1 DUP3 GT ISZERO PUSH2 0x978 JUMPI PUSH2 0x978 PUSH2 0x94F JUMP JUMPDEST SWAP3 SWAP2 POP POP JUMP JUMPDEST DUP1 DUP3 MUL DUP2 ISZERO DUP3 DUP3 DIV DUP5 EQ OR PUSH2 0x978 JUMPI PUSH2 0x978 PUSH2 0x94F JUMP JUMPDEST PUSH4 0x4E487B71 PUSH1 0xE0 SHL PUSH1 0x0 MSTORE PUSH1 0x12 PUSH1 0x4 MSTORE PUSH1 0x24 PUSH1 0x0 REVERT JUMPDEST PUSH1 0x0 DUP3 PUSH2 0x9C8 JUMPI PUSH4 0x4E487B71 PUSH1 0xE0 SHL PUSH1 0x0 MSTORE PUSH1 0x12 PUSH1 0x4 MSTORE PUSH1 0x24 PUSH1 0x0 REVERT JUMPDEST POP DIV SWAP1 JUMP JUMPDEST DUP2 DUP2 SUB DUP2 DUP2 GT ISZERO PUSH2 0x978 JUMPI PUSH2 0x978 PUSH2 0x94F JUMP JUMPDEST PUSH1 0x0 PUSH1 0x20 DUP3 DUP5 SUB SLT ISZERO PUSH2 0x9F2 JUMPI PUSH1 0x0 DUP1 REVERT JUMPDEST POP MLOAD SWAP2 SWAP1 POP JUMP JUMPDEST PUSH1 0x0 PUSH1 0x20 DUP3 DUP5 SUB SLT ISZERO PUSH2 0xA0B JUMPI PUSH1 0x0 DUP1 REVERT JUMPDEST DUP2 MLOAD DUP1 ISZERO ISZERO DUP2 EQ PUSH2 0x238 JUMPI PUSH1 0x0 DUP1 REVERT INVALID LOG2 PUSH5 0x6970667358 0x22 SLT KECCAK256 0xB6 DUP12 0xDD SWAP16 0x28 STOP PUSH27 0x8912A6B27629D5EB55EDF97F6016E80DADCE65C9969BC3ACA46473 PUSH16 0x6C634300081200330000000000000000 "
				},
				"gasEstimates": {
					"creation": {
						"codeDepositCost": "528200",
						"executionCost": "139060",
						"totalCost": "667260"
					},
					"external": {
						"addCoverage(uint256,address)": "infinite",
						"changeAddressInsuranceContract(address)": "26735",
						"changeParameters(uint256,uint256,uint256)": "68944",
						"checkPayment(uint256)": "2414",
						"claimPayment(uint256)": "infinite",
						"computePremium(uint256)": "infinite",
						"ensured(address)": "2543",
						"owner()": "2390",
						"redeemAmount(address)": "2564",
						"reduceCoverage(uint256,address)": "51304",
						"renounceOwnership()": "infinite",
						"transferOwnership(address)": "28399"
					}
				},
				"methodIdentifiers": {
					"addCoverage(uint256,address)": "f75f6029",
					"changeAddressInsuranceContract(address)": "ae04adfb",
					"changeParameters(uint256,uint256,uint256)": "fc8ad37c",
					"checkPayment(uint256)": "cbf3ff67",
					"claimPayment(uint256)": "c63fdcc7",
					"computePremium(uint256)": "86b82254",
					"ensured(address)": "71ad25ba",
					"owner()": "8da5cb5b",
					"redeemAmount(address)": "805f79a8",
					"reduceCoverage(uint256,address)": "a3df437b",
					"renounceOwnership()": "715018a6",
					"transferOwnership(address)": "f2fde38b"
				}
			},
			"storageLayout": {
				"storage": [
					{
						"astId": 7,
						"contract": "contracts/claims.sol:claims",
						"label": "_owner",
						"offset": 0,
						"slot": "0",
						"type": "t_address"
					},
					{
						"astId": 1400,
						"contract": "contracts/claims.sol:claims",
						"label": "_addressInsuranceContract",
						"offset": 0,
						"slot": "1",
						"type": "t_address"
					},
					{
						"astId": 1403,
						"contract": "contracts/claims.sol:claims",
						"label": "_USDC",
						"offset": 0,
						"slot": "2",
						"type": "t_address"
					},
					{
						"astId": 1406,
						"contract": "contracts/claims.sol:claims",
						"label": "alpha",
						"offset": 0,
						"slot": "3",
						"type": "t_uint256"
					},
					{
						"astId": 1409,
						"contract": "contracts/claims.sol:claims",
						"label": "beta",
						"offset": 0,
						"slot": "4",
						"type": "t_uint256"
					},
					{
						"astId": 1412,
						"contract": "contracts/claims.sol:claims",
						"label": "th",
						"offset": 0,
						"slot": "5",
						"type": "t_uint256"
					},
					{
						"astId": 1415,
						"contract": "contracts/claims.sol:claims",
						"label": "profit100",
						"offset": 0,
						"slot": "6",
						"type": "t_uint256"
					},
					{
						"astId": 1419,
						"contract": "contracts/claims.sol:claims",
						"label": "ensured",
						"offset": 0,
						"slot": "7",
						"type": "t_mapping(t_address,t_bool)"
					},
					{
						"astId": 1423,
						"contract": "contracts/claims.sol:claims",
						"label": "redeemAmount",
						"offset": 0,
						"slot": "8",
						"type": "t_mapping(t_address,t_uint256)"
					}
				],
				"types": {
					"t_address": {
						"encoding": "inplace",
						"label": "address",
						"numberOfBytes": "20"
					},
					"t_bool": {
						"encoding": "inplace",
						"label": "bool",
						"numberOfBytes": "1"
					},
					"t_mapping(t_address,t_bool)": {
						"encoding": "mapping",
						"key": "t_address",
						"label": "mapping(address => bool)",
						"numberOfBytes": "32",
						"value": "t_bool"
					},
					"t_mapping(t_address,t_uint256)": {
						"encoding": "mapping",
						"key": "t_address",
						"label": "mapping(address => uint256)",
						"numberOfBytes": "32",
						"value": "t_uint256"
					},
					"t_uint256": {
						"encoding": "inplace",
						"label": "uint256",
						"numberOfBytes": "32"
					}
				}
			},
			"userdoc": {
				"kind": "user",
				"methods": {},
				"version": 1
			}
		}
	}
}