{
	"data": {
		"bytecode": {
			"linkReferences": {},
			"object": "60a0604052600280546001600160a01b03191673d513e4537510c75e24f941f159b7cafa74e7b3b917905534801561003657600080fd5b5073d64dde119f11c88850fd596be11ce398cc5893e660808190526040805163026b1d5f60e01b8152905163026b1d5f916004808201926020929091908290030181865afa15801561008c573d6000803e3d6000fd5b505050506040513d601f19601f820116820180604052508101906100b091906100e0565b600080546001600160a01b03929092166001600160a01b0319928316811790915560018054909216179055610110565b6000602082840312156100f257600080fd5b81516001600160a01b038116811461010957600080fd5b9392505050565b608051610876610128600039600050506108766000f3fe608060405234801561001057600080fd5b50600436106100415760003560e01c806301b66723146100465780630e00557b1461005b578063d2cbf7ad14610079575b600080fd5b6100596100543660046103d5565b610099565b005b61006361016e565b6040516100709190610484565b60405180910390f35b61008161026b565b6040516001600160801b039091168152602001610070565b600283106100e35760405162461bcd60e51b8152602060048201526013602482015272496e646578206f7574206f6620626f756e647360681b604482015260640160405180910390fd5b82600384600281106100f7576100f7610533565b6003020160000181905550816003846002811061011657610116610533565b60030201600101908161012991906105d2565b50806003846002811061013e5761013e610533565b6003020160020160006101000a8154816001600160801b0302191690836001600160801b03160217905550505050565b6101766102ea565b60408051808201909152600360026000835b8282101561026257838260030201604051806060016040529081600082015481526020016001820180546101bb90610549565b80601f01602080910402602001604051908101604052809291908181526020018280546101e790610549565b80156102345780601f1061020957610100808354040283529160200191610234565b820191906000526020600020905b81548152906001019060200180831161021757829003601f168201915b5050509183525050600291909101546001600160801b03166020918201529082526001929092019101610188565b50505050905090565b6001546002546040516335ea6a7560e01b81526001600160a01b039182166004820152600092839216906335ea6a75906024016101e060405180830381865afa1580156102bc573d6000803e3d6000fd5b505050506040513d601f19601f820116820180604052508101906102e0919061071d565b6040015192915050565b60405180604001604052806002905b6103266040518060600160405280600081526020016060815260200160006001600160801b031681525090565b8152602001906001900390816102f95790505090565b634e487b7160e01b600052604160045260246000fd5b6040516101e0810167ffffffffffffffff811182821017156103765761037661033c565b60405290565b604051601f8201601f1916810167ffffffffffffffff811182821017156103a5576103a561033c565b604052919050565b6001600160801b03811681146103c257600080fd5b50565b80356103d0816103ad565b919050565b6000806000606084860312156103ea57600080fd5b8335925060208085013567ffffffffffffffff8082111561040a57600080fd5b818701915087601f83011261041e57600080fd5b8135818111156104305761043061033c565b610442601f8201601f1916850161037c565b9150808252888482850101111561045857600080fd5b808484018584013760008482840101525080945050505061047b604085016103c5565b90509250925092565b602080825260009060608382018185018685805b600281101561052557601f19808a860301865283518051865288810151888a8801528051808a890152855b818110156104df578281018c0151898201608001528b016104c3565b50608091508582828a0101526040808401519350610507818a01856001600160801b03169052565b50978a0197601f019092169590950101935091860191600101610498565b509198975050505050505050565b634e487b7160e01b600052603260045260246000fd5b600181811c9082168061055d57607f821691505b60208210810361057d57634e487b7160e01b600052602260045260246000fd5b50919050565b601f8211156105cd57600081815260208120601f850160051c810160208610156105aa5750805b601f850160051c820191505b818110156105c9578281556001016105b6565b5050505b505050565b815167ffffffffffffffff8111156105ec576105ec61033c565b610600816105fa8454610549565b84610583565b602080601f831160018114610635576000841561061d5750858301515b600019600386901b1c1916600185901b1785556105c9565b600085815260208120601f198616915b8281101561066457888601518255948401946001909101908401610645565b50858210156106825787850151600019600388901b60f8161c191681555b5050505050600190811b01905550565b6000602082840312156106a457600080fd5b6040516020810181811067ffffffffffffffff821117156106c7576106c761033c565b6040529151825250919050565b80516103d0816103ad565b805164ffffffffff811681146103d057600080fd5b805161ffff811681146103d057600080fd5b80516001600160a01b03811681146103d057600080fd5b60006101e0828403121561073057600080fd5b610738610352565b6107428484610692565b8152610750602084016106d4565b6020820152610761604084016106d4565b6040820152610772606084016106d4565b6060820152610783608084016106d4565b608082015261079460a084016106d4565b60a08201526107a560c084016106df565b60c08201526107b660e084016106f4565b60e08201526101006107c9818501610706565b908201526101206107db848201610706565b908201526101406107ed848201610706565b908201526101606107ff848201610706565b908201526101806108118482016106d4565b908201526101a06108238482016106d4565b908201526101c06108358482016106d4565b90820152939250505056fea26469706673582212200af6b7ac3be9971694365012a2f8c1387d1442bdb314d5d55566c7a0230d33e764736f6c63430008120033",
			"opcodes": "PUSH1 0xA0 PUSH1 0x40 MSTORE PUSH1 0x2 DUP1 SLOAD PUSH1 0x1 PUSH1 0x1 PUSH1 0xA0 SHL SUB NOT AND PUSH20 0xD513E4537510C75E24F941F159B7CAFA74E7B3B9 OR SWAP1 SSTORE CALLVALUE DUP1 ISZERO PUSH2 0x36 JUMPI PUSH1 0x0 DUP1 REVERT JUMPDEST POP PUSH20 0xD64DDE119F11C88850FD596BE11CE398CC5893E6 PUSH1 0x80 DUP2 SWAP1 MSTORE PUSH1 0x40 DUP1 MLOAD PUSH4 0x26B1D5F PUSH1 0xE0 SHL DUP2 MSTORE SWAP1 MLOAD PUSH4 0x26B1D5F SWAP2 PUSH1 0x4 DUP1 DUP3 ADD SWAP3 PUSH1 0x20 SWAP3 SWAP1 SWAP2 SWAP1 DUP3 SWAP1 SUB ADD DUP2 DUP7 GAS STATICCALL ISZERO DUP1 ISZERO PUSH2 0x8C JUMPI RETURNDATASIZE PUSH1 0x0 DUP1 RETURNDATACOPY RETURNDATASIZE PUSH1 0x0 REVERT JUMPDEST POP POP POP POP PUSH1 0x40 MLOAD RETURNDATASIZE PUSH1 0x1F NOT PUSH1 0x1F DUP3 ADD AND DUP3 ADD DUP1 PUSH1 0x40 MSTORE POP DUP2 ADD SWAP1 PUSH2 0xB0 SWAP2 SWAP1 PUSH2 0xE0 JUMP JUMPDEST PUSH1 0x0 DUP1 SLOAD PUSH1 0x1 PUSH1 0x1 PUSH1 0xA0 SHL SUB SWAP3 SWAP1 SWAP3 AND PUSH1 0x1 PUSH1 0x1 PUSH1 0xA0 SHL SUB NOT SWAP3 DUP4 AND DUP2 OR SWAP1 SWAP2 SSTORE PUSH1 0x1 DUP1 SLOAD SWAP1 SWAP3 AND OR SWAP1 SSTORE PUSH2 0x110 JUMP JUMPDEST PUSH1 0x0 PUSH1 0x20 DUP3 DUP5 SUB SLT ISZERO PUSH2 0xF2 JUMPI PUSH1 0x0 DUP1 REVERT JUMPDEST DUP2 MLOAD PUSH1 0x1 PUSH1 0x1 PUSH1 0xA0 SHL SUB DUP2 AND DUP2 EQ PUSH2 0x109 JUMPI PUSH1 0x0 DUP1 REVERT JUMPDEST SWAP4 SWAP3 POP POP POP JUMP JUMPDEST PUSH1 0x80 MLOAD PUSH2 0x876 PUSH2 0x128 PUSH1 0x0 CODECOPY PUSH1 0x0 POP POP PUSH2 0x876 PUSH1 0x0 RETURN INVALID PUSH1 0x80 PUSH1 0x40 MSTORE CALLVALUE DUP1 ISZERO PUSH2 0x10 JUMPI PUSH1 0x0 DUP1 REVERT JUMPDEST POP PUSH1 0x4 CALLDATASIZE LT PUSH2 0x41 JUMPI PUSH1 0x0 CALLDATALOAD PUSH1 0xE0 SHR DUP1 PUSH4 0x1B66723 EQ PUSH2 0x46 JUMPI DUP1 PUSH4 0xE00557B EQ PUSH2 0x5B JUMPI DUP1 PUSH4 0xD2CBF7AD EQ PUSH2 0x79 JUMPI JUMPDEST PUSH1 0x0 DUP1 REVERT JUMPDEST PUSH2 0x59 PUSH2 0x54 CALLDATASIZE PUSH1 0x4 PUSH2 0x3D5 JUMP JUMPDEST PUSH2 0x99 JUMP JUMPDEST STOP JUMPDEST PUSH2 0x63 PUSH2 0x16E JUMP JUMPDEST PUSH1 0x40 MLOAD PUSH2 0x70 SWAP2 SWAP1 PUSH2 0x484 JUMP JUMPDEST PUSH1 0x40 MLOAD DUP1 SWAP2 SUB SWAP1 RETURN JUMPDEST PUSH2 0x81 PUSH2 0x26B JUMP JUMPDEST PUSH1 0x40 MLOAD PUSH1 0x1 PUSH1 0x1 PUSH1 0x80 SHL SUB SWAP1 SWAP2 AND DUP2 MSTORE PUSH1 0x20 ADD PUSH2 0x70 JUMP JUMPDEST PUSH1 0x2 DUP4 LT PUSH2 0xE3 JUMPI PUSH1 0x40 MLOAD PUSH3 0x461BCD PUSH1 0xE5 SHL DUP2 MSTORE PUSH1 0x20 PUSH1 0x4 DUP3 ADD MSTORE PUSH1 0x13 PUSH1 0x24 DUP3 ADD MSTORE PUSH19 0x496E646578206F7574206F6620626F756E6473 PUSH1 0x68 SHL PUSH1 0x44 DUP3 ADD MSTORE PUSH1 0x64 ADD PUSH1 0x40 MLOAD DUP1 SWAP2 SUB SWAP1 REVERT JUMPDEST DUP3 PUSH1 0x3 DUP5 PUSH1 0x2 DUP2 LT PUSH2 0xF7 JUMPI PUSH2 0xF7 PUSH2 0x533 JUMP JUMPDEST PUSH1 0x3 MUL ADD PUSH1 0x0 ADD DUP2 SWAP1 SSTORE POP DUP2 PUSH1 0x3 DUP5 PUSH1 0x2 DUP2 LT PUSH2 0x116 JUMPI PUSH2 0x116 PUSH2 0x533 JUMP JUMPDEST PUSH1 0x3 MUL ADD PUSH1 0x1 ADD SWAP1 DUP2 PUSH2 0x129 SWAP2 SWAP1 PUSH2 0x5D2 JUMP JUMPDEST POP DUP1 PUSH1 0x3 DUP5 PUSH1 0x2 DUP2 LT PUSH2 0x13E JUMPI PUSH2 0x13E PUSH2 0x533 JUMP JUMPDEST PUSH1 0x3 MUL ADD PUSH1 0x2 ADD PUSH1 0x0 PUSH2 0x100 EXP DUP2 SLOAD DUP2 PUSH1 0x1 PUSH1 0x1 PUSH1 0x80 SHL SUB MUL NOT AND SWAP1 DUP4 PUSH1 0x1 PUSH1 0x1 PUSH1 0x80 SHL SUB AND MUL OR SWAP1 SSTORE POP POP POP POP JUMP JUMPDEST PUSH2 0x176 PUSH2 0x2EA JUMP JUMPDEST PUSH1 0x40 DUP1 MLOAD DUP1 DUP3 ADD SWAP1 SWAP2 MSTORE PUSH1 0x3 PUSH1 0x2 PUSH1 0x0 DUP4 JUMPDEST DUP3 DUP3 LT ISZERO PUSH2 0x262 JUMPI DUP4 DUP3 PUSH1 0x3 MUL ADD PUSH1 0x40 MLOAD DUP1 PUSH1 0x60 ADD PUSH1 0x40 MSTORE SWAP1 DUP2 PUSH1 0x0 DUP3 ADD SLOAD DUP2 MSTORE PUSH1 0x20 ADD PUSH1 0x1 DUP3 ADD DUP1 SLOAD PUSH2 0x1BB SWAP1 PUSH2 0x549 JUMP JUMPDEST DUP1 PUSH1 0x1F ADD PUSH1 0x20 DUP1 SWAP2 DIV MUL PUSH1 0x20 ADD PUSH1 0x40 MLOAD SWAP1 DUP2 ADD PUSH1 0x40 MSTORE DUP1 SWAP3 SWAP2 SWAP1 DUP2 DUP2 MSTORE PUSH1 0x20 ADD DUP3 DUP1 SLOAD PUSH2 0x1E7 SWAP1 PUSH2 0x549 JUMP JUMPDEST DUP1 ISZERO PUSH2 0x234 JUMPI DUP1 PUSH1 0x1F LT PUSH2 0x209 JUMPI PUSH2 0x100 DUP1 DUP4 SLOAD DIV MUL DUP4 MSTORE SWAP2 PUSH1 0x20 ADD SWAP2 PUSH2 0x234 JUMP JUMPDEST DUP3 ADD SWAP2 SWAP1 PUSH1 0x0 MSTORE PUSH1 0x20 PUSH1 0x0 KECCAK256 SWAP1 JUMPDEST DUP2 SLOAD DUP2 MSTORE SWAP1 PUSH1 0x1 ADD SWAP1 PUSH1 0x20 ADD DUP1 DUP4 GT PUSH2 0x217 JUMPI DUP3 SWAP1 SUB PUSH1 0x1F AND DUP3 ADD SWAP2 JUMPDEST POP POP POP SWAP2 DUP4 MSTORE POP POP PUSH1 0x2 SWAP2 SWAP1 SWAP2 ADD SLOAD PUSH1 0x1 PUSH1 0x1 PUSH1 0x80 SHL SUB AND PUSH1 0x20 SWAP2 DUP3 ADD MSTORE SWAP1 DUP3 MSTORE PUSH1 0x1 SWAP3 SWAP1 SWAP3 ADD SWAP2 ADD PUSH2 0x188 JUMP JUMPDEST POP POP POP POP SWAP1 POP SWAP1 JUMP JUMPDEST PUSH1 0x1 SLOAD PUSH1 0x2 SLOAD PUSH1 0x40 MLOAD PUSH4 0x35EA6A75 PUSH1 0xE0 SHL DUP2 MSTORE PUSH1 0x1 PUSH1 0x1 PUSH1 0xA0 SHL SUB SWAP2 DUP3 AND PUSH1 0x4 DUP3 ADD MSTORE PUSH1 0x0 SWAP3 DUP4 SWAP3 AND SWAP1 PUSH4 0x35EA6A75 SWAP1 PUSH1 0x24 ADD PUSH2 0x1E0 PUSH1 0x40 MLOAD DUP1 DUP4 SUB DUP2 DUP7 GAS STATICCALL ISZERO DUP1 ISZERO PUSH2 0x2BC JUMPI RETURNDATASIZE PUSH1 0x0 DUP1 RETURNDATACOPY RETURNDATASIZE PUSH1 0x0 REVERT JUMPDEST POP POP POP POP PUSH1 0x40 MLOAD RETURNDATASIZE PUSH1 0x1F NOT PUSH1 0x1F DUP3 ADD AND DUP3 ADD DUP1 PUSH1 0x40 MSTORE POP DUP2 ADD SWAP1 PUSH2 0x2E0 SWAP2 SWAP1 PUSH2 0x71D JUMP JUMPDEST PUSH1 0x40 ADD MLOAD SWAP3 SWAP2 POP POP JUMP JUMPDEST PUSH1 0x40 MLOAD DUP1 PUSH1 0x40 ADD PUSH1 0x40 MSTORE DUP1 PUSH1 0x2 SWAP1 JUMPDEST PUSH2 0x326 PUSH1 0x40 MLOAD DUP1 PUSH1 0x60 ADD PUSH1 0x40 MSTORE DUP1 PUSH1 0x0 DUP2 MSTORE PUSH1 0x20 ADD PUSH1 0x60 DUP2 MSTORE PUSH1 0x20 ADD PUSH1 0x0 PUSH1 0x1 PUSH1 0x1 PUSH1 0x80 SHL SUB AND DUP2 MSTORE POP SWAP1 JUMP JUMPDEST DUP2 MSTORE PUSH1 0x20 ADD SWAP1 PUSH1 0x1 SWAP1 SUB SWAP1 DUP2 PUSH2 0x2F9 JUMPI SWAP1 POP POP SWAP1 JUMP JUMPDEST PUSH4 0x4E487B71 PUSH1 0xE0 SHL PUSH1 0x0 MSTORE PUSH1 0x41 PUSH1 0x4 MSTORE PUSH1 0x24 PUSH1 0x0 REVERT JUMPDEST PUSH1 0x40 MLOAD PUSH2 0x1E0 DUP2 ADD PUSH8 0xFFFFFFFFFFFFFFFF DUP2 GT DUP3 DUP3 LT OR ISZERO PUSH2 0x376 JUMPI PUSH2 0x376 PUSH2 0x33C JUMP JUMPDEST PUSH1 0x40 MSTORE SWAP1 JUMP JUMPDEST PUSH1 0x40 MLOAD PUSH1 0x1F DUP3 ADD PUSH1 0x1F NOT AND DUP2 ADD PUSH8 0xFFFFFFFFFFFFFFFF DUP2 GT DUP3 DUP3 LT OR ISZERO PUSH2 0x3A5 JUMPI PUSH2 0x3A5 PUSH2 0x33C JUMP JUMPDEST PUSH1 0x40 MSTORE SWAP2 SWAP1 POP JUMP JUMPDEST PUSH1 0x1 PUSH1 0x1 PUSH1 0x80 SHL SUB DUP2 AND DUP2 EQ PUSH2 0x3C2 JUMPI PUSH1 0x0 DUP1 REVERT JUMPDEST POP JUMP JUMPDEST DUP1 CALLDATALOAD PUSH2 0x3D0 DUP2 PUSH2 0x3AD JUMP JUMPDEST SWAP2 SWAP1 POP JUMP JUMPDEST PUSH1 0x0 DUP1 PUSH1 0x0 PUSH1 0x60 DUP5 DUP7 SUB SLT ISZERO PUSH2 0x3EA JUMPI PUSH1 0x0 DUP1 REVERT JUMPDEST DUP4 CALLDATALOAD SWAP3 POP PUSH1 0x20 DUP1 DUP6 ADD CALLDATALOAD PUSH8 0xFFFFFFFFFFFFFFFF DUP1 DUP3 GT ISZERO PUSH2 0x40A JUMPI PUSH1 0x0 DUP1 REVERT JUMPDEST DUP2 DUP8 ADD SWAP2 POP DUP8 PUSH1 0x1F DUP4 ADD SLT PUSH2 0x41E JUMPI PUSH1 0x0 DUP1 REVERT JUMPDEST DUP2 CALLDATALOAD DUP2 DUP2 GT ISZERO PUSH2 0x430 JUMPI PUSH2 0x430 PUSH2 0x33C JUMP JUMPDEST PUSH2 0x442 PUSH1 0x1F DUP3 ADD PUSH1 0x1F NOT AND DUP6 ADD PUSH2 0x37C JUMP JUMPDEST SWAP2 POP DUP1 DUP3 MSTORE DUP9 DUP5 DUP3 DUP6 ADD ADD GT ISZERO PUSH2 0x458 JUMPI PUSH1 0x0 DUP1 REVERT JUMPDEST DUP1 DUP5 DUP5 ADD DUP6 DUP5 ADD CALLDATACOPY PUSH1 0x0 DUP5 DUP3 DUP5 ADD ADD MSTORE POP DUP1 SWAP5 POP POP POP POP PUSH2 0x47B PUSH1 0x40 DUP6 ADD PUSH2 0x3C5 JUMP JUMPDEST SWAP1 POP SWAP3 POP SWAP3 POP SWAP3 JUMP JUMPDEST PUSH1 0x20 DUP1 DUP3 MSTORE PUSH1 0x0 SWAP1 PUSH1 0x60 DUP4 DUP3 ADD DUP2 DUP6 ADD DUP7 DUP6 DUP1 JUMPDEST PUSH1 0x2 DUP2 LT ISZERO PUSH2 0x525 JUMPI PUSH1 0x1F NOT DUP1 DUP11 DUP7 SUB ADD DUP7 MSTORE DUP4 MLOAD DUP1 MLOAD DUP7 MSTORE DUP9 DUP2 ADD MLOAD DUP9 DUP11 DUP9 ADD MSTORE DUP1 MLOAD DUP1 DUP11 DUP10 ADD MSTORE DUP6 JUMPDEST DUP2 DUP2 LT ISZERO PUSH2 0x4DF JUMPI DUP3 DUP2 ADD DUP13 ADD MLOAD DUP10 DUP3 ADD PUSH1 0x80 ADD MSTORE DUP12 ADD PUSH2 0x4C3 JUMP JUMPDEST POP PUSH1 0x80 SWAP2 POP DUP6 DUP3 DUP3 DUP11 ADD ADD MSTORE PUSH1 0x40 DUP1 DUP5 ADD MLOAD SWAP4 POP PUSH2 0x507 DUP2 DUP11 ADD DUP6 PUSH1 0x1 PUSH1 0x1 PUSH1 0x80 SHL SUB AND SWAP1 MSTORE JUMP JUMPDEST POP SWAP8 DUP11 ADD SWAP8 PUSH1 0x1F ADD SWAP1 SWAP3 AND SWAP6 SWAP1 SWAP6 ADD ADD SWAP4 POP SWAP2 DUP7 ADD SWAP2 PUSH1 0x1 ADD PUSH2 0x498 JUMP JUMPDEST POP SWAP2 SWAP9 SWAP8 POP POP POP POP POP POP POP POP JUMP JUMPDEST PUSH4 0x4E487B71 PUSH1 0xE0 SHL PUSH1 0x0 MSTORE PUSH1 0x32 PUSH1 0x4 MSTORE PUSH1 0x24 PUSH1 0x0 REVERT JUMPDEST PUSH1 0x1 DUP2 DUP2 SHR SWAP1 DUP3 AND DUP1 PUSH2 0x55D JUMPI PUSH1 0x7F DUP3 AND SWAP2 POP JUMPDEST PUSH1 0x20 DUP3 LT DUP2 SUB PUSH2 0x57D JUMPI PUSH4 0x4E487B71 PUSH1 0xE0 SHL PUSH1 0x0 MSTORE PUSH1 0x22 PUSH1 0x4 MSTORE PUSH1 0x24 PUSH1 0x0 REVERT JUMPDEST POP SWAP2 SWAP1 POP JUMP JUMPDEST PUSH1 0x1F DUP3 GT ISZERO PUSH2 0x5CD JUMPI PUSH1 0x0 DUP2 DUP2 MSTORE PUSH1 0x20 DUP2 KECCAK256 PUSH1 0x1F DUP6 ADD PUSH1 0x5 SHR DUP2 ADD PUSH1 0x20 DUP7 LT ISZERO PUSH2 0x5AA JUMPI POP DUP1 JUMPDEST PUSH1 0x1F DUP6 ADD PUSH1 0x5 SHR DUP3 ADD SWAP2 POP JUMPDEST DUP2 DUP2 LT ISZERO PUSH2 0x5C9 JUMPI DUP3 DUP2 SSTORE PUSH1 0x1 ADD PUSH2 0x5B6 JUMP JUMPDEST POP POP POP JUMPDEST POP POP POP JUMP JUMPDEST DUP2 MLOAD PUSH8 0xFFFFFFFFFFFFFFFF DUP2 GT ISZERO PUSH2 0x5EC JUMPI PUSH2 0x5EC PUSH2 0x33C JUMP JUMPDEST PUSH2 0x600 DUP2 PUSH2 0x5FA DUP5 SLOAD PUSH2 0x549 JUMP JUMPDEST DUP5 PUSH2 0x583 JUMP JUMPDEST PUSH1 0x20 DUP1 PUSH1 0x1F DUP4 GT PUSH1 0x1 DUP2 EQ PUSH2 0x635 JUMPI PUSH1 0x0 DUP5 ISZERO PUSH2 0x61D JUMPI POP DUP6 DUP4 ADD MLOAD JUMPDEST PUSH1 0x0 NOT PUSH1 0x3 DUP7 SWAP1 SHL SHR NOT AND PUSH1 0x1 DUP6 SWAP1 SHL OR DUP6 SSTORE PUSH2 0x5C9 JUMP JUMPDEST PUSH1 0x0 DUP6 DUP2 MSTORE PUSH1 0x20 DUP2 KECCAK256 PUSH1 0x1F NOT DUP7 AND SWAP2 JUMPDEST DUP3 DUP2 LT ISZERO PUSH2 0x664 JUMPI DUP9 DUP7 ADD MLOAD DUP3 SSTORE SWAP5 DUP5 ADD SWAP5 PUSH1 0x1 SWAP1 SWAP2 ADD SWAP1 DUP5 ADD PUSH2 0x645 JUMP JUMPDEST POP DUP6 DUP3 LT ISZERO PUSH2 0x682 JUMPI DUP8 DUP6 ADD MLOAD PUSH1 0x0 NOT PUSH1 0x3 DUP9 SWAP1 SHL PUSH1 0xF8 AND SHR NOT AND DUP2 SSTORE JUMPDEST POP POP POP POP POP PUSH1 0x1 SWAP1 DUP2 SHL ADD SWAP1 SSTORE POP JUMP JUMPDEST PUSH1 0x0 PUSH1 0x20 DUP3 DUP5 SUB SLT ISZERO PUSH2 0x6A4 JUMPI PUSH1 0x0 DUP1 REVERT JUMPDEST PUSH1 0x40 MLOAD PUSH1 0x20 DUP2 ADD DUP2 DUP2 LT PUSH8 0xFFFFFFFFFFFFFFFF DUP3 GT OR ISZERO PUSH2 0x6C7 JUMPI PUSH2 0x6C7 PUSH2 0x33C JUMP JUMPDEST PUSH1 0x40 MSTORE SWAP2 MLOAD DUP3 MSTORE POP SWAP2 SWAP1 POP JUMP JUMPDEST DUP1 MLOAD PUSH2 0x3D0 DUP2 PUSH2 0x3AD JUMP JUMPDEST DUP1 MLOAD PUSH5 0xFFFFFFFFFF DUP2 AND DUP2 EQ PUSH2 0x3D0 JUMPI PUSH1 0x0 DUP1 REVERT JUMPDEST DUP1 MLOAD PUSH2 0xFFFF DUP2 AND DUP2 EQ PUSH2 0x3D0 JUMPI PUSH1 0x0 DUP1 REVERT JUMPDEST DUP1 MLOAD PUSH1 0x1 PUSH1 0x1 PUSH1 0xA0 SHL SUB DUP2 AND DUP2 EQ PUSH2 0x3D0 JUMPI PUSH1 0x0 DUP1 REVERT JUMPDEST PUSH1 0x0 PUSH2 0x1E0 DUP3 DUP5 SUB SLT ISZERO PUSH2 0x730 JUMPI PUSH1 0x0 DUP1 REVERT JUMPDEST PUSH2 0x738 PUSH2 0x352 JUMP JUMPDEST PUSH2 0x742 DUP5 DUP5 PUSH2 0x692 JUMP JUMPDEST DUP2 MSTORE PUSH2 0x750 PUSH1 0x20 DUP5 ADD PUSH2 0x6D4 JUMP JUMPDEST PUSH1 0x20 DUP3 ADD MSTORE PUSH2 0x761 PUSH1 0x40 DUP5 ADD PUSH2 0x6D4 JUMP JUMPDEST PUSH1 0x40 DUP3 ADD MSTORE PUSH2 0x772 PUSH1 0x60 DUP5 ADD PUSH2 0x6D4 JUMP JUMPDEST PUSH1 0x60 DUP3 ADD MSTORE PUSH2 0x783 PUSH1 0x80 DUP5 ADD PUSH2 0x6D4 JUMP JUMPDEST PUSH1 0x80 DUP3 ADD MSTORE PUSH2 0x794 PUSH1 0xA0 DUP5 ADD PUSH2 0x6D4 JUMP JUMPDEST PUSH1 0xA0 DUP3 ADD MSTORE PUSH2 0x7A5 PUSH1 0xC0 DUP5 ADD PUSH2 0x6DF JUMP JUMPDEST PUSH1 0xC0 DUP3 ADD MSTORE PUSH2 0x7B6 PUSH1 0xE0 DUP5 ADD PUSH2 0x6F4 JUMP JUMPDEST PUSH1 0xE0 DUP3 ADD MSTORE PUSH2 0x100 PUSH2 0x7C9 DUP2 DUP6 ADD PUSH2 0x706 JUMP JUMPDEST SWAP1 DUP3 ADD MSTORE PUSH2 0x120 PUSH2 0x7DB DUP5 DUP3 ADD PUSH2 0x706 JUMP JUMPDEST SWAP1 DUP3 ADD MSTORE PUSH2 0x140 PUSH2 0x7ED DUP5 DUP3 ADD PUSH2 0x706 JUMP JUMPDEST SWAP1 DUP3 ADD MSTORE PUSH2 0x160 PUSH2 0x7FF DUP5 DUP3 ADD PUSH2 0x706 JUMP JUMPDEST SWAP1 DUP3 ADD MSTORE PUSH2 0x180 PUSH2 0x811 DUP5 DUP3 ADD PUSH2 0x6D4 JUMP JUMPDEST SWAP1 DUP3 ADD MSTORE PUSH2 0x1A0 PUSH2 0x823 DUP5 DUP3 ADD PUSH2 0x6D4 JUMP JUMPDEST SWAP1 DUP3 ADD MSTORE PUSH2 0x1C0 PUSH2 0x835 DUP5 DUP3 ADD PUSH2 0x6D4 JUMP JUMPDEST SWAP1 DUP3 ADD MSTORE SWAP4 SWAP3 POP POP POP JUMP INVALID LOG2 PUSH5 0x6970667358 0x22 SLT KECCAK256 EXP 0xF6 0xB7 0xAC EXTCODESIZE 0xE9 SWAP8 AND SWAP5 CALLDATASIZE POP SLT LOG2 0xF8 0xC1 CODESIZE PUSH30 0x1442BDB314D5D55566C7A0230D33E764736F6C6343000812003300000000 "
		},
		"gasEstimates": {
			"creation": {
				"codeDepositCost": "433200",
				"executionCost": "infinite",
				"totalCost": "infinite"
			},
			"external": {
				"getAPY()": "infinite",
				"getListApy()": "infinite",
				"setAPY(uint256,string,uint128)": "infinite"
			}
		},
		"methodIdentifiers": {
			"getAPY()": "d2cbf7ad",
			"getListApy()": "0e00557b",
			"setAPY(uint256,string,uint128)": "01b66723"
		}
	},
	"abi": [
		{
			"inputs": [],
			"stateMutability": "nonpayable",
			"type": "constructor"
		},
		{
			"inputs": [],
			"name": "getAPY",
			"outputs": [
				{
					"internalType": "uint128",
					"name": "",
					"type": "uint128"
				}
			],
			"stateMutability": "view",
			"type": "function"
		},
		{
			"inputs": [],
			"name": "getListApy",
			"outputs": [
				{
					"components": [
						{
							"internalType": "uint256",
							"name": "id",
							"type": "uint256"
						},
						{
							"internalType": "string",
							"name": "name",
							"type": "string"
						},
						{
							"internalType": "uint128",
							"name": "apy",
							"type": "uint128"
						}
					],
					"internalType": "struct apyAAVE.apyListStruct[2]",
					"name": "",
					"type": "tuple[2]"
				}
			],
			"stateMutability": "view",
			"type": "function"
		},
		{
			"inputs": [
				{
					"internalType": "uint256",
					"name": "id",
					"type": "uint256"
				},
				{
					"internalType": "string",
					"name": "iName",
					"type": "string"
				},
				{
					"internalType": "uint128",
					"name": "iApy",
					"type": "uint128"
				}
			],
			"name": "setAPY",
			"outputs": [],
			"stateMutability": "nonpayable",
			"type": "function"
		}
	]
}